:100000000C94FC000C9424010C9424010C94240105
:100010000C9424010C9424010C9424010C942401CC
:100020000C9424010C9424010C94730F0C94F10F84
:100030000C9424010C9424010C9424010C942401AC
:100040000C9424010C9424010C9424010C9424019C
:100050000C9424010C9424010C9424010C94290F79
:100060000C9424010C9449120C9423120C94240136
:100070000C9424010C9424010C9424010C9424016C
:100080000C9424010C9424010C9424010C9424015C
:100090000C9424010C9424010C9424010C9424014C
:1000A0000C9424010C9424010C9424010F0D0806D7
:1000B0000E0B07050C0A0403090201001F1E1D1C7C
:1000C00018191A1B14151617101112130F0D080604
:1000D0000E0B07050C0A0403090201001F1E1D1C5C
:1000E00018191A1B1415161710111213080B0002F9
:1000F00002020000090400000102020000052400C1
:100100001001052401010104240206052406000152
:100110000705810310004009040100020A000000E5
:1001200007050202400000070583024000000403A7
:10013000090412010002EF020140501D4F6100014D
:100140000102030141726475696E6F005348494BA7
:10015000204E333242000405020706050401000860
:100160000A0B0C0D0900000000240027002A002DB6
:1001700000300000000000250028002B002E003178
:1001800000000000002300260029002C002F00049E
:10019000040404040304050202020204030202022E
:1001A0000206060606060604040202020404040807
:1001B000020110408040102040804080080204016D
:1001C00080402010020110801020404020000000DC
:1001D0000200090F0000030401000C0000000000F1
:1001E0000000000000000000000000007E306D797B
:1001F000335B5F707F7B7B1211241FBECFEFDAE091
:10020000DEBFCDBF11E0A0E0B1E0EAE5FEE402C050
:1002100005900D92A238B107D9F727E0A2E8B1E026
:1002200001C01D92AD3AB207E1F710E0CCEFD0E08B
:1002300004C02197FE010E943325CB3FD107C9F7A7
:100240000E9449150C942B270C940000CF93DF9348
:100250001F92CDB7DEB76983DC01ED91FC9102807E
:10026000F381E02D41E050E0BE016F5F7F4F0995C3
:100270000F90DF91CF91089581508F3008F047C0E3
:10028000E82FF0E0EA5BFE4F0C9433256301670131
:1002900055015B015F018701870187016A017001D8
:1002A000740178017E0187018201809180008F773F
:1002B000809380000895809180008F7DF9CF809198
:1002C0008000877FF5CF84B58F7784BD089584B58E
:1002D0008F7DFBCF809190008F7780939000089561
:1002E000809190008F7DF9CF80919000877FF5CF2E
:1002F0008091C0008F778093C00008958091C000E6
:100300008F7DF9CF8091C200877F8093C2000895CE
:10031000CF93DF93282F30E0F901E353FE4F849110
:10032000F901E255FE4FD491F901E157FE4FC49116
:10033000CC23A1F081110E943C01EC2FF0E0EE0FE4
:10034000FF1FEF57FE4FA591B491EC91ED2381E093
:1003500090E009F480E0DF91CF91089580E090E093
:10036000FACF1F93CF93DF93282F30E0F901E353A7
:10037000FE4F8491F901E255FE4FD491F901E15706
:10038000FE4FC491CC23A9F0162F81110E943C018D
:10039000EC2FF0E0EE0FFF1FED58FE4FA591B4914A
:1003A0008FB7F894EC91111108C0D095DE23DC933F
:1003B0008FBFDF91CF911F910895DE2BF8CFCF93A0
:1003C000DF9390E0FC01E255FE4F249181579E4F50
:1003D000FC0184918823C9F090E0880F991FFC01EB
:1003E000EB59FE4FA591B491FC01ED58FE4FC5911C
:1003F000D49161110DC09FB7F8948C912095822300
:100400008C938881282328839FBFDF91CF91089503
:10041000623051F49FB7F8943C91822F80958323EA
:100420008C93E8812E2BEFCF8FB7F894EC912E2B85
:100430002C938FBFEACF3FB7F8948091AB02909195
:10044000AC02A091AD02B091AE0226B5A89B05C04A
:100450002F3F19F00196A11DB11D3FBFBA2FA92F43
:10046000982F8827BC01CD01620F711D811D911D40
:1004700042E0660F771F881F991F4A95D1F70895AC
:100480008F929F92AF92BF92CF92DF92EF92FF92A4
:100490004B015C010E941B026B017C010E941B024C
:1004A0006C197D098E099F09683E7340810591058D
:1004B000A8F321E0821A9108A108B10888EEC80EBD
:1004C00083E0D81EE11CF11C81149104A104B10445
:1004D00029F7FF90EF90DF90CF90BF90AF909F9063
:1004E0008F9008952FB7F8946091A7027091A80299
:1004F0008091A9029091AA022FBF08958093E900EC
:100500008091F200882319F08AE38093E80008952F
:1005100083E00C947E0240919001509191012091D2
:100520008E0130918F0142175307B4F49091E80087
:100530009570E1F39091E80092FD19C08093F1006D
:10054000809190019091910101968F739927892B49
:1005500019F48EEF8093E8008091900190919101C1
:100560000196909391018093900181E0089580E03D
:100570000895EF92FF920F931F93CF93DF93F82E7E
:10058000192FE62E042F81E0860F880F0E948B0220
:1005900083E00E948B02CF2DD12FEC0EFD2EF11C9B
:1005A000CE15DF05B9F007FF13C0FE0184910E944C
:1005B0008B02182F80E00E948B02812321968111EB
:1005C000EFCFDF91CF911F910F91FF90EF900895A2
:1005D0008881EDCF81E0F5CFDF92EF92FF920F930C
:1005E0001F93CF93DF93D82E8A01EB017B01E40E9A
:1005F000F51ECE15DF0559F0D7FE12C0FE0184911D
:100600000E948B0221968111F4CF0FEF1FEFC801DA
:10061000DF91CF911F910F91FF90EF90DF900895A0
:100620008881EECF2FB7F89487708093E90090917E
:10063000E800892F807295FF04C09091F20080E459
:10064000891B2FBF089583E00E94120390E0089554
:100650007F928F929F92AF92BF92CF92DF92EF9252
:10066000FF920F931F93CF93DF93C82E8B017A01D4
:1006700080919701811110C08FEF9FEFDF91CF9193
:100680001F910F91FF90EF90DF90CF90BF90AF90B0
:100690009F908F907F9008958091950180FF05C075
:1006A0008091E00082608093E000CE2DDF2DD12C80
:1006B0008AEFB82E8C2D8770982E8C2D8072882E04
:1006C0008C2D8074782E9AE3A92E209719F4DD20C2
:1006D00009F452C08C2D0E94120381110AC0BA94F1
:1006E000BB2051F261E070E080E090E00E944002A7
:1006F000ECCF8C171D0611F00CF08C2F9FB7F894DF
:100700009092E9002091E80025FD02C09FBFDDCF57
:10071000282F30E0C21BD30B882029F08150A0F095
:100720001092F100FBCFF801C7FC0AC0815050F0D5
:1007300041914093F100FACF44914093F1003196FA
:100740008150D0F7020F131FDD2021F0A092E800A6
:10075000D12CDCCF8091E80085FD07C0A092E80095
:10076000DD24D394209791F2F3CF209779F6772068
:1007700069F2A092E800CACF5D9884E68093940164
:10078000C7017CCFCF93DF93EC0180910B018823CD
:1007900031F083E00E9428031816190634F081E036
:1007A00090E09B838A8380E090E0DF91CF91089571
:1007B00090919701992319F13FB7F894877080932E
:1007C000E9008091F20090E0481759070CF4CA0143
:1007D000282FFB0154E6215038F0289850939301BC
:1007E0004091F1004193F7CF009739F02091F2004A
:1007F000211103C02BE62093E8003FBF08958FEF3F
:100800009FEF08950F931F93CF93DF931F92CDB760
:10081000DEB78C01FC018485958597FF0FC041E010
:1008200050E0BE016F5F7F4F82E00E94D8030197C6
:1008300071F4898190E0F80195878487F8018485B7
:1008400095850F90DF91CF911F910F9108958FEFB4
:100850009FEFF1CFCF93DF931F92CDB7DEB7FC01AF
:100860008485958597FD08C02FEF3FEF3587248756
:100870000F90DF91CF91089541E050E0BE016F5F8E
:100880007F4F82E00E94D803019719F4898190E09C
:10089000EFCF8FEF9FEFECCF9FB7F89487708093E7
:1008A000E9008091F2009FBF0895FC018485958541
:1008B00097FD06C082E00E944C0490E001960895E6
:1008C00082E00E944C0490E00895615030F0209145
:1008D000F100FC0120830196F8CF289884E68093EC
:1008E00093010895AF92BF92CF92DF92EF92FF9261
:1008F0000F931F93CF93DF936C017B018B01040F48
:10090000151FEB015E01AE18BF08C017D10759F0E3
:100910006991D601ED91FC910190F081E02DC60125
:100920000995892B79F7C501DF91CF911F910F911F
:10093000FF90EF90DF90CF90BF90AF90089580919F
:10094000860181110DC082E08093820184E0809352
:100950008301109285011092840181E080938601C9
:1009600082E891E008950F931F93CF93DF931F9236
:10097000CDB7DEB782E0898342E450E06CEE70E0F0
:1009800080E80E94EC020E949F04DC0112960D9107
:100990001C910115110589F0D801ED91FC9102809F
:1009A000F381E02DBE016F5F7F4FC801099597FD70
:1009B00004C0F80100851185ECCF89810F90DF918B
:1009C000CF911F910F910895FC01538D448D252FD8
:1009D00030E0842F90E0821B930B541710F0CF96D9
:1009E000089501970895FC01918D828D981761F00B
:1009F000A28DAE0FBF2FB11D5D968C91928D9F5F22
:100A00009F73928F90E008958FEF9FEF0895FC0100
:100A1000918D828D981731F0828DE80FF11D858DB3
:100A200090E008958FEF9FEF0895FC01918D228D46
:100A3000892F90E0805C9F4F821B91098F739927CB
:100A4000089584E296E00E94150521E0892B09F4BF
:100A500020E0822F089580E090E0892B29F00E9409
:100A6000210581110C9400000895FC01A48DA80FAC
:100A7000B92FB11DA35ABF4F2C91848D90E00196E0
:100A80008F739927848FA689B7892C93A089B18900
:100A90008C9182748C93938D848D981306C00288F8
:100AA000F389E02D80818F7D80830895EF92FF92FE
:100AB0000F931F93CF93DF93EC0181E0888F9B8D81
:100AC0008C8D981319C0E889F989808185FF14C03D
:100AD0009FB7F894EE89FF896083E889F98980815E
:100AE000827480839FBF81E090E0DF91CF911F915E
:100AF0000F91FF90EF900895F62E0B8D10E00F5F91
:100B00001F4F0F731127E02E8C8D8E110CC00FB666
:100B100007FCFACFE889F989808185FFF5CFCE01FE
:100B20000E943505F1CFEB8DEC0FFD2FF11DE35A3F
:100B3000FF4FF0829FB7F8940B8FEA89FB89808181
:100B40008062CFCFCF93DF93EC01888D8823B9F0FB
:100B5000AA89BB89E889F9898C9185FD03C08081C8
:100B600086FD0DC00FB607FCF7CF8C9185FFF2CF45
:100B7000808185FFEDCFCE010E943505E9CFDF9161
:100B8000CF910895CF92DF92EF92FF920F931F9330
:100B9000CF93DF93EC0188810E9488018C010E9431
:100BA0007202288939892017310731F06A8B7B8BD3
:100BB0008C8B9D8B198B088BCA88DB88EC88FD8811
:100BC0006C197D098E099F09CA80DB80EC80FD804D
:100BD0006C157D058E059F0530F08E859F859D8760
:100BE0008C871F870E872C853D858E859F852817CE
:100BF000390781F04A855B8542305105A1F48E8129
:100C00009F81A885B9850196A11DB11D8E839F8303
:100C1000A887B987DF91CF911F910F91FF90EF9037
:100C2000DF90CF9008954115510531F42130310501
:100C300089F7892B21F3EECF4130510559F7232B4A
:100C400049F7019739F7DBCF90E080E0089580E025
:100C500008950F931F93CF93DF93CDB7DEB7C4569C
:100C6000D1090FB6F894DEBF0FBECDBFFC01DB018A
:100C70009C919E5F9C939E01295F3F4F8AE5D9011D
:100C80001D928A95E9F788E089838BE08A8322E0C8
:100C90002C8391E09D839E8339E0398764E06A87E5
:100CA0009E879F873A8B44E24B8B9C8BA0E0B1E000
:100CB000BE8BAD8B09E010E0188F0F8B998F3B8FA7
:100CC0006C8F2F8F98A353E059A387E08CA34DA37B
:100CD0009EA3B8A7AFA3A1E4B0E0BAA7A9A786E0F6
:100CE0008BA74CA72DA79EA79FA789AB4AAB2BAB81
:100CF0002CAB2DAB3FAB48AF59AF9AAF5BAF9CAFBE
:100D00002DAF9EAF21963FAF219722964FAF2297EE
:100D100023965FAF239724962FAF249725966FAF26
:100D2000259726969FAF269727969FAF27972896B9
:100D30009FAF28972A963FAF2A9745E02B964FAF53
:100D40002B972D962FAF2D9760E470E02F967FAFF5
:100D50006EAF2F9763964FAF639785E264968FAF20
:100D6000649765969FAF659766969FAF66976796FF
:100D70009FAF679768963FAF689769964FAF69973F
:100D80006B962FAF6B976D967FAF6EAF6D97A196F9
:100D90004FAFA197A2968FAFA297A3969FAFA397AD
:100DA000A4969FAFA497A5965FAFA59792819B83CA
:100DB0009B879F5F9A8F9D8F83812C968FAF2C97F7
:100DC0008F5F80686A968FAF6A9744E650E0BE01F5
:100DD0006F5F7F4F80E00E94EC02CC59DF4F0FB66F
:100DE000F894DEBF0FBECDBFDF91CF911F910F9161
:100DF000089587FF0AC09CE0980F923030F08D3F35
:100E000021F0803F18F4807F089580E00895982FA6
:100E10009F7E282F2F7C203839F0803E29F081E0FA
:100E2000903C19F080E0089581E00895CF93DF931E
:100E3000EC01E881F981309711F0CB9609958CADE2
:100E4000823F09F49EC090F5803C09F486C090F47E
:100E5000803909F454C030F4803809F445C0DF917A
:100E6000CF910895803A09F475C0803BC1F7EA85B7
:100E7000FB853CC0803E09F459C058F4803D79F7A9
:100E8000EE85FF85309759F36DAD8BADDF91CF9136
:100E90000994803F09F464C0813F09F7EC89FD891A
:100EA0003097E9F28DADDF91CF9109948A3F91F1AE
:100EB00080F4863F09F477C028F4833F81F6E88DFB
:100EC000F98DEECF883FF1F0893F49F6E8A1F9A10D
:100ED0001BC08C3F29F108F18E3F29F18F3F09F0AB
:100EE000BECFE8A5F9A510C0EC81FD81309709F4CB
:100EF000B6CF4EAD6DAD8BADDF91CF910994EE8144
:100F0000FF81F4CFEC8DFD8D309709F4A8CFDF91F0
:100F1000CF910994EE8DFF8DF7CFEAA1FBA1F4CF1D
:100F2000ECA1FDA1F1CFEEA1FFA1EECFE889F989F7
:100F3000309709F494CF6EAD20E8629FB001112480
:100F400060787F738DAD8F77682B70528BADDF919A
:100F5000CF910994E885F985C9CFEC85FD8592CFBD
:100F6000EA89FB89309709F47ACF6DAD7EAD61389F
:100F7000710510F060E870E0CE01CF96DF91CF915F
:100F80000994EE89FF89309709F469CF8EAD20E886
:100F9000829FC001112480789F732DAD2F77822B03
:100FA000DF91CF910994EA8DFB8DAECFDC018D915D
:100FB0009C91DC01ED91FC910190F081E02D099470
:100FC0000F931F93CF93DF93FC01EC57FF4F2081CA
:100FD000222309F450C0EC01688161506F7089814F
:100FE000682B80917E0590917F050E94D6078981AC
:100FF000803FF9F08E010B571F4FF80180819181DE
:10100000029738F06A8180917E0590917F050E9459
:10101000D607F80180819181039768F16B818091F7
:101020007E0590917F05DF91CF911F910F910C94D8
:10103000D60760EF80917E0590917F050E94D607CC
:101040008E01A8014C1B5D0B80917E0590917F0560
:101050000F5F1F4F2A813B812138310510F020E8B6
:1010600030E04217530728F4F80163810E94D60745
:10107000E8CF67EFD8CFDF91CF911F910F910895FF
:101080001F93CF93DF932150203118F587FF21C0A4
:10109000D42F162FC82F622F682B80917E05909138
:1010A0007F050E94D607612F6F7780917E05909112
:1010B0007F050E94D607CF7EC03C59F06D2F6F7719
:1010C00080917E0590917F05DF91CF911F910C94C7
:1010D000D607DF91CF911F910895242F462F682FB7
:1010E00080EB0C9440086D3F48F46A3F10F4683F71
:1010F00039F4FC01808191810C94D6076E3FC8F7CA
:101100000895813E10F40C944008883F28F0682F21
:101110008EE795E00C94730808950F93CF93DF93B7
:10112000F901DB012C91EA013881231B330B2F5F7E
:101130003F4F3695322F222737952795DC010E94A5
:101140001025DC01CB017EE0B695A7959795879594
:101150007A95D1F78115D0E49D07A105B10520F05E
:101160008FEF9FE3A0E0B0E0002331F08F77808322
:10117000DF91CF910F91089527E0B695A7959795A8
:1011800087952A95D1F78083EA016881680F60838B
:10119000EFCF0F931F93F80190E002C095958795CC
:1011A0006A95E2F780FF08C0D9018C919081891B74
:1011B000DA019C91890F80831F910F9108950F93FD
:1011C0001F93CF93DF9300D000D0CDB7DEB7FC01E3
:1011D000208991898289378539832A839B838C83EF
:1011E00000E013E0F801838144E050E0BE016F5F4E
:1011F0007F4F8F5F0E942803F80183818F5F0E94D9
:101200007E020F900F900F900F90DF91CF911F9162
:101210000F9108950F931F93CF93DF9300D000D0C9
:10122000CDB7DEB78C01262FFC01848195813681F4
:10123000303FD9F0009711F4208B04C08130910524
:1012400081F4618BF8018481958101969583848373
:101250000F900F900F900F90DF91CF911F910F91F2
:101260000895029779F7628BEDCF603F49F4838947
:10127000F0E18F9FC00111248460F8018787DCCFE3
:1012800063E070E00E941F25AC01273F39F4938989
:101290009295907F85E0840F982B9787F8014115F0
:1012A000510521F4208B128A118ACCCF413051058F
:1012B00019F4218B128AC6CF228B273F19F290890D
:1012C0008189378539839A838B832C8380910303AB
:1012D00044E050E0BE016F5F7F4F8F5F0E942803A4
:1012E000809103038F5F0E947E02ACCFDC011696D3
:1012F0006C93169753968C91539720E1829FC0016F
:101300001124603FE8F4E62FE295EF70E750FF0B01
:10131000EE0FFF1FE35EFE4F9181892B1F968C938A
:101320001F9752961C92529751961C925197509625
:101330001C92509715961C921E92149781E0089566
:101340008460ECCF0F931F93CF93DF93DFEFD20F27
:10135000D03198F587FF31C0142F062FC82F682F82
:101360008091ED069091EE060E947609882329F17E
:101370006D2F6C2B8091ED069091EE060E940A096C
:10138000602F6F778091ED069091EE060E940A091A
:10139000CF7EC03C41F0612F6F778091ED06909138
:1013A000EE060E940A098091ED069091EE06DF910B
:1013B000CF911F910F910C94DF08DF91CF911F9176
:1013C0000F910895242F462F682F80EB0C94A209CB
:1013D0000F931F93CF93DF93C82FD62F142F022F75
:1013E0008D7F813029F4422F612F8D2F0E946D084F
:1013F000C250C23048F4402F612F8D2FDF91CF9122
:101400001F910F910C94E209DF91CF911F910F91E1
:101410000895BF92CF92DF92EF92FF920F931F93A6
:10142000CF93DF938C016B01B42EE52EF22E60EF8B
:10143000FC01808191810E947609882351F181E02D
:10144000F82631F060EFF801808191810E940A094D
:10145000CB2DDE2DCC0EDD1EF80180819181CC15C7
:10146000DD0521F069910E940A09F6CFFF2019F0ED
:1014700067EF0E940A09F80180819181DF91CF9185
:101480001F910F91FF90EF90DF90CF90BF900C9441
:10149000DF08DF91CF911F910F91FF90EF90DF90C8
:1014A000CF90BF9008950F931F93CF936D3FD8F4C3
:1014B0006A3F10F4683FC9F4C62F8C01FC0180819B
:1014C00091810E947609882381F06C2FF801808138
:1014D00091810E940A09F80180819181CF911F9129
:1014E0000F910C94DF086E3F38F7CF911F910F9149
:1014F0000895813E10F40C94A209883F28F0682FCB
:101500008DEE96E00C94530A08950F931F93CF939A
:10151000DF93082F162FD42FC8E06D2F661F662784
:10152000661F802F0E94B101DD0F61E0812F0E94B4
:10153000B10160E0812F0E94B101C15071F7DF91CC
:10154000CF911F910F9108950F931F93CF93DF9326
:1015500000D0CDB7DEB78C0169834A8360E0FC011F
:1015600082810E94B1014981F801648180810E94D9
:10157000850A4A81F801648180810E94850A61E0C0
:10158000F80182810F900F90DF91CF911F910F9101
:101590000C94B1010F931F93CF93DF938C01C1E0A3
:1015A000D0E0F801868197818C179D073CF040E0E0
:1015B0006C2FC8010E94A40A2196F3CFDF91CF912E
:1015C0001F910F91089584E495E00E94CA0A40E8B3
:1015D00062E084E495E00E94A40A0E947202609393
:1015E0004C0570934D0580934E0590934F050895DB
:1015F000CF93DF93EC0189818E3FD9F09091340431
:10160000923041F0953079F0913049F4CE010E944A
:10161000E00705C028814B816A810E94790ADF9129
:10162000CF910C94E30A28814B816A810E94790A48
:10163000EDCFDF91CF910895CF93DF93EC018981B6
:101640008E3FD1F090913404943091F0953059F060
:10165000933029F428814B816A810E94790ADF91B5
:10166000CF910C94E30A28814B816A810E94790A08
:10167000CE010E94E007F3CFDF91CF910895AF92A2
:10168000BF92CF92DF92EF92FF920F931F93CF936F
:10169000DF93CDB7DEB7A2970FB6F894DEBF0FBECB
:1016A000CDBF2AE0AE014F5F5F4F5A010E94232455
:1016B000F50101900020E9F731978F010A191B0904
:1016C000B8016F5F7F4F90E080E00E945E267C0152
:1016D000009761F1FC011082B5010E942427D12CF2
:1016E000C12CC016D10629F1F701EC0DFD1DE11446
:1016F000F10421F41092AF02EFEAF2E080818983D5
:101700001A824AE050E070E060E0C5010E940323C5
:10171000FB01E451FE4F4491602F6C1984E495E085
:101720000E94A40AFFEFCF1ADF0ADBCF10E000E02F
:10173000D6CFE114F10499F0C701A2960FB6F89440
:10174000DEBF0FBECDBFDF91CF911F910F91FF90F4
:10175000EF90DF90CF90BF90AF900C94D525A296DC
:101760000FB6F894DEBF0FBECDBFDF91CF911F91B2
:101770000F91FF90EF90DF90CF90BF90AF900895C2
:10178000CF93C82F84E495E00E94CA0A6C2F70E0C2
:1017900090E080E00E943F0B0E94720260934C0533
:1017A00070934D0580934E0590934F05CF9108950A
:1017B000CF93C82F84E495E00E94CA0A6C2F70E092
:1017C0006F5F7F4F072E000C880B990B0E943F0B19
:1017D00047E662E084E495E00E94A40A0E94720257
:1017E00060934C0570934D0580934E0590934F0583
:1017F000CF910895CF92DF92EF92FF921F93CF93F4
:10180000DF93182F81E291E0189F6001199FD00C9F
:10181000112484E1E82E83E0F82EC1E0D0E0C60177
:101820008C0F9D1F0E946724F70181937F012196F1
:10183000C232F1E0DF0799F710931605812FDF918F
:10184000CF911F91FF90EF90DF90CF900C94D80B29
:10185000833010F40C94FA0B0895862F633010F443
:101860000C94280C08950F931F93CF93C82F8823AF
:1018700029F11092A5020E9472020091A00210911B
:10188000A1022091A2023091A302601B710B820B76
:10189000930B6F3F71058105910588F580911705C0
:1018A0008823D9F080911605CC2389F0823048F442
:1018B0008F5FCF911F910F910C94280C1092A4026E
:1018C000DACF80E0CF911F910F910C94FA0B88230F
:1018D00011F08150EECF82E0F5CF80911505CC2339
:1018E00049F08F708F5F80931505CF911F910F91F5
:1018F0000C94C00B90E00E968F709927F3CFCF9188
:101900001F910F910895FF920F931F93CF93DF9331
:10191000EC01F62E08811981C8010E946724F8168F
:1019200021F06F2DC8010E946F24CE01DF91CF916D
:101930001F910F91FF900895DF92EF92FF920F9306
:101940001F93CF93DF93CDB7DEB761970FB6F894AF
:10195000DEBF0FBECDBFDC016430710508F4A6C048
:1019600011968C911197803209F0A0C01296EC91DB
:101970001297E150E83008F099C0F0E0EE53F34FD1
:101980000C943325CA0C690DC50DD40DF50DCA0D87
:10199000560D640D14962C91149713968C911397F1
:1019A00069E0689FC00111248C5E9C4FFC0120837C
:1019B00015962C91159713968C911397689FC001DB
:1019C00011248C5E9C4FFC0121831A962C911A974E
:1019D00013968C911397689FC00111248C5E9C4FC5
:1019E000FC0122831B962C911B9713968C911397C5
:1019F000689FC00111248C5E9C4FFC0124831C96BF
:101A00002C911C9713968C911397689FC0011124F9
:101A10008C5E9C4FFC0123831D962C911D97139681
:101A20008C911397689FC00111248C5E9C4FFC0120
:101A3000258313968C911397689FC00111248C5EA7
:101A40009C4F16962C911697F0E12F9FA001112420
:101A500017962C911797242BFC01278313968C91B2
:101A60001397689FC00111248C5E9C4F18962C918F
:101A70001897F4E02F9FA001112419962C91199723
:101A8000242BFC01268313968C911397689FF001F9
:101A90001124EC5EFC4F1F968C911F9790E1899F5B
:101AA000900111241E968C91822B808761960FB62F
:101AB000F894DEBF0FBECDBFDF91CF911F910F9184
:101AC000FF90EF90DF90089513968C9180933404EB
:101AD000EDCF13962C91233048F741E251E0249F3B
:101AE000C001259F900D112404E113E0FC01E45195
:101AF000F3407F01F80161918F01C7018E0F9F1F95
:101B00009A838983CE0101960E94830CF4E0053309
:101B10001F0781F784E495E00E94CA0A4BE562E062
:101B200084E495E00E94A40A4CE161E084E495E03D
:101B30000E94A40A6CE271E080E090E00E94400202
:101B40004CE961E084E495E00E94A40A6CE271E053
:101B500080E090E00E9440024CE161E084E495E086
:101B60000E94A40A6CE271E080E090E00E944002D2
:101B70004CE961E084E495E00E94A40A6CE271E023
:101B800080E090E00E94400291CF13968C910E94D9
:101B9000280C8CCF13968C919FEF980F903108F002
:101BA00085CF8093150582CF1B821C821D8280E227
:101BB000898384E08A838DEF93E00E9467248D837C
:101BC0008EEF93E00E9467248C838FEF93E00E9456
:101BD00067248B8320E0AE014F5F5F4F65E070E0CC
:101BE0008DEE96E00E94090A61CF0CEC10E069E0EE
:101BF000D62E70E2F72EE5E0EE2EF801A591B49115
:101C0000AD9DD0011124AC5EBC4F17962C91179757
:101C100016969C91169718968C911897F982EA82DD
:101C2000F801459154914B833C913C8311963C9132
:101C300011973D83422F50E034E0559547953A95F2
:101C4000E1F74E832F702F83292F30E035952795AC
:101C50003595279528879370998712969C911297AE
:101C60009A8714969C9114979B8713969C9113972F
:101C70009C8715969C919D87982F9F709E8790E0DA
:101C800054E0959587955A95E1F78F8720E0AE014E
:101C90004F5F5F4F6FE070E08DEE96E00E94090AA3
:101CA0000F5F1F4F20E00C3E120709F0A6CFF9820C
:101CB00088E08A83809134048B8320E0AE014F5FFB
:101CC0005F4F63E070E08DEE96E00E94090AF88AAB
:101CD00083E6898B20E0AE01405F5F4F62E070E0F9
:101CE0007FCF8F929F92AF92BF92DF92EF92FF923F
:101CF0000F931F93CF93DF93CDB7DEB7C352D1407D
:101D00000FB6F894DEBF0FBECDBF1A82198260E015
:101D10008E010F5F1F4FC8010E94830C2CEA30E038
:101D200080E079E09FE75FE040E1F901A591B4919F
:101D3000F801A79FE00DF11D1124808360E2680F78
:101D4000618312821382948395835683178240871E
:101D50008F5F2F5F3F4F803241F7CF5DDE4F18829C
:101D6000C152D140AA24BB24A01AB10A83E0D82EC4
:101D700048018FED881A8EEF980A7801F70161917A
:101D80007F01CF018A0D9B1DCE5DDE4F9983888335
:101D9000C252D140CE018E5D9E4F0E94830C8E14A4
:101DA0009F0461F7DA94FFEDAF1AFEEFBF0AD1107E
:101DB000E4CFE8E5F1E0659174918DEF93E0CE5DBD
:101DC000DE4F99838883C252D140CE018E5D9E4FF3
:101DD0000E94830CE7E5F1E0659174918EEF93E04A
:101DE000CE5DDE4F99838883C252D140CE018E5D95
:101DF0009E4F0E94830CE6E5F1E0659174918FEFB0
:101E000093E0CE5DDE4F99838883C252D140CE01EC
:101E10008E5D9E4F0E94830CCD5DDE4F0FB6F89411
:101E2000DEBF0FBECDBFDF91CF911F910F91FF900D
:101E3000EF90DF90BF90AF909F908F90089584E0D7
:101E4000EDE7F1E0DB0101900D928A95E1F784E086
:101E500008951F920F920FB60F9211242F933F9364
:101E60008F939F93AF93BF938091A7029091A80205
:101E7000A091A902B091AA023091A60223E0230FFB
:101E80002D3758F50196A11DB11D2093A602809310
:101E9000A7029093A802A093A902B093AA028091EE
:101EA000AB029091AC02A091AD02B091AE0201964E
:101EB000A11DB11D8093AB029093AC02A093AD0223
:101EC000B093AE02BF91AF919F918F913F912F91AF
:101ED0000F900FBE0F901F90189526E8230F0296C3
:101EE000A11DB11DD2CF1F920F920FB60F921124D8
:101EF0002F933F934F935F936F937F938F939F9312
:101F0000AF93BF93CF93EF93FF93C091E100809184
:101F1000E100837F8093E100C3FF0FC01092E900CE
:101F200081E08093EB001092EC0082E38093ED005F
:101F30001092970188E08093F000C2FF1BC083E0FD
:101F40000E947E0280919401882341F08091940147
:101F5000815080939401811101C05D9A8091930119
:101F6000882341F0809193018150809393018111E6
:101F700001C0289AC4FF23C08091E2008E7E816058
:101F80008093E2008091E1008F7E8093E100809158
:101F900095018E7E806180939501FF91EF91CF91A5
:101FA000BF91AF919F918F917F916F915F914F9171
:101FB0003F912F910F900FBE0F901F901895C0FF6B
:101FC000ECCF8091E2008E7E80618093E200809170
:101FD000E1008E7E8093E100809195018E7E81608C
:101FE000DACF1F920F920FB60F921124CF92DF9289
:101FF000EF92FF920F931F932F933F934F935F9313
:102000006F937F938F939F93AF93BF93EF93FF93C0
:10201000CF93DF93CDB7DEB76C97DEBFCDBF109205
:10202000E9008091E80083FF25C068E0CE01459675
:102030000E94650482EF8093E8008D8987FF39C094
:102040009091E80090FFFCCF982F907609F034C172
:102050009E894F89588D2F89F88C911131C0803815
:1020600061F5809196018093F1001092F1008EEF5E
:102070008093E8006C960FB6F894DEBF0FBECDBF1C
:10208000DF91CF91FF91EF91BF91AF919F918F9190
:102090007F916F915F914F913F912F911F910F9180
:1020A000FF90EF90DF90CF900F900FBE0F901F909A
:1020B00018959EEF9093E800C7CF1092F100D5CF0E
:1020C000913059F48111D3CF4130510581F680917F
:1020D00096018D7F80939601CACF933049F4811188
:1020E000C6CF4130510519F6809196018260F2CF3A
:1020F000953041F48091E80080FFFCCF2068209368
:10210000E300B5CF963009F0A9C00B8D1C8D22E0FD
:102110001092E9001092910110929001F2122EC0DB
:1021200010928F0110928E010E94B3041F8299E0D9
:102130009983FA8291E09E8390EA98879AEF998733
:102140002091900130919101275F3F4F3C832B8379
:102150008D831092E90010929101109290011093DA
:102160008F0100938E0149E050E0BE016F5F7F4F09
:1021700080E00E94EC020E94B30479CF10938F019B
:1021800000938E010E949F04DC0112960D911C9118
:102190000115110509F451C1D801ED91FC9104809C
:1021A000F581E02DBE016B5E7F4FC8010995009758
:1021B00009F03EC1F80100851185EACFF3E0FF1276
:1021C0000EC08F89882309F440C0823061F440E852
:1021D00069E08CE491E00E94B902811148CF81E26C
:1021E0008093EB0047CF813029F440E867E084E436
:1021F00091E0F1CF833099F70E949F04DC011296A1
:10220000ED90FC908E010F5F1F4F6801E114F10407
:1022100079F0D701ED91FC910680F781E02DB801AE
:10222000C7010995080F111DF701E084F184EECF75
:10223000D8011C92F60101900020E9F73197BF0107
:102240006C197D0940E0C601C6CF6EE271E0FB016A
:10225000449150E080E80E94EC0209CF973009F4E5
:10226000BECF983021F481E08093F10000CF993007
:1022700009F0FDCE837009F0B2CFEDE0F1E081E02E
:1022800031E096E32191222371F08093E9003093AD
:10229000EB00DF0111972C912093EC009093ED005F
:1022A0008F5F873079F78EE78093EA001092EA001B
:1022B0008F8980939701DBCE8B8D9C8D1092E900E6
:1022C000109291011092900190938F0180938E0152
:1022D000898D811192C08E899D89913A49F481320C
:1022E00009F07DCF47E050E064E071E080E0B3CFDB
:1022F000913209F074CF833269F48F89988DB0E000
:10230000A0E08093000190930101A0930201B0939B
:102310000301ADCE803269F48091E80082FFFCCFEA
:1023200067E084E091E00E9465048BEF8093E80011
:102330009ECE823209F09BCE8F8980930B01EEEF07
:10234000FFE7859194918B3F9C4D51F1E0E0F8E0DF
:102350008091040190910501A0910601B0910701BF
:10236000803B9440A105B105F1F480910B0180FD03
:102370001AC0EE3F8AE0F80789F587E797E791836F
:102380008083809160008093920188E19BE00FB68A
:10239000F894A895809360000FBE9093600067CE7C
:1023A000EEEFFAE0D5CF808191818737974709F02A
:1023B0005ECEA895809160008861809360008091D6
:1023C000920180936000EE3F2AE0F20789F080914D
:1023D000FE0A9091FF0A9183808349CE808191818A
:1023E0008737980751F29093FF0A8093FE0AC5CF72
:1023F0001092FF0A1092FE0A3ACE0E949F04DC015E
:1024000012960D911C910115110509F4E8CED80121
:10241000ED91FC910190F081E02DBE016B5E7F4F4C
:10242000C8010995811123CEF80100851185EBCFF4
:10243000181619060CF41BCED2CEF1E0FF12BECE58
:1024400062E371E004CF1F920F920FB60F92112436
:102450002F933F934F935F936F937F938F939F93AC
:10246000AF93BF93EF93FF9384E296E00E9435050C
:10247000FF91EF91BF91AF919F918F917F916F915C
:102480005F914F913F912F910F900FBE0F901F9032
:1024900018951F920F920FB60F9211242F938F93BE
:1024A0009F93EF93FF93E0913406F091350680817E
:1024B000E0913A06F0913B0682FD1BC0908180912D
:1024C0003D068F5F8F7320913E06821741F0E091A9
:1024D0003D06F0E0EC5DF94F958F80933D06FF914E
:1024E000EF919F918F912F910F900FBE0F901F90A2
:1024F00018958081F4CFCF93DF931092B30210929E
:10250000B20288EE93E0A0E0B0E08093B402909332
:10251000B502A093B602B093B70221E531E0309343
:10252000B1022093B0022FEF3FEF3093BD02209312
:10253000BC021092270610922606809328069093DC
:102540002906A0932A06B0932B0683E691E0909388
:102550002506809324068DEC90E0909331068093BD
:1025600030068CEC90E0909333068093320688EC32
:1025700090E0909335068093340689EC90E0909338
:102580003706809336068AEC90E090933906809364
:1025900038068EEC90E090933B0680933A061092BA
:1025A0003D0610923E0610923F061092400682E0D1
:1025B00080930403809305038AE093E090930703DC
:1025C00080930603109209031092080385E791E0B7
:1025D000909301038093000380E880930A0381E8CD
:1025E00080930B030E949F04FC018181909104035E
:1025F000482F490F5527551F483051059CF5A2819A
:10260000B381109709F520E033E0338322832081E2
:10261000209302038093030380910503820F80833C
:1026200020910603A22FB09107038A2F821B8917DE
:10263000C8F481813D91C82FD0E0C45FDE4F38835C
:102640008F5F8183F2CFD90118962D913C91199714
:1026500021153105C1F720E033E019963C932E9304
:102660001897D5CF85E394E090930D0380930C03E6
:1026700088E080930E0389E080930F038091190115
:1026800090911A01A0911B01B0911C01809310033D
:1026900090931103A0931203B09313031092A60713
:1026A0001092C4061092C3061092C6061092C50678
:1026B0001092C8061092C7061092CA061092C90658
:1026C0001092CC061092CB061092CE061092CD0638
:1026D0001092D0061092CF061092D2061092D10618
:1026E0001092D4061092D3061092D6061092D506F8
:1026F0001092D8061092D7061092DA061092D906D8
:102700001092DC061092DB061092DE061092DD06B7
:102710001092E0061092DF061092E2061092E10697
:102720001092E4061092E3061092E6061092E50677
:102730001092E8061092E7061092EA061092E90657
:102740001092EC061092EB0683E997E09093EE0668
:102750008093ED061092EF061092F0061092F106AB
:102760001092F6061092F5061092F8061092F706EF
:102770008FEF9FEF9093FA068093F9069093FC06F3
:102780008093FB0623E02093FD061092FE06109234
:10279000FF0610920007109201071092820720E8AE
:1027A000E2E0F7E0DF01322F1D923A95E9F710924F
:1027B000850710928607109287071092880710925B
:1027C000890710928A0710928B0710928C0710923B
:1027D0008D0710928E0710928F071092900710921B
:1027E00091071092920744E256E05093C20640933C
:1027F000C10610925505109254051092570510927B
:102800005605109259051092580510925B051092CA
:102810005A0510925D0510925C0510925F051092AA
:102820005E0510926105109260051092630510928A
:10283000620510926505109264051092670510926A
:102840006605109269051092680510926B0510924A
:102850006A0510926D0510926C0510926F0510922A
:102860006E0510927105109270051092730510920A
:1028700072051092750510927405109277051092EA
:102880007605109279051092780510927B051092CA
:102890007A0510927D0510927C0541EC56E050932C
:1028A0007F0540937E05109280051092810510925D
:1028B0008205109287051092860510928905109264
:1028C000880590938B0580938A0590938D0580935E
:1028D0008C0583E080938E0510928F0510929005F1
:1028E000109291051092920510921306E3E9F5E01B
:1028F000DF011D922A95E9F710921606109217062D
:10290000109218061092190610921A0610921B06C1
:1029100010921C0610921D0610921E0610921F06A1
:102920001092200610922106109222061092230681
:1029300080E190E090934505809344058AE090E023
:1029400090934705809346058FE090E0909349056A
:102950008093480561E080E10E94DF0161E08091A1
:1029600046050E94DF0161E0809148050E94DF0179
:1029700061E0809146050E94B10185E190E090936D
:102980002F0580932E05109230051092310510927C
:1029900032051092330510923405109235051092CD
:1029A000360510923705109239051092380562E00D
:1029B0000E94DF0180912E050E94880190933B05C3
:1029C00080933A0590933D0580933C0590933F0595
:1029D00080933E05109240051092410510924205E9
:1029E0001092430584E190E09093190580931805B7
:1029F00010921A0510921B0510921C0510921D05CD
:102A000010921E0510921F051092200510922105AC
:102A1000109223051092220562E00E94DF0180914E
:102A200018050E94880190932505809324059093B2
:102A300027058093260590932905809328051092F9
:102A40002A0510922B0510922C0510922D0581E27B
:102A500091E0E4E1F3E0DF019C011D922150304060
:102A6000E1F7E5E3F4E0118210821482138216820A
:102A700015821282379635E0E531F307A1F781E040
:102A8000809315051092160510921705DF91CF91CE
:102A90000895CF93DF93CDB7DEB760970FB6F89464
:102AA000DEBF0FBECDBF789484B5826084BD84B58F
:102AB000816084BD85B5826085BD85B5816085BD39
:102AC00080916E00816080936E00109281008091F1
:102AD0008100826080938100809181008160809379
:102AE00081008091800081608093800080919100BE
:102AF0008260809391008091910081608093910029
:102B0000809190008160809390008091C1008460EA
:102B10008093C1008091C10082608093C100809148
:102B2000C10081608093C1008091C3008160809367
:102B3000C3008091C00082608093C0008091C20079
:102B400081608093C20080917A00846080937A00D3
:102B500080917A00826080937A0080917A0081600F
:102B600080937A0080917A00806880937A00109236
:102B7000970110929601109295018091D700816083
:102B80008093D70080EA8093D80089B5806189BDA1
:102B900089B5826089BD09B400FEFDCF61E070E0B7
:102BA00080E090E00E9440028091D8008F7C80619C
:102BB0008093D8008091E000807F8093E000809136
:102BC000E1008E7E8093E1008DE08093E200559AD3
:102BD000209A40E06AE084E495E00E94A40A82E042
:102BE00090E090934B0580934A0540E06FE084E4C9
:102BF00095E00E94A40A41E06BE084E495E00E9425
:102C0000A40A40E069E084E495E00E94A40A84E418
:102C100095E00E94CA0A41E06CE084E495E00E94DD
:102C2000A40A61E081E00E94DF0161E081E00E948E
:102C3000B10161E081E10E94DF0162E085E10E9473
:102C4000DF0162E084E10E94DF0182E390E0A0E026
:102C5000B0E08093300590933105A0933205B09396
:102C6000330580931A0590931B05A0931C05B09320
:102C70001D0585E10E948801892B91F460E081E1C6
:102C80000E94B1010E947202603A7F408105910565
:102C900010F00C94E32285E10E948801892B91F3C6
:102CA0008DEF93E00E946724E8E5F1E025913491EF
:102CB000821315C08EEF93E00E946724E7E5F1E0F0
:102CC0002591349182130BC08FEF93E00E9467240B
:102CD000E6E5F1E025913491821709F4C5C003E0DF
:102CE00010E061E081E10E94B1016CE271E080E0FE
:102CF00090E00E94400260E081E10E94B1016CE23C
:102D000071E080E090E00E9440020150110949F713
:102D100013E084E495E00E94CA0A40E162E084E4A2
:102D200095E00E94A40A64E670E080E090E00E94D2
:102D3000400284E495E00E94CA0A48E162E084E42B
:102D400095E00E94A40A64E670E080E090E00E94B2
:102D5000400284E495E00E94CA0A4CE162E084E407
:102D600095E00E94A40A64E670E080E090E00E9492
:102D7000400284E495E00E94CA0A4DE062E084E4E7
:102D800095E00E94A40A64E670E080E090E00E9472
:102D9000400284E495E00E94CA0A45E062E084E4CF
:102DA00095E00E94A40A41E061E084E495E00E947D
:102DB000A40A64E670E080E090E00E94400284E4AF
:102DC00095E00E94CA0A41E062E084E495E00E9436
:102DD000A40A41E261E084E495E00E94A40A64E66A
:102DE00070E080E090E00E94400284E495E00E9460
:102DF000CA0A41E661E084E495E00E94A40A64E620
:102E000070E080E090E00E94400284E495E00E943F
:102E1000CA0A42E661E084E495E00E94A40A64E6FE
:102E200070E080E090E00E94400284E495E00E941F
:102E3000CA0A42E461E084E495E00E94A40A40E109
:102E400062E084E495E00E94A40A64E670E080E019
:102E500090E00E94400284E495E00E94CA0A11506A
:102E600009F057CF0E94710E00E113E061E0D80134
:102E70008D918D010E94DF01B3E004311B07B1F792
:102E800060E088E00E94DF0160E089E00E94DF01ED
:102E900090E080E00E9467240E94280C8CE19BE077
:102EA0009093C4068093C30688EF9AE090935505EB
:102EB000809354058CE99CE09093D6068093D506C8
:102EC0008DE29CE09093D0068093CF0690936105AD
:102ED00080936005E091ED06F091EE061582148274
:102EE00016861586148613861092EF061092F10648
:102EF0001092F0061092F8061092F7061092F6065D
:102F00001092F5060FEF1FEF1093FA060093F906E3
:102F10001093FC060093FB060E94720260938507E3
:102F20007093860780938707909388071092820793
:102F30001092FF061092FE061092000710920107F1
:102F400010928407109283078091FD068170826041
:102F50008E7F8093FD06E0917E05F0917F050190C4
:102F6000F081E02DA089B18982E08C93A485B5859C
:102F70001C92A685B7858FE38C93108EA489B589A2
:102F800086E08C93A289B3898C9180618C93A2890D
:102F9000B3898C9188608C93A289B3898C91806865
:102FA0008C930288F389E02D80818F7D808310923D
:102FB0008005109282051092810510928905109269
:102FC0008805109287051092860510938B05009353
:102FD0008A0510938D0500938C050E947202609300
:102FE0001606709317068093180690931906109290
:102FF00013061092900510928F0510929105109271
:103000009205109215061092140680918E0581701B
:103010008260816080938E0515E041E061E084E488
:1030200095E00E94A40A48E062E084E495E00E94F2
:10303000A40A60EA70E080E090E00E94400284E42C
:1030400095E00E94CA0A40E461E084E495E00E94B1
:10305000A40A41E062E084E495E00E94A40A60EAE8
:1030600070E080E090E00E94400284E495E00E94DD
:10307000CA0A48E061E084E495E00E94A40A40E4C2
:1030800062E084E495E00E94A40A60EA70E080E0D7
:1030900090E00E94400284E495E00E94CA0A115028
:1030A00009F0BBCF0E94720260934C0570934D05EE
:1030B00080934E0590934F05B12CA12C10E000E0B9
:1030C000F3EC8F2E912CE0E1CE2EE3E0DE2EF12CFE
:1030D000E12CB8010E2C02C0759567950A94E2F7B1
:1030E0006170F60181916F010E94B101FFEFEF1A4B
:1030F000FF0A24E0E216F10461F7C4010197F1F739
:1031000081E090E0003110F490E080E0845F9C4F1B
:10311000DC011296EC91E23108F0E251F0E0E75A5E
:10312000FE4FE49190917B008E2F880F880F807264
:103130009F7D892B80937B00E770E064E0937C00A7
:1031400080917A00806480937A0080917A0086FD75
:10315000FCCF8091780090917900E0900C03F09082
:103160000D03EA0CFB1CF701C580D680960136954D
:103170002795280F391FC60164E0969587956A95B3
:10318000E1F7281B390B220F331F50E040E02C528F
:10319000310941095109AFEFBFE30E94CE2430E06D
:1031A00020E06B35F0EC7F07FFEF8F079F077CF087
:1031B000611520E8720729EE82072FE092070CF0D4
:1031C000CDC026EA3FE340E050E00E94AF24D701A3
:1031D00014963C932E9313972C153D0508F4C1C00B
:1031E0002C193D09D7018D919C911197009709F0F9
:1031F000BDC02530310520F0E1E0F0E0ED93FC9317
:103200000F5F1F4FF7E0AF0EB11C0032110509F040
:103210005ACF35E3632E34E0732E44E1E42E43E0CD
:10322000F42ED3018D919C911197019709F0B7C2AB
:103230001396ED91FC911497FB87EA8715962D91D3
:103240003C913D872C87D70118969C91B92FB29558
:10325000BF70BE87F70187813090150592FF05C0CA
:10326000382E32942FE03222339493FF98C08F701F
:103270008F5F888BD7011696BC91BF878B2F90E00C
:10328000FC01F595E795F595E795F987E887E370F3
:103290002E2E5701F2E0AF0EB11C670124E0C20EE2
:1032A000D11C00E09E012B5F3F4FA501B6018A852E
:1032B0009B850E948D089E01295F3F4FA501B601A5
:1032C0008C859D850E948D083E85353009F06BC048
:1032D00001E09E012F5F3F4FA501B6018A859B85C6
:1032E0000E948D089E012A5F3F4FA501B6018C8583
:1032F0009D850E948D088E010B5F1F4F9501A601D1
:1033000060E0D70118968C910E94C9080E5F1F4F8C
:103310009501A60160E0F70180850E94C908D701E8
:1033200018968C9180FF08C08FE79981B82FB91B40
:10333000B9839E81891B8E839E818981981709F4A8
:1033400025C2232D4D81F7016081822D0E94E8095D
:10335000232D4981D70111966C9181C02FEF3FE356
:1033600036CFF601E21BF30B9F013CCF019709F02A
:1033700047CF2031310580F412968C9112978F5FE0
:1033800012968C931297843008F43ACF11961C92BF
:103390001E9212961C9234CFF701128231CFF09117
:1033A0001505F88B67CF00E09E012F5F3F4F270187
:1033B000E3E04E0E511CA2014701F5E08F0E911C77
:1033C000B4018A859B850E948D089E012A5F3F4F2C
:1033D000A201B4018C859D850E948D088E010B5F32
:1033E0001F4F9501A60160E0D70118968C910E94AD
:1033F000C908045011099201A40161E0F701808518
:103400000E94C9080A5F1F4F9501A60160E0D7011D
:1034100018968C910E94C908015011099201A401CB
:1034200061E0F70180850E94C908EE85E150E8302F
:1034300008F0ACC1F0E0E15EF54E0C943325271A9C
:10344000471A601AEF1A9C197D1BAE1B961B4D8103
:103450008F81841709F49AC1232DD7016C91822D95
:103460000E94E80984E495E00E94CA0A40E861E00D
:1034700084E495E00E94A40A0E94720260934C05C5
:1034800070934D0580934E0590934F057FC14D81FC
:103490008F81841799F0232DF7016081822D0E947E
:1034A000E80981E049819E81941709F46DC128895A
:1034B000D70111966C918F858370D2CF80E0F2CFC7
:1034C0009E818981981709F461C1B885B0FF41C018
:1034D000F7010081F0E80F9F80011124D7011196B8
:1034E0008C91082B80918C0590918D0508171907F8
:1034F000A9F0602F6F77432D82E60E946D08B80116
:10350000660F672F661F770B71956F77432D83E6E4
:103510000E946D0810938D0500938C051981432D31
:103520006D8186E00E946D08432D612F86E20E9426
:103530006D08432D6FE782E60E946D08432D6FE70B
:1035400083E60E946D08EFEFFFEFF0938D05E093A7
:103550008C058EEF820D823008F084CFD7010C915C
:10356000B0E80B9F80011124F7018181082B809125
:10357000FB069091FC0608171907A9F0602F6F77DA
:10358000432D82E60E94E209B801660F672F661F8D
:10359000770B71956F77432D83E60E94E2091093B4
:1035A000FC060093FB061981432D6D8186E00E9485
:1035B000E209432D612F86E20E94E209432D6FE765
:1035C00082E60E94E209432D6FE783E60E94E2094A
:1035D0002FEF3FEF3093FC062093FB0643CF9E81F5
:1035E0008981981709F4D2C0388530FF40C0D701CF
:1035F0000C91B0E80B9F80011124F7018181082B09
:1036000080918A0590918B0508171907A9F0602F02
:103610006F77432D84E60E946D08B801660F672F0F
:10362000661F770B71956F77432D85E60E946D08B5
:1036300010938B0500938A051981432D6D8186E0D7
:103640000E946D08432D612F86E20E946D08432D74
:103650006FE784E60E946D08432D6FE785E60E94C0
:103660006D082FEF3FEF30938B0520938A058EEF87
:10367000820D823008F0F6CED7010C91B0E80B9F96
:1036800080011124F7018181082B8091F906909126
:10369000FA0608171907A9F0602F6F77432D84E603
:1036A0000E94E209B801660F672F661F770B7195BC
:1036B0006F77432D85E60E94E2091093FA06009386
:1036C000F9061981432D6D8186E00E94E209432DA0
:1036D000612F86E20E94E209432D6FE784E60E9493
:1036E000E209432D6FE785E60E94E2092FEF3FEFE5
:1036F0003093FA062093F906B5CE6D818F81861737
:1037000009F444C0388530FF05C0232D40E080EC2B
:103710000E9440088EEF820D823008F0A3CE232D48
:1037200040E06D8180EC0E94A2099CCE4D818F818A
:10373000841761F1888580FF06C0232DD7016C9125
:1037400080EA0E9440088EEF820D823008F08ACE17
:10375000232D4D81F701608180EAE5CF6D818F8156
:103760008617A1F0F885F0FF05C0232D40E080ED1D
:103770000E9440088EEF820D823008F073CE232D18
:1037800040E06D8180EDCFCF81116CCED3011396D7
:103790008D919C91149716969C938E931597B7E0F4
:1037A0006B0E711CE9E0EE0EF11C24E334E02E15E3
:1037B0003F0509F036CDF090800530E13F1508F463
:1037C00078C0E0917E05F0917F0580819181DC01D8
:1037D000ED91FC910084F185E02D0995892B09F488
:1037E00068C0809123068E7F80932306E0917E053A
:1037F000F0917F0580819181DC01ED91FC91028443
:10380000F385E02D0995182F8D3F09F452C0809162
:10381000880590918905009709F0D4C1109383051C
:1038200000918105802F0E94F9060E9407078823D6
:1038300061F017FD0AC00093830510938405E1E051
:10384000F0E0F0938905E093880510918305812FBE
:103850000E94F906813F09F47DC108F012C1803B46
:1038600039F048F4803921F0803A11F0803859F469
:1038700023E030E071C1803D09F46CC108F0F0C074
:10388000803C09F467C18091230681608093230600
:10389000E0915605F0915705309709F0099510927F
:1038A000890510928805109287051092860510925E
:1038B0008105F090EF06F0E1FF1540F10091ED0673
:1038C0001091EE06D8011B968D919C91892B09F4DD
:1038D000D6C2809192078E7F80939207E091ED0689
:1038E000F091EE06858596859C012F5F3F4F3687C8
:1038F00025878E0F9F1FDC0117961C918385948569
:103900000197948783871D3F09F0EEC38EE295E00F
:103910000E94C20588E195E00E94C20580913A05A7
:1039200090913B05019799F480913C0590913D055C
:10393000892B69F481E08093A5020E947202609352
:10394000A0027093A1028093A2029093A30280919F
:10395000240590912505019799F480912605909171
:103960002705892B69F481E08093A4020E947202EA
:103970006093A0027093A1028093A2029093A3028D
:1039800080913A0590913B05892B49F480913C0543
:1039900090913D05019719F481E00E94330C8091CC
:1039A000240590912505892B49F480912605909155
:1039B0002705019719F480E00E94330C1091A502AD
:1039C000111104C08091A402882331F10E94720277
:1039D000C090A002D090A102E090A202F090A302B9
:1039E0006C197D098E099F096D3F73408105910512
:1039F00098F0112331F010921705809115050E945F
:103A0000C00B8091A402882339F081E080931705D0
:103A1000809116050E94D80B0E94720200914C05FD
:103A200010914D0520914E0530914F05601B710B93
:103A3000820B930B683E73408105910520F084E46E
:103A400095E00E94CA0A80E090E0892B09F434CB0B
:103A50000E942105882309F42FCB0E9400002CCB63
:103A6000803E09F405CF803F09F00DCF20E830E01B
:103A700030938705209386051092810580939305E6
:103A80006FC0873F99F308F05EC0833F09F462C0BE
:103A900008F4EECE863F09F0F6CE809390051092A2
:103AA0008F05109291051092920581E08093130684
:103AB000109289051092880510928705109286054C
:103AC00080919005803939F480919205811103C06D
:103AD00080E880939005809190058058813630F47D
:103AE00080918F05F81611F0F11004C084E595E07F
:103AF0000E94160790918E05392F317090FFD9CE14
:103B0000892F8E7F09F4D5CE8091900520E8280F6B
:103B1000213608F02FC120918F05F21619F031E0FF
:103B2000F11030E09695923009F41DC1933009F4FC
:103B30001EC1913009F0BDCE409192056091910572
:103B40000E948108B6CE8D3F08F4A7CF8E3F08F0C3
:103B5000A4CF99CE22E030E03093870520938605EC
:103B600020918805309189054091860550918705FF
:103B70004150510924173507F0F0809390051F70CC
:103B80001F5F10938F05809184058093910510929B
:103B9000920521E030E03093150620931406109230
:103BA000890510928805109287051092860581E09C
:103BB0008093130685CF2F5F3F4F30938905209365
:103BC000880577CE17FF0CC01D3F08F04EC0183F88
:103BD00008F04EC0103F09F45AC0173F09F457C00F
:103BE00020918305FC01EC5AFA4F203F19F0273F42
:103BF00009F077C017AFA0908605B09087059501B2
:103C0000215031098217930708F4ABC0D090830587
:103C1000B0EFDB1619F0E7EFDE1265C01091120667
:103C200080EF809312068093900580E88093910541
:103C30001092920510928F0580E890E090931506FF
:103C40008093140681E08093130684E595E00E943A
:103C5000160787EF809393051093940582E090E018
:103C6000909389058093880524CE1E3F08F4B8CF31
:103C700010939005109291051092920510928F0565
:103C800081E090E0909315068093140691CF2091E7
:103C90009305203F19F0273F09F0F5CD9C012F5FD8
:103CA0003F4F8C5A9A4FDC01DF961C9380EF809334
:103CB0009005209391053093920510928F053093D3
:103CC00015062093140681E080931306109289054F
:103CD0001092880510928705109286051092810532
:103CE000EFCE17A788CF8D2D0E94F906182F80934D
:103CF00090050E940707882349F18D2D8F708F5FF3
:103D000080938F058091840580939105809185052E
:103D1000F3E0AF16B10409F080E0809392051092B1
:103D2000890510928805109287051092860581E01A
:103D300080931306103B39F060F4103921F0103AEB
:103D400011F0103859F6D0928105BACE10928F0535
:103D5000D9CF103DC1F3103EB1F3103C09F0BECFF6
:103D6000F2CF01967DCF332309F4A3CDE5CE3111F7
:103D7000A0CDE2CEE0E1E80FE03108F09ACDF0E02E
:103D8000EC53F14E0C943325DA1E2B1F0C1FFA1E38
:103D9000591C591CD41E591CD41E591CD41ED41E87
:103DA000D41E591CD41ED41E682F8EE795E00E94A5
:103DB00073087FCDE0909105F090920521E8E2161E
:103DC000F10418F0E0E8EE2EF12C04E515E0C8014E
:103DD000845595408E159F0508F06BCDD801DF9670
:103DE0006C9180917E0590917F050E94D6070F5FB0
:103DF0001F4FEDCF1091910563EF80917E0590915B
:103E00007F050E94D607612F6F7780917E05909184
:103E10007F050E94D6074DCD00919205B0E80B9F1B
:103E20008001112480919105082B62EF80917E051D
:103E300090917F050E94D607602F6F7780917E0555
:103E400090917F050E94D607000F012F001F110BD4
:103E50001195602FD9CF60919105E0E16E9FB0017F
:103E600011246077109192051F70162B61EF8091DD
:103E70007E0590917F050E94D607612FC6CFF8017D
:103E8000168615868091980290919902A0919A02C7
:103E9000B0919B0240919C0250919D0260919E02C4
:103EA00070919F02841B950BA60BB70B8F739927FC
:103EB000AA27BB27892B8A2B8B2B09F47DC08091E5
:103EC0009C0290919D02A0919E02B0919F02880F4A
:103ED000991F880F991FFC01E856FE4F8081918140
:103EE00062817381409098025090990260909A028A
:103EF00070909B0280909C0290909D02A0909E02E8
:103F0000B0909F02481459046A047B04D1F0809059
:103F10009C0290909D02A0909E02B0909F02FFEFA5
:103F20008F1A9F0AAF0ABF0A2FE382229924AA247C
:103F3000BB2480929C0290929D02A0929E02B0921D
:103F40009F02D8011F968C931F9750969C93509771
:103F500051966C93519752967C935297882329F1EE
:103F6000282F30E044E0359527954A95E1F75396A0
:103F70004C9153974217130609F0C8CC8F70482F05
:103F800050E01B962D913C91FA01EE0FFF1FE35D6F
:103F9000FE4FE181E13009F48AC008F472C0E230DA
:103FA00009F495C0E33009F471C0F8018385948564
:103FB000892B09F4ABCC8DCC809103030E944C0477
:103FC00070E060E090E0882309F48CCF8090980244
:103FD00090909902A0909A02B0909B02FFEF8F1AE6
:103FE0009F0AAF0ABF0A2FE382229924AA24BB2486
:103FF00080919C0290919D02A0919E02B0919F029F
:1040000088159905AA05BB0509F459CF80910303CA
:104010000E944C0444E050E0BE016F5F7F4F8091EE
:1040200003030E94D80304970CF449CF80919802AF
:1040300090919902A0919A02B0919B02880F991FCA
:10404000880F991F88569E4F49815A816B817C81C8
:10405000DC014D935D936D937C931397809298024E
:1040600090929902A0929A02B0929B02BFEF8B1A93
:104070009B0AAB0ABB0AEFE38E229924AA24BB2435
:10408000B7CF843019F04730510571F4F801E20FD1
:10409000F31F978360872D5F3F4FD8011C963C9399
:1040A0002E931B97718781CF4530510561F4A9018B
:1040B0004F5F5F4FF80154874387200F311FD901AD
:1040C00017969C9372CF4630510509F06ECFF801D8
:1040D000E20FF31F97832E5F3F4FD8011C963C934E
:1040E0002E931B97608761CF8091F7069091F80619
:1040F000009709F0F7C01093F2060091F006802FA8
:104100000E94F9060E940707882361F017FD0AC084
:104110000093F2061093F30621E030E03093F806A6
:104120002093F7061091F206812F0E94F906813F35
:1041300009F4A1C0C8F5803B39F048F4803921F07A
:10414000803A11F0803851F423E030E096C0803D91
:1041500009F491C0D0F4803C09F48DC0809192079D
:10416000816080939207E091C506F091C606309772
:1041700009F009951092F8061092F7061092F606CB
:104180001092F5061092F006C1CB803EE9F2803F16
:1041900029F720E830E03093F6062093F5061092D8
:1041A000F006809302076DC0873F99F308F05CC06A
:1041B000833F09F460C040F2863F81F68093FF069A
:1041C0001092FE06109200071092010781E0809382
:1041D00082071092F8061092F7061092F6061092D7
:1041E000F5068091FF06803939F48091010781112D
:1041F00003C080E88093FF068091FF0680588136D7
:1042000030F48091FE06F81611F0F11004C083EC32
:1042100096E00E9416079091FD06392F317090FFAD
:1042200075CB892F8E7F09F471CB8091FF0620E832
:10423000280F213608F02EC12091FE06F21619F043
:1042400031E0F11030E09695923009F41CC19330C2
:1042500009F41DC1913009F059CB409101076091DB
:1042600000070E94790A52CB8D3F08F4A7CF8E3FFA
:1042700008F0A4CF73CF22E030E03093F60620930D
:10428000F5062091F7063091F8064091F506509119
:10429000F6064150510924173507E8F08093FF06D0
:1042A0001F701F5F1093FE068091F3068093000736
:1042B0001092010781E090E0909384078093830738
:1042C0001092F8061092F7061092F6061092F50674
:1042D0008093820786CF2F5F3F4F3093F80620935D
:1042E000F70614CB17FF0CC01D3F08F04EC0183F57
:1042F00008F04EC0103F09F45BC0173F09F458C0E6
:104300002091F206FC01ED53F94F203F19F0273FB1
:1043100009F077C017AFA090F506B090F6069501AA
:10432000215031098217930708F4ABC0D090F206F0
:10433000F0EFDF1619F027EFD21265C01091810758
:1043400080EF809381078093FF0680E880930007C9
:10435000109201071092FE0680E890E09093840787
:104360008093830781E08093820783EC96E00E942C
:10437000160787EF809302071093030782E090E00F
:104380009093F8068093F706C1CA1E3F08F4B8CF91
:104390001093FF0610920007109201071092FE067C
:1043A000A1E0B0E0B0938407A093830781E090CFB1
:1043B00020910207203F19F0273F09F0CFCE9C0142
:1043C0002F5F3F4F8D53994FFC0117AF80EF8093C4
:1043D000FF0620930007309301071092FE063093EA
:1043E00084072093830781E0809382071092F80668
:1043F0001092F7061092F6061092F5061092F0064B
:10440000F0CE17A788CF8D2D0E94F906182F809324
:10441000FF060E940707882349F18D2D8F708F5F5B
:104420008093FE068091F306809300078091F40646
:1044300033E0A316B10409F080E0809301071092E5
:10444000F8061092F7061092F6061092F50681E033
:1044500080938207103B39F060F4103921F0103A54
:1044600011F0103859F6D092F006BBCE1092FE062D
:10447000D9CF103DC1F3103EB1F3103C09F0BECFCF
:10448000F2CF01967DCF332309F440CAE6CE311135
:104490003DCAE3CEE0E1E80FE03108F037CAF0E0D2
:1044A000EC5AFD4D0C9433256A22C6229D227B22B4
:1044B000861C861C6422861C6422861C642264225C
:1044C0006422861C64226422682F8DEE96E00E948E
:1044D000530A1CCA60910007709101076138710589
:1044E00010F060E870E021E042E057E08DEE96E0E9
:1044F0000E94090A0BCA1091000763EF8091ED0634
:104500009091EE060E947609882309F4FFC963EFB3
:104510008091ED069091EE060E940A09612F6F7757
:104520008091ED069091EE060E940A098091ED06B9
:104530009091EE060E94DF08E9C9F0900007009113
:10454000010762EF8091ED069091EE060E947609D8
:10455000882309F4DBC980E8089F800111240F2912
:1045600062EF8091ED069091EE060E940A09602F9D
:104570006F778091ED069091EE060E940A09000F78
:10458000012F001F110B1195602FC9CF009101075A
:104590001091000761EF8091ED069091EE060E9468
:1045A0007609882309F4B2C961EF8091ED069091F4
:1045B000EE060E940A0990E1199FB001112460776C
:1045C0000F70602BADCF61E081E10E94B10164E129
:1045D00070E080E090E00E94400260E081E10E9493
:1045E000B10110E000E060E0C8010E946F240F5F9D
:1045F0001F4F011534E01307B1F761E081E10E941C
:10460000B1010C945016B0E0A0E0E9E0F3E20C94A4
:10461000DA245C016B017A016115710519F0FB0167
:1046200091838083E114F10451F0C70102978397CD
:1046300030F040E030E020E090E072C05E01E50143
:104640002196F5011081812F90E00E941A24892B78
:10465000A9F71D3201F52196F501118101E0E11460
:10466000F10409F4DAC0F0E1EF16F10409F082C0B8
:10467000103359F488818F7D883509F076C019810F
:1046800022960260F0E1EF2EF12C812C912CA12CCE
:1046900088E0B82E8CC01B3221F4E5012296F5018A
:1046A000118100E0DCCFEAE0EE16F10409F4BBC0B2
:1046B000F0E1EF16F10409F06DC0E7CF78E0E72EE6
:1046C000F12C812C912CA12C60E1B62E70C03FE919
:1046D000310F3A3128F439EA332E80C021E09AC0F4
:1046E000302F3170C114D10431F0222309F1219708
:1046F000F601D183C08327FF21C060E070E080E035
:1047000090E8311104C06FEF7FEF8FEF9FE722E257
:1047100030E03093A8072093A707462F372F282F84
:10472000642F732F822FCDB7DEB7E1E10C94F6240E
:1047300001FF04C02297F601D183C083332341F0E7
:1047400090958095709561957F4F8F4F9F4FE5CFE6
:1047500097FFE3CF82E290E09093A8078093A707AA
:104760006FEF7FEF8FEF9FE7D8CF10E3E114F104F5
:1047700009F4A4CF28E0E216F10409F4A2CF0CF06A
:1047800092CF812C912CA12CE0E4BE2E82E0E81681
:10479000F10469F060E070E080E090E897010F2C90
:1047A000000C440B550B0E948D2449015A0120E056
:1047B00060E070E0CB0127010F2C000C6608770841
:1047C000FE0150ED352E310E39E0331540F43FEB4C
:1047D000310F3A3108F07BCF49EC342E310E3E14C4
:1047E0001F040CF07DCF27FD15C086169706A8067E
:1047F000B90678F0A30192010E947D24630D711D1A
:10480000811D911D61307105810520E8920708F432
:1048100065CF2FEF21961081D3CF103309F42ACF23
:104820002AE0E22EF12C9CEC892E982CA82C9CE0FE
:10483000B92EBDCF91110C945424803219F08950B7
:104840008550C8F70895BB272A3051F4992342F4C4
:10485000BDE290958095709561957F4F8F4F9F4FEA
:104860000C943324BB27FA01A62F6217710581052A
:104870009105330B30FB66F0AA27660F771F881F60
:10488000991FAA1FA21710F0A21B63953850A9F711
:10489000A05DAA3308F0A95DA19336F7B111B193D9
:1048A0001082CA010C945724992788270895DC01A7
:1048B000FC01672F71917723E1F7329704C07C9157
:1048C0006D9370836291AE17BF07C8F30895F9998D
:1048D000FECF92BD81BDF89A992780B50895262F05
:1048E000F999FECF1FBA92BD81BD20BD0FB6F894D5
:1048F000FA9AF99A0FBE01960895DB018F939F9360
:104900000E94CE24BF91AF91A29F800D911DA39FC5
:10491000900DB29F900D11240895A1E21A2EAA1BAA
:10492000BB1BFD010DC0AA1FBB1FEE1FFF1FA2175F
:10493000B307E407F50720F0A21BB30BE40BF50B5C
:10494000661F771F881F991F1A9469F760957095E5
:10495000809590959B01AC01BD01CF010895052E76
:1049600097FB1EF400940E94C62457FD07D00E94B6
:104970008D2407FC03D04EF40C94C624509540952A
:10498000309521953F4F4F4F5F4F089590958095FB
:10499000709561957F4F8F4F9F4F08950E9410250E
:1049A000A59F900DB49F900DA49F800D911D112483
:1049B00008952F923F924F925F926F927F928F92C3
:1049C0009F92AF92BF92CF92DF92EF92FF920F939E
:1049D0001F93CF93DF93CDB7DEB7CA1BDB0B0FB6A8
:1049E000F894DEBF0FBECDBF09942A883988488865
:1049F0005F846E847D848C849B84AA84B984C884FB
:104A0000DF80EE80FD800C811B81AA81B981CE0FF1
:104A1000D11D0FB6F894DEBF0FBECDBFED010895D6
:104A2000A29FB001B39FC001A39F700D811D1124EF
:104A3000911DB29F700D811D1124911D0895AA1B17
:104A4000BB1B51E107C0AA1FBB1FA617B70710F079
:104A5000A61BB70B881F991F5A95A9F780959095AB
:104A6000BC01CD010895EE0FFF1F0590F491E02DDC
:104A700009940F931F93CF93DF938230910510F425
:104A800082E090E0E091AB07F091AC0730E020E0ED
:104A9000B0E0A0E0309799F42115310509F44AC03F
:104AA000281B390B24303105D8F58A819B8161158B
:104AB000710589F1FB0193838283FE0111C040815E
:104AC00051810281138148175907E0F048175907AF
:104AD00099F4109761F012960C93129713961C9309
:104AE0003296CF01DF91CF911F910F9108950093DE
:104AF000AB071093AC07F4CF2115310551F04217E5
:104B0000530738F0A901DB019A01BD01DF01F8016B
:104B1000C1CFEF01F9CF9093AC078093AB07CDCF16
:104B2000FE01E20FF31F81939193225031093983E3
:104B30002883D7CF2091A9073091AA07232B41F4CE
:104B400020911501309116013093AA072093A907EF
:104B500020911301309114012115310541F42DB735
:104B60003EB74091170150911801241B350BE0917D
:104B7000A907F091AA07E217F307A0F42E1B3F0B39
:104B80002817390778F0AC014E5F5F4F24173507BF
:104B900048F04E0F5F1F5093AA074093A9078193D7
:104BA00091939FCFF0E0E0E09CCFCF93DF9300970D
:104BB000E9F0FC01329713821282A091AB07B09109
:104BC000AC07ED0130E020E01097A1F420813181A5
:104BD000820F931F2091A9073091AA072817390740
:104BE00009F061C0F093AA07E093A907DF91CF9184
:104BF0000895EA01CE17DF07E8F54A815B819E013F
:104C000041155105B1F7E901FB83EA8349915991B7
:104C1000C40FD51FEC17FD0761F4808191810296C6
:104C2000840F951FE90199838883828193819B83F7
:104C30008A83F0E0E0E012968D919C9113970097A3
:104C4000B9F52D913C911197CD010296820F931FDA
:104C50002091A9073091AA072817390739F630970C
:104C600051F51092AC071092AB07B093AA07A0932E
:104C7000A907BCCFD383C28340815181840F951F84
:104C8000C817D90761F44E5F5F4F88819981480F3B
:104C9000591F518340838A819B819383828321158D
:104CA000310509F0B0CFF093AC07E093AB079ECF8E
:104CB000FD01DC01C0CF13821282D7CFB0E0A0E0AB
:104CC000E4E6F6E20C94DB248C01009751F4CB016E
:104CD0000E9439258C01C801CDB7DEB7E0E10C9404
:104CE000F724FC01E60FF71F9C0122503109E2175F
:104CF000F30708F49DC0D901CD91DC911197C61737
:104D0000D70798F0C530D10530F3CE010497861748
:104D1000970708F3C61BD70B2297C193D1936D93C6
:104D20007C93CF010E94D525D6CF5B01AC1ABD0A7A
:104D30004C018C0E9D1EA091AB07B091AC07512C7D
:104D4000412CF12CE12C109731F58091A90790911D
:104D5000AA078815990509F05CC04616570608F0A1
:104D600058C08091130190911401009741F48DB7C0
:104D70009EB74091170150911801841B950BE817BD
:104D8000F90708F055C0F093AA07E093A907F901C5
:104D900071836083A0CF8D919C91119712966C9036
:104DA000129713967C901397A815B90559F56C01C5
:104DB00042E0C40ED11CCA14DB0420F1AC014A1934
:104DC0005B09DA011296159780F062827382518333
:104DD0004083D9016D937C93E114F10471F0D70104
:104DE0001396FC93EE93129776CF22968C0F9D1F0D
:104DF000F90191838083F301EFCFF093AC07E09347
:104E0000AB0769CF4816590608F42C017D01D30180
:104E10009ACFCB010E9439257C01009749F0AE0161
:104E2000B8010E941B27C8010E94D525870153CFD6
:104E300010E000E050CFFB01DC0102C001900D92B8
:104E400041505040D8F70895FB01DC0101900D92CC
:0A4E50000020E1F70895F894FFCF69
:104E5A00FFFFFFFF00E100000000000000C18081A9
:104E6A000000000000AD0780000203040500008076
:104E7A00089009A00AB00BC00CD00DE00E0000018A
:104E8A0000020203030400050006000700080309E4
:104E9A00030A030B030C020D020E030F01000000AC
:104EAA00002601C2032303880255042A04020400CF
:104EBA0000000056057204E404A2051505F3040770
:104ECA0005000000002706290624061F0F4D494445
:024EDA0049008D
:00000001FF
