:100000000C94FC000C9424010C9424010C94240105
:100010000C9424010C9424010C9424010C942401CC
:100020000C9424010C9424010C944E150C94CC15C2
:100030000C9424010C9424010C9424010C942401AC
:100040000C9424010C9424010C9424010C9424019C
:100050000C9424010C9424010C9424010C94041598
:100060000C9424010C9424180C94FE170C94240175
:100070000C9424010C9424010C9424010C9424016C
:100080000C9424010C9424010C9424010C9424015C
:100090000C9424010C9424010C9424010C9424014C
:1000A0000C9424010C9424010C9424010F0D0806D7
:1000B0000E0B07050C0A0403090201001F1E1D1C7C
:1000C00018191A1B14151617101112130F0D080604
:1000D0000E0B07050C0A0403090201001F1E1D1C5C
:1000E00018191A1B1415161710111213080B0002F9
:1000F00002020000090400000102020000052400C1
:100100001001052401010104240206052406000152
:100110000705810310004009040100020A000000E5
:1001200007050202400000070583024000000403A7
:10013000090412010002EF020140501D4F6100014D
:100140000102030141726475696E6F005348494BA7
:10015000204E333242000405050000000024002731
:10016000002A002D00300000000000250028002B90
:10017000002E003100000000002300260029002C82
:10018000002F000404040404030405020202020414
:100190000302020202060606060606040402020222
:1001A0000404040802011040804010204080408078
:1001B00008020401804020100201108010204040FD
:1001C000200000000200090F0000030401000C00E1
:1001D000000000000000000000000000000000001F
:1001E000070605040100080A0B0C0D097E306D7925
:1001F000335B5F707F7B891811241FBECFEFDAE07D
:10020000DEBFCDBF11E0A0E0B1E0E4E6F1E502C061
:1002100005900D92A238B107D9F727E0A2E8B1E026
:1002200001C01D92A13BB207E1F710E0CCEFD0E096
:1002300004C02197FE010E94B826CB3FD107C9F721
:100240000E9499190C94B0280C940000CF93DF936E
:100250001F92CDB7DEB76983DC01ED91FC9102807E
:10026000F381E02D41E050E0BE016F5F7F4F0995C3
:100270000F90DF91CF91089581508F3008F047C0E3
:10028000E82FF0E0EA5BFE4F0C94B82663016701AB
:1002900055015B015F018701870187016A017001D8
:1002A000740178017E0187018201809180008F773F
:1002B000809380000895809180008F7DF9CF809198
:1002C0008000877FF5CF84B58F7784BD089584B58E
:1002D0008F7DFBCF809190008F7780939000089561
:1002E000809190008F7DF9CF80919000877FF5CF2E
:1002F0008091C0008F778093C00008958091C000E6
:100300008F7DF9CF8091C200877F8093C2000895CE
:10031000CF93DF93282F30E0F901EF53FE4F849104
:10032000F901EE55FE4FD491F901ED57FE4FC491FE
:10033000CC23A1F081110E943C01EC2FF0E0EE0FE4
:10034000FF1FEB58FE4FA591B491EC91ED2381E096
:1003500090E009F480E0DF91CF91089580E090E093
:10036000FACF1F93CF93DF93282F30E0F901EF539B
:10037000FE4F8491F901EE55FE4FD491F901ED57EE
:10038000FE4FC491CC23A9F0162F81110E943C018D
:10039000EC2FF0E0EE0FFF1FE959FE4FA591B4914D
:1003A0008FB7F894EC91111108C0D095DE23DC933F
:1003B0008FBFDF91CF911F910895DE2BF8CFCF92A1
:1003C000DF92EF92FF921F93CF93DF93EC01162FF2
:1003D00076E9E72E75E0F72ED12CC12C688170E00C
:1003E0000C2C02C0759567950A94E2F76170D701ED
:1003F0008D917D010E94B101BFEFCB1ADB0AE4E0D1
:10040000CE16D10459F783EC90E00197F1F781E023
:1004100090E02881203110F490E080E08E569A4FD1
:10042000DC011296EC91E23108F0E251F0E0E0528A
:10043000FE4FE49190917B008E2F880F880F807281
:100440009F7D892B80937B00E770E064E0937C00C4
:1004500080917A00806480937A0080917A0086FD92
:10046000FCCF80917800909179002881C09192050D
:10047000D0919305B7E02B9FC00DD11D1124ED80C5
:10048000FE80970136952795280F391FC70154E044
:10049000969587955A95E1F7281B390B220F331F44
:1004A00050E040E02C52310941095109AFEFBFE360
:1004B0000E94532630E020E06B35E0EC7E07EFEF42
:1004C0008E079E0784F02FEF3FE36115F0E87F076A
:1004D000F9EE8F07FFE09F0734F426EA3FE340E0A0
:1004E00050E00E9434263C832B832E153F05B8F044
:1004F0002E193F09888199810097B1F42530310583
:1005000010F4112321F081E090E099838883DF913A
:10051000CF911F91FF90EF90DF90CF900895C7018A
:10052000821B930B9C01E6CF019789F7203131059F
:1005300038F48A818F5F8A83843048F31982188265
:100540001A82E5CFCF93DF9390E0FC01EE55FE4F8A
:1005500024918D579E4FFC0184918823C9F090E02F
:10056000880F991FFC01E75AFE4FA591B491FC0139
:10057000E959FE4FC591D49161110DC09FB7F89410
:100580008C91209582238C938881282328839FBF78
:10059000DF91CF910895623051F49FB7F8943C9168
:1005A000822F809583238C93E8812E2BEFCF8FB7FA
:1005B000F894EC912E2B2C938FBFEACF3FB7F89491
:1005C0008091940490919504A0919604B091970421
:1005D00026B5A89B05C02F3F19F00196A11DB11D9E
:1005E0003FBFBA2FA92F982F8827BC01CD01620FDA
:1005F000711D811D911D42E0660F771F881F991F95
:100600004A95D1F708958F929F92AF92BF92CF9261
:10061000DF92EF92FF924B015C010E94DE026B01C0
:100620007C010E94DE026C197D098E099F09683EDB
:10063000734081059105A8F321E0821A9108A10871
:10064000B10888EEC80E83E0D81EE11CF11C8114AD
:100650009104A104B10429F7FF90EF90DF90CF90AF
:10066000BF90AF909F908F9008952FB7F8946091AE
:1006700090047091910480919204909193042FBF03
:1006800008958093E9008091F200882319F08AE3AD
:100690008093E800089583E00C94410340917F0328
:1006A0005091800320917D0330917E0342175307C0
:1006B000B4F49091E8009570E1F39091E80092FD18
:1006C00019C08093F10080917F039091800301967F
:1006D0008F739927892B19F48EEF8093E80080910E
:1006E0007F039091800301969093800380937F0312
:1006F00081E0089580E00895DF92EF92FF920F93DA
:100700001F93CF93DF93D82E8A01EB017B01E40E78
:10071000F51ECE15DF0559F0D7FE12C0FE018491FB
:100720000E944E0321968111F4CF0FEF1FEFC801F5
:10073000DF91CF911F910F91FF90EF90DF9008957F
:100740008881EECF2FB7F89487708093E90090915D
:10075000E800892F807295FF04C09091F20080E438
:10076000891B2FBF089583E00E94A20390E00895A3
:100770007F928F929F92AF92BF92CF92DF92EF9231
:10078000FF920F931F93CF93DF93C82E8B017A01B3
:1007900080918603811110C08FEF9FEFDF91CF9181
:1007A0001F910F91FF90EF90DF90CF90BF90AF908F
:1007B0009F908F907F9008958091840380FF05C063
:1007C0008091E00082608093E000CE2DDF2DD12C5F
:1007D0008AEFB82E8C2D8770982E8C2D8072882EE3
:1007E0008C2D8074782E9AE3A92E209719F4DD20A1
:1007F00009F452C08C2D0E94A20381110AC0BA9440
:10080000BB2051F261E070E080E090E00E940303C1
:10081000ECCF8C171D0611F00CF08C2F9FB7F894BD
:100820009092E9002091E80025FD02C09FBFDDCF36
:10083000282F30E0C21BD30B882029F08150A0F074
:100840001092F100FBCFF801C7FC0AC0815050F0B4
:1008500041914093F100FACF44914093F1003196D9
:100860008150D0F7020F131FDD2021F0A092E80085
:10087000D12CDCCF8091E80085FD07C0A092E80074
:10088000DD24D394209791F2F3CF209779F6772047
:1008900069F2A092E800CACF5D9884E68093830352
:1008A000C7017CCFCF93DF93EC0180910B018823AC
:1008B00031F083E00E94B8031816190634F081E085
:1008C00090E09B838A8380E090E0DF91CF91089550
:1008D00090918603992319F13FB7F894877080931C
:1008E000E9008091F20090E0481759070CF4CA0122
:1008F000282FFB0154E6215038F0289850938203AA
:100900004091F1004193F7CF009739F02091F20028
:10091000211103C02BE62093E8003FBF08958FEF1D
:100920009FEF08950F931F93CF93DF931F92CDB73F
:10093000DEB78C01FC018485958597FF0FC041E0EF
:1009400050E0BE016F5F7F4F82E00E946804019714
:1009500071F4898190E0F80195878487F801848596
:1009600095850F90DF91CF911F910F9108958FEF93
:100970009FEFF1CFCF93DF931F92CDB7DEB7FC018E
:100980008485958597FD08C02FEF3FEF3587248735
:100990000F90DF91CF91089541E050E0BE016F5F6D
:1009A0007F4F82E00E946804019719F4898190E0EA
:1009B000EFCF8FEF9FEFECCF9FB7F89487708093C6
:1009C000E9008091F2009FBF0895FC018485958520
:1009D00097FD06C082E00E94DC0490E00196089535
:1009E00082E00E94DC0490E00895615030F0209194
:1009F000F100FC0120830196F8CF289884E68093CB
:100A000082030895AF92BF92CF92DF92EF92FF924E
:100A10000F931F93CF93DF936C017B018B01040F26
:100A2000151FEB015E01AE18BF08C017D10759F0C2
:100A30006991D601ED91FC910190F081E02DC60104
:100A40000995892B79F7C501DF91CF911F910F91FE
:100A5000FF90EF90DF90CF90BF90AF90089580917E
:100A6000750381110DC082E08093710384E080934F
:100A70007203109274031092730381E080937503E4
:100A800081E793E008950F931F93CF93DF931F9215
:100A9000CDB7DEB782E0898342E450E06CEE70E0CF
:100AA00080E80E947C030E942F05DC0112960D91C4
:100AB0001C910115110589F0D801ED91FC9102807E
:100AC000F381E02DBE016F5F7F4FC801099597FD4F
:100AD00004C0F80100851185ECCF89810F90DF916A
:100AE000CF911F910F910895FC01538D448D252FB7
:100AF00030E0842F90E0821B930B541710F0CF96B8
:100B0000089501970895FC01918D828D981761F0E9
:100B1000A28DAE0FBF2FB11D5D968C91928D9F5F00
:100B20009F73928F90E008958FEF9FEF0895FC01DF
:100B3000918D828D981731F0828DE80FF11D858D92
:100B400090E008958FEF9FEF0895FC01918D228D25
:100B5000892F90E0805C9F4F821B91098F739927AA
:100B6000089589EE94E00E94A50521E0892B09F4FF
:100B700020E0822F089580E090E0892B29F00E94E8
:100B8000B10581110C9400000895FC01A48DA80FFB
:100B9000B92FB11DA35ABF4F2C91848D90E00196BF
:100BA0008F739927848FA689B7892C93A089B189DF
:100BB0008C9182748C93938D848D981306C00288D7
:100BC000F389E02D80818F7D80830895EF92FF92DD
:100BD0000F931F93CF93DF93EC0181E0888F9B8D60
:100BE0008C8D981319C0E889F989808185FF14C01C
:100BF0009FB7F894EE89FF896083E889F98980813D
:100C0000827480839FBF81E090E0DF91CF911F913C
:100C10000F91FF90EF900895F62E0B8D10E00F5F6F
:100C20001F4F0F731127E02E8C8D8E110CC00FB645
:100C300007FCFACFE889F989808185FFF5CFCE01DD
:100C40000E94C505F1CFEB8DEC0FFD2FF11DE35A8E
:100C5000FF4FF0829FB7F8940B8FEA89FB89808160
:100C60008062CFCFCF93DF93EC01888D8823B9F0DA
:100C7000AA89BB89E889F9898C9185FD03C08081A7
:100C800086FD0DC00FB607FCF7CF8C9185FFF2CF24
:100C9000808185FFEDCFCE010E94C505E9CFDF91B0
:100CA000CF91089590E080E0089580E008950F933B
:100CB0001F93CF93DF93CDB7DEB7C456D1090FB6DC
:100CC000F894DEBF0FBECDBFFC01DB019C919E5F9F
:100CD0009C939E01295F3F4F8AE5D9011D928A9519
:100CE000E9F788E089838BE08A8322E02C8391E016
:100CF0009D839E8339E0398764E06A879E879F875A
:100D00003A8B44E24B8B9C8BA0E0B1E0BE8BAD8B69
:100D100009E010E0188F0F8B998F3B8F6C8F2F8F0E
:100D200098A353E059A387E08CA34DA39EA3B8A733
:100D3000AFA3A1E4B0E0BAA7A9A786E08BA74CA710
:100D40002DA79EA79FA789AB4AAB2BAB2CAB2DAB96
:100D50003FAB48AF59AF9AAF5BAF9CAF2DAF9EAFE3
:100D600021963FAF219722964FAF229723965FAFF0
:100D7000239724962FAF249725966FAF2597269615
:100D80009FAF269727969FAF279728969FAF2897C4
:100D90002A963FAF2A9745E02B964FAF2B972D967B
:100DA0002FAF2D9760E470E02F967FAF6EAF2F9737
:100DB00063964FAF639785E264968FAF64976596AD
:100DC0009FAF659766969FAF669767969FAF679749
:100DD00068963FAF689769964FAF69976B962FAF4C
:100DE0006B976D967FAF6EAF6D97A1964FAFA19742
:100DF000A2968FAFA297A3969FAFA397A4969FAFFB
:100E0000A497A5965FAFA59792819B839B879F5FD1
:100E10009A8F9D8F83812C968FAF2C978F5F8068E0
:100E20006A968FAF6A9744E650E0BE016F5F7F4FCE
:100E300080E00E947C03CC59DF4F0FB6F894DEBFF0
:100E40000FBECDBFDF91CF911F910F9108950F93EA
:100E5000CF93DF93F901DB012C91EA013881231B49
:100E6000330B2F5F3F4F3695322F2227379527952B
:100E7000DC010E949526DC01CB017EE0B695A795AA
:100E8000979587957A95D1F78115D0E49D07A105AF
:100E9000B10520F08FEF9FE3A0E0B0E0002331F038
:100EA0008F778083DF91CF910F91089527E0B695DA
:100EB000A795979587952A95D1F78083EA01688150
:100EC000680F6083EFCF0F931F93F80190E002C08B
:100ED000959587956A95E2F780FF08C0D9018C91B6
:100EE0009081891BDA019C91890F80831F910F915A
:100EF00008958091690381112BC080E190E0909367
:100F00005903809358038AE090E090935B038093A9
:100F10005A038FE090E090935D0380935C0361E05F
:100F200080E10E94A20261E080915A030E94A20225
:100F300061E080915C030E94A20261E080915A030B
:100F40000E94B1018FEF8093680381E08093690371
:100F500088E593E00895DC018D919C91DC01ED9191
:100F6000FC910190F081E02D0994CF92DF92EF92F5
:100F7000FF920F931F93CF93DF938C017B016A0144
:100F800060EFFC01808191810E94AB07E601EC0CCF
:100F9000FD1C6991F801808191810E94AB07CE15FB
:100FA000DF05B9F767EFF80180819181DF91CF917B
:100FB0001F910F91FF90EF90DF90CF900C94AB07B3
:100FC000EF92FF920F931F93CF93DF930150003165
:100FD00020F567FF22C0D22F142FC62F7C01602F6F
:100FE0006C2BFC0182A593A50E94AB07612F6F7744
:100FF000F70182A593A50E94AB07CF7EC03C69F0A4
:101000006D2F6F77F70182A593A5DF91CF911F9187
:101010000F91FF90EF900C94AB07DF91CF911F9150
:101020000F91FF90EF9008950F93022F242F462FDA
:1010300060EB0E94E0070F910895EF92FF920F93EB
:101040001F93CF93DF93FB01EC57FF4F20812223A7
:1010500009F450C0EB018C01688161506F70898187
:10106000682BF80182A593A50E94AB078981803F78
:1010700001F17E01F5E8EF0EF11CF701808191810D
:10108000029730F06A81F80182A593A50E94AB0710
:10109000F70180819181039768F16B81F80182A546
:1010A00093A5DF91CF911F910F91FF90EF900C943A
:1010B000AB0760EFF80182A593A50E94AB077E0104
:1010C000A7014C1B5D0BF80182A593A5FFEFEF1A5A
:1010D000FF0A2A813B812138310510F020E830E0F9
:1010E0004217530728F4F70163810E94AB07E8CF4A
:1010F00067EFD7CFDF91CF911F910F91FF90EF90C6
:1011000008956D3F48F46A3F10F4683F39F4FC01DC
:10111000808191810C94AB076E3FC8F708950F93BF
:10112000613E20F40E94E0070F910895683FE0F3CC
:101130008A960F910C94810887FF0AC09CE0980F53
:10114000923030F08D3F21F0803F18F4807F089579
:1011500080E00895982F9F7E282F2F7C203839F02B
:10116000803E29F081E0903C19F080E0089581E014
:101170000895CF93DF93EC01E881F981309711F066
:10118000CB9609958CAD823F09F49EC090F5803CCA
:1011900009F486C090F4803909F454C030F48038E2
:1011A00009F445C0DF91CF910895803A09F475C0E4
:1011B000803BC1F7EA85FB853CC0803E09F459C0FD
:1011C00058F4803D79F7EE85FF85309759F36DAD82
:1011D0008BADDF91CF910994803F09F464C0813FCA
:1011E00009F7EC89FD893097E9F28DADDF91CF9158
:1011F00009948A3F91F180F4863F09F477C028F47E
:10120000833F81F6E88DF98DEECF883FF1F0893F7D
:1012100049F6E8A1F9A11BC08C3F29F108F18E3FE6
:1012200029F18F3F09F0BECFE8A5F9A510C0EC81E8
:10123000FD81309709F4B6CF4EAD6DAD8BADDF912A
:10124000CF910994EE81FF81F4CFEC8DFD8D309725
:1012500009F4A8CFDF91CF910994EE8DFF8DF7CFE0
:10126000EAA1FBA1F4CFECA1FDA1F1CFEEA1FFA17A
:10127000EECFE889F989309709F494CF6EAD20E874
:10128000629FB001112460787F738DAD8F77682BDA
:1012900070528BADDF91CF910994E885F985C9CF64
:1012A000EC85FD8592CFEA89FB89309709F47ACFE6
:1012B0006DAD7EAD6138710510F060E870E0CE0173
:1012C000CF96DF91CF910994EE89FF89309709F489
:1012D00069CF8EAD20E8829FC001112480789F7372
:1012E0002DAD2F77822BDF91CF910994EA8DFB8D65
:1012F000AECF0F931F93CF93DF9300D000D0CDB725
:10130000DEB7FC01208991898289378539832A8358
:101310009B838C8306E815E0F801838144E050E06C
:10132000BE016F5F7F4F8F5F0E94B803F80183811A
:101330008F5F0E9441030F900F900F900F90DF91ED
:10134000CF911F910F9108950F931F93CF93DF9328
:1013500000D000D0CDB7DEB78C01262FFC018481F0
:1013600095813681303FD9F0009711F4208B04C06D
:101370008130910581F4618BF8018481958101961A
:10138000958384830F900F900F900F90DF91CF91F2
:101390001F910F910895029779F7628BEDCF603F0F
:1013A00049F48389F0E18F9FC00111248460F80122
:1013B0008787DCCF63E070E00E94A426AC01273F62
:1013C00039F493899295907F85E0840F982B9787C5
:1013D000F8014115510521F4208B128A118ACCCFD6
:1013E0004130510519F4218B128AC6CF228B273F39
:1013F00019F290898189378539839A838B832C836D
:101400008091890544E050E0BE016F5F7F4F8F5FA0
:101410000E94B803809189058F5F0E944103ACCF81
:10142000DC0116966C93169753968C91539720E196
:10143000829FC0011124603FE8F4E62FE295EF702F
:10144000E750FF0BEE0FFF1FE35EFE4F9181892BEC
:101450001F968C931F9752961C92529751961C92EE
:10146000519750961C92509715961C921E92149765
:1014700081E008958460ECCFBF92CF92DF92EF922B
:10148000FF920F931F93CF93DF938C016B01B42EC8
:10149000E52EF22E60EFFC01808191810E94100AFE
:1014A000882351F181E0F82631F060EFF801808166
:1014B00091810E94A409CB2DDE2DCC0EDD1EF801FA
:1014C00080819181CC15DD0521F069910E94A409EC
:1014D000F6CFFF2019F067EF0E94A409F801808180
:1014E0009181DF91CF911F910F91FF90EF90DF904D
:1014F000CF90BF900C947909DF91CF911F910F91FC
:10150000FF90EF90DF90CF90BF900895EF92FF9201
:101510000F931F93CF93DF930150003180F567FF46
:101520002EC0D22F142FC62F7C01FC0182A593A5BB
:101530000E94100A882319F1602F6C2BF70182A5F5
:1015400093A50E94A409612F6F77F70182A593A547
:101550000E94A409CF7EC03C39F06D2F6F77F70150
:1015600082A593A50E94A409F70182A593A5DF9106
:10157000CF911F910F91FF90EF900C947909DF911B
:10158000CF911F910F91FF90EF9008950F93022F2D
:10159000242F462F60EB0E94860A0F9108950F9327
:1015A0001F93CF936D3FD8F46A3F10F4683FC9F49E
:1015B000C62F8C01FC01808191810E94100A882332
:1015C00081F06C2FF801808191810E94A409F801BB
:1015D00080819181CF911F910F910C9479096E3F79
:1015E00038F7CF911F910F9108950F93613E20F42A
:1015F0000E94860A0F910895683FE0F38A960F9142
:101600000C94CF0A0F931F93CF93DF93082F162FBD
:10161000D42FC8E06D2F661F6627661F802F0E949B
:10162000B101DD0F61E0812F0E94B10160E0812FE7
:101630000E94B101C15071F7DF91CF911F910F91BD
:1016400008950F931F93CF93DF9300D0CDB7DEB7EC
:101650008C0169834A8360E0FC0182810E94B101B0
:101660004981F801648180810E94020B4A81F8015E
:10167000648180810E94020B61E0F80182810F90F9
:101680000F90DF91CF911F910F910C94B1010F93A7
:101690001F93CF93DF938C01C1E0D0E0F8018681E6
:1016A00097818C179D073CF040E06C2FC8010E9489
:1016B000210B2196F3CFDF91CF911F910F910895C8
:1016C0001F93CF93DF93EC01162F0E94470B40E846
:1016D000612FCE010E94210B0E9435036887798714
:1016E0008A879B87DF91CF911F9108958F929F9258
:1016F000AF92BF92CF92DF92EF92FF920F931F9320
:10170000CF93DF93CDB7DEB7A2970FB6F894DEBFC5
:101710000FBECDBF4C01CB01BA012AE0AE014F5F35
:101720005F4F5A010E94A825F50101900020E9F7BA
:1017300031978F010A191B09B8016F5F7F4F90E045
:1017400080E00E94E3277C01009759F1FC011082A0
:10175000B5010E94A928D12CC12CC016D10621F1B7
:10176000F701EC0DFD1DE114F10421F41092980431
:10177000E8E9F4E0808189831A824AE050E070E071
:1017800060E0C5010E948824FB01E451FE4F4491B2
:10179000602F6C19C4010E94210BFFEFCF1ADF0AE2
:1017A000DCCF10E000E0D7CFE114F104A9F0C701CD
:1017B000A2960FB6F894DEBF0FBECDBFDF91CF91DA
:1017C0001F910F91FF90EF90DF90CF90BF90AF905F
:1017D0009F908F900C945A27A2960FB6F894DEBF74
:1017E0000FBECDBFDF91CF911F910F91FF90EF9072
:1017F000DF90CF90BF90AF909F908F9008951F93F0
:10180000CF93DF93EC01162F0E94470B412F50E03E
:101810004F5F5F4F052E000C660B770BCE010E94C9
:10182000760B47E662E0CE010E94210B0E94350351
:10183000688779878A879B87DF91CF911F91089569
:101840001F93CF93DF93EC01162F0E94470B412F7C
:1018500050E070E060E0CE010E94760B0E943503FC
:10186000688779878A879B87DF91CF911F91089539
:10187000CF92DF92EF92FF921F93CF93DF93182FB7
:1018800081E291E0189F6001199FD00C11248AE930
:10189000E82E85E0F82EC1E0D0E0C6018C0F9D1F38
:1018A0000E94EC25F70181937F012196C232F1E07D
:1018B000DF0799F710939C070E947907612FDF914A
:1018C000CF911F91FF90EF90DF90CF900C94FF0B82
:1018D000833010F40C94380C0895862F633010F484
:1018E0000C94680C0895FF920F931F93CF93DF938E
:1018F000EC01F62E08811981C8010E94EC25F8162A
:1019000021F06F2DC8010E94F425CE01DF91CF9107
:101910001F910F91FF9008958F929F92AF92BF9267
:10192000DF92EF92FF920F931F93CF93DF93CDB788
:10193000DEB7C352D1400FB6F894DEBF0FBECDBFA5
:101940001A82198260E08E010F5F1F4FC8010E944A
:10195000730C2CEA30E080E079E09FE75FE040E143
:10196000F901A591B491F801A79FE00DF11D112493
:10197000808360E2680F618312821382948395836F
:101980005683178240878F5F2F5F3F4F803241F72A
:10199000CF5DDE4F1882C152D140AA24BB24A01AC9
:1019A000B10A83E0D82E48018FED881A8EEF980A8D
:1019B0007801F70161917F01CF018A0D9B1DCE5DFA
:1019C000DE4F99838883C252D140CE018E5D9E4FF7
:1019D0000E94730C8E149F0461F7DA94FFEDAF1A26
:1019E000FEEFBF0AD110E4CFE8E5F1E06591749114
:1019F0008DEF93E0CE5DDE4F99838883C252D14054
:101A0000CE018E5D9E4F0E94730CE7E5F1E065917B
:101A100074918EEF93E0CE5DDE4F99838883C2523E
:101A2000D140CE018E5D9E4F0E94730CE6E5F1E041
:101A3000659174918FEF93E0CE5DDE4F998388833B
:101A4000C252D140CE018E5D9E4F0E94730CCD5D7F
:101A5000DE4F0FB6F894DEBF0FBECDBFDF91CF9142
:101A60001F910F91FF90EF90DF90BF90AF909F90EC
:101A70008F90089584E0EDE7F1E0DB0101900D9295
:101A80008A95E1F784E0089580916E02811105C086
:101A900010926D0281E080936E028091520281115A
:101AA000A5C01092830110928201109285011092BC
:101AB0008401109287011092860110928901109280
:101AC000880110928B0110928A0110928D01109260
:101AD0008C0110928F0110928E0110929101109240
:101AE0009001109293011092920110929501109220
:101AF0009401109297011092960110929901109200
:101B0000980110929B0110929A0110929D011092DF
:101B10009C0110929F0110929E011092A1011092BF
:101B2000A0011092A3011092A2011092A50110929F
:101B3000A4011092A7011092A6011092A90110927F
:101B4000A8011092AB011092AA018AE592E090934D
:101B5000AD018093AC011092AE011092AF011092D2
:101B6000B0011092B5011092B4011092B701109219
:101B7000B6018FEF9FEF9093B9018093B8019093D6
:101B8000BB018093BA0183E08093BC011092BD0138
:101B90001092BE011092BF011092C001109241023A
:101BA000E1ECF1E080E8DF011D928A95E9F71092FF
:101BB000440210924502109246021092470210927F
:101BC00048021092490210924A0210924B0210925F
:101BD0004C0210924D0210924E0210924F0210923F
:101BE00050021092510281E08093520282E891E00B
:101BF000089580915003811109C089EE94E090937B
:101C00004F0380934E0381E08093500380914603FD
:101C10008111A5C01092770210927602109279027B
:101C20001092780210927B0210927A0210927D023A
:101C300010927C0210927F0210927E02109281021A
:101C400010928002109283021092820210928502FA
:101C500010928402109287021092860210928902DA
:101C60001092880210928B0210928A0210928D02BA
:101C700010928C0210928F0210928E02109291029A
:101C8000109290021092930210929202109295027A
:101C9000109294021092970210929602109299025A
:101CA0001092980210929B0210929A0210929D023A
:101CB00010929C0210929F0210929E028EE493E07A
:101CC0009093A1028093A0021092A2021092A3020C
:101CD0001092A4021092A9021092A8021092AB02D4
:101CE0001092AA028FEF9FEF9093AD028093AC0207
:101CF0009093AF028093AE0283E08093B002109283
:101D0000B1021092B2021092B3021092B402109279
:101D10003503E5EBF2E080E8DF011D928A95E9F7F3
:101D2000109238031092390310923A0310923B0339
:101D300010923C0310923D0310923E0310923F0319
:101D400010924003109241031092420310924303F9
:101D5000109244031092450381E08093460386E786
:101D600092E008950F931F93CF93DF93C82FD62F40
:101D7000142F022F8D7F813039F40E94F90D202F0E
:101D8000412F6D2F0E941408C250C23058F40E9497
:101D9000440D202F412F6D2FDF91CF911F910F9177
:101DA0000C94C60ADF91CF911F910F9108952F9245
:101DB0003F924F925F926F927F928F929F92AF92DB
:101DC000BF92CF92DF92EF92FF920F931F93CF9328
:101DD000DF93CDB7DEB72E970FB6F894DEBF0FBEF8
:101DE000CDBF8C01562EDC01AC90CA2CD12CB7E0B3
:101DF000AB9EC001112486569A4FFC01EF5DFE4F49
:101E0000208131812130310509F045C3339620818D
:101E100031813A8729878A5D9E4FDC010D90BC9104
:101E2000A02DBC87AB8789E08C9DF0018D9DF00DC6
:101E30001124E656FA4F9085B92FB295BF70BD8731
:101E40008781F0909B0792FF05C0F82EF2947FE007
:101E5000F722F3948F7044244394480E93FF4090EC
:101E60009B0789E08C9D90018D9D300D1124F90117
:101E7000E656FA4FFE83ED83F681FE872F2F30E082
:101E8000A901559547955595479558874F834370B8
:101E9000E42EA89E50011124C50184569A4F4C018E
:101EA000D501A256BA4F1D0100E09E012E5F3F4FA3
:101EB000AC01BD0189859A850E9427079E012C5F90
:101EC0003F4FA401B1018B859C850E9427078D851A
:101ED0008350833008F048C001E09E012F5F3F4FE0
:101EE000A401B10189859A850E9427079E012D5F73
:101EF0003F4FA401B1018B859C850E9427078E016D
:101F00000E5F1F4F9401A10160E0ED81FE8180858D
:101F10000E9463070E5F1F4F9401A10160E0AD8135
:101F2000BE8118968C910E946307ED81FE818085A9
:101F300080FF08C08FE79981F82FF91BF9839B81F7
:101F4000891B8B83ED85E150E83008F0B4C0F0E0E8
:101F5000E455F04F0C94B826FB0F30108610321168
:101F60001510DF112D12FF11950123563A4F39013B
:101F7000A50141565A4F5A0100E09E012F5F3F4F85
:101F8000A301B50189859A850E9427079E012D5FCF
:101F90003F4FA301B5018B859C850E9427078E01C9
:101FA0000E5F1F4F9401A10160E0AD81BE811896C4
:101FB0008C910E946307015011099301A50161E012
:101FC000ED81FE8180850E9463070D5F1F4F9401A4
:101FD000A10160E0AD81BE8118968C910E946307DB
:101FE000015011099301A50161E0ED81FE81808519
:101FF0000E946307A7CF4A81511004C08C818417C7
:1020000009F459C089E08C9DF0018D9DF00D1124DB
:10201000E656FA4F2F2D60818E2D0E94B20E0E943F
:10202000790761E00E94600B46C0511005C09B819A
:102030008981981709F43FC089E08C9D80018D9DAE
:10204000100D112406561A4F2F2D4A81D8016C917C
:102050008E2D0E94B20E2F2D4981F8016181DCCFB7
:102060004A81511003C08C814817F9F089E08C9D9A
:10207000F0018D9DF00D1124E656FA4F2F2D608151
:102080008E2D0E94B20E552071F089E08C9DF001DA
:102090008D9DF00D1124E656FA4F242D4981618162
:1020A0008E858370BACF552453949B818981981370
:1020B000ECCF5110B4CF27E02C9DC0012D9D900D89
:1020C000112486569A4FFC01EA5DFE4F8C5D9E4FAF
:1020D000DC018D919C91918380832E960FB6F894AC
:1020E000DEBF0FBECDBFDF91CF911F910F91FF904B
:1020F000EF90DF90CF90BF90AF909F908F907F90A8
:102100006F905F904F903F902F900895511004C0B2
:102110009B818981981779F2FF81F0FF4FC00E945F
:10212000F90D5C0189E08C9DF0018D9DF00D11246D
:10213000E656FA4F008120E8029F80011124818138
:10214000082BD501D8968D919C9108171907B1F0ED
:10215000402F4F772F2D62E6C5010E941408A80179
:10216000440F452F441F550B51954F772F2D63E694
:10217000C5010E941408F50111AF00AF19812F2D80
:102180004A8166E0C5010E9414082F2D412F66E2A6
:10219000C5010E9414082F2D4FE762E6C5010E9479
:1021A00014082F2D4FE763E6C5010E9414088FEF36
:1021B0009FEFD501D9969C938E93D8978EEF8E0D75
:1021C000823008F02CCF0E94440D5C0189E08C9D88
:1021D000F0018D9DF00D1124E656FA4F0081B0E814
:1021E0000B9F800111248181082BF50180AD91ADF9
:1021F00008171907C1F0402F4F772F2D62E6C50150
:102200000E94C60AA801440F452F441F550B519543
:102210004F772F2D63E6C5010E94C60AD501D996D6
:102220001C930E93D89719812F2D4A8166E0C50122
:102230000E94C60A2F2D412F66E2C5010E94C60AE0
:102240002F2D4FE762E6C5010E94C60A2F2D4FE7EA
:1022500063E6C5010E94C60A8FEF9FEFF50191AFBB
:1022600080AFDDCE511005C09B818981981709F49C
:1022700022CFFF81F0FF4FC00E94F90D5C0189E081
:102280008C9DF0018D9DF00D1124E656FA4F0081D2
:1022900020E8029F800111248181082BD501D69668
:1022A0008D919C9108171907B1F0402F4F772F2D72
:1022B00064E6C5010E941408A801440F452F441F7D
:1022C000550B51954F772F2D65E6C5010E941408D7
:1022D000F50117AB06AB19812F2D4A8166E0C501C8
:1022E0000E9414082F2D412F66E2C5010E94140898
:1022F0002F2D4FE764E6C5010E9414082F2D4FE7EC
:1023000065E6C5010E9414088FEF9FEFD501D796AF
:102310009C938E93D6978EEF8E0D823008F07FCEF1
:102320000E94440D5C0189E08C9DF0018D9DF00DB3
:102330001124E656FA4F0081B0E80B9F800111246A
:102340008181082BF50186A997A908171907C1F003
:10235000402F4F772F2D64E6C5010E94C60AA801C1
:10236000440F452F441F550B51954F772F2D65E690
:10237000C5010E94C60AD501D7961C930E93D69725
:1023800019812F2D4A8166E0C5010E94C60A2F2DB2
:10239000412F66E2C5010E94C60A2F2D4FE764E671
:1023A000C5010E94C60A2F2D4FE765E6C5010E94B0
:1023B000C60A8FEF9FEFF50197AB86AB30CE511079
:1023C00005C09C818A81981709F475CEFF81F0FFC2
:1023D00008C00E94F90D0F2D20E04A8160EC0E9498
:1023E000E0078EEF8E0D823008F019CE0E94440D6A
:1023F0000F2D20E04A8160EC0E94860A10CE511019
:1024000005C09C818A81981709F455CE2F8120FF41
:1024100010C00E94F90D29E02C9DF0012D9DF00DBA
:102420001124E656FA4F0F2D2A81408160EA0E945E
:10243000E0078EEF8E0D823008F0F1CD0E94440D42
:1024400029E02C9DF0012D9DF00D1124E656FA4F48
:102450000F2D2A81408160EACFCF511005C09C81A9
:102460008A81981709F427CE3F8130FF08C00E9467
:10247000F90D0F2D20E04A8160ED0E94E0078EEFFC
:102480008E0D823008F0CBCD0E94440D0F2D20E040
:102490004A8160EDB1CF232B09F01FCE0E9479074E
:1024A000FC018089082E000C990BD8012C9128176B
:1024B000190609F012CE0E9479072FEFFC01208B3C
:1024C0000CCE0F931F93CF93DF931F92CDB7DEB740
:1024D0000E9479078C010E94470B4BE562E0C8011E
:1024E0000E94210B45E161E0C8010E94210B68EECA
:1024F00073E080E090E00E940303198289818032BA
:1025000048F461E0CE0101960E94DF0189818F5F6E
:102510008983F4CF19828981803248F461E0CE0149
:1025200001960E94D70E89818F5F8983F4CF0F9027
:10253000DF91CF911F910F910895DF92EF92FF925B
:102540000F931F93CF93DF93CDB7DEB761970FB68D
:10255000F894DEBF0FBECDBFDC016430710508F416
:10256000A7C011968C911197803209F0A1C01296E4
:10257000EC911297E150E93008F09AC0F0E0ED5389
:10258000FD4E0C94B826CC126B13C313D213FE135A
:10259000C813581366139C1414962C911497139611
:1025A0008C91139769E0689FC001112486569A4F59
:1025B000FC01208315962C91159713968C911397F7
:1025C000689FC001112486569A4FFC0121831A96F8
:1025D0002C911A9713968C911397689FC001112420
:1025E00086569A4FFC0122831B962C911B971396BB
:1025F0008C911397689FC001112486569A4FFC0155
:1026000024831C962C911C9713968C911397689F8A
:10261000C001112486569A4FFC0123831D962C91EC
:102620001D9713968C911397689FC00111248656AD
:102630009A4FFC01258313968C911397689FC001D4
:10264000112486569A4F16962C911697F0E12F9FDB
:10265000A001112417962C911797242BFC01278396
:1026600013968C911397689FC001112486569A4F38
:1026700018962C911897F4E02F9FA0011124199619
:102680002C911997242BFC01268313968C91139778
:10269000689FF0011124E656FA4F1F968C911F9700
:1026A00090E1899F900111241E968C91822B808746
:1026B00061960FB6F894DEBF0FBECDBFDF91CF910C
:1026C0001F910F91FF90EF90DF90089513968C91DA
:1026D0008093BA06EDCF13962C91233048F741E250
:1026E00051E0249FC001259F900D11240AE915E0B7
:1026F000FC01EA59F5407F01F80161918F01C701A2
:102700008E0F9F1F9A838983CE0101960E94730CBE
:10271000F6E00B3B1F0781F70E9479078C010E94AE
:10272000470B4BE562E0C8010E94210B4CE161E0E0
:10273000C8010E94210B6CE271E080E090E00E94F1
:1027400003034CE961E0C8010E94210B6CE271E0D7
:1027500080E090E00E9403034CE161E0C8010E9428
:10276000210B6CE271E080E090E00E9403034CE9F1
:1027700061E0C8010E94210B6CE271E080E090E012
:102780000E94030395CF13968C910E94680C90CF02
:1027900013968C919FEF980F903108F089CF80931A
:1027A0009B0786CF1B821C821D8280E2898384E086
:1027B0008A838DEF93E00E94EC258D838EEF93E06A
:1027C0000E94EC258C838FEF93E00E94EC258B8395
:1027D0000E94440D20E0AE014F5F5F4F65E070E066
:1027E0008A960E943C0A0E94F90DAE014F5F5F4F2E
:1027F00065E070E08A960E94B5075ACF0CEC10E0B5
:1028000069E0D62E70E2F72EE5E0EE2EF801A591F4
:10281000B491AD9DD0011124A656BA4F17962C91B4
:10282000179716969C91169718968C911897F9827F
:10283000EA82F801459154914B833C913C83119677
:102840003C9111973D83422F50E034E055954795D8
:102850003A95E1F74E832F702F83292F30E035957D
:1028600027953595279528879370998712969C917F
:1028700012979A8714969C9114979B8713969C9114
:1028800013979C8715969C919D87982F9F709E8784
:1028900090E054E0959587955A95E1F78F870E94CF
:1028A000440D20E0AE014F5F5F4F6FE070E08A960D
:1028B0000E943C0A0E94F90DAE014F5F5F4F6FE02E
:1028C00070E08A960E94B5070F5F1F4F20E00C3E14
:1028D000120709F09BCFF98288E08A838091BA06BB
:1028E0008B830E94440D20E0AE014F5F5F4F63E099
:1028F00070E08A960E943C0A0E94F90DAE014F5F7B
:102900005F4F63E070E08A960E94B507F88A83E61D
:10291000898B0E94440D20E0AE01405F5F4F62E072
:1029200070E08A960E943C0A0E94F90DAE01405F59
:102930005F4F62E070E05ECF0E946112B9CE0F93EC
:10294000CF93DF93FC0121812E3F41F1EC01809177
:10295000BA06823051F08530C1F0813071F40E94A6
:10296000F90DBE010E941D0808C00E94440D088197
:102970002B814A8169810E94F50A0E94790762E0F1
:10298000DF91CF910F910C94600B0E94440D088150
:102990002B814A8169810E94F50AE1CFDF91CF91B5
:1029A0000F9108950F93CF93DF93FC0121812E3F68
:1029B00039F1EC018091BA068430E1F0853091F074
:1029C000833041F40E94440D08812B814A81698142
:1029D0000E94F50A0E94790762E0DF91CF910F9182
:1029E0000C94600B0E94440D08812B814A816981FF
:1029F0000E94F50A0E94F90DBE010E941D08EACF4F
:102A0000DF91CF910F9108951F920F920FB60F9201
:102A100011242F933F938F939F93AF93BF938091F4
:102A2000900490919104A0919204B09193043091FC
:102A30008F0423E0230F2D3758F50196A11DB11DFA
:102A400020938F048093900490939104A093920418
:102A5000B09393048091940490919504A09196046E
:102A6000B09197040196A11DB11D80939404909399
:102A70009504A0939604B0939704BF91AF919F9152
:102A80008F913F912F910F900FBE0F901F9018952F
:102A900026E8230F0296A11DB11DD2CF1F920F92DF
:102AA0000FB60F9211242F933F934F935F936F9321
:102AB0007F938F939F93AF93BF93CF93EF93FF93A6
:102AC000C091E1008091E100837F8093E100C3FF2A
:102AD0000FC01092E90081E08093EB001092EC00AF
:102AE00082E38093ED001092860388E08093F000EB
:102AF000C2FF1BC083E00E944103809183038823AF
:102B000041F080918303815080938303811101C040
:102B10005D9A80918203882341F0809182038150E5
:102B200080938203811101C0289AC4FF23C0809141
:102B3000E2008E7E81608093E2008091E1008F7ED2
:102B40008093E100809184038E7E80618093840372
:102B5000FF91EF91CF91BF91AF919F918F917F9115
:102B60006F915F914F913F912F910F900FBE0F90FA
:102B70001F901895C0FFECCF8091E2008E7E80619F
:102B80008093E2008091E1008E7E8093E10080914D
:102B900084038E7E8160DACF1F920F920FB60F9260
:102BA0001124CF92DF92EF92FF920F931F932F93F6
:102BB0003F934F935F936F937F938F939F93AF93C5
:102BC000BF93EF93FF93CF93DF93CDB7DEB76C97AF
:102BD000DEBFCDBF1092E9008091E80083FF25C0E1
:102BE00068E0CE0145960E94F50482EF8093E800EC
:102BF0008D8987FF39C09091E80090FFFCCF982F16
:102C0000907609F034C19E894F89588D2F89F88CB0
:102C1000911131C0803861F5809185038093F10076
:102C20001092F1008EEF8093E8006C960FB6F89446
:102C3000DEBF0FBECDBFDF91CF91FF91EF91BF916E
:102C4000AF919F918F917F916F915F914F913F9144
:102C50002F911F910F91FF90EF90DF90CF900F90E9
:102C60000FBE0F901F9018959EEF9093E800C7CF6E
:102C70001092F100D5CF913059F48111D3CF41306A
:102C8000510581F6809185038D7F80938503CACF9E
:102C9000933049F48111C6CF4130510519F6809126
:102CA00085038260F2CF953041F48091E80080FF87
:102CB000FCCF20682093E300B5CF963009F0A9C07F
:102CC0000B8D1C8D22E01092E9001092800310926F
:102CD0007F03F2122EC010927E0310927D030E9499
:102CE00043051F8299E09983FA8291E09E8390EADE
:102CF00098879AEF998720917F0330918003275F0F
:102D00003F4F3C832B838D831092E9001092800308
:102D100010927F0310937E0300937D0349E050E0FF
:102D2000BE016F5F7F4F80E00E947C030E944305DD
:102D300079CF10937E0300937D030E942F05DC0161
:102D400012960D911C910115110509F451C1D8017C
:102D5000ED91FC910480F581E02DBE016B5E7F4F0B
:102D6000C8010995009709F03EC1F8010085118559
:102D7000EACFF3E0FF120EC08F89882309F440C028
:102D8000823061F440E869E08CE491E00E945618DA
:102D9000811148CF81E28093EB0047CF813029F445
:102DA00040E867E084E491E0F1CF833099F70E9436
:102DB0002F05DC011296ED90FC908E010F5F1F4FE6
:102DC0006801E114F10479F0D701ED91FC910680DE
:102DD000F781E02DB801C7010995080F111DF70112
:102DE000E084F184EECFD8011C92F601019000201E
:102DF000E9F73197BF016C197D0940E0C601C6CFE4
:102E00006EE271E0FB01449150E080E80E947C0397
:102E100009CF973009F4BECF983021F481E0809338
:102E2000F10000CF993009F0FDCE837009F0B2CFE8
:102E3000EDE0F1E081E031E096E32191222371F0B1
:102E40008093E9003093EB00DF0111972C912093E0
:102E5000EC009093ED008F5F873079F78EE78093D9
:102E6000EA001092EA008F8980938603DBCE8B8D77
:102E70009C8D1092E9001092800310927F03909332
:102E80007E0380937D03898D811192C08E899D89F7
:102E9000913A49F4813209F07DCF47E050E064E097
:102EA00071E080E0B3CF913209F074CF833269F4DE
:102EB0008F89988DB0E0A0E080930001909301018C
:102EC000A0930201B0930301ADCE803269F48091EA
:102ED000E80082FFFCCF67E084E091E00E94F50407
:102EE0008BEF8093E8009ECE823209F09BCE8F89D3
:102EF00080930B01EEEFFFE7859194918B3F9C4D02
:102F000051F1E0E0F8E08091040190910501A09179
:102F10000601B0910701803B9440A105B105F1F491
:102F200080910B0180FD1AC0EE3F8AE0F80789F519
:102F300087E797E791838083809160008093810386
:102F400088E19BE00FB6F894A895809360000FBECF
:102F50009093600067CEEEEFFAE0D5CF808191814B
:102F60008737974709F05ECEA89580916000886109
:102F7000809360008091810380936000EE3F2AE09F
:102F8000F20789F08091FE0A9091FF0A9183808375
:102F900049CE808191818737980751F29093FF0A3B
:102FA0008093FE0AC5CF1092FF0A1092FE0A3ACE15
:102FB0000E942F05DC0112960D911C91011511053F
:102FC00009F4E8CED801ED91FC910190F081E02D5B
:102FD000BE016B5E7F4FC8010995811123CEF801B8
:102FE00000851185EBCF181619060CF41BCED2CE36
:102FF000F1E0FF12BECE62E371E004CF1F920F92A8
:103000000FB60F9211242F933F934F935F936F93BB
:103010007F938F939F93AF93BF93EF93FF9389EE2B
:1030200094E00E94C505FF91EF91BF91AF919F91F0
:103030008F917F916F915F914F913F912F910F9061
:103040000FBE0F901F9018951F920F920FB60F9200
:1030500011242F938F939F93EF93FF93E091F904A3
:10306000F091FA048081E091FF04F091000582FD67
:103070001BC09081809102058F5F8F7320910305A3
:10308000821741F0E0910205F0E0E751FB4F958F88
:1030900080930205FF91EF919F918F912F910F9057
:1030A0000FBE0F901F9018958081F4CFEF92FF9282
:1030B0000F931F93CF93DF93F82E192FE62E042F33
:1030C00081E0860F880F0E944E0383E00E944E032A
:1030D000CF2DD12FEC0EFD2EF11CCE15DF05B9F052
:1030E00007FF13C0FE0184910E944E03182F80E059
:1030F0000E944E03812321968111EFCFDF91CF9162
:103100001F910F91FF90EF9008958881EDCF81E09E
:10311000F5CFCF93DF9310929C0410929B0488EE1E
:1031200093E0A0E0B0E080939D0490939E04A09370
:103130009F04B093A00421E531E030939A042093DA
:1031400099042FEF3FEF3093A6042093A50410922B
:10315000EC041092EB048093ED049093EE04A093A2
:10316000EF04B093F00483E691E09093EA04809337
:10317000E9048DEC90E09093F6048093F5048CECD8
:1031800090E09093F8048093F70488EC90E090939B
:10319000FA048093F90489EC90E09093FC04809306
:1031A000FB048AEC90E09093FE048093FD048EEC87
:1031B00090E0909300058093FF0410920205109216
:1031C0000305109204051092050582E080938A059C
:1031D00080938B0580E995E090938D0580938C0515
:1031E00010928F0510928E0585E791E090938705E8
:1031F0008093860580E88093900581E8809391050F
:103200000E942F05FC01818190918A05482F490F6A
:103210005527551F483051059CF5A281B381109761
:1032200009F526E835E03383228320812093880541
:103230008093890580918B05820F808320918C0576
:10324000A22FB0918D058A2F821B8917C8F4818126
:103250003D91C82FD0E0C45FDE4F38838F5F8183FC
:10326000F2CFD90118962D913C911997211531056E
:10327000C1F726E835E019963C932E931897D5CFE1
:1032800081E291E0EAE9F5E0DF019C011D92215025
:103290003040E1F7EBEBF6E08BE997E0118210822A
:1032A0001482138216821582128237968E179F0718
:1032B000A9F781E080939B0710929C0710929E07CC
:1032C00010929D071092A00710929F071092A207DC
:1032D0001092A1071092A3071092A4071092A507BD
:1032E0001092A6071092A7071092A8071092A9079C
:1032F0001092AA078BEB96E090939305809392052A
:1033000088E08093940589E0809395058091190168
:1033100090911A01A0911B01B0911C018093960518
:1033200090939705A0939805B0939905DF91CF915D
:103330000895CF93DF93CDB7DEB760970FB6F894BB
:10334000DEBF0FBECDBF789484B5826084BD84B5E6
:10335000816084BD85B5826085BD85B5816085BD90
:1033600080916E00816080936E0010928100809148
:1033700081008260809381008091810081608093D0
:103380008100809180008160809380008091910015
:103390008260809391008091910081608093910080
:1033A000809190008160809390008091C100846042
:1033B0008093C1008091C10082608093C1008091A0
:1033C000C10081608093C1008091C30081608093BF
:1033D000C3008091C00082608093C0008091C200D1
:1033E00081608093C20080917A00846080937A002B
:1033F00080917A00826080937A0080917A00816067
:1034000080937A0080917A00806880937A0010928D
:10341000860310928503109284038091D700816007
:103420008093D70080EA8093D80089B5806189BDF8
:1034300089B5826089BD09B400FEFDCF61E070E00E
:1034400080E090E00E9403038091D8008F7C80612F
:103450008093D8008091E000807F8093E00080918D
:10346000E1008E7E8093E1008DE08093E200559A2A
:10347000209A0E94790740E06AE00E94210B0E9496
:1034800079078C0182E090E0D80117969C938E9387
:10349000169740E06FE0C8010E94210B41E06BE00D
:1034A000C8010E94210B40E069E0C8010E94210B85
:1034B000C8010E94470B41E06CE0C8010E94210B4B
:1034C00061E081E00E94A20261E081E00E94B1011E
:1034D00061E081E10E94A20262E085E10E94A20215
:1034E00062E084E10E94A20285E10E948801892BAA
:1034F00091F460E081E10E94B1010E943503603ADD
:103500007F408105910510F00C94682485E10E94AC
:103510008801892B91F38DEF93E00E94EC25E8E57B
:10352000F1E025913491821315C08EEF93E00E9453
:10353000EC25E7E5F1E02591349182130BC08FEF84
:1035400093E00E94EC25E6E5F1E0259134918217A5
:1035500009F4B3C003E010E061E081E10E94B10131
:103560006CE271E080E090E00E94030360E081E1A2
:103570000E94B1016CE271E080E090E00E940303E0
:103580000150110949F70E9479078C0123E0F22EBE
:10359000C8010E94470B40E162E0C8010E94210B74
:1035A00064E670E080E090E00E940303C8010E949E
:1035B000470B48E162E0C8010E94210B64E670E01D
:1035C00080E090E00E940303C8010E94470B4CE199
:1035D00062E0C8010E94210B64E670E080E090E0A8
:1035E0000E940303C8010E94470B4DE062E0C8013E
:1035F0000E94210B64E670E080E090E00E940303EB
:10360000C8010E94470B45E062E0C8010E94210BFF
:1036100041E061E0C8010E94210B64E670E080E0B7
:1036200090E00E940303C8010E94470B41E062E062
:10363000C8010E94210B41E261E0C8010E94210BF8
:1036400064E670E080E090E00E940303C8010E94FD
:10365000470B41E661E0C8010E94210B64E670E07F
:1036600080E090E00E940303C8010E94470B42E6FD
:1036700061E0C8010E94210B64E670E080E090E008
:103680000E940303C8010E94470B42E461E0C801A5
:103690000E94210B40E162E0C8010E94210B64E618
:1036A00070E080E090E00E940303C8010E94470B95
:1036B000FA94F1106DCF0E948C0C06E915E061E0E0
:1036C000D8018D918D010E94A202B5E00A391B0735
:1036D000B1F760E088E00E94A20260E089E00E9409
:1036E000A20290E080E00E94EC250E94680C0E94FB
:1036F000440D22ED34E1FC01318320830E94F90D59
:103700002FE934E1DC012D933C930E94440D0DE937
:1037100012E1FC01138B028B0E94F90DDC01539620
:103720001C930E9352970E94440D0DE61CE0FC0181
:10373000158704870E94F90DDC011D961C930E93DA
:103740001C970E94440D8C01DC019A96ED91FC912E
:103750009B971582148216861586148613869C966E
:103760001C929C979E961C929E979D961C929D974C
:10377000D5961C921E92D497D3961C921E92D297E5
:10378000EE24EA94FE2CD796FC92EE92D697D99628
:10379000FC92EE92D8970E943503F801EE53FF4F4A
:1037A000608371838283938333971082F80114AE10
:1037B00013AE15AE16AEE054FF4F11821082D80141
:1037C000DA968C91DA97817082608E7FDA968C938C
:1037D0000E94F90D8C01DC019A96ED91FC9101900B
:1037E000F081E02DA089B18982E08C93A485B58514
:1037F0001C92A685B7858FE38C93108EA489B5891A
:1038000086E08C93A289B3898C9180618C93A28984
:10381000B3898C9188608C93A289B3898C918068DC
:103820008C930288F389E02D80818F7D8083F8015D
:1038300014A616A615A615AA14AA13AA12AAF7AAC0
:10384000E6AAF1AEE0AE0E943503F801EE53FF4F59
:10385000608371838283938333971082D801DC96CF
:103860001C92DC97DB961C92DB97DD961C92DD9711
:10387000DE961C92319611821082F80182AD817021
:103880008260816082AF0E94440DDC01DA961C9256
:103890000E94F90DFC0112AE0E9479078C0195E09F
:1038A000F92E41E061E0C8010E94210B48E062E08E
:1038B000C8010E94210B60EA70E080E090E00E9465
:1038C0000303C8010E94470B40E461E0C8010E9465
:1038D000210B41E062E0C8010E94210B60EA70E028
:1038E00080E090E00E940303C8010E94470B48E07B
:1038F00061E0C8010E94210B40E462E0C8010E941F
:10390000210B60EA70E080E090E00E940303C801B0
:103910000E94470BFA94F110C4CF0E943503D801DE
:1039200018966D937D938D939C931B97A2E08A2E9E
:10393000912CB0E8AB2EB12CCC24C394D12C19829D
:103940008981803248F460E0CE0101960E94DF0157
:1039500089818F5F8983F4CF19828981803248F40D
:1039600060E0CE0101960E94D70E89818F5F898326
:10397000F4CF0E94440D7C01FC01F4A5FD83F131DC
:1039800008F000C11C012FEC220E311CD7019A96C1
:103990000D911C91F80183859485892B09F454C0FD
:1039A000D1018C918E7F8C93D7019A96ED91FC91E9
:1039B000858596859C012F5F3F4F368725878E0F23
:1039C0009F1FDC0117961C9183859485019794872E
:1039D00083871D3FD9F2D701D4968D919C91D597BD
:1039E000009709F0A1C29F961C939F979D960C91FA
:1039F000802F0E949C080E94AA08882339F017FD96
:103A000005C0F70107A710ABD5AAC4AAD7019F9696
:103A10001C91812F0E949C08813F09F44EC208F03E
:103A2000DFC1803B49F008F0B2C1803929F0803A0B
:103A300019F0803809F0B2C1E3E0F0E0D701D39685
:103A4000FC93EE93D2973CC216861586809187042C
:103A500090918804A0918904B0918A0440918B04CC
:103A600050918C0460918D0470918E04841B950B91
:103A7000A60BB70B8F739927AA27BB27892B8A2BF5
:103A80008B2B09F4E8C080918B0490918C04A09159
:103A90008D04B0918E04880F991F880F991FFC0127
:103AA000E957FC4F8081918142804F865380588A2C
:103AB00020918704309188044091890450918A04B0
:103AC00040908B0450908C0460908D0470908E0414
:103AD0002415350546055705D1F040908B045090CC
:103AE0008C0460908D0470908E042FEF421A520A5D
:103AF000620A720A3FE343225524662477244092E7
:103B00008B0450928C0460928D0470928E04D801C4
:103B10001F968C931F9750969C935097EF855196C4
:103B2000EC935197F8895296FC935297882321F190
:103B3000282F30E064E0359527956A95E1F7539694
:103B40006C91539762171306E9F48F70682F70E039
:103B50001B962D913C91FB01EE0FFF1FE35DFE4F85
:103B6000E181E13009F4F5C008F4DBC0E23009F48A
:103B700000C1E33009F4DAC0F80183859485892B0C
:103B800009F00ECF0E94F90D7C01DC019C964C904F
:103B9000B0E1B41508F45FC38C0101531F4FD70186
:103BA0009A96ED91FC9180819181DC01ED91FC91DF
:103BB0000084F185E02D0995892B09F44CC3F801A7
:103BC00080818E7F8083D7019A96ED91FC918081D0
:103BD0009181DC01ED91FC910284F385E02D099542
:103BE000782EBDEF8B17D9F2F70184A995A900971C
:103BF00009F045C477A665A4862D0E949C080E9402
:103C0000AA08882369F077FC0BC0D7019F966C92B5
:103C10009F97D0967C92D097D596DC92CE92D497EF
:103C2000F70177A4872D0E949C08813F09F4F2C315
:103C300008F083C3803B49F008F0F4C2803929F0D2
:103C4000803A19F0803809F0F5C223E030E0F7013E
:103C500033AB22ABE4C3809189050E94DC04882346
:103C600009F45BC08091870490918804A091890435
:103C7000B0918A040196A11DB11D2C013D012FE3D5
:103C8000422255246624772480918B0490918C04E1
:103C9000A0918D04B0918E0484159505A605B705F5
:103CA00009F4F1CE809189050E94DC0444E050E0E3
:103CB000BE016F5F7F4F809189050E946804049761
:103CC0000CF4E1CE8091870490918804A09189043E
:103CD000B0918A04880F991F880F991F89579C4FAC
:103CE00049815A816B817C81DC014D935D936D9399
:103CF0007C931397409287045092880460928904C1
:103D000070928A04BFEF4B1A5B0A6B0A7B0AEFE3DF
:103D10004E22552466247724B7CF188A1F8690E058
:103D2000C7CE843019F06730710581F4F801E20FD5
:103D3000F31F97834F8440862D5F3F4FD8011C9619
:103D40003C932E931B97B889B18716CF65307105C8
:103D500061F4A9014F5F5F4FF80154874387200F3B
:103D6000311FD90117969C9307CF6630710509F072
:103D700003CFF801E20FF31F97832E5F3F4FD80167
:103D80001C963C932E931B97BF85B087F5CE803D44
:103D900009F493C0A8F4803C09F48FC0F10180813C
:103DA00081608083D7011296ED91FC91309709F0E4
:103DB0000995F70115AA14AA13AA12AA15A6E2CE0C
:103DC000803E09F439CE803F49F7D701D396BC92A3
:103DD000AE92D2979D961C929D97DF968C9370C061
:103DE000873F99F308F062C0833F09F466C008F486
:103DF00023CE863F99F6F70184AF13AE15AE16AE0B
:103E000081E0E154FF4F8083D701D5961C921E922A
:103E1000D497D3961C921E92D297D701DC968C91A0
:103E2000DC97803941F4DE968C91DE97811103C0D6
:103E300080E8DC968C93F70184AD8058813630F4AD
:103E400083AD4D80481611F0411003C0C7010E9498
:103E5000B908D701DA968C91DA97982F917080FF84
:103E600091CE282F2E7F09F48DCEDC966C91DC97B5
:103E700020E8260F213608F03DC1DB960C914D80DD
:103E8000401619F091E0411090E08695823009F4D7
:103E900024C1833009F42BC1813009F073CED701DE
:103EA000DE962C91DE97DD964C911DC18D3F08F476
:103EB000A2CF8E3F08F09FCF71CFF70193AA82AABD
:103EC000D701D4962D913C91D597D2964D915C9186
:103ED000D3974150510924173507F8F0DC968C939D
:103EE000DC971F701F5FDB961C93DB97D0968C913D
:103EF000D097DD968C93DD97DE961C92F701E05407
:103F0000FF4FD182C082F70115AA14AA13AA12AAE0
:103F100081E0E154FF4F808380CF2F5F3F4FD596E4
:103F20003C932E93D49732CD17FF0CC01D3F08F061
:103F300052C0183F08F052C0103F09F45BC0173F51
:103F400009F458C0D7019F962C91F701E80FF91F8B
:103F5000203F19F0273F09F07CC017AFF70162A896
:103F600073A89301215031098217930708F4B1C057
:103F700037A4970121543F4F290130EF331619F030
:103F800047EF341268C0F701E254FF4F708080EFB2
:103F90008083D701DC968C93DC9780E8DD968C9348
:103FA000DD97DE961C92DE97DB961C923296B182EC
:103FB000A08281E0F2018083C7010E94B90887EFE7
:103FC000D701DF968C93F701E05CFF4F7082F70119
:103FD00095AA84AAD7CD1E3F08F4B4CFF70114AF39
:103FE00015AE16AE13AEE054FF4FD182C08281E011
:103FF000319791CFD701DF962C91203F11F0273FC9
:1040000019F59C012F5F3F4F8E0D9F1DFC0117AFCF
:1040100080EFD701DC968C93DC97DD962C93DD97AF
:10402000DE963C93DE97DB961C92F701E054FF4F3F
:104030003183208381E031978083F70115AA14AA88
:1040400013AA12AA15A6E9CED1018C9181608C9396
:10405000A9CE17A783CF832D0E949C08182FD701C4
:10406000DC968C930E94AA08882329F1832D8F70F7
:104070008F5FF70183AFF70180A985AF80E0F3E0A0
:104080006F16710419F4D701D1968C91F70186AFA0
:1040900015AA14AA13AA12AA81E0D2018C93103B8C
:1040A00039F068F4103921F0103A11F0103869F441
:1040B000F70135A6B2CED701DB961C92DCCF103DBE
:1040C000B9F3103EA9F3103C99F3D7019D961C92C9
:1040D000A4CE019695AB84AB59CC992309F452CD6B
:1040E000F70126AD45ADC7010E94F50A4BCD9111F0
:1040F00049CDD5CEE0E1E60FE03108F043CDF0E068
:10410000EC57FF4D0C94B8269920F520CA20AA2020
:10411000C21DC21D9420C21D9420C21D9420942053
:104120009420C21D94209420C7018A960E94CF0A31
:1041300029CDA701415C5F4FF70165AD76AD6138D0
:10414000710510F060E870E021E0C7018A960E94D6
:104150003C0A18CDDD961C91DD9763EF9A968D9100
:104160009C910E94100A882309F40CCD63EFF7019B
:1041700082A593A50E94A409612F6F77D7019A9613
:104180008D919C910E94A409F70182A593A50E949C
:104190007909F8CCDD961C91DD97DE960C91DE97BF
:1041A00062EF9A968D919C910E94100A882309F4DF
:1041B000E9CCB0E80B9FB0011124FB01E12B8F018A
:1041C00062EFD7019A968D919C910E94A409602F6D
:1041D0006F77F70182A593A50E94A409000F012F14
:1041E000001F110B1195602FC8CFDE960C91DE9742
:1041F000DD961C91DD9761EF9A968D919C910E94BE
:10420000100A882309F4BECC61EFF70182A593A5BB
:104210000E94A409F0E11F9FB001112460770F7084
:10422000602BACCF803D09F4F5C008F075C0803C30
:1042300009F4F0C0F801808181608083D701129673
:10424000ED91FC91309709F00995F70115AA14AA90
:1042500013AA12AA15A685E10E9488018C0184E1A7
:104260000E9488017C010E9435032B013C01809152
:104270009F079091A007012B09F0A2C2009709F0B7
:104280006EC221E030E03093A00720939F07409258
:10429000A3075092A4076092A5077092A607809189
:1042A000A1079091A207EF2809F0E8C2009709F052
:1042B000AEC281E090E09093A2078093A107409264
:1042C000A7075092A8076092A9077092AA070E94B8
:1042D00079078C010E943503D80118964D905D90A6
:1042E0006D907C901B976419750986099709683E43
:1042F00073408105910518F0C8010E94470BE0E06A
:10430000F0E0EF2B09F41BCB0E94B105882309F4E0
:1043100013CB0E94000010CB803E09F496CC803F66
:1043200009F088CFD701D396BC92AE92D2979D96D2
:104330001C929D97DF968C9372C0873F99F308F08B
:1043400062C0833F09F466C008F47FCC863F09F061
:1043500071CFD701DC968C93DC97DB961C92DB97B0
:10436000DD961C92DD97DE961C9281E0F701E15408
:10437000FF4F8083F70115AA14AA13AA12AAD70126
:10438000DC968C91DC97803941F4DE968C91DE9737
:10439000811103C080E8DC968C93F70184AD8058CE
:1043A000813628F483AD481611F0411003C0C701CF
:1043B0000E94B908D701DA968C91DA97982F9170FC
:1043C00080FF49CF282F2E7F09F445CFDC966C91D2
:1043D000DC9720E8260F213608F041C1DB960C91CE
:1043E000401619F091E0411090E08695823009F472
:1043F00026C1833009F430C1813009F02CCFF70198
:1044000026AD45AD25C18D3F08F4A3CF8E3F08F002
:10441000A0CF10CFD701D3969C928E92D297D7017E
:10442000D4962D913C91D597D2964D915C91D3978E
:104430004150510924173507E0F0DC968C93B72DD5
:10444000BF707B2E7394F70173AE80A985AF16AE53
:10445000E054FF4FD182C082D701D5961C921E92A4
:10446000D497D3961C921E92D29781E03197808385
:1044700086CF2F5F3F4FF70135AB24AB90CB77FE54
:1044800012C0FCEFF71508F459C038EF532E75141D
:1044900008F058C020EF622E761409F465C027EFAB
:1044A000721609F461C0D7019F962C91F701E80FAD
:1044B000F91F203F19F0273F09F07EC077AEF701C2
:1044C00062A873A89301215031098217930708F459
:1044D000B2C037A4970121543F4F3E832D8330EF64
:1044E000331619F047EF341269C0F701E254FF4F59
:1044F000708080EF8083D701DC968C93DC9780E816
:10450000DD968C93DD97DE961C92DE97DB961C92EF
:104510003296B182A08281E0ED81FE818083C70165
:104520000E94B90887EFD701DF968C93F701E05C12
:10453000FF4F7082F70195AA84AA8DCE3EEF7316C5
:1045400008F4B1CFD701DC967C92DC97DD961C9203
:10455000DD97DE961C92DE97DB961C92F701E05405
:10456000FF4FD182C08281CFF70127AD203F19F0E4
:10457000273F09F05FCE9C012F5F3F4F8E0D9F1D9F
:10458000DC01DF967C9280EFF70184AF25AF36AF78
:1045900013AEE054FF4F3183208381E03197808355
:1045A000D701D5961C921E92D497D3961C921E9238
:1045B000D2979D961C92E3CE77A681CF832D0E9441
:1045C0009C08182FD701DC968C930E94AA08882398
:1045D00031F1832D8F708F5FF70183AFF70180A9D1
:1045E00085AF80E0F3E06F16710419F4D701D1961E
:1045F0008C91F70186AF15AA14AA13AA12AA81E01A
:10460000AD81BE818C93103B39F068F4103921F0F4
:10461000103A11F0103869F4F70135A6B0CED70181
:10462000DB961C92DBCF103DB9F3103EA9F3103C92
:1046300099F3D701BECF019695AB84ABB0CA99234D
:1046400009F409CED701DE962C91DE97DD964C91C8
:10465000C7010E948F08FFCD9111FDCDD0CEE0E1C2
:10466000E60FE03108F0F7CDF0E0E75CFC4D0C948C
:10467000B8264E2398237A236A232B212B21492302
:104680002B2149232B214923492349232B2149232A
:104690004923C7018A960E948108DDCD3701FFE3D7
:1046A0006F0E711CDD960D911C910138110510F0F3
:1046B00000E810E0060D171D0615170509F4CBCD0F
:1046C000F30161913F01D7019A968D919C910E94CF
:1046D000AB07F2CFF70115AD63EF82A593A50E945A
:1046E000AB07612F6F77D7019A968D919C910E94AD
:1046F000AB07B1CDF70106ADF0E80F9F80011124A3
:10470000DD968C91DD97082B62EF9A968D919C91A6
:104710000E94AB07602F6F77F70182A593A50E94D7
:10472000AB07000F012F001F110B1195602FDACF7F
:10473000F70165ADF0E16F9FB00111246077DE965F
:104740001C91DE971F70162B61EF9A968D919C91AC
:104750000E94AB07612FF70182A593A5C8CF0197EF
:1047600009F09DCD8091A3079091A407A091A50782
:10477000B091A607A3019201281B390B4A0B5B0BD2
:10478000DA01C901893E9340A105B10508F487CD3E
:1047900042E050E05093A00740939F0780919D070F
:1047A00090919E07019709F07ACD10929E07109282
:1047B0009D070E94790760919B070E94200C6FCD96
:1047C000019791F480919D0790919E07009789F43D
:1047D00080919B078F708F5F80939B070E94790762
:1047E00060919B070E94200C1092A00710929F07D7
:1047F00056CD0197C9F780919C07823020F48F5FD6
:104800000E94680CF1CF80E00E94380CEDCF81301F
:10481000910509F05CCD4091A7075091A8076091E0
:10482000A9077091AA07441A550A660A770AA9EEE1
:104830004A16A3E05A066104710408F448CDE2E088
:10484000F0E0F093A207E093A10720919D0730913B
:104850009E072115310559F490939E0780939D077B
:104860000E94790760919C070E94FF0B30CD213098
:10487000310509F02CCD0E94611229CD0197A9F4D0
:1048800080919D0790919E070097A1F480919B07CE
:1048900090E00E968F7099278F5F80939B070E9400
:1048A000790760919B070E94200C1092A20710923A
:1048B000A1070DCD0197C9F780919C07882321F0AE
:1048C00081500E94680CF1CF82E00E94380CEDCF3D
:1048D00061E081E10E94B10164E170E080E090E07C
:1048E0000E94030360E081E10E94B10110E000E05A
:1048F00060E0C8010E94F4250F5F1F4F0115E4E03E
:104900001E07B1F761E081E10E94B1010C948B1A9E
:10491000B0E0A0E0EEE8F4E20C945F265C016B01ED
:104920007A016115710519F0FB0191838083E1140F
:10493000F10451F0C7010297839730F040E030E076
:1049400020E090E072C05E01E5012196F501108142
:10495000812F90E00E949F25892BA9F71D3201F538
:104960002196F501118101E0E114F10409F4DAC0A6
:10497000F0E1EF16F10409F082C0103359F4888198
:104980008F7D883509F076C0198122960260F0E1AA
:10499000EF2EF12C812C912CA12C88E0B82E8CC00C
:1049A0001B3221F4E5012296F501118100E0DCCFF4
:1049B000EAE0EE16F10409F4BBC0F0E1EF16F104F1
:1049C00009F06DC0E7CF78E0E72EF12C812C912C17
:1049D000A12C60E1B62E70C03FE9310F3A3128F4C6
:1049E00039EA332E80C021E09AC0302F3170C114D3
:1049F000D10431F0222309F12197F601D183C0833C
:104A000027FF21C060E070E080E090E8311104C031
:104A10006FEF7FEF8FEF9FE722E230E03093AC073C
:104A20002093AB07462F372F282F642F732F822F09
:104A3000CDB7DEB7E1E10C947B2601FF04C02297DD
:104A4000F601D183C083332341F090958095709512
:104A500061957F4F8F4F9F4FE5CF97FFE3CF82E266
:104A600090E09093AC078093AB076FEF7FEF8FEFF1
:104A70009FE7D8CF10E3E114F10409F4A4CF28E0B4
:104A8000E216F10409F4A2CF0CF092CF812C912C04
:104A9000A12CE0E4BE2E82E0E816F10469F060E0AB
:104AA00070E080E090E897010F2C000C440B550B50
:104AB0000E94122649015A0120E060E070E0CB011B
:104AC00027010F2C000C66087708FE0150ED352EEB
:104AD000310E39E0331540F43FEB310F3A3108F035
:104AE0007BCF49EC342E310E3E141F040CF07DCFE9
:104AF00027FD15C086169706A806B90678F0A3010B
:104B000092010E940226630D711D811D911D61306D
:104B10007105810520E8920708F465CF2FEF2196F3
:104B20001081D3CF103309F42ACF2AE0E22EF12CE2
:104B30009CEC892E982CA82C9CE0B92EBDCF91110D
:104B40000C94D925803219F089508550C8F7089502
:104B5000BB272A3051F4992342F4BDE29095809509
:104B6000709561957F4F8F4F9F4F0C94B825BB2751
:104B7000FA01A62F6217710581059105330B30FBF1
:104B800066F0AA27660F771F881F991FAA1FA21712
:104B900010F0A21B63953850A9F7A05DAA3308F066
:104BA000A95DA19336F7B111B1931082CA010C949B
:104BB000DC25992788270895DC01FC01672F719176
:104BC0007723E1F7329704C07C916D9370836291F3
:104BD000AE17BF07C8F30895F999FECF92BD81BD06
:104BE000F89A992780B50895262FF999FECF1FBA14
:104BF00092BD81BD20BD0FB6F894FA9AF99A0FBE06
:104C000001960895DB018F939F930E945326BF91D5
:104C1000AF91A29F800D911DA39F900DB29F900D0B
:104C200011240895A1E21A2EAA1BBB1BFD010DC081
:104C3000AA1FBB1FEE1FFF1FA217B307E407F5074C
:104C400020F0A21BB30BE40BF50B661F771F881F28
:104C5000991F1A9469F760957095809590959B01BE
:104C6000AC01BD01CF010895052E97FB1EF4009401
:104C70000E944B2657FD07D00E94122607FC03D046
:104C80004EF40C944B2650954095309521953F4F0E
:104C90004F4F5F4F089590958095709561957F4F28
:104CA0008F4F9F4F08950E949526A59F900DB49F0A
:104CB000900DA49F800D911D112408952F923F9275
:104CC0004F925F926F927F928F929F92AF92BF921C
:104CD000CF92DF92EF92FF920F931F93CF93DF93C8
:104CE000CDB7DEB7CA1BDB0B0FB6F894DEBF0FBE25
:104CF000CDBF09942A88398848885F846E847D8472
:104D00008C849B84AA84B984C884DF80EE80FD8073
:104D10000C811B81AA81B981CE0FD11D0FB6F894E9
:104D2000DEBF0FBECDBFED010895A29FB001B39FBE
:104D3000C001A39F700D811D1124911DB29F700DA4
:104D4000811D1124911D0895AA1BBB1B51E107C0B1
:104D5000AA1FBB1FA617B70710F0A61BB70B881F0B
:104D6000991F5A95A9F780959095BC01CD0108959A
:104D7000EE0FFF1F0590F491E02D09940F931F9300
:104D8000CF93DF938230910510F482E090E0E091C0
:104D9000AF07F091B00730E020E0B0E0A0E030973E
:104DA00099F42115310509F44AC0281B390B243028
:104DB0003105D8F58A819B816115710589F1FB0167
:104DC00093838283FE0111C040815181028113814E
:104DD00048175907E0F04817590799F4109761F000
:104DE00012960C93129713961C933296CF01DF9173
:104DF000CF911F910F9108950093AF071093B007C3
:104E0000F4CF2115310551F04217530738F0A901AD
:104E1000DB019A01BD01DF01F801C1CFEF01F9CF3C
:104E20009093B0078093AF07CDCFFE01E20FF31F41
:104E3000819391932250310939832883D7CF2091D0
:104E4000AD073091AE07232B41F42091150130912D
:104E500016013093AE072093AD07209113013091D6
:104E600014012115310541F42DB73EB740911701CA
:104E700050911801241B350BE091AD07F091AE075E
:104E8000E217F307A0F42E1B3F0B2817390778F021
:104E9000AC014E5F5F4F2417350748F04E0F5F1F80
:104EA0005093AE074093AD07819391939FCFF0E06D
:104EB000E0E09CCFCF93DF930097E9F0FC013297BD
:104EC00013821282A091AF07B091B007ED0130E0DC
:104ED00020E01097A1F420813181820F931F20914F
:104EE000AD073091AE072817390709F061C0F0937C
:104EF000AE07E093AD07DF91CF910895EA01CE1799
:104F0000DF07E8F54A815B819E0141155105B1F744
:104F1000E901FB83EA8349915991C40FD51FEC172E
:104F2000FD0761F4808191810296840F951FE9014C
:104F300099838883828193819B838A83F0E0E0E078
:104F400012968D919C9113970097B9F52D913C91F4
:104F50001197CD010296820F931F2091AD073091DA
:104F6000AE072817390739F6309751F51092B00778
:104F70001092AF07B093AE07A093AD07BCCFD38319
:104F8000C28340815181840F951FC817D90761F4EE
:104F90004E5F5F4F88819981480F591F518340832D
:104FA0008A819B81938382832115310509F0B0CFDB
:104FB000F093B007E093AF079ECFFD01DC01C0CFB7
:104FC00013821282D7CFB0E0A0E0E9EEF7E20C94B2
:104FD00060268C01009751F4CB010E94BE268C0103
:104FE000C801CDB7DEB7E0E10C947C26FC01E60FEA
:104FF000F71F9C0122503109E217F30708F49DC006
:10500000D901CD91DC911197C617D70798F0C5301B
:10501000D10530F3CE0104978617970708F3C61B16
:10502000D70B2297C193D1936D937C93CF010E94AC
:105030005A27D6CF5B01AC1ABD0A4C018C0E9D1EBF
:10504000A091AF07B091B007512C412CF12CE12C6D
:10505000109731F58091AD079091AE0788159905AD
:1050600009F05CC04616570608F058C0809113013D
:1050700090911401009741F48DB79EB740911701AC
:1050800050911801841B950BE817F90708F055C0DB
:10509000F093AE07E093AD07F90171836083A0CF71
:1050A0008D919C91119712966C90129713967C900B
:1050B0001397A815B90559F56C0142E0C40ED11C2F
:1050C000CA14DB0420F1AC014A195B09DA0112961B
:1050D000159780F06282738251834083D9016D936A
:1050E0007C93E114F10471F0D7011396FC93EE93D5
:1050F000129776CF22968C0F9D1FF90191838083A2
:10510000F301EFCFF093B007E093AF0769CF4816F4
:10511000590608F42C017D01D3019ACFCB010E94DE
:10512000BE267C01009749F0AE01B8010E94A0287C
:10513000C8010E945A27870153CF10E000E050CFEA
:10514000FB01DC0102C001900D9241505040D8F7A4
:105150000895FB01DC0101900D920020E1F7089514
:04516000F894FFCFF1
:10516400FFFFFFFF00E100000000000000C180819C
:105174000000000000B10780000203040500008065
:10518400089009A00AB00BC00CD00DE00E0000017D
:1051940000020203030400050006000700080309D7
:1051A400030A030B030C020D020E030F010000009F
:1051B4000026015204B3034B03E504BA049204002D
:1051C400000000E605020574053206A5058305976F
:1051D40005000000005506570652063A0D4D494495
:0251E400490080
:00000001FF
