:100000000C94FC000C9424010C9424010C94240105
:100010000C9424010C9424010C9424010C942401CC
:100020000C9424010C9424010C9412100C94901044
:100030000C9424010C9424010C9424010C942401AC
:100040000C9424010C9424010C9424010C9424019C
:100050000C9424010C9424010C9424010C94C80FDA
:100060000C9424010C94E8120C94C2120C942401F8
:100070000C9424010C9424010C9424010C9424016C
:100080000C9424010C9424010C9424010C9424015C
:100090000C9424010C9424010C9424010C9424014C
:1000A0000C9424010C9424010C9424010F0E0C09CF
:1000B0001F1814100D0B0A021E1915110807040150
:1000C0001D1A1612060503001C1B17137E306D79CE
:1000D000335B5F707F7B0F0E0C091F1814100D0B24
:1000E0000A021E191511080704011D1A1612060529
:1000F00003001C1B1713080B000202020000090476
:100100000000010202000005240010010524010185
:1001100001042402060524060001070581031000DE
:100120004009040100020A00000007050202400025
:1001300000070583024000000403090412010002C5
:10014000EF020140501D4F610001010203014172A5
:100150006475696E6F005348494B204E333242003C
:100160001E0101070605040100080A0B0C0D090019
:10017000000000240027002A002D003000000000AD
:1001800000250028002B002E003100000000002375
:1001900000260029002C002F00040404040403049A
:1001A0000502020202040302020202060606060615
:1001B0000604040202020404040802011040804004
:1001C000102040804080080204018040201002017D
:1001D000108010204040200000000200090F0000A5
:1001E000030401000C0000000000000000000000FB
:1001F0000000000000001A1311241FBECFEFDAE048
:10020000DEBFCDBF11E0A0E0B1E0E2E4FAE402C05D
:1002100005900D92AE37B107D9F728E0AEE7B1E00F
:1002200001C01D92AF32B207E1F710E0CCEFD0E091
:1002300004C02197FE010E942723CB3FD107C9F7B5
:100240000E9416160C941F250C940000CF93DF9388
:100250001F92CDB7DEB76983DC01ED91FC9102807E
:10026000F381E02D41E050E0BE016F5F7F4F0995C3
:100270000F90DF91CF91089581508F3008F047C0E3
:10028000E82FF0E0EA5BFE4F0C942723630167013F
:1002900055015B015F018701870187016A017001D8
:1002A000740178017E0187018201809180008F773F
:1002B000809380000895809180008F7DF9CF809198
:1002C0008000877FF5CF84B58F7784BD089584B58E
:1002D0008F7DFBCF809190008F7780939000089561
:1002E000809190008F7DF9CF80919000877FF5CF2E
:1002F0008091C0008F778093C00008958091C000E6
:100300008F7DF9CF8091C200877F8093C2000895CE
:10031000CF93DF93ECEEF1E08491EDECF1E0D4913A
:10032000EEEAF1E0C491CC23A1F081110E943C01DE
:10033000EC2FF0E0EE0FFF1FE557FE4FA591B491B3
:10034000EC91ED2381E090E009F480E0DF91CF9122
:10035000089580E090E0FACF1F93CF93DF93282F8A
:1003600030E0F901E952FE4F8491F901E854FE4F63
:10037000D491F901E756FE4FC491CC23A9F0162F72
:1003800081110E943C01EC2FF0E0EE0FFF1FE358BB
:10039000FE4FA591B4918FB7F894EC91111108C05C
:1003A000D095DE23DC938FBFDF91CF911F9108950D
:1003B000DE2BF8CFCF93DF9390E0FC01E854FE4FA3
:1003C000249187569E4FFC0184918823C9F090E0C8
:1003D000880F991FFC01E159FE4FA591B491FC01D2
:1003E000E358FE4FC591D49161110DC09FB7F894A9
:1003F0008C91209582238C938881282328839FBF0A
:10040000DF91CF910895623051F49FB7F8943C91F9
:10041000822F809583238C93E8812E2BEFCF8FB78B
:10042000F894EC912E2B2C938FBFEACF3FB7F89422
:100430008091A2029091A302A091A402B091A50282
:1004400026B5A89B05C02F3F19F00196A11DB11D2F
:100450003FBFBA2FA92F982F8827BC01CD01620F6B
:10046000711D811D911D42E0660F771F881F991F26
:100470004A95D1F708958F929F92AF92BF92CF92F3
:10048000DF92EF92FF924B015C010E9416026B011A
:100490007C010E9416026C197D098E099F09683E35
:1004A000734081059105A8F321E0821A9108A10803
:1004B000B10888EEC80E83E0D81EE11CF11C81143F
:1004C0009104A104B10429F7FF90EF90DF90CF9041
:1004D000BF90AF909F908F9008952FB7F894609140
:1004E0009E0270919F028091A0029091A1022FBF65
:1004F00008958093E9008091F200882319F08AE33F
:100500008093E800089583E00C94790240918D0176
:1005100050918E0120918B0130918C01421753072D
:10052000B4F49091E8009570E1F39091E80092FDA9
:1005300019C08093F10080918D0190918E010196F8
:100540008F739927892B19F48EEF8093E80080919F
:100550008D0190918E01019690938E0180938D0173
:1005600081E0089580E00895EF92FF920F931F932A
:10057000CF93DF93F82E192FE62E042F81E0860FFC
:10058000880F0E94860283E00E948602CF2DD12F21
:10059000EC0EFD2EF11CCE15DF05B9F007FF13C0E0
:1005A000FE0184910E948602182F80E00E9486023C
:1005B000812321968111EFCFDF91CF911F910F9170
:1005C000FF90EF9008958881EDCF81E0F5CFDF9225
:1005D000EF92FF920F931F93CF93DF93D82E8A0150
:1005E000EB017B01E40EF51ECE15DF0559F0D7FEB9
:1005F00012C0FE0184910E94860221968111F4CFDF
:100600000FEF1FEFC801DF91CF911F910F91FF9066
:10061000EF90DF9008958881EECF2FB7F894877020
:100620008093E9009091E800892F807295FF04C0C3
:100630009091F20080E4891B2FBF089583E00E940F
:100640000D0390E008957F928F929F92AF92BF9298
:10065000CF92DF92EF92FF920F931F93CF93DF938E
:10066000C82E8B017A0180919401811110C08FEF07
:100670009FEFDF91CF911F910F91FF90EF90DF904F
:10068000CF90BF90AF909F908F907F900895809172
:10069000920180FF05C08091E00082608093E000BD
:1006A000CE2DDF2DD12C8AEFB82E8C2D8770982E71
:1006B0008C2D8072882E8C2D8074782E9AE3A92E32
:1006C000209719F4DD2009F452C08C2D0E940D03EF
:1006D00081110AC0BA94BB2051F261E070E080E061
:1006E00090E00E943B02ECCF8C171D0611F00CF03D
:1006F0008C2F9FB7F8949092E9002091E80025FD97
:1007000002C09FBFDDCF282F30E0C21BD30B882053
:1007100029F08150A0F01092F100FBCFF801C7FC46
:100720000AC0815050F041914093F100FACF4491BA
:100730004093F10031968150D0F7020F131FDD2056
:1007400021F0A092E800D12CDCCF8091E80085FD5B
:1007500007C0A092E800DD24D394209791F2F3CF54
:10076000209779F6772069F2A092E800CACF5D98C9
:1007700084E680939101C7017CCFCF93DF93EC0196
:1007800080910B01882331F083E00E942303181627
:10079000190634F081E090E09B838A8380E090E04A
:1007A000DF91CF91089590919401992319F13FB76A
:1007B000F89487708093E9008091F20090E04817E8
:1007C00059070CF4CA01282FFB0154E6215038F0D8
:1007D0002898509390014091F1004193F7CF0097F2
:1007E00039F02091F200211103C02BE62093E8009C
:1007F0003FBF08958FEF9FEF08950F931F93CF93FF
:10080000DF931F92CDB7DEB78C01FC0184859585FF
:1008100097FF0FC041E050E0BE016F5F7F4F82E065
:100820000E94D303019771F4898190E0F8019587C4
:100830008487F801848595850F90DF91CF911F9172
:100840000F9108958FEF9FEFF1CFCF93DF931F921A
:10085000CDB7DEB7FC018485958597FD08C02FEFE5
:100860003FEF358724870F90DF91CF91089541E0C6
:1008700050E0BE016F5F7F4F82E00E94D30301977B
:1008800019F4898190E0EFCF8FEF9FEFECCF9FB706
:10089000F89487708093E9008091F2009FBF0895DB
:1008A000FC018485958597FD06C082E00E9447047F
:1008B00090E00196089582E00E94470490E0089538
:1008C000615030F02091F100FC0120830196F8CFB7
:1008D000289884E6809390010895AF92BF92CF92BA
:1008E000DF92EF92FF920F931F93CF93DF936C01F0
:1008F0007B018B01040F151FEB015E01AE18BF08D1
:10090000C017D10759F06991D601ED91FC91019082
:10091000F081E02DC6010995892B79F7C501DF919A
:10092000CF911F910F91FF90EF90DF90CF90BF90EC
:10093000AF9008958091830181110DC082E0809372
:100940007F0184E0809380011092820110928101E6
:1009500081E0809383018FE791E008950F931F93C7
:10096000CF93DF931F92CDB7DEB782E0898342E455
:1009700050E066EF70E080E80E94E7020E949A046F
:10098000DC0112960D911C910115110589F0D80119
:10099000ED91FC910280F381E02DBE016F5F7F4FEE
:1009A000C801099597FD04C0F80100851185ECCFB9
:1009B00089810F90DF91CF911F910F910895FC01D4
:1009C000538D448D252F30E0842F90E0821B930BB4
:1009D000541710F0CF96089501970895FC01918D5A
:1009E000828D981761F0A28DAE0FBF2FB11D5D965D
:1009F0008C91928D9F5F9F73928F90E008958FEFFF
:100A00009FEF0895FC01918D828D981731F0828DB2
:100A1000E80FF11D858D90E008958FEF9FEF089509
:100A2000FC01918D228D892F90E0805C9F4F821B6D
:100A300091098F739927089586EA96E00E94100520
:100A400021E0892B09F420E0822F089580E090E0D6
:100A5000892B29F00E941C0581110C940000089537
:100A6000FC01A48DA80FB92FB11DA35ABF4F2C9123
:100A7000848D90E001968F739927848FA689B7891A
:100A80002C93A089B1898C9182748C93938D848DE1
:100A9000981306C00288F389E02D80818F7D8083C2
:100AA0000895EF92FF920F931F93CF93DF93EC0182
:100AB00081E0888F9B8D8C8D981319C0E889F98906
:100AC000808185FF14C09FB7F894EE89FF89608309
:100AD000E889F9898081827480839FBF81E090E0FA
:100AE000DF91CF911F910F91FF90EF900895F62E17
:100AF0000B8D10E00F5F1F4F0F731127E02E8C8DB1
:100B00008E110CC00FB607FCFACFE889F9898081F5
:100B100085FFF5CFCE010E943005F1CFEB8DEC0FB4
:100B2000FD2FF11DE35AFF4FF0829FB7F8940B8F12
:100B3000EA89FB8980818062CFCFCF93DF93EC017C
:100B4000888D8823B9F0AA89BB89E889F9898C91B5
:100B500085FD03C0808186FD0DC00FB607FCF7CF71
:100B60008C9185FFF2CF808185FFEDCFCE010E9471
:100B70003005E9CFDF91CF91089590E080E00895AE
:100B800080E008950F931F93CF93DF93CDB7DEB727
:100B9000C456D1090FB6F894DEBF0FBECDBFFC011D
:100BA000DB019C919E5F9C939E01295F3F4F8AE5EC
:100BB000D9011D928A95E9F788E089838BE08A83C1
:100BC00022E02C8391E09D839E8339E0398764E0A5
:100BD0006A879E879F873A8B44E24B8B9C8BA0E071
:100BE000B1E0BE8BAD8B09E010E0188F0F8B998FB1
:100BF0003B8F6C8F2F8F98A353E059A387E08CA372
:100C00004DA39EA3B8A7AFA3A1E4B0E0BAA7A9A73C
:100C100086E08BA74CA72DA79EA79FA789AB4AABC1
:100C20002BAB2CAB2DAB3FAB48AF59AF9AAF5BAF03
:100C30009CAF2DAF9EAF21963FAF219722964FAF2D
:100C4000229723965FAF239724962FAF249725965C
:100C50006FAF259726969FAF269727969FAF27972A
:100C600028969FAF28972A963FAF2A9745E02B9664
:100C70004FAF2B972D962FAF2D9760E470E02F96F6
:100C80007FAF6EAF2F9763964FAF639785E2649601
:100C90008FAF649765969FAF659766969FAF66978F
:100CA00067969FAF679768963FAF689769964FAF13
:100CB00069976B962FAF6B976D967FAF6EAF6D9701
:100CC000A1964FAFA197A2968FAFA297A3969FAF81
:100CD000A397A4969FAFA497A5965FAFA59792817F
:100CE0009B839B879F5F9A8F9D8F83812C968FAF6D
:100CF0002C978F5F80686A968FAF6A9744E650E0C2
:100D0000BE016F5F7F4F80E00E94E702CC59DF4F4A
:100D10000FB6F894DEBF0FBECDBFDF91CF911F910C
:100D20000F91089587FF0AC09CE0980F923030F031
:100D30008D3F21F0803F18F4807F089580E0089572
:100D4000982F9F7E282F2F7C203839F0803E29F065
:100D500081E0903C19F080E0089581E00895CF9300
:100D6000DF93EC01E881F981309711F0CB9609957A
:100D70008CAD823F09F49EC090F5803C09F486C09A
:100D800090F4803909F454C030F4803809F445C037
:100D9000DF91CF910895803A09F475C0803BC1F787
:100DA000EA85FB853CC0803E09F459C058F4803D7B
:100DB00079F7EE85FF85309759F36DAD8BADDF91F7
:100DC000CF910994803F09F464C0813F09F7EC8911
:100DD000FD893097E9F28DADDF91CF9109948A3F7B
:100DE00091F180F4863F09F477C028F4833F81F6BF
:100DF000E88DF98DEECF883FF1F0893F49F6E8A103
:100E0000F9A11BC08C3F29F108F18E3F29F18F3FDA
:100E100009F0BECFE8A5F9A510C0EC81FD8130979F
:100E200009F4B6CF4EAD6DAD8BADDF91CF91099486
:100E3000EE81FF81F4CFEC8DFD8D309709F4A8CFC2
:100E4000DF91CF910994EE8DFF8DF7CFEAA1FBA141
:100E5000F4CFECA1FDA1F1CFEEA1FFA1EECFE88987
:100E6000F989309709F494CF6EAD20E8629FB00104
:100E7000112460787F738DAD8F77682B70528BADA6
:100E8000DF91CF910994E885F985C9CFEC85FD857F
:100E900092CFEA89FB89309709F47ACF6DAD7EADA8
:100EA0006138710510F060E870E0CE01CF96DF91F7
:100EB000CF910994EE89FF89309709F469CF8EADFF
:100EC00020E8829FC001112480789F732DAD2F7779
:100ED000822BDF91CF910994EA8DFB8DAECF0F93DA
:100EE0001F93CF93DF9300D000D0CDB7DEB7FC01C6
:100EF000208991898289378539832A839B838C83D2
:100F000006EF12E0F801838144E050E0BE016F5F1C
:100F10007F4F8F5F0E942303F80183818F5F0E94C0
:100F200079020F900F900F900F90DF91CF911F914A
:100F30000F9108950F931F93CF93DF9300D000D0AC
:100F4000CDB7DEB78C01262FFC01848195813681D7
:100F5000303FD9F0009711F4208B04C08130910507
:100F600081F4618BF8018481958101969583848356
:100F70000F900F900F900F90DF91CF911F910F91D5
:100F80000895029779F7628BEDCF603F49F483892A
:100F9000F0E18F9FC00111248460F8018787DCCFC6
:100FA00063E070E00E941323AC01273F39F493897A
:100FB0009295907F85E0840F982B9787F8014115D3
:100FC000510521F4208B128A118ACCCF4130510572
:100FD00019F4218B128AC6CF228B273F19F29089F0
:100FE0008189378539839A838B832C838091F90299
:100FF00044E050E0BE016F5F7F4F8F5F0E9423038C
:101000008091F9028F5F0E947902ACCFDC011696C5
:101010006C93169753968C91539720E1829FC00151
:101020001124603FE8F4E62FE295EF70E750FF0BE4
:10103000EE0FFF1FE75EFE4F9181892B1F968C9369
:101040001F9752961C92529751961C925197509608
:101050001C92509715961C921E92149781E0089549
:101060008460ECCFBF92CF92DF92EF92FF920F930A
:101070001F93CF93DF938C016B01B42EE52EF22EDC
:1010800060EFFC01808191810E940608882351F164
:1010900081E0F82631F060EFF801808191810E94B3
:1010A0009A07CB2DDE2DCC0EDD1EF80180819181BB
:1010B000CC15DD0521F069910E949A07F6CFFF203B
:1010C00019F067EF0E949A07F80180819181DF9102
:1010D000CF911F910F91FF90EF90DF90CF90BF9035
:1010E0000C946F07DF91CF911F910F91FF90EF90BC
:1010F000DF90CF90BF9008950F931F93CF936D3FD4
:10110000D8F46A3F10F4683FC9F4C62F8C01FC0183
:10111000808191810E940608882381F06C2FF8015C
:10112000808191810E949A07F80180819181CF91FD
:101130001F910F910C946F076E3F38F7CF911F915D
:101140000F9108950F931F93CF93DF93813EB8F5CE
:10115000DFEFD20FD031F0F587FF3CC0142F062F00
:10116000C82F682F80916F07909170070E94060822
:10117000882381F16D2F6C2B80916F079091700700
:101180000E949A07602F6F7780916F079091700788
:101190000E949A07CF7EC03C41F0612F6F7780910B
:1011A0006F07909170070E949A0780916F07909146
:1011B0007007DF91CF911F910F910C946F07883FBB
:1011C00048F0682F8FE697E0DF91CF911F910F9144
:1011D0000C947C08DF91CF911F910F910895DC0151
:1011E0008D919C91DC01ED91FC910190F081E02DBD
:1011F00009940F931F93CF93DF93FC01EC57FF4F9C
:101200002081222309F450C0EC01688161506F7085
:101210008981682B80910006909101060E94EF0859
:101220008981803FF9F08E010B571F4FF8018081B3
:101230009181029738F06A818091000690910106B1
:101240000E94EF08F80180819181039768F16B811A
:101250008091000690910106DF91CF911F910F912F
:101260000C94EF0860EF80910006909101060E94B7
:10127000EF088E01A8014C1B5D0B80910006909138
:1012800001060F5F1F4F2A813B812138310510F085
:1012900020E830E04217530728F4F80163810E94E8
:1012A000EF08E8CF67EFD8CFDF91CF911F910F9173
:1012B00008956D3F48F46A3F10F4683F39F4FC012B
:1012C000808191810C94EF086E3FC8F708951F93B9
:1012D000CF93DF93813E30F52150203168F587FFB1
:1012E0002BC0D42F162FC82F622F682B8091000699
:1012F000909101060E94EF08612F6F7780910006A0
:10130000909101060E94EF08CF7EC03CA9F06D2F9E
:101310006F778091000690910106DF91CF911F9128
:101320000C94EF08883F40F0682F80E096E0DF9152
:10133000CF911F910C945909DF91CF911F9108957E
:101340000F931F93CF93DF93082F162FD42FC8E04E
:101350006D2F661F6627661F802F0E94AC01DD0F70
:1013600061E0812F0E94AC0160E0812F0E94AC01FE
:10137000C15071F7DF91CF911F910F9108950F9395
:101380001F93CF93DF9300D0CDB7DEB78C01698375
:101390004A8360E0FC0182810E94AC014981F8012E
:1013A000648180810E94A0094A81F8016481808162
:1013B0000E94A00961E0F80182810F900F90DF91F7
:1013C000CF911F910F910C94AC010F931F93CF936A
:1013D000DF938C01C1E0D0E0F801868197818C1702
:1013E0009D073CF040E06C2FC8010E94BF09219688
:1013F000F3CFDF91CF911F910F91089584EC95E089
:101400000E94E50940E862E084EC95E00E94BF0993
:101410000E946D026093CC057093CD058093CE053C
:101420009093CF050895CF93DF93EC0189818E3F90
:10143000D9F090914205923041F0953079F0913099
:1014400049F4CE010E94F90805C028814B816A81C8
:101450000E94A208DF91CF910C94FE0928814B8154
:101460006A810E94A208EDCFDF91CF910895CF93BA
:10147000DF93EC0189818E3FD1F090914205943049
:1014800091F0953059F0933029F428814B816A818D
:101490000E94A208DF91CF910C94FE0928814B8114
:1014A0006A810E94A208CE010E94F908F3CFDF9161
:1014B000CF910895CF92DF92EF92FF920F931F93F7
:1014C000CF93DF93EC018C819D818C010F5F1F4FC7
:1014D0008017910708F043C07B012A813B812017C8
:1014E000310710F5099628173907F0F4C880D9801C
:1014F0009B838A830E942D2399838883F601CF01E1
:101500008C199D092C813D818217930750F4A88185
:10151000B981A80FB91F109711F080818C93319673
:10152000EECFC6010E94C9238C819D81801791074F
:1015300058F4E881F981E80FF91F309719F0D701C5
:101540002C9120830196F2CF1D830C83DF91CF91E4
:101550001F910F91FF90EF90DF90CF9008951D8223
:101560001C82F4CFFF920F931F93CF93DF93EC0174
:10157000F62E08811981C8010E945B22F81621F01D
:101580006F2DC8010E946322CE01DF91CF911F9180
:101590000F91FF900895EF92FF920F931F93CF93B7
:1015A000DF93CDB7DEB7C454D2400FB6F894DEBF98
:1015B0000FBECDBF1A82198260E08E010F5F1F4FF0
:1015C000C8010E94B20A80E492E0F8019C011192E5
:1015D00021503040E1F781E08B839FEF998B8A8B1C
:1015E0008D8B9BA38CA38FA39DAB8EAB89AF2896CD
:1015F0009FAF289729968FAF29972C968FAF2C975E
:101600006A969FAF6A976B968FAF6B976E968FAF08
:101610006E97AC969FAFAC97AD968FAFAD97E096B7
:101620008FAFE097EE969FAFEE97EF968FAFEF9765
:10163000CF57DF4F8883C158D040C157DF4F9883C1
:10164000CF58D040C057DF4F8883C059D040CD56C7
:10165000DF4F8883C359D040CF55DF4F9883C15A9D
:10166000D040CE55DF4F8883C25AD040CB55DF4F94
:101670008883C55AD040CD54DF4F9883C35BD04098
:10168000CC54DF4F8883C45BD040C954DF4F88837C
:10169000C75BD040CB53DF4F9883C55CD040CA5363
:1016A000DF4F8883C65CD040C753DF4F8883C95C57
:1016B000D040C952DF4F9883C75DD040C852DF4F3A
:1016C0008883C85DD040C552DF4F8883CB5DD04052
:1016D000C751DF4F9883C95ED040C651DF4F888322
:1016E000CA5ED040C351DF4F8883CD5ED040C55025
:1016F000DF4F9883CB5FD040C450DF4F8883CC5FEF
:10170000D040C150DF4F8883CF5FD040C35FDE4FF2
:101710009883CD50D140C25FDE4F8883CE50D140F8
:10172000CF5EDE4F8883C151D140C15EDE4F9883CA
:10173000CF51D140C05EDE4F8883C052D140CD5DD5
:10174000DE4F8883C352D140CF5CDE4F9883C153B4
:10175000D140CE5CDE4F8883C253D140CB5CDE4F9C
:101760008883C553D140CD5BDE4F9883C354D140AD
:10177000CC5BDE4F8883C454D140C95BDE4F888385
:10178000C754D140CB5ADE4F9883C555D140CA5A71
:10179000DE4F8883C655D140C75ADE4F8883C9556E
:1017A000D140C959DE4F9883C756D140C859DE4F42
:1017B0008883C856D140C559DE4F8883CB56D14067
:1017C000C758DE4F9883C957D140C658DE4F88832B
:1017D000CA57D140C358DE4F8883CD57D140C55733
:1017E000DE4F9883CB58D140C457DE4F8883CC5806
:1017F000D140C157DE4F8883CF58D140C356DE4F0A
:101800009883CD59D140C256DE4F8883CE59D140FE
:10181000CF55DE4F8883C15AD140C155DE4F9883E2
:10182000CF5AD140C055DE4F8883C05BD140CD54E4
:10183000DE4F8883C35BD140CF53DE4F9883C15CBA
:10184000D140CE53DE4F8883C25CD140CB53DE4FB4
:101850008883C55CD140CD52DE4F9883C35DD140B3
:10186000CC52DE4F8883C45DD140C952DE4F88839D
:10187000C75DD140CB51DE4F9883C55ED140CA5180
:10188000DE4F8883C65ED140C751DE4F8883C95E74
:10189000D140C950DE4F9883C75FD140C850DE4F5A
:1018A0008883C85FD140C550DE4F8883CB5FD1406D
:1018B000C75FDD4F9883C950D240C65FDD4F888334
:1018C000CA50D240C35FDD4F8883CD50D240C55E41
:1018D000DD4F9883CB51D240C45EDD4F8883CC511D
:1018E000D240C15EDD4F8883CF51D240C35DDD4F12
:1018F0009883CD52D240C25DDD4F8883CE52D24014
:10190000CF5CDD4F8883C153D240C15CDD4F9883EB
:10191000CF53D240C05CDD4F8883C054D2408CEAA4
:1019200090E02CEC30E042E1FC0165917491F8010B
:10193000649FE00DF11D11243396BF01605F7F4F5E
:1019400011926E177F07E1F701962817390761F7A3
:1019500081E0CF5BDD4F8883C154D24082E0CE5B13
:10196000DD4F8883C254D240F12CE12CF801619103
:101970008F01FFEFEF1AFF0ACD5BDD4FF982E8829E
:10198000C354D240CE018D5B9D4F0E94B20A22E427
:10199000E21622E0F20651F7E2E6F1E06591749179
:1019A0008DEF93E0CD5BDD4F99838883C354D240A4
:1019B000CE018D5B9D4F0E94B20AE1E6F1E0659198
:1019C00074918EEF93E0CD5BDD4F99838883C35490
:1019D000D240CE018D5B9D4F0E94B20AE0E6F1E05D
:1019E000659174918FEF93E0CD5BDD4F9983888390
:1019F000C354D240CE018D5B9D4F0E94B20ACC5B96
:101A0000DD4F0FB6F894DEBF0FBECDBFDF91CF9193
:101A10001F910F91FF90EF90089584E0E9E7F1E0C6
:101A2000DB0101900D928A95E1F784E00895AF9271
:101A3000BF92CF92DF92EF92FF920F931F93CF93BB
:101A4000DF93CDB7DEB7A2970FB6F894DEBF0FBE17
:101A5000CDBF82E0E82E83E0F82E10E000E00F5FBB
:101A60001F4FC8010E945B22F70181937F0102345E
:101A7000F2E01F07A1F784EC95E00E94E5092AE057
:101A8000CE0101965C01AC0161E070E080E090E085
:101A90000E941722F50101900020E9F731978F018C
:101AA0000A191B09B8016F5F7F4F90E080E00E9428
:101AB00052247C01009761F1FC011082B5010E9463
:101AC0001825D12CC12CC016D10629F1F701EC0D37
:101AD000FD1DE114F10421F410927E01EEE7F1E026
:101AE000808189831A824AE050E070E060E0C5019D
:101AF0000E94F720FB01E453FF4F4491602F6C19C3
:101B000084EC95E00E94BF09FFEFCF1ADF0ADBCF1C
:101B100010E000E0D6CFE114F10419F0C7010E94F3
:101B2000C92347E662E084EC95E00E94BF090E9469
:101B30006D026093CC057093CD058093CE05909394
:101B4000CF05A2960FB6F894DEBF0FBECDBFDF91D2
:101B5000CF911F910F91FF90EF90DF90CF90BF90AA
:101B6000AF9008952F923F924F925F926F927F9223
:101B70008F929F92AF92BF92CF92DF92EF92FF929D
:101B80000F931F93CF93DF93CDB7DEB764970FB654
:101B9000F894DEBF0FBECDBFDC016430710508F4E0
:101BA000A2C011968C911197803209F09CC01296B8
:101BB000EC911297E150E93008F095C0F0E0ED515A
:101BC000F24F0C942723EC0D960EEA0EF10E120F35
:101BD000730E730E8C0E910E1B968C911B97873093
:101BE000E9F480E062E113962C91139730E01C96A3
:101BF0009C911C97891790F4482F50E0FD01E40F49
:101C0000F51F9585629FF001639FF00D1124EE5F33
:101C1000FC4FE40FF51F93838F5FE5CF15962C9152
:101C2000159713968C91139732E1389FC0011124B8
:101C30008E5F9C4FFC01218313968C911397389FE4
:101C4000F0011124EE5FFC4F81E014969C911497F3
:101C5000911101C080E0828313968C91139762E109
:101C6000689FC00111248E5F9C4F16962C91169789
:101C7000F0E12F9FA001112417962C911797242B88
:101C8000FC01278713968C911397689FC00111243C
:101C90008E5F9C4F18962C911897F0E12F9FA00112
:101CA000112419962C911997242BFC01208B139643
:101CB0008C911397689FF0011124EE5FFC4F81E037
:101CC0001A969C911A97911101C080E0818B1C9605
:101CD0008C911C971396EC9122E1E29FF001112464
:101CE000EE5FFC4F808364960FB6F894DEBF0FBEA4
:101CF000CDBFDF91CF911F910F91FF90EF90DF90BB
:101D0000CF90BF90AF909F908F907F906F905F909B
:101D10004F903F902F90089513968C918093420599
:101D2000E2CF13968C9180934305DDCF13968C916F
:101D30008111D9CFB2E0EB2EB3E0FB2E10E000E032
:101D4000F70161917F010F5F1F4F1A830983CE0155
:101D500001960E94B20A0234F2E01F0789F784EC70
:101D600095E00E94E5094BE562E084EC95E00E9475
:101D7000BF094CE161E084EC95E00E94BF096CE290
:101D800071E080E090E00E943B024CE961E084EC6D
:101D900095E00E94BF096CE271E080E090E00E9453
:101DA0003B024CE161E084EC95E00E94BF096CE2EB
:101DB00071E080E090E00E943B024CE961E084EC3D
:101DC00095E00E94BF096CE271E080E090E00E9423
:101DD0003B0289CF13968C91811185CF0E94170DFC
:101DE00082CF1B821C821D8280E2898384E08A83E9
:101DF0008DEF93E00E945B228D838EEF93E00E9433
:101E00005B228C838FEF93E00E945B228B8320E028
:101E1000AE014F5F5F4F65E070E08FE697E00E9494
:101E2000320861CF06ED10E062E1562E70E2372EE7
:101E3000E5E04E2EF3E1AF2EB12CABE08A2E912CD3
:101E40009E012F5F3F4F6901F801259134913901BF
:101E50007724569CF001579CF00D1124EE5FFC4F47
:101E60009785808939824A822B8322812C83218124
:101E70002D83292F30E044E0359527954A95E1F7E9
:101E80002E839F709F83282F30E054E0359527954F
:101E90005A95E1F728878F70898781898A878081A1
:101EA0008B87BF86AE86998A888A83E190E00E94FC
:101EB0002D239D878C87F601CF018C199D092889D8
:101EC00039898217930750F4AC85BD85A80FB91FD7
:101ED000109711F080818C933196EECF569CC00103
:101EE000579C900D1124212CFC01EE5FFC4F3F010B
:101EF0007C01F3E0EF0EF11CF3018081281658F409
:101F0000B701620D711D6E5F7C4FCE010C960E9471
:101F10005A0A2394F1CF4C855D856889798920E040
:101F20008FE697E00E9432088C859D850E94C92328
:101F30000F5F1F4FF0E0063F1F0709F085CF10E24B
:101F40001C8788E08D87809142058E8720E0AE0156
:101F5000445F5F4F63E070E08FE697E00E943208D5
:101F6000198389E08A83809143058B8320E0A60151
:101F700063E070E08FE697E00E9432081B8B83E6F7
:101F80008C8B20E0AE014D5E5F4F62E070E045CF8C
:101F90001F920F920FB60F9211242F933F938F939E
:101FA0009F93AF93BF9380919E0290919F02A091C7
:101FB000A002B091A10230919D0223E0230F2D37A2
:101FC00058F50196A11DB11D20939D0280939E029C
:101FD00090939F02A093A002B093A1028091A202CD
:101FE0009091A302A091A402B091A5020196A11D17
:101FF000B11D8093A2029093A302A093A402B09378
:10200000A502BF91AF919F918F913F912F910F901A
:102010000FBE0F901F90189526E8230F0296A11D62
:10202000B11DD2CF1F920F920FB60F9211242F9392
:102030003F934F935F936F937F938F939F93AF9350
:10204000BF93CF93EF93FF93C091E1008091E100A4
:10205000837F8093E100C3FF0FC01092E90081E00D
:102060008093EB001092EC0082E38093ED001092DD
:10207000940188E08093F000C2FF1BC083E00E94BF
:10208000790280919101882341F0809191018150E2
:1020900080939101811101C05D9A80919001882304
:1020A00041F080919001815080939001811101C095
:1020B000289AC4FF23C08091E2008E7E81608093C5
:1020C000E2008091E1008F7E8093E1008091920197
:1020D0008E7E806180939201FF91EF91CF91BF91AD
:1020E000AF919F918F917F916F915F914F913F91B0
:1020F0002F910F900FBE0F901F901895C0FFECCF3F
:102100008091E2008E7E80618093E2008091E10008
:102110008E7E8093E100809192018E7E8160DACF85
:102120001F920F920FB60F921124CF92DF92EF926F
:10213000FF920F931F932F933F934F935F936F9350
:102140007F938F939F93AF93BF93EF93FF93CF931F
:10215000DF93CDB7DEB76C97DEBFCDBF1092E9003D
:102160008091E80083FF25C068E0CE0145960E947B
:10217000600482EF8093E8008D8987FF39C09091D9
:10218000E80090FFFCCF982F907609F034C19E892B
:102190004F89588D2F89F88C911131C0803861F5A5
:1021A000809193018093F1001092F1008EEF809363
:1021B000E8006C960FB6F894DEBF0FBECDBFDF917E
:1021C000CF91FF91EF91BF91AF919F918F917F91AF
:1021D0006F915F914F913F912F911F910F91FF90C0
:1021E000EF90DF90CF900F900FBE0F901F9018953B
:1021F0009EEF9093E800C7CF1092F100D5CF9130B9
:1022000059F48111D3CF4130510581F6809193016A
:102210008D7F80939301CACF933049F48111C6CF4B
:102220004130510519F6809193018260F2CF9530CB
:1022300041F48091E80080FFFCCF20682093E30008
:10224000B5CF963009F0A9C00B8D1C8D22E01092FD
:10225000E90010928E0110928D01F2122EC01092A0
:102260008C0110928B010E94AE041F8299E0998329
:10227000FA8291E09E8390EA98879AEF998720915D
:102280008D0130918E01275F3F4F3C832B838D83DF
:102290001092E90010928E0110928D0110938C0122
:1022A00000938B0149E050E0BE016F5F7F4F80E0FB
:1022B0000E94E7020E94AE0479CF10938C01009334
:1022C0008B010E949A04DC0112960D911C9101155C
:1022D000110509F451C1D801ED91FC910480F581FB
:1022E000E02DBE016B5E7F4FC8010995009709F094
:1022F0003EC1F80100851185EACFF3E0FF120EC060
:102300008F89882309F440C0823061F440E869E095
:1023100086E591E00E94B402811148CF81E280936A
:10232000EB0047CF813029F440E867E08EE491E08C
:10233000F1CF833099F70E949A04DC011296ED9058
:10234000FC908E010F5F1F4F6801E114F10479F0DA
:10235000D701ED91FC910680F781E02DB801C7010E
:102360000995080F111DF701E084F184EECFD80123
:102370001C92F60101900020E9F73197BF016C191A
:102380007D0940E0C601C6CF68E371E0FB014491DE
:1023900050E080E80E94E70209CF973009F4BECFF1
:1023A000983021F481E08093F10000CF993009F05A
:1023B000FDCE837009F0B2CFEDE0F1E081E031E0D5
:1023C00096E32191222371F08093E9003093EB0092
:1023D000DF0111972C912093EC009093ED008F5F1B
:1023E000873079F78EE78093EA001092EA008F89B0
:1023F00080939401DBCE8B8D9C8D1092E90010921E
:102400008E0110928D0190938C0180938B01898DA8
:10241000811192C08E899D89913A49F4813209F0E7
:102420007DCF47E050E064E071E080E0B3CF9132CF
:1024300009F074CF833269F48F89988DB0E0A0E001
:102440008093000190930101A0930201B0930301D6
:10245000ADCE803269F48091E80082FFFCCF67E066
:1024600084E091E00E9460048BEF8093E8009ECEB0
:10247000823209F09BCE8F8980930B01EEEFFFE74C
:10248000859194918B3F9C4D51F1E0E0F8E0809173
:10249000040190910501A0910601B0910701803BD4
:1024A0009440A105B105F1F480910B0180FD1AC0A3
:1024B000EE3F8AE0F80789F587E797E79183808305
:1024C0008091600080938F0188E19BE00FB6F894C3
:1024D000A895809360000FBE9093600067CEEEEFEA
:1024E000FAE0D5CF808191818737974709F05ECE9A
:1024F000A8958091600088618093600080918F0131
:1025000080936000EE3F2AE0F20789F08091FE0A96
:102510009091FF0A9183808349CE80819181873792
:10252000980751F29093FF0A8093FE0AC5CF10924C
:10253000FF0A1092FE0A3ACE0E949A04DC0112961B
:102540000D911C910115110509F4E8CED801ED910A
:10255000FC910190F081E02DBE016B5E7F4FC801C0
:102560000995811123CEF80100851185EBCF18164E
:1025700019060CF41BCED2CEF1E0FF12BECE6CE3F6
:1025800071E004CF1F920F920FB60F9211242F9378
:102590003F934F935F936F937F938F939F93AF93EB
:1025A000BF93EF93FF9386EA96E00E943005FF9178
:1025B000EF91BF91AF919F918F917F916F915F91BB
:1025C0004F913F912F910F900FBE0F901F90189534
:1025D0001F920F920FB60F9211242F938F939F93F8
:1025E000EF93FF93E091B606F091B7068081E091FA
:1025F000BC06F091BD0682FD1BC090818091BF0694
:102600008F5F8F732091C006821741F0E091BF0663
:10261000F0E0EA55F94F958F8093BF06FF91EF9157
:102620009F918F912F910F900FBE0F901F90189533
:102630008081F4CFCF93DF931092A9021092A80269
:1026400088EE93E0A0E0B0E08093AA029093AB0202
:10265000A093AC02B093AD022DE431E03093A70219
:102660002093A6022FEF3FEF3093B3022093B202E4
:102670001092A9061092A8068093AA069093AB0622
:10268000A093AC06B093AD068FE591E09093A706BA
:102690008093A6068DEC90E09093B3068093B206EB
:1026A0008CEC90E09093B5068093B40688EC90E0B3
:1026B0009093B7068093B60689EC90E09093B906A4
:1026C0008093B8068AEC90E09093BB068093BA069C
:1026D0008EEC90E09093BD068093BC061092BF06EE
:1026E0001092C0061092C1061092C20682E080933A
:1026F000FA028093FB0280E093E09093FD028093C6
:10270000FC021092FF021092FE0281E791E090938A
:10271000F7028093F60280E88093000381E88093BB
:1027200001030E949A04FC0181819091FA02482FD2
:10273000490F5527551F483051059CF5A281B3819B
:10274000109709F526EF32E033832283208120930E
:10275000F8028093F9028091FB02820F808320911E
:10276000FC02A22FB091FD028A2F821B8917C8F4A8
:1027700081813D91C82FD0E0C45FDE4F38838F5FE9
:102780008183F2CFD90118962D913C91199721158B
:102790003105C1F726EF32E019963C932E93189736
:1027A000D5CF109228081092460710924507109234
:1027B00048071092470710924A0710924907109253
:1027C0004C0710924B0710924E0710924D07109233
:1027D000500710924F071092520710925107109213
:1027E00054071092530710925607109255071092F3
:1027F00058071092570710925A07109259071092D3
:102800005C0710925B0710925E0710925D071092B2
:10281000600710925F071092620710926107109292
:102820006407109263071092660710926507109272
:1028300068071092670710926A0710926907109252
:102840006C0710926B0710926E0710926D0785E16E
:1028500098E09093700780936F0710927107109221
:1028600072071092730710927807109277071092F0
:102870007A07109279078FEF9FEF90937C078093F0
:102880007B0790937E0780937D0723E020937F074B
:10289000109280071092810710928207109283078E
:1028A00010920408C0E8E4E8F7E0DF012C2F1D9245
:1028B0002A95E9F710920708109208081092090863
:1028C00010920A0810920B0810920C0810920D0832
:1028D00010920E0810920F08109210081092110812
:1028E00010921208109213081092140826EA36E08B
:1028F00030934407209343071092D7051092D605D2
:102900001092D9051092D8051092DB051092DA05C5
:102910001092DD051092DC051092DF051092DE05A5
:102920001092E1051092E0051092E3051092E20585
:102930001092E5051092E4051092E7051092E60565
:102940001092E9051092E8051092EB051092EA0545
:102950001092ED051092EC051092EF051092EE0525
:102960001092F1051092F0051092F3051092F20505
:102970001092F5051092F4051092F7051092F605E5
:102980001092F9051092F8051092FB051092FA05C5
:102990001092FD051092FC051092FF051092FE05A5
:1029A00023E437E0309301062093000610920206DC
:1029B000109203061092040610920906109208065F
:1029C00010920B0610920A0690930D0680930C0647
:1029D00090930F0680930E0683E08093100610926A
:1029E00011061092120610921306109214061092FD
:1029F0009506E5E1F6E0DF012C2F1D922A95E9F717
:102A0000109298061092990610929A0610929B06C0
:102A100010929C0610929D0610929E0610929F06A0
:102A20001092A0061092A1061092A2061092A30680
:102A30001092A4061092A50680E190E09093C5053F
:102A40008093C4058AE090E09093C7058093C60503
:102A50008FE090E09093C9058093C80561E080E124
:102A60000E94DA0161E08091C6050E94DA0161E00E
:102A70008091C8050E94DA0161E08091C6050E943C
:102A8000AC0180E492E0E2E0F3E0DF019C011D9202
:102A900021503040E1F781E0809304039FEF909351
:102AA000120380931303809316039093240380935F
:102AB00025038093280390933603809337038093F4
:102AC0003A03909348038093490380934C03909377
:102AD0005A0380935B0380935E0390936C0380930F
:102AE0006D038093700390937E0380937F038093A4
:102AF0008203909390038093910380939403909327
:102B0000A2038093A3038093A6039093B4038093BE
:102B1000B5038093B8039093C6038093C703809353
:102B2000CA039093D8038093D9038093DC039093D6
:102B3000EA038093EB038093EE039093FC0380936E
:102B4000FD038093000490930E0480930F04809300
:102B50001204909320048093210480932404909382
:102B6000320480933304809336049093440480931A
:102B700045048093480490935604809357048093AF
:102B80005A04909368048093690480936C04909332
:102B90007A0480937B0480937E0490938C048093CA
:102BA0008D048093900490939E0480939F0480935F
:102BB000A2049093B0048093B1048093B4049093E2
:102BC000C2048093C3048093C6049093D40480937A
:102BD000D5048093D8049093E6048093E70480930F
:102BE000EA049093F8048093F9048093FC04909392
:102BF0000A0580930B0580930E0590931C05809326
:102C00001D058093200590932E0580932F058093BA
:102C100032059093400580934105E4E4F5E0DF013F
:102C20001D92CA95E9F7DF91CF910895CF93DF9375
:102C3000CDB7DEB72F970FB6F894DEBF0FBECDBF6E
:102C4000789484B5826084BD84B5816084BD85B587
:102C5000826085BD85B5816085BD80916E00816093
:102C600080936E0010928100809181008260809339
:102C7000810080918100816080938100809180003B
:102C800081608093800080919100826080939100A8
:102C9000809191008160809391008091900081608B
:102CA000809390008091C10084608093C1008091E6
:102CB000C10082608093C1008091C10081608093D7
:102CC000C1008091C30081608093C3008091C000E7
:102CD00082608093C0008091C20081608093C200B6
:102CE00080917A00846080937A0080917A0082607B
:102CF00080937A0080917A00816080937A0080913D
:102D00007A00806880937A00109294011092930167
:102D1000109292018091D70081608093D70080EA61
:102D20008093D80089B5806189BD89B5826089BDED
:102D300009B400FEFDCF61E070E080E090E00E9409
:102D40003B028091D8008F7C80618093D800809175
:102D5000E000807F8093E0008091E1008E7E809390
:102D6000E1008DE08093E200559A209A40E06AE00D
:102D700084EC95E00E94BF0982E090E09093CB053F
:102D80008093CA0540E06FE084EC95E00E94BF09A3
:102D900041E06BE084EC95E00E94BF0940E069E00F
:102DA00084EC95E00E94BF0984EC95E00E94E5095F
:102DB00041E06CE084EC95E00E94BF0982E08093E2
:102DC000D00583E08093D10584E08093D20585E02F
:102DD0008093D30500ED15E061E0D8018D918D0160
:102DE0000E94DA01B5E0043D1B07B1F76AE070E02C
:102DF00080E090E00E943B0288E08093D40560E090
:102E00000E94DA0189E08093D50560E00E94DA0132
:102E100061E081E00E94DA0161E081E00E94AC01A2
:102E200061E081E10E94DA0162E085E10E94DA015D
:102E300062E084E10E94DA0160E088E00E94DA0149
:102E400060E089E00E94DA010E948801892B89F400
:102E500060E081E10E94AC010E946D02603A7F4017
:102E60008105910510F00C94D7200E948801892BD0
:102E700099F38DEF93E00E945B22E2E6F1E0259169
:102E80003491821315C08EEF93E00E945B22E1E63D
:102E9000F1E02591349182130BC08FEF93E00E94F3
:102EA0005B22E0E6F1E025913491821709F4C0C07D
:102EB00061E081E10E94AC016CE271E080E090E0B1
:102EC0000E943B0260E081E10E94AC016CE271E093
:102ED00080E090E00E943B0213E084EC95E00E94C9
:102EE000E50940E162E084EC95E00E94BF0964E6F8
:102EF00070E080E090E00E943B0284EC95E00E944C
:102F0000E50948E162E084EC95E00E94BF0964E6CF
:102F100070E080E090E00E943B0284EC95E00E942B
:102F2000E5094CE162E084EC95E00E94BF0964E6AB
:102F300070E080E090E00E943B0284EC95E00E940B
:102F4000E5094DE062E084EC95E00E94BF0964E68B
:102F500070E080E090E00E943B0284EC95E00E94EB
:102F6000E50945E062E084EC95E00E94BF0941E09C
:102F700061E084EC95E00E94BF0964E670E080E0C7
:102F800090E00E943B0284EC95E00E94E50941E05C
:102F900062E084EC95E00E94BF0941E261E084ECCC
:102FA00095E00E94BF0964E670E080E090E00E9436
:102FB0003B0284EC95E00E94E50941E661E084EC87
:102FC00095E00E94BF0964E670E080E090E00E9416
:102FD0003B0284EC95E00E94E50942E661E084EC66
:102FE00095E00E94BF0964E670E080E090E00E94F6
:102FF0003B0284EC95E00E94E50942E461E084EC48
:1030000095E00E94BF0940E162E084EC95E00E94F7
:10301000BF0964E670E080E090E00E943B0284EC2F
:1030200095E00E94E509115009F057CF0E94CB0AA4
:1030300090E080E00E945B22811102C00E94170D87
:1030400087E39AE0909346078093450783E19AE0EF
:103050009093D7058093D60582EB9DE09093580717
:1030600080935707E0910006F09101060190F081EE
:10307000E02DA089B18982E08C93A485B5851C924E
:10308000A685B7858FE38C93108EA489B58986E0D9
:103090008C93A289B3898C9180618C93A289B38926
:1030A0008C9188608C93A289B3898C9180688C9371
:1030B0000288F389E02D80818F7D80831092020643
:1030C000109204061092030610920B0610920A0644
:1030D00010920906109208068FEF9FEF90930D064D
:1030E00080930C0690930F0680930E060E946D024B
:1030F000609398067093990680939A0690939B0626
:103100001092950610921206109211061092130654
:10311000109214061092970610929606809110064F
:10312000817082608160809310066EEF80E096E08F
:103130000E94590915E041E061E084EC95E00E94AD
:10314000BF0948E062E084EC95E00E94BF0960EAB4
:1031500070E080E090E00E943B0284EC95E00E94E9
:10316000E50940E461E084EC95E00E94BF0941E09C
:1031700062E084EC95E00E94BF0960EA70E080E0C4
:1031800090E00E943B0284EC95E00E94E50948E053
:1031900061E084EC95E00E94BF0940E462E084ECC9
:1031A00095E00E94BF0960EA70E080E090E00E9434
:1031B0003B0284EC95E00E94E509115009F0BBCF79
:1031C0000E946D026093CC057093CD058093CE056F
:1031D0009093CF05CE0109969B878A87DE011896CA
:1031E000BD87AC87212C312C21012A94662463945D
:1031F000712CA4E4EA2EA5E0FA2E02E013E01F866B
:103200001E86F0EDAF2EF5E0BF2ED12CC12C6E85C1
:103210007F850C2C02C0759567950A94E2F7617062
:10322000F50181915F010E94AC01FFEFCF1ADF0A27
:1032300024E0C216D10459F781E090E0AE85A031B8
:1032400010F490E080E080539A4FDC011496EC91EA
:10325000E23108F0E251F0E0ED59FE4FE491909137
:103260007B008E2F880F880F80729F7D892B809323
:103270007B00E770E064E0937C0080917A008064DA
:1032800080937A0080917A0086FDFCCF909178003F
:103290008091790089279827892796958795969513
:1032A0008795682FF70180838181861709F4FBC019
:1032B0008281861709F4F7C08381861709F4F3C069
:1032C00070E090E080E0D80151963C915197509683
:1032D0002C91332309F47CC0822E912C91948194FB
:1032E0009108092C000CAA08BB0830E050E040E02F
:1032F000281939094A095B090E947122A20191012A
:103300000E94A322820E931EA41EB51E87FE06C035
:10331000992481940CF49094689487F8882D90E017
:1033200074E0959587957A95E1F78987F82DFF7078
:10333000F887D8018C91882309F4AEC0E8E0F0E06A
:10334000FC83EB831E821D8288E090E00E942D2387
:103350009A838983D12CC8018F5F92404C01D80198
:10336000CC908C2D90E09C012F5F3F4FAD2CB12C69
:103370002A153B050CF440C011968C911197D81278
:1033800018C012968C916A857B85811102C06C856C
:103390007D85CE0101960E945A0AF80182816C85D2
:1033A0007D85811102C06A857B85CE0101960E94D0
:1033B0005A0AD8018C91D81649F0B4016A0D7B1DC8
:1033C0006E5F7C4FCE0101960E945A0AD394C7CFFC
:1033D000F8018784912CB12CA12C30E050E040E022
:1033E000281939094A095B090E947122A201910139
:1033F0000E94A322820E92CFA980BA802091430519
:103400002D7F11F56C01B2E0CB0ED11C60EF8091E5
:103410000006909101060E94EF084501F4016191B8
:103420004F0180910006909101060E94EF08C401AF
:103430008A199B098C159D0588F367EF809100061A
:10344000909101060E94EF088091430581508230DF
:1034500058F4D8016C9170E06E5F7F4F20E0A501B9
:103460008FE697E00E94320884EC95E00E94E5091F
:1034700040E861E084EC95E00E94BF090E946D0283
:103480006093CC057093CD058093CE059093CF05C6
:1034900089819A810E94C923F70182818383818176
:1034A0008283808181838E859F8501969F878E8709
:1034B00094E0E90EF11C0E5E1F4FAE85BF8590971C
:1034C00009F09FCEF0907107B0E1BF1538F100917F
:1034D0006F0710917007F80183859485892B09F493
:1034E0007DC0809114088E7F80931408E0916F074F
:1034F000F0917007858596859C012F5F3F4F368739
:1035000025878E0F9F1FDC0117961C91838594855C
:103510000197948783871D3F09F094C1F0900206BC
:1035200090E19F1508F415C4E0910006F0910106A2
:1035300080819181DC01ED91FC910084F185E02D89
:103540000995892B09F405C48091A5068E7F809387
:10355000A506E0910006F091010680819181DC01D1
:10356000ED91FC910284F385E02D0995182F8D3F94
:1035700009F4EFC380910A0690910B06009709F0B9
:10358000BBC41093050600910306802F0E9492068B
:103590000E94A006882351F017FD08C0009305067D
:1035A0001093060670920B0660920A0610910506AB
:1035B000812F0E949206813F09F468C408F0FDC380
:1035C000803B49F008F0A8C3803929F0803A19F00F
:1035D000803809F0A8C323E030E05AC41686158667
:1035E0008091950290919602A0919702B0919802D5
:1035F0004091990250919A0260919B0270919C02B5
:10360000841B950BA60BB70B8F739927AA27BB2793
:10361000892B8A2B8B2B09F47DC080919902909184
:103620009A02A0919B02B0919C02880F991F880F6B
:10363000991FFC01EB56FE4F80819181728163815D
:1036400020919502309196024091970250919802F4
:103650008090990290909A02A0909B02B0909C0258
:10366000281539054A055B05D1F0809099029090A4
:103670009A02A0909B02B0909C02FFEF8F1A9F0AC3
:10368000AF0ABF0A2FE382229924AA24BB24809286
:10369000990290929A02A0929B02B0929C02D80149
:1036A0001F968C931F9750969C93509751967C939E
:1036B000519752966C935297882329F1282F30E026
:1036C00044E0359527954A95E1F753964C915397E9
:1036D0004217130609F022CF8F70482F50E01B9637
:1036E0002D913C91FA01EE0FFF1FE75DFE4FE18146
:1036F000E13009F48AC008F472C0E23009F495C0E0
:10370000E33009F471C0F80183859485892B09F4AD
:1037100005CFE7CE8091F9020E94470460E070E097
:1037200090E0882309F48CCF8090950290909602C7
:10373000A0909702B0909802FFEF8F1A9F0AAF0AED
:10374000BF0A2FE382229924AA24BB2480919902E4
:1037500090919A02A0919B02B0919C0288159905C4
:10376000AA05BB0509F459CF8091F9020E944704CC
:1037700044E050E0BE016F5F7F4F8091F9020E94EC
:10378000D30304970CF449CF80919502909196024F
:10379000A0919702B0919802880F991F880F991FE6
:1037A0008B569E4F49815A816B817C81DC014D9300
:1037B0005D936D937C9313978092950290929602FD
:1037C000A0929702B0929802BFEF8B1A9B0AAB0AA5
:1037D000BB0AEFE38E229924AA24BB24B7CF8430FE
:1037E00019F04730510571F4F801E20FF31F978388
:1037F00070872D5F3F4FD8011C963C932E931B97EB
:10380000618781CF4530510561F4A9014F5F5F4F5A
:10381000F80154874387200F311FD90117969C93D5
:1038200072CF4630510509F06ECFF801E20FF31F59
:1038300097832E5F3F4FD8011C963C932E931B9786
:10384000708761CF8091790790917A07009709F08E
:10385000F4C01093740700917207802F0E949206A3
:103860000E94A006882351F017FD08C0009374073A
:103870001093750770927A07609279071091740718
:10388000812F0E949206813F09F4A1C0C8F5803BB8
:1038900039F048F4803921F0803A11F0803851F441
:1038A00023E030E096C0803D09F491C0D0F4803C24
:1038B00009F48DC080911408816080931408E09110
:1038C0004707F0914807309709F0099510927A0759
:1038D000109279071092780710927707109272076A
:1038E0001DCE803EE9F2803F29F720E830E030939A
:1038F00078072093770710927207809384076DC032
:10390000873F99F308F05CC0833F09F460C040F240
:10391000863F81F68093810710928007109282077C
:103920001092830781E08093040810927A07109226
:103930007907109278071092770780918107803974
:1039400039F480918307811103C080E88093810757
:10395000809181078058813630F480918007F81675
:1039600011F0F11004C085E497E00E94AF06909139
:103970007F07392F317090FFD1CD892F8E7F09F4C9
:10398000CDCD8091810720E8280F213608F02BC18A
:1039900020918007F21619F031E0F11030E0969591
:1039A000923009F419C1933009F41AC1913009F029
:1039B000B5CD40918307609182070E94A208AECDE9
:1039C0008D3F08F4A7CF8E3F08F0A4CF73CF22E03D
:1039D00030E0309378072093770720917907309172
:1039E0007A07409177075091780741505109241781
:1039F0003507E0F0809381071F701F5F10938007E9
:103A00008091750780938207109283077092060851
:103A10006092050810927A07109279071092780741
:103A20001092770781E08093040887CF2F5F3F4F84
:103A300030937A072093790771CD17FF0CC01D3F93
:103A400008F04EC0183F08F04EC0103F09F458C0AF
:103A5000173F09F455C020917407FC01EB5BF84F48
:103A6000203F19F0273F09F075C017AFA0907707E6
:103A7000B09078079501215031098217930708F417
:103A8000A9C0D0907407B0EFDB1619F0E7EFDE1293
:103A900063C01091030880EF80930308809381072F
:103AA00080E880938207109283071092800780E855
:103AB00090E0909306088093050881E080930408C5
:103AC00085E497E00E94AF0687EF80938407109308
:103AD000850782E090E090937A07809379071ECD66
:103AE0001E3F08F4B8CF10938107109282071092FE
:103AF000830710928007709206086092050892CFA3
:103B000020918407203F19F0273F09F0D3CE9C0174
:103B10002F5F3F4F8B5B984FDC01DF961C9380EF4C
:103B20008093810720938207309383071092800748
:103B3000309306082093050881E0809304081092D2
:103B40007A071092790710927807109277071092EF
:103B50007207F3CE17A78ACF8D2D0E949206182FD9
:103B6000809381070E94A006882349F18D2D8F70D4
:103B70008F5F809380078091750780938207809183
:103B80007607F3E0AF16B10409F080E08093830775
:103B900010927A071092790710927807109277079F
:103BA00081E080930408103B39F060F4103921F073
:103BB000103A11F0103859F6D0927207BECE10921A
:103BC0008007D9CF103DC1F3103EB1F3103C09F08E
:103BD000BECFF2CF01967FCF332309F49FCCE9CE3D
:103BE00031119CCCE6CEE0E1E80FE03108F096CC54
:103BF000F0E0E350F24E0C942723131E6F1E461E76
:103C0000241E8E1A8E1A0D1E8E1A0D1E8E1A0D1E51
:103C10000D1E0D1E8E1A0D1E0D1E682F8FE697E0CD
:103C20000E947C087BCC6091820770918307613889
:103C3000710510F060E870E021E044E857E08FE69D
:103C400097E00E9432086ACC1091820763EF80915E
:103C50006F07909170070E940608882309F45ECCD4
:103C600063EF80916F07909170070E949A07612F10
:103C70006F7780916F07909170070E949A078091EB
:103C80006F07909170070E946F0748CCF0908207F1
:103C90000091830762EF80916F07909170070E94F7
:103CA0000608882309F43ACC20E8029F80011124F9
:103CB0000F2962EF80916F07909170070E949A0719
:103CC000602F6F7780916F07909170070E949A071D
:103CD000000F012F001F110B1195602FC9CF00910C
:103CE00083071091820761EF80916F0790917007B1
:103CF0000E940608882309F411CC61EF80916F07B8
:103D0000909170070E949A0780E1189FB0011124DA
:103D100060770F70602BADCF803D09F4B7C0E8F538
:103D2000803C09F4B3C08091A50681608093A5060C
:103D3000E091D805F091D905309709F009951092D6
:103D40000B0610920A0610920906109208061092AD
:103D500003060E946D020091CC051091CD052091C3
:103D6000CE053091CF05601B710B820B930B66392A
:103D700071058105910520F084EC95E00E94E5092C
:103D800080E090E0892B09F434CA0E941C05882346
:103D900009F42CCA0E94000029CA803E09F41BCCF9
:103DA000803F09F620E830E03093090620930806AA
:103DB00010920306809315066FC0873F99F308F0B1
:103DC0005EC0833F09F462C008F405CC863F09F069
:103DD000AACF809312061092110610921306109229
:103DE000140681E08093950610920B0610920A0645
:103DF000109209061092080680911206803939F453
:103E000080911406811103C080E88093120680918E
:103E100012068058813630F480911106F81611F0A0
:103E2000F11004C086ED95E00E94AF069091100657
:103E3000392F317090FF8DCF892F8E7F09F489CF74
:103E40008091120620E8280F213608F02BC120911E
:103E50001106F21619F031E0F11030E0969592302B
:103E600009F419C1933009F41AC1913009F071CFE6
:103E700040911406609113060E9467096ACF8D3F36
:103E800008F4A7CF8E3F08F0A4CF4DCF22E030E05A
:103E9000309309062093080620910A0630910B06FC
:103EA00040910806509109064150510924173507E1
:103EB000E0F0809312061F701F5F1093110680912F
:103EC000060680931306109214067092970660926D
:103ED000960610920B0610920A061092090610928E
:103EE000080681E08093950687CF2F5F3F4F309380
:103EF0000B0620930A062DCF17FF0CC01D3F08F0BC
:103F00004EC0183F08F04EC0103F09F458C0173F8C
:103F100009F455C020910506FC01EA52FA4F203FF2
:103F200019F0273F09F074C017AFA0900806B090B1
:103F300009069501215031098217930708F4A9C099
:103F4000D0900506F0EFDF1619F027EFD21262C00D
:103F50001091940680EF809394068093120680E877
:103F600080931306109214061092110680E890E0D8
:103F7000909397068093960681E08093950686ED50
:103F800095E00E94AF0687EF809315061093160602
:103F900082E090E090930B0680930A06DACE1E3FF3
:103FA00008F4B8CF1093120610921306109214065C
:103FB00010921106709297066092960692CF209109
:103FC0001506203F19F0273F09F0ADCE9C012F5F69
:103FD0003F4F8A529A4FFC0117AF80EF8093120631
:103FE000209313063093140610921106309397060F
:103FF0002093960681E08093950610920B0610920E
:104000000A06109209061092080610920306F4CED2
:1040100017A78BCF8D2D0E949206182F8093120622
:104020000E94A006882341F18D2D8F708F5F8093B1
:104030001106809106068093130683E0A816B1044A
:10404000F1F4809107068093140610920B061092EB
:104050000A06109209061092080681E080939506E0
:10406000103B39F070F4103921F0103A11F010388B
:1040700061F6D0920306C0CE10921106DACF80E02E
:10408000E2CF103DB1F3103EA1F3103C09F0BDCFDB
:10409000F0CF01967FCF332309F45BCEE9CE311107
:1040A00058CEE6CEE0E1E80FE03108F052CEF0E085
:1040B000E45AFF4D0C9427237220C320A4209220A1
:1040C000A91EA91E6C20A91E6C20A91E6C206C20A4
:1040D0006C20A91E6C206C20682F80E096E00E9466
:1040E000590937CEE0901306F090140691E8E916CE
:1040F000F10418F090E8E92EF12C06ED15E0C80166
:10410000865D95408E159F0508F023CED801DF9679
:104110006C9180910006909101060E94EF080F5F5C
:104120001F4FEDCF1091130663EF80910006909121
:1041300001060E94EF08612F6F7780910006909131
:1041400001060E94EF0805CE00911406B0E80B9F0F
:104150008001112480911306082B62EF80910006E4
:10416000909101060E94EF08602F6F778091000602
:10417000909101060E94EF08000F012F001F110B04
:104180001195602FD9CF60911306E0E16E9FB001C9
:1041900011246077109114061F70162B61EF809127
:1041A0000006909101060E94EF08612FC6CF61E0E2
:1041B00081E10E94AC0164E170E080E090E00E9447
:1041C0003B0260E081E10E94AC0110E000E060E0B1
:1041D000C8010E9463220F5F1F4F0115F4E01F0703
:1041E000B1F761E081E10E94AC010C943917B0E0B5
:1041F000A0E0EDEFF0E20C94CE225C016B017A01BD
:104200006115710519F0FB0191838083E114F104BC
:1042100051F0C7010297839730F040E030E020E092
:1042200090E072C05E01E5012196F5011081812FB9
:1042300090E00E940E22892BA9F71D3201F52196EC
:10424000F501118101E0E114F10409F4DAC0F0E1B3
:10425000EF16F10409F082C0103359F488818F7D84
:10426000883509F076C0198122960260F0E1EF2EC0
:10427000F12C812C912CA12C88E0B82E8CC01B3203
:1042800021F4E5012296F501118100E0DCCFEAE09E
:10429000EE16F10409F4BBC0F0E1EF16F10409F0E9
:1042A0006DC0E7CF78E0E72EF12C812C912CA12C6A
:1042B00060E1B62E70C03FE9310F3A3128F439EA97
:1042C000332E80C021E09AC0302F3170C114D10448
:1042D00031F0222309F12197F601D183C08327FF12
:1042E00021C060E070E080E090E8311104C06FEF21
:1042F0007FEF8FEF9FE722E230E030932A08209390
:104300002908462F372F282F642F732F822FCDB7E0
:10431000DEB7E1E10C94EA2201FF04C02297F60126
:10432000D183C083332341F090958095709561953A
:104330007F4F8F4F9F4FE5CF97FFE3CF82E290E013
:1043400090932A08809329086FEF7FEF8FEF9FE704
:10435000D8CF10E3E114F10409F4A4CF28E0E21669
:10436000F10409F4A2CF0CF092CF812C912CA12C56
:10437000E0E4BE2E82E0E816F10469F060E070E04F
:1043800080E090E897010F2C000C440B550B0E9425
:10439000812249015A0120E060E070E0CB01270151
:1043A0000F2C000C66087708FE0150ED352E310EFB
:1043B00039E0331540F43FEB310F3A3108F07BCF51
:1043C00049EC342E310E3E141F040CF07DCF27FD36
:1043D00015C086169706A806B90678F0A3019201C3
:1043E0000E947122630D711D811D911D6130710547
:1043F000810520E8920708F465CF2FEF2196108100
:10440000D3CF103309F42ACF2AE0E22EF12C9CEC12
:10441000892E982CA82C9CE0B92EBDCF91110C941C
:104420004822803219F089508550C8F70895BB277B
:104430002A3051F4992342F4BDE29095809570950D
:1044400061957F4F8F4F9F4F0C942722BB27FA0116
:10445000A62F6217710581059105330B30FB66F0BD
:10446000AA27660F771F881F991FAA1FA21710F08F
:10447000A21B63953850A9F7A05DAA3308F0A95D87
:10448000A19336F7B111B1931082CA010C944B225B
:10449000992788270895DC01FC01672F7191772304
:1044A000E1F7329704C07C916D9370836291AE17EF
:1044B000BF07C8F30895F999FECF92BD81BDF89A60
:1044C000992780B50895262FF999FECF1FBA92BD7E
:1044D00081BD20BD0FB6F894FA9AF99A0FBE0196E5
:1044E0000895DB018F939F930E94C222BF91AF91E9
:1044F000A29F800D911DA39F900DB29F900D11243E
:104500000895A1E21A2EAA1BBB1BFD010DC0AA1F14
:10451000BB1FEE1FFF1FA217B307E407F50720F02C
:10452000A21BB30BE40BF50B661F771F881F991FA7
:104530001A9469F760957095809590959B01AC01F0
:10454000BD01CF010895052E97FB1EF400940E9433
:10455000BA2257FD07D00E94812207FC03D04EF4F7
:104560000C94BA2250954095309521953F4F4F4F6E
:104570005F4F089590958095709561957F4F8F4F0F
:104580009F4F08950E940423A59F900DB49F900D06
:10459000A49F800D911D112408952F923F924F9258
:1045A0005F926F927F928F929F92AF92BF92CF92C3
:1045B000DF92EF92FF920F931F93CF93DF93CDB7CC
:1045C000DEB7CA1BDB0B0FB6F894DEBF0FBECDBF44
:1045D00009942A88398848885F846E847D848C8415
:1045E0009B84AA84B984C884DF80EE80FD800C811E
:1045F0001B81AA81B981CE0FD11D0FB6F894DEBF01
:104600000FBECDBFED010895A29FB001B39FC001C1
:10461000A39F700D811D1124911DB29F700D811DEE
:104620001124911D0895AA1BBB1B51E107C0AA1FAD
:10463000BB1FA617B70710F0A61BB70B881F991F43
:104640005A95A9F780959095BC01CD010895EE0F7C
:10465000FF1F0590F491E02D09940F931F93CF93C2
:10466000DF938230910510F482E090E0E0912D0814
:10467000F0912E0830E020E0B0E0A0E0309799F40F
:104680002115310509F44AC0281B390B24303105A6
:10469000D8F58A819B816115710589F1FB019383AE
:1046A0008283FE0111C0408151810281138148172C
:1046B0005907E0F04817590799F4109761F01296DE
:1046C0000C93129713961C933296CF01DF91CF91E2
:1046D0001F910F91089500932D0810932E08F4CF89
:1046E0002115310551F04217530738F0A901DB01BC
:1046F0009A01BD01DF01F801C1CFEF01F9CF90931D
:104700002E0880932D08CDCFFE01E20FF31F819379
:1047100091932250310939832883D7CF20912B08D8
:1047200030912C08232B41F4209115013091160172
:1047300030932C0820932B08209113013091140101
:104740002115310541F42DB73EB740911701509125
:104750001801241B350BE0912B08F0912C08E2176F
:10476000F307A0F42E1B3F0B2817390778F0AC0194
:104770004E5F5F4F2417350748F04E0F5F1F509371
:104780002C0840932B08819391939FCFF0E0E0E0B9
:104790009CCFCF93DF930097E9F0FC01329713820F
:1047A0001282A0912D08B0912E08ED0130E020E09A
:1047B0001097A1F420813181820F931F20912B0843
:1047C00030912C082817390709F061C0F0932C08A4
:1047D000E0932B08DF91CF910895EA01CE17DF0710
:1047E000E8F54A815B819E0141155105B1F7E90168
:1047F000FB83EA8349915991C40FD51FEC17FD073C
:1048000061F4808191810296840F951FE90199835B
:104810008883828193819B838A83F0E0E0E0129613
:104820008D919C9113970097B9F52D913C9111971B
:10483000CD010296820F931F20912B0830912C08F6
:104840002817390739F6309751F510922E08109233
:104850002D08B0932C08A0932B08BCCFD383C28320
:1048600040815181840F951FC817D90761F44E5FAD
:104870005F4F88819981480F591F518340838A81F6
:104880009B81938382832115310509F0B0CFF0938A
:104890002E08E0932D089ECFFD01DC01C0CF1382CE
:1048A0001282D7CFB0E0A0E0E8E5F4E20C94CF228A
:1048B0008C01009751F4CB010E942D238C01C8017B
:1048C000CDB7DEB7E0E10C94EB22FC01E60FF71F59
:1048D0009C0122503109E217F30708F49DC0D90169
:1048E000CD91DC911197C617D70798F0C530D10547
:1048F00030F3CE0104978617970708F3C61BD70B32
:104900002297C193D1936D937C93CF010E94C923C9
:10491000D6CF5B01AC1ABD0A4C018C0E9D1EA09136
:104920002D08B0912E08512C412CF12CE12C109720
:1049300031F580912B0890912C088815990509F084
:104940005CC04616570608F058C08091130190913C
:104950001401009741F48DB79EB740911701509113
:104960001801841B950BE817F90708F055C0F09360
:104970002C08E0932B08F90171836083A0CF8D91FF
:104980009C91119712966C90129713967C901397A6
:10499000A815B90559F56C0142E0C40ED11CCA1422
:1049A000DB0420F1AC014A195B09DA011296159774
:1049B00080F06282738251834083D9016D937C932E
:1049C000E114F10471F0D7011396FC93EE93129762
:1049D00076CF22968C0F9D1FF90191838083F3017E
:1049E000EFCFF0932E08E0932D0869CF48165906B3
:1049F00008F42C017D01D3019ACFCB010E942D2315
:104A00007C01009749F0AE01B8010E940F25C80152
:104A10000E94C923870153CF10E000E050CFFB0173
:104A2000DC0102C001900D9241505040D8F708952A
:104A3000FB01DC0101900D920020E1F70895F8944C
:024A4000FFCFA6
:104A4200FFFFFFFF00E100000000000000C18081C5
:104A520000000000002F088000000080089009A0DC
:104A62000AB00BC00CD00DE00E00000100020203E0
:104A7200030400050006000700080309030A030BEC
:104A8200030C020D020E030F01000000002601BDFF
:104A9200031E03830250042504FD0300000000519D
:104AA200056D04DF049D051005EE040205000000FB
:0E4AB20000C005C205BD050D0D4D494449006B
:00000001FF
