:100000000C94DE000C9406010C9406010C9406017D
:100010000C9406010C9406010C9406010C94060144
:100020000C9406010C9406010C94AE0E0C942C0F4B
:100030000C9406010C9406010C9406010C94060124
:100040000C9406010C9406010C9406010C94060114
:100050000C9406010C9406010C9406010C94640E99
:100060000C9406010C9484110C945E110C940601FE
:100070000C9406010C9406010C9406010C940601E4
:100080000C9406010C9406010C9406010C940601D4
:100090000C9406010C9406010C9406010C940601C4
:1000A0000C9406010C9406010C940601080B000246
:1000B0000202000009040000010202000005240001
:1000C0001001052401010104240206052406000193
:1000D0000705810310004009040100020A00000026
:1000E00007050202400000070583024000000403E8
:1000F000090412010002EF020140501D4F6100018E
:100100000102030141726475696E6F005348494BE7
:10011000204E333242205633000405020706050400
:100120000100080A0B0C0D09000000002400270044
:100130002A002D00300000000000250028002B00C0
:100140002E003100000000002300260029002C00B2
:100150002F00040404040403040502020202040341
:100160000202020206060606060604040202020451
:1001700004040802011040804010204080408008A4
:100180000204018040201002011080102040402015
:100190000000000200090F0000030401000C000031
:1001A0000000000000000000000000000000003F10
:1001B000065B4F666D7D077F6F00B61111241FBE71
:1001C000CFEFDAE0DEBFCDBF11E0A0E0B1E0E0E0CC
:1001D000F6E402C005900D92AC37B107D9F727E0DD
:1001E000ACE7B1E001C01D92A13AB207E1F710E01F
:1001F000CEEDD0E004C02197FE010E94F822CD3D53
:10020000D107C9F70E949A140C94FE220C940000A6
:100210008436910598F0AC014456510921E04436EA
:10022000510518F04456510922E0E22FF0E0E15563
:10023000FE4FE491E0934305CA0103C010924305C9
:1002400020E0E0E08A30910518F0EF5F0A97FACFDE
:1002500021110BC0E11109C01092420581559E4F3A
:10026000FC018491809341050895F0E0E155FE4F33
:10027000E491E0934205F2CFCF93DF931F92CDB785
:10028000DEB76983DC01ED91FC910280F381E02D02
:1002900041E050E0BE016F5F7F4F09950F90DF9105
:1002A000CF91089581508F3008F047C0E82FF0E0DB
:1002B000E45AFE4F0C94F82279017D016B01710123
:1002C00075019D019D019D01800186018A018E01BC
:1002D00094019D019801809180008F778093800028
:1002E0000895809180008F7DF9CF80918000877F75
:1002F000F5CF84B58F7784BD089584B58F7DFBCF0E
:10030000809190008F778093900008958091900065
:100310008F7DF9CF80919000877FF5CF8091C000CD
:100320008F778093C00008958091C0008F7DF9CFB2
:100330008091C200877F8093C2000895CF93DF939E
:10034000282F30E0F901E057FE4F8491F901EF5872
:10035000FE4FD491F901EE5AFE4FC491CC23A1F087
:1003600081110E945201EC2FF0E0EE0FFF1FEC5BB9
:10037000FE4FA591B491EC91ED2381E090E009F45A
:1003800080E0DF91CF91089580E090E0FACF1F9355
:10039000CF93DF93282F30E0F901E057FE4F84918F
:1003A000F901EF58FE4FD491F901EE5AFE4FC49176
:1003B000CC23A9F0162F81110E945201EC2FF0E0FE
:1003C000EE0FFF1FEA5CFE4FA591B4918FB7F89432
:1003D000EC91111108C0D095DE23DC938FBFDF9123
:1003E000CF911F910895DE2BF8CFEF92FF920F93DC
:1003F0001F93CF93DF9361E080913F050E94C70177
:1004000060E080913F050E94C701CDE3D5E08AE31B
:10041000E82E85E0F82E0E8118E0602F661F662713
:10042000661F80913D050E94C70161E080913E05F5
:100430000E94C70160E080913E050E94C701000F45
:10044000115059F72197EC16FD0629F761E08091CC
:100450003F050E94C70160E080913F050E94C701EF
:1004600080914505882319F081E080934405DF9150
:10047000CF911F910F91FF90EF900895CF93DF934D
:1004800090E0FC01EF58FE4F24918E5A9E4FFC01E4
:1004900084918823C9F090E0880F991FFC01E85DE2
:1004A000FE4FA591B491FC01EA5CFE4FC591D49139
:1004B00061110DC09FB7F8948C91209582238C9385
:1004C0008881282328839FBFDF91CF9108956230D0
:1004D00051F49FB7F8943C91822F809583238C939D
:1004E000E8812E2BEFCF8FB7F894EC912E2B2C9325
:1004F0008FBFEACF3FB7F8948091A5029091A602F2
:10050000A091A702B091A80226B5A89B05C02F3FD5
:1005100019F00196A11DB11D3FBFBA2FA92F982F29
:100520008827BC01CD01620F711D811D911D42E024
:10053000660F771F881F991F4A95D1F708958F92EC
:100540009F92AF92BF92CF92DF92EF92FF924B01B8
:100550005C010E947A026B017C010E947A026C1994
:100560007D098E099F09683E734081059105A8F3B6
:1005700021E0821A9108A108B10888EEC80E83E034
:10058000D81EE11CF11C81149104A104B10429F7C7
:10059000FF90EF90DF90CF90BF90AF909F908F90A3
:1005A00008952FB7F8946091A1027091A2028091F2
:1005B000A3029091A4022FBF0895CF93DF9390E000
:1005C0000E940801CDE3D5E089E38E830E94F50106
:1005D0000E94D10269877A878B879C87DF91CF91B0
:1005E0000895CF93DF9390E001960E940801CDE338
:1005F000D5E083E78E830E94F5010E94D1026987CE
:100600007A878B879C87DF91CF9108958093E9004B
:100610008091F200882319F08AE38093E80008951E
:1006200083E00C94060340918A0150918B01209144
:1006300088013091890142175307B4F49091E80082
:100640009570E1F39091E80092FD19C08093F1005C
:1006500080918A0190918B0101968F739927892B44
:1006600019F48EEF8093E80080918A0190918B01BC
:10067000019690938B0180938A0181E0089580E038
:100680000895EF92FF920F931F93CF93DF93F82E6D
:10069000192FE62E042F81E0860F880F0E94130386
:1006A00083E00E941303CF2DD12FEC0EFD2EF11C01
:1006B000CE15DF05B9F007FF13C0FE0184910E943B
:1006C0001303182F80E00E941303812321968111C8
:1006D000EFCFDF91CF911F910F91FF90EF90089591
:1006E0008881EDCF81E0F5CFDF92EF92FF920F93FB
:1006F0001F93CF93DF93D82E8A01EB017B01E40E89
:10070000F51ECE15DF0559F0D7FE12C0FE0184910B
:100710000E94130321968111F4CF0FEF1FEFC80140
:10072000DF91CF911F910F91FF90EF90DF9008958F
:100730008881EECF2FB7F89487708093E90090916D
:10074000E800892F807295FF04C09091F20080E448
:10075000891B2FBF089583E00E949A0390E00895BB
:100760007F928F929F92AF92BF92CF92DF92EF9241
:10077000FF920F931F93CF93DF93C82E8B017A01C3
:1007800080919101811110C08FEF9FEFDF91CF9188
:100790001F910F91FF90EF90DF90CF90BF90AF909F
:1007A0009F908F907F90089580918F0180FF05C06A
:1007B0008091E00082608093E000CE2DDF2DD12C6F
:1007C0008AEFB82E8C2D8770982E8C2D8072882EF3
:1007D0008C2D8074782E9AE3A92E209719F4DD20B1
:1007E00009F452C08C2D0E949A0381110AC0BA9458
:1007F000BB2051F261E070E080E090E00E949F0237
:10080000ECCF8C171D0611F00CF08C2F9FB7F894CD
:100810009092E9002091E80025FD02C09FBFDDCF46
:10082000282F30E0C21BD30B882029F08150A0F084
:100830001092F100FBCFF801C7FC0AC0815050F0C4
:1008400041914093F100FACF44914093F1003196E9
:100850008150D0F7020F131FDD2021F0A092E80095
:10086000D12CDCCF8091E80085FD07C0A092E80084
:10087000DD24D394209791F2F3CF209779F6772057
:1008800069F2A092E800CACF5D9884E680938E0159
:10089000C7017CCFCF93DF93EC0180910B018823BC
:1008A00031F083E00E94B0031816190634F081E09D
:1008B00090E09B838A8380E090E0DF91CF91089560
:1008C00090919101992319F13FB7F8948770809323
:1008D000E9008091F20090E0481759070CF4CA0132
:1008E000282FFB0154E6215038F0289850938D01B1
:1008F0004091F1004193F7CF009739F02091F20039
:10090000211103C02BE62093E8003FBF08958FEF2D
:100910009FEF08950F931F93CF93DF931F92CDB74F
:10092000DEB78C01FC018485958597FF0FC041E0FF
:1009300050E0BE016F5F7F4F82E00E94600401972C
:1009400071F4898190E0F80195878487F8018485A6
:1009500095850F90DF91CF911F910F9108958FEFA3
:100960009FEFF1CFCF93DF931F92CDB7DEB7FC019E
:100970008485958597FD08C02FEF3FEF3587248745
:100980000F90DF91CF91089541E050E0BE016F5F7D
:100990007F4F82E00E946004019719F4898190E002
:1009A000EFCF8FEF9FEFECCF9FB7F89487708093D6
:1009B000E9008091F2009FBF0895FC018485958530
:1009C00097FD06C082E00E94D40490E0019608954D
:1009D00082E00E94D40490E00895615030F02091AC
:1009E000F100FC0120830196F8CF289884E68093DB
:1009F0008D010895AF92BF92CF92DF92EF92FF9256
:100A00000F931F93CF93DF936C017B018B01040F36
:100A1000151FEB015E01AE18BF08C017D10759F0D2
:100A20006991D601ED91FC910190F081E02DC60114
:100A30000995892B79F7C501DF91CF911F910F910E
:100A4000FF90EF90DF90CF90BF90AF90089580918E
:100A5000800181110DC082E080937C0184E080934D
:100A60007D0110927F0110927E0181E080938001D0
:100A70008CE791E008950F931F93CF93DF931F921C
:100A8000CDB7DEB782E0898342E450E06CEA70E0E3
:100A900080E80E9474030E942705DC0112960D91E4
:100AA0001C910115110589F0D801ED91FC9102808E
:100AB000F381E02DBE016F5F7F4FC801099597FD5F
:100AC00004C0F80100851185ECCF89810F90DF917A
:100AD000CF911F910F910895FC01538D448D252FC7
:100AE00030E0842F90E0821B930B541710F0CF96C8
:100AF000089501970895FC01918D828D981761F0FA
:100B0000A28DAE0FBF2FB11D5D968C91928D9F5F10
:100B10009F73928F90E008958FEF9FEF0895FC01EF
:100B2000918D828D981731F0828DE80FF11D858DA2
:100B300090E008958FEF9FEF0895FC01918D228D35
:100B4000892F90E0805C9F4F821B91098F739927BA
:100B500008958EE196E00E949D0521E0892B09F41D
:100B600020E0822F089580E090E0892B29F00E94F8
:100B7000A90581110C9400000895FC01A48DA80F13
:100B8000B92FB11DA35ABF4F2C91848D90E00196CF
:100B90008F739927848FA689B7892C93A089B189EF
:100BA0008C9182748C93938D848D981306C00288E7
:100BB000F389E02D80818F7D80830895EF92FF92ED
:100BC0000F931F93CF93DF93EC0181E0888F9B8D70
:100BD0008C8D981319C0E889F989808185FF14C02C
:100BE0009FB7F894EE89FF896083E889F98980814D
:100BF000827480839FBF81E090E0DF91CF911F914D
:100C00000F91FF90EF900895F62E0B8D10E00F5F7F
:100C10001F4F0F731127E02E8C8D8E110CC00FB655
:100C200007FCFACFE889F989808185FFF5CFCE01ED
:100C30000E94BD05F1CFEB8DEC0FFD2FF11DE35AA6
:100C4000FF4FF0829FB7F8940B8FEA89FB89808170
:100C50008062CFCFCF93DF93EC01888D8823B9F0EA
:100C6000AA89BB89E889F9898C9185FD03C08081B7
:100C700086FD0DC00FB607FCF7CF8C9185FFF2CF34
:100C8000808185FFEDCFCE010E94BD05E9CFDF91C8
:100C9000CF910895FC011482158216820895CF9297
:100CA000DF92EF92FF920F931F93CF93DF93EC01AC
:100CB00088810E949E018C010E94D1022889398975
:100CC0002017310731F06A8B7B8B8C8B9D8B198BB6
:100CD000088BCA88DB88EC88FD886C197D098E0931
:100CE0009F09CA80DB80EC80FD806C157D058E0538
:100CF0009F0530F08E859F859D878C871F870E8787
:100D00002C853D858E859F852817390781F04A857A
:100D10005B8542305105A1F48E819F81A885B985FC
:100D20000196A11DB11D8E839F83A887B987DF918E
:100D3000CF911F910F91FF90EF90DF90CF9008958A
:100D40004115510531F42130310589F7892B21F303
:100D5000EECF4130510559F7232B49F7019739F769
:100D6000DBCF90E080E0089580E008950F931F931B
:100D7000CF93DF93CDB7DEB7C456D1090FB6F89441
:100D8000DEBF0FBECDBFFC01DB019C919E5F9C933B
:100D90009E01295F3F4F8AE5D9011D928A95E9F7A7
:100DA00088E089838BE08A8322E02C8391E09D8315
:100DB0009E8339E0398764E06A879E879F873A8BF4
:100DC00044E24B8B9C8BA0E0B1E0BE8BAD8B09E085
:100DD00010E0188F0F8B998F3B8F6C8F2F8F98A3FC
:100DE00053E059A387E08CA34DA39EA3B8A7AFA35C
:100DF000A1E4B0E0BAA7A9A786E08BA74CA72DA7CE
:100E00009EA79FA789AB4AAB2BAB2CAB2DAB3FABBF
:100E100048AF59AF9AAF5BAF9CAF2DAF9EAF219655
:100E20003FAF219722964FAF229723965FAF23972C
:100E300024962FAF249725966FAF259726969FAFC0
:100E4000269727969FAF279728969FAF28972A9691
:100E50003FAF2A9745E02B964FAF2B972D962FAF9C
:100E60002D9760E470E02F967FAF6EAF2F9763965B
:100E70004FAF639785E264968FAF649765969FAF97
:100E8000659766969FAF669767969FAF67976896D8
:100E90003FAF689769964FAF69976B962FAF6B9787
:100EA0006D967FAF6EAF6D97A1964FAFA197A2964B
:100EB0008FAFA297A3969FAFA397A4969FAFA49737
:100EC000A5965FAFA59792819B839B879F5F9A8F23
:100ED0009D8F83812C968FAF2C978F5F80686A9649
:100EE0008FAF6A9744E650E0BE016F5F7F4F80E0AE
:100EF0000E947403CC59DF4F0FB6F894DEBF0FBECB
:100F0000CDBFDF91CF911F910F910895CF93DF93C4
:100F1000CDE3D5E08E8180688E830E94F5010E942A
:100F2000D10269877A878B879C87DF91CF9108955B
:100F300087FF0AC09CE0980F923030F08D3F21F07F
:100F4000803F18F4807F089580E00895982F9F7E59
:100F5000282F2F7C203839F0803E29F081E0903C0A
:100F600019F080E0089581E00895CF93DF93EC01BC
:100F7000E881F981309711F0CB9609958CAD823FCD
:100F800009F49EC090F5803C09F486C090F4803945
:100F900009F454C030F4803809F445C0DF91CF9192
:100FA0000895803A09F475C0803BC1F7EA85FB8556
:100FB0003CC0803E09F459C058F4803D79F7EE8575
:100FC000FF85309759F36DAD8BADDF91CF910994CB
:100FD000803F09F464C0813F09F7EC89FD893097AF
:100FE000E9F28DADDF91CF9109948A3F91F180F4C0
:100FF000863F09F477C028F4833F81F6E88DF98DA8
:10100000EECF883FF1F0893F49F6E8A1F9A11BC076
:101010008C3F29F108F18E3F29F18F3F09F0BECFB7
:10102000E8A5F9A510C0EC81FD81309709F4B6CF91
:101030004EAD6DAD8BADDF91CF910994EE81FF8107
:10104000F4CFEC8DFD8D309709F4A8CFDF91CF91CF
:101050000994EE8DFF8DF7CFEAA1FBA1F4CFECA1AF
:10106000FDA1F1CFEEA1FFA1EECFE889F98930977C
:1010700009F494CF6EAD20E8629FB001112460782E
:101080007F738DAD8F77682B70528BADDF91CF91D1
:101090000994E885F985C9CFEC85FD8592CFEA8969
:1010A000FB89309709F47ACF6DAD7EAD613871055B
:1010B00010F060E870E0CE01CF96DF91CF910994F7
:1010C000EE89FF89309709F469CF8EAD20E8829FC1
:1010D000C001112480789F732DAD2F77822BDF9173
:1010E000CF910994EA8DFB8DAECFDC018D919C915F
:1010F000DC01ED91FC910190F081E02D09940F93BA
:101100001F93CF93DF93FC01EC57FF4F20812223E5
:1011100009F450C0EC01688161506F708981682BBF
:1011200080917805909179050E9475088981803FAA
:10113000F9F08E010B571F4FF801808191810297C2
:1011400038F06A8180917805909179050E94750840
:10115000F80180819181039768F16B818091780516
:1011600090917905DF91CF911F910F910C947508A3
:1011700060EF80917805909179050E9475088E0145
:10118000A8014C1B5D0B80917805909179050F5F4C
:101190001F4F2A813B812138310510F020E830E0D3
:1011A0004217530728F4F80163810E947508E8CFBD
:1011B00067EFD8CFDF91CF911F910F9108951F93C3
:1011C000CF93DF932150203118F587FF21C0D42F12
:1011D000162FC82F622F682B809178059091790582
:1011E0000E947508612F6F7780917805909179053D
:1011F0000E947508CF7EC03C59F06D2F6F778091AB
:10120000780590917905DF91CF911F910C94750825
:10121000DF91CF911F910895242F462F682F80EBE7
:101220000C94DF086D3F48F46A3F10F4683F39F4CE
:10123000FC01808191810C9475086E3FC8F7089578
:10124000813E10F40C94DF08883F28F0682F88E76F
:1012500095E00C94120908950F93CF93DF93F90151
:10126000DB012C91EA013881231B330B2F5F3F4FA9
:101270003695322F222737952795DC010E94D522FB
:10128000DC01CB017EE0B695A795979587957A9579
:10129000D1F78115D0E49D07A105B10520F08FEFAE
:1012A0009FE3A0E0B0E0002331F08F778083DF91EF
:1012B000CF910F91089527E0B695A79597958795BB
:1012C0002A95D1F78083EA016881680F6083EFCFA8
:1012D0000F931F93F80190E002C0959587956A954A
:1012E000E2F780FF08C0D9018C919081891BDA0157
:1012F0009C91890F80831F910F9108950F931F93E5
:10130000CF93DF9300D000D0CDB7DEB7FC012089AA
:1013100091898289378539832A839B838C8309EF5E
:1013200012E0F801838144E050E0BE016F5F7F4F1F
:101330008F5F0E94B003F80183818F5F0E940603D4
:101340000F900F900F900F90DF91CF911F910F9101
:1013500008950F931F93CF93DF9300D000D0CDB7A4
:10136000DEB78C01262FFC01848195813681303FC8
:10137000D9F0009711F4208B04C08130910581F4DD
:10138000618BF801848195810196958384830F9008
:101390000F900F900F90DF91CF911F910F910895B3
:1013A000029779F7628BEDCF603F49F48389F0E1D2
:1013B0008F9FC00111248460F8018787DCCF63E030
:1013C00070E00E94E422AC01273F39F493899295A2
:1013D000907F85E0840F982B9787F8014115510580
:1013E00021F4208B128A118ACCCF4130510519F497
:1013F000218B128AC6CF228B273F19F290898189CF
:10140000378539839A838B832C838091FC0244E057
:1014100050E0BE016F5F7F4F8F5F0E94B0038091ED
:10142000FC028F5F0E940603ACCFDC0116966C9322
:10143000169753968C91539720E1829FC0011124F7
:10144000603FE8F4E62FE295EF70E750FF0BEE0FF8
:10145000FF1FE95EFE4F9181892B1F968C931F978A
:1014600052961C92529751961C92519750961C92EC
:10147000509715961C921E92149781E008958460EF
:10148000ECCF0F931F93CF93DF93DFEFD20FD031C9
:1014900098F587FF31C0142F062FC82F682F809131
:1014A000E7069091E8060E94150A882329F16D2F1E
:1014B0006C2B8091E7069091E8060E94A909602FA5
:1014C0006F778091E7069091E8060E94A909CF7E88
:1014D000C03C41F0612F6F778091E7069091E8065C
:1014E0000E94A9098091E7069091E806DF91CF91CB
:1014F0001F910F910C947E09DF91CF911F910F9155
:101500000895242F462F682F80EB0C94410A0F93E7
:101510001F93CF93DF93C82FD62F142F022F8D7FC9
:10152000813029F4422F612F8D2F0E940C09C25067
:10153000C23048F4402F612F8D2FDF91CF911F9142
:101540000F910C94810ADF91CF911F910F91089513
:10155000BF92CF92DF92EF92FF920F931F93CF93A0
:10156000DF938C016B01B42EE52EF22E60EFFC01AF
:10157000808191810E94150A882351F181E0F8262B
:1015800031F060EFF801808191810E94A909CB2D93
:10159000DE2DCC0EDD1EF80180819181CC15DD059C
:1015A00021F069910E94A909F6CFFF2019F067EF99
:1015B0000E94A909F80180819181DF91CF911F914B
:1015C0000F91FF90EF90DF90CF90BF900C947E0929
:1015D000DF91CF911F910F91FF90EF90DF90CF900F
:1015E000BF9008950F931F93CF936D3FD8F46A3F38
:1015F00010F4683FC9F4C62F8C01FC0180819181F1
:101600000E94150A882381F06C2FF8018081918156
:101610000E94A909F80180819181CF911F910F91BA
:101620000C947E096E3F38F7CF911F910F9108956A
:10163000813E10F40C94410A883F28F0682F87EE11
:1016400096E00C94F20A0895CF93DF93EC01898120
:101650008E3FD1F090912D04943091F0953059F057
:10166000933029F428814B816A810E94180BDF9105
:10167000CF910C94860728814B816A810E94180BB8
:10168000CE010E947F08F3CFDF91CF910895CF93D1
:10169000DF93EC0189818E3FD9F090912D04923037
:1016A00041F0953079F0913049F4CE010E947F08E5
:1016B00005C028814B816A810E94180BDF91CF9170
:1016C0000C94860728814B816A810E94180BEDCF0C
:1016D000DF91CF910895CF92DF92EF92FF921F9307
:1016E000CF93DF93182F81E291E0189F6001199F3B
:1016F000D00C11248DE0E82E83E0F82EC1E0D0E07C
:10170000C6018C0F9D1F0E947322F70181937F01F8
:101710002196C232F1E0DF0799F710930F05812F70
:10172000DF91CF911F91FF90EF90DF90CF900C94BD
:10173000F102833010F40C946B0B0895862F633004
:1017400010F40C94990B08950F931F93CF93C82F07
:10175000882329F110929F020E94D10200919A02DF
:1017600010919B0220919C0230919D02601B710B95
:10177000820B930B6F3F71058105910588F5809170
:1017800010058823D9F080910F05CC2389F0823091
:1017900048F48F5FCF911F910F910C94990B109289
:1017A0009E02DACF80E0CF911F910F910C946B0BCA
:1017B000882311F08150EECF82E0F5CF80910E05A5
:1017C000CC2349F08F708F5F80930E05CF911F91CE
:1017D0000F910C94DD0290E00E968F709927F3CF55
:1017E000CF911F910F910895FF920F931F93CF9365
:1017F000DF93EC01F62E08811981C8010E94732243
:10180000F81621F06F2DC8010E947B22CE01DF91D6
:10181000CF911F910F91FF900895DF92EF92FF9269
:101820000F931F93CF93DF93CDB7DEB761970FB6BA
:10183000F894DEBF0FBECDBFDC016430710508F443
:10184000A6C011968C911197803209F0A0C0129613
:10185000EC911297E150E83008F099C0F0E0ED5CAF
:10186000F34F0C94F8223B0CDA0C260D350D560D77
:101870002B0DC70CD50C14962C91149713968C91A4
:10188000139769E0689FC0011124835F9C4FFC019E
:10189000208315962C91159713968C911397689F1A
:1018A000C0011124835F9C4FFC0121831A962C9167
:1018B0001A9713968C911397689FC0011124835F28
:1018C0009C4FFC0122831B962C911B9713968C91A5
:1018D0001397689FC0011124835F9C4FFC012483F0
:1018E0001C962C911C9713968C911397689FC0019E
:1018F0001124835F9C4FFC0123831D962C911D971F
:1019000013968C911397689FC0011124835F9C4F9D
:10191000FC01258313968C911397689FC0011124B5
:10192000835F9C4F16962C911697F0E12F9FA00194
:10193000112417962C911797242BFC0127831396BB
:101940008C911397689FC0011124835F9C4F189658
:101950002C911897F4E02F9FA001112419962C9137
:101960001997242BFC01268313968C911397689F5B
:10197000F0011124E35FFC4F1F968C911F9790E1BB
:10198000899F900111241E968C91822B80876196ED
:101990000FB6F894DEBF0FBECDBFDF91CF911F9180
:1019A0000F91FF90EF90DF90089513968C918093A4
:1019B0002D04EDCF13962C91233048F741E251E0EE
:1019C000249FC001259F900D11240DE013E0FC0120
:1019D000ED50F3407F01F80161918F01C7018E0F37
:1019E0009F1F9A838983CE0101960E94F40BF4E035
:1019F0000E321F0781F78DE395E00E944A068DE6BF
:101A0000809342058CE1809341050E94F5016CE2D0
:101A100071E080E090E00E949F0213E001E0FF246B
:101A2000F39480914105002379F08068809341050B
:101A30000E94F5016CE271E080E090E00E949F025C
:101A40000F25115071F7A3CF8F77F0CF13968C919C
:101A50000E94990B9CCF13968C919FEF980F903119
:101A600008F095CF80930E0592CF1B821C821D82B9
:101A700080E2898384E08A838DEF93E00E94732261
:101A80008D838EEF93E00E9473228C838FEF93E01F
:101A90000E9473228B8320E0AE014F5F5F4F65E0B1
:101AA00070E087EE96E00E94A80A71CF0DE013E087
:101AB000F12C60E2D62E75E0E72EF80127819681A1
:101AC0008085D982EA82FB8230813C8331813D83EB
:101AD000422F50E034E0559547953A95E1F74E8313
:101AE0002F702F83292F30E0359527953595279531
:101AF00028879370998792819A8794819B87938195
:101B00009C8795819D87982F9F709E8790E054E0D9
:101B1000959587955A95E1F78F8720E0AE014F5F45
:101B20005F4F6FE070E087EE96E00E94A80AF394A2
:101B3000075F1F4FF0E2FF12C0CFF98288E08A836F
:101B400080912D048B8320E0AE014F5F5F4F63E0F7
:101B500070E087EE96E00E94A80AF88A83E6898BF7
:101B600020E0AE01405F5F4F62E070E09ACF8F925D
:101B70009F92AF92BF92DF92EF92FF920F931F93CB
:101B8000CF93DF93CDB7DEB7C352D1400FB6F894F1
:101B9000DEBF0FBECDBF1A82198260E08E010F5FDB
:101BA0001F4FC8010E94F40BF80180E09FE73FE05F
:101BB00020E1808340E2480F4183128213829483A4
:101BC00095833683178220878F5F3996803289F715
:101BD000CF5DDE4F1882C152D140AA24BB24A01A87
:101BE000B10A83E0D82E48018FED881A8EEF980A4B
:101BF0007801F70161917F01CF018A0D9B1DCE5DB8
:101C0000DE4F99838883C252D140CE018E5D9E4FB4
:101C10000E94F40B8E149F0461F7DA94FFEDAF1A63
:101C2000FEEFBF0AD110E4CFEBE1F1E065917491D2
:101C30008DEF93E0CE5DDE4F99838883C252D14011
:101C4000CE018E5D9E4F0E94F40BEAE1F1E06591BA
:101C500074918EEF93E0CE5DDE4F99838883C252FC
:101C6000D140CE018E5D9E4F0E94F40BE9E1F1E080
:101C7000659174918FEF93E0CE5DDE4F99838883F9
:101C8000C252D140CE018E5D9E4F0E94F40BCD5DBD
:101C9000DE4F0FB6F894DEBF0FBECDBFDF91CF9100
:101CA0001F910F91FF90EF90DF90BF90AF909F90AA
:101CB0008F90089584E0E7E7F1E0DB0101900D9259
:101CC0008A95E1F784E008951F920F920FB60F9264
:101CD00011242F933F938F939F93AF93BF93809142
:101CE000A1029091A202A091A302B091A40230910E
:101CF000A00223E0230F2D3758F50196A11DB11D39
:101D00002093A0028093A1029093A202A093A30229
:101D1000B093A4028091A5029091A602A091A7027F
:101D2000B091A8020196A11DB11D8093A5029093C8
:101D3000A602A093A702B093A802BF91AF919F9172
:101D40008F913F912F910F900FBE0F901F9018957C
:101D500026E8230F0296A11DB11DD2CF1F920F922C
:101D60000FB60F9211242F933F934F935F936F936E
:101D70007F938F939F93AF93BF93CF93EF93FF93F3
:101D8000C091E1008091E100837F8093E100C3FF77
:101D90000FC01092E90081E08093EB001092EC00FC
:101DA00082E38093ED001092910188E08093F0002F
:101DB000C2FF1BC083E00E94060380918E0188232E
:101DC00041F080918E01815080938E01811101C07C
:101DD0005D9A80918D01882341F080918D01815021
:101DE00080938D01811101C0289AC4FF23C0809186
:101DF000E2008E7E81608093E2008091E1008F7E20
:101E00008093E10080918F018E7E806180938F01AD
:101E1000FF91EF91CF91BF91AF919F918F917F9162
:101E20006F915F914F913F912F910F900FBE0F9047
:101E30001F901895C0FFECCF8091E2008E7E8061EC
:101E40008093E2008091E1008E7E8093E10080919A
:101E50008F018E7E8160DACF1F920F920FB60F92A4
:101E60001124CF92DF92EF92FF920F931F932F9343
:101E70003F934F935F936F937F938F939F93AF9312
:101E8000BF93EF93FF93CF93DF93CDB7DEB76C97FC
:101E9000DEBFCDBF1092E9008091E80083FF25C02E
:101EA00068E0CE0145960E94ED0482EF8093E80041
:101EB0008D8987FF39C09091E80090FFFCCF982F63
:101EC000907609F034C19E894F89588D2F89F88CFE
:101ED000911131C0803861F5809190018093F100BB
:101EE0001092F1008EEF8093E8006C960FB6F89494
:101EF000DEBF0FBECDBFDF91CF91FF91EF91BF91BC
:101F0000AF919F918F917F916F915F914F913F9191
:101F10002F911F910F91FF90EF90DF90CF900F9036
:101F20000FBE0F901F9018959EEF9093E800C7CFBB
:101F30001092F100D5CF913059F48111D3CF4130B7
:101F4000510581F6809190018D7F80939001CACFD9
:101F5000933049F48111C6CF4130510519F6809173
:101F600090018260F2CF953041F48091E80080FFCB
:101F7000FCCF20682093E300B5CF963009F0A9C0CC
:101F80000B8D1C8D22E01092E90010928B011092B3
:101F90008A01F2122EC010928901109288010E94CB
:101FA0003B051F8299E09983FA8291E09E8390EA33
:101FB00098879AEF998720918A0130918B01275F4A
:101FC0003F4F3C832B838D831092E90010928B014D
:101FD00010928A01109389010093880149E050E032
:101FE000BE016F5F7F4F80E00E9474030E943B053B
:101FF00079CF10938901009388010E942705DC01A5
:1020000012960D911C910115110509F451C1D801C9
:10201000ED91FC910480F581E02DBE016B5E7F4F58
:10202000C8010995009709F03EC1F80100851185A6
:10203000EACFF3E0FF120EC08F89882309F440C075
:10204000823061F440E86CE08CE091E00E94410352
:10205000811148CF81E28093EB0047CF813029F492
:1020600040E867E084E091E0F1CF833099F70E9487
:102070002705DC011296ED90FC908E010F5F1F4F3B
:102080006801E114F10479F0D701ED91FC9106802B
:10209000F781E02DB801C7010995080F111DF7015F
:1020A000E084F184EECFD8011C92F601019000206B
:1020B000E9F73197BF016C197D0940E0C601C6CF31
:1020C0006EEE70E0FB01449150E080E80E947403E2
:1020D00009CF973009F4BECF983021F481E0809386
:1020E000F10000CF993009F0FDCE837009F0B2CF36
:1020F000EDE0F1E081E031E096E32191222371F0FF
:102100008093E9003093EB00DF0111972C9120932D
:10211000EC009093ED008F5F873079F78EE7809326
:10212000EA001092EA008F8980939101DBCE8B8DBB
:102130009C8D1092E90010928B0110928A0190936D
:10214000890180938801898D811192C08E899D8932
:10215000913A49F4813209F07DCF47E050E064E0E4
:1021600071E080E0B3CF913209F074CF833269F42B
:102170008F89988DB0E0A0E08093000190930101D9
:10218000A0930201B0930301ADCE803269F4809137
:10219000E80082FFFCCF67E084E091E00E94ED045C
:1021A0008BEF8093E8009ECE823209F09BCE8F8920
:1021B00080930B01EEEFFFE7859194918B3F9C4D4F
:1021C00051F1E0E0F8E08091040190910501A091C7
:1021D0000601B0910701803B9440A105B105F1F4DF
:1021E00080910B0180FD1AC0EE3F8AE0F80789F567
:1021F00087E797E7918380838091600080938C01CB
:1022000088E19BE00FB6F894A895809360000FBE1C
:102210009093600067CEEEEFFAE0D5CF8081918198
:102220008737974709F05ECEA89580916000886156
:102230008093600080918C0180936000EE3F2AE0E3
:10224000F20789F08091FE0A9091FF0A91838083C2
:1022500049CE808191818737980751F29093FF0A88
:102260008093FE0AC5CF1092FF0A1092FE0A3ACE62
:102270000E942705DC0112960D911C910115110594
:1022800009F4E8CED801ED91FC910190F081E02DA8
:10229000BE016B5E7F4FC8010995811123CEF80105
:1022A00000851185EBCF181619060CF41BCED2CE83
:1022B000F1E0FF12BECE62EF70E004CF1F920F92EA
:1022C0000FB60F9211242F933F934F935F936F9309
:1022D0007F938F939F93AF93BF93EF93FF938EE181
:1022E00096E00E94BD05FF91EF91BF91AF919F9144
:1022F0008F917F916F915F914F913F912F910F90AF
:102300000FBE0F901F9018951F920F920FB60F924D
:1023100011242F938F939F93EF93FF93E0912E06B9
:10232000F0912F068081E0913406F091350682FD10
:102330001BC09081809137068F5F8F732091380684
:10234000821741F0E0913706F0E0E25EF94F958F99
:1023500080933706FF91EF919F918F912F910F906E
:102360000FBE0F901F9018958081F4CFCF93DF930D
:102370001092AC021092AB0288EE93E0A0E0B0E0C5
:102380008093AD029093AE02A093AF02B093B002DF
:102390002BE431E03093AA022093A9022FEF3FEF04
:1023A0003093B6022093B5021092210610922006B7
:1023B0008093220690932306A0932406B0932506CB
:1023C0008DE591E090931F0680931E068DEC90E0C2
:1023D00090932B0680932A068CEC90E090932D0628
:1023E00080932C0688EC90E090932F0680932E0625
:1023F00089EC90E090933106809330068AEC90E06F
:1024000090933306809332068EEC90E090933506DD
:1024100080933406109237061092380610923906CF
:1024200010923A0682E08093FD028093FE0283E0E0
:1024300093E0909300038093FF02109202031092A6
:1024400001038FE691E09093FA028093F90280E80D
:102450008093030381E8809304030E942705FC0115
:1024600081819091FD02482F490F5527551F483013
:1024700051059CF5A281B381109709F529EF32E04F
:102480003383228320812093FB028093FC0280917E
:10249000FE02820F80832091FF02A22FB0910003E1
:1024A0008A2F821B8917C8F481813D91C82FD0E003
:1024B000C45FDE4F38838F5F8183F2CFD9011896D6
:1024C0002D913C91199721153105C1F729EF32E083
:1024D00019963C932E931897D5CF8EE294E0909363
:1024E00006038093050388E08093070389E08093C7
:1024F00008038091130190911401A0911501B091EE
:1025000016018093090390930A03A0930B03B093E1
:102510000C031092A0071092BE061092BD061092F6
:10252000C0061092BF061092C2061092C106109209
:10253000C4061092C3061092C6061092C5061092E9
:10254000C8061092C7061092CA061092C9061092C9
:10255000CC061092CB061092CE061092CD061092A9
:10256000D0061092CF061092D2061092D106109289
:10257000D4061092D3061092D6061092D506109269
:10258000D8061092D7061092DA061092D906109249
:10259000DC061092DB061092DE061092DD06109229
:1025A000E0061092DF061092E2061092E106109209
:1025B000E4061092E3061092E6061092E5068DE816
:1025C00097E09093E8068093E7061092E906109250
:1025D000EA061092EB061092F0061092EF061092A7
:1025E000F2061092F1068FEF9FEF9093F40680931E
:1025F000F3069093F6068093F50623E02093F70602
:102600001092F8061092F9061092FA061092FB0644
:1026100010927C0720E8ECEFF6E0DF01322F1D92EC
:102620003A95E9F710927F07109280071092810780
:1026300010928207109283071092840710928507E8
:1026400010928607109287071092880710928907C8
:1026500010928A0710928B0710928C074EE156E079
:102660005093BC064093BB0610924F0510924E0546
:102670001092510510925005109253051092520578
:102680001092550510925405109257051092560558
:10269000109259051092580510925B0510925A0538
:1026A00010925D0510925C0510925F0510925E0518
:1026B00010926105109260051092630510926205F8
:1026C00010926505109264051092670510926605D8
:1026D000109269051092680510926B0510926A05B8
:1026E00010926D0510926C0510926F0510926E0598
:1026F0001092710510927005109273051092720578
:102700001092750510927405109277051092760557
:102710004BEB56E0509379054093780510927A057B
:1027200010927B0510927C05109281051092800515
:1027300010928305109282059093850580938405FD
:10274000909387058093860583E080938805109297
:10275000890510928A0510928B0510928C051092B3
:102760000D06EDE8F5E0DF011D922A95E9F71092DC
:102770001006109211061092120610921306109273
:102780001406109215061092160610921706109253
:1027900018061092190610921A0610921B06109233
:1027A0001C0610921D0680E180933D058FE080930A
:1027B0003E058AE080933F058EE08093400561E00E
:1027C00080E10E943E0261E080913E050E943E024F
:1027D00061E080913F050E943E0261E080914005EA
:1027E0000E943E0260E080913D050E94C70160E0CA
:1027F00080913E050E94C70160E080913F050E94E4
:10280000C70161E0809140050E94C7018DE395E01A
:102810000E944A06109244051092450585E190E019
:1028200090932805809327051092290510922A0578
:1028300010922B0510922C0510922D0510922E054A
:1028400010922F051092300510923205109231052A
:1028500062E00E943E02809127050E949E019093B3
:102860003405809333059093360580933505909316
:102870003805809337051092390510923A05109269
:102880003B0510923C0584E190E090931205809303
:10289000110510921305109214051092150510924F
:1028A000160510921705109218051092190510922E
:1028B0001A0510921C0510921B0562E00E943E0250
:1028C000809111050E949E0190931E0580931D0525
:1028D0009093200580931F059093220580932105F6
:1028E00010922305109224051092250510922605BA
:1028F00081E291E0EDE0F3E0DF019C011D922150C7
:102900003040E1F7EEE2F4E011821082148213828B
:10291000168215821282379635E0EE30F307A1F762
:1029200081E080930E0510920F0510921005DF9143
:10293000CF910895CF93DF93CDB7DEB760970FB6F1
:10294000F894DEBF0FBECDBF789484B5826084BD9D
:1029500084B5816084BD85B5826085BD85B58160A3
:1029600085BD80916E00816080936E001092810021
:1029700080918100826080938100809181008160DC
:10298000809381008091800081608093800080919D
:10299000910082608093910080919100816080938A
:1029A0009100809190008160809390008091C1009F
:1029B00084608093C1008091C10082608093C100D7
:1029C0008091C10081608093C1008091C3008160CB
:1029D0008093C3008091C00082608093C00080918A
:1029E000C20081608093C20080917A0084608093ED
:1029F0007A0080917A00826080937A0080917A00D8
:102A0000816080937A0080917A00806880937A0058
:102A1000109291011092900110928F018091D70035
:102A200081608093D70080EA8093D80089B5806167
:102A300089BD89B5826089BD09B400FEFDCF61E022
:102A400070E080E090E00E949F028091D8008F7C2F
:102A500080618093D8008091E000807F8093E000C7
:102A60008091E1008E7E8093E1008DE08093E20012
:102A7000559A209A8091450581110AC060E08091A5
:102A800040050E94C70181E080934505809344057D
:102A900061E081E00E943E0261E081E00E94C701A6
:102AA00061E081E10E943E0262E085E10E943E0217
:102AB00062E084E10E943E0282E390E0A0E0B0E0A8
:102AC0008093290590932A05A0932B05B0932C059C
:102AD0008093130590931405A0931505B0931605E4
:102AE00085E10E949E01892B91F460E081E10E94C2
:102AF000C7010E94D102603A7F408105910510F024
:102B00000C94532285E10E949E01892B91F38DEF55
:102B100093E00E947322EBE1F1E02591349182135E
:102B200015C08EEF93E00E947322EAE1F1E0259157
:102B3000349182130BC08FEF93E00E947322E9E17E
:102B4000F1E025913491821709F49CC003E010E074
:102B500061E081E10E94C7016CE271E080E090E0F9
:102B60000E949F0260E081E10E94C7016CE271E077
:102B700080E090E00E949F020150110949F713E0A4
:102B800004E0BCE07B2E8CE1882E98E5992E20E5B0
:102B9000A22E30E4F32E42E4B42E53E4C52E63E2B9
:102BA000D62E71E2E72E8DE395E00E944A0600934F
:102BB00042050E94F50164E670E080E090E00E942A
:102BC0009F02709242050E94F50164E670E080E089
:102BD00090E00E949F02809242050E94F50164E607
:102BE00070E080E090E00E949F02909242050E9477
:102BF000F50164E670E080E090E00E949F02A09200
:102C00004205F09241050E94F50164E670E080E023
:102C100090E00E949F02F0924205B09241050E940E
:102C2000F50164E670E080E090E00E949F02C092AF
:102C300041050E94F50164E670E080E090E00E94AA
:102C40009F02D09241050E94F50164E670E080E0A9
:102C500090E00E949F02E0924105009342050E948D
:102C6000F50164E670E080E090E00E949F028DE351
:102C700095E00E944A060E94F501115009F093CF99
:102C80000E94B70DADE0EA2EA3E0FA2E09E013E0B2
:102C900061E0D8018D918D010E943E02E016F1069F
:102CA000B9F760E088E00E943E0260E089E00E949F
:102CB0003E0290E080E00E9473220E94990B84E221
:102CC0009BE09093BE068093BD0687E49BE09093C3
:102CD0004F0580934E058DE09CE09093D006809345
:102CE000CF068EE99BE09093CA068093C906909325
:102CF0005B0580935A05E091E706F091E80615829E
:102D0000148216861586148613861092E906109290
:102D1000EB061092EA061092F2061092F10610925B
:102D2000F0061092EF060FEF1FEF1093F4060093DA
:102D3000F3061093F6060093F5060E94D102609305
:102D40007F0770938007809381079093820710928A
:102D50007C071092F9061092F8061092FA0610926B
:102D6000FB0610927E0710927D078091F706817016
:102D700082608E7F8093F706E0917805F091790567
:102D80000190F081E02DA089B18982E08C93A48527
:102D9000B5851C92A685B7858FE38C93108EA48988
:102DA000B58986E08C93A289B3898C9180618C93DC
:102DB000A289B3898C9188608C93A289B3898C9104
:102DC00080688C930288F389E02D80818F7D8083D9
:102DD00010927A0510927C0510927B051092830563
:102DE000109282051092810510928005109385053E
:102DF0000093840510938705009386050E94D102F5
:102E00006093100670931106809312069093130638
:102E100010920D0610928A051092890510928B056A
:102E200010928C0510920F0610920E068091880564
:102E3000817082608160809388058DE395E00E94B7
:102E40004A0618E01093430510924205109241057E
:102E50000E94F50168E770E080E090E00E949F0228
:102E60001093430510934205109241050E94F5010D
:102E700068E770E080E090E00E949F0210934305B5
:102E800010934205109341050E94F50168E770E038
:102E900080E090E00E949F0210934305109342054A
:102EA0008CE0809341050E94F50168E770E080E0C6
:102EB00090E00E949F0210934305109342058EE01C
:102EC000809341050E94F50168E770E080E090E0A2
:102ED0000E949F0210934305109342050FE0009358
:102EE00041050E94F50168E770E080E090E00E94F3
:102EF0009F021093430519E010934205009341058A
:102F00000E94F50168E770E080E090E00E949F0277
:102F10001093430510934205009341050E94F5016B
:102F200068E770E080E090E00E949F0289E2809371
:102F3000430510934205009341050E94F50168E79F
:102F400070E080E090E00E949F0289E38093430557
:102F500010934205009341050E94F5016CE271E077
:102F600080E090E00E949F028DE395E00E944A0677
:102F70000E94F5010E94D1026093460570934705B7
:102F80008093480590934905B12CA12C10E000E0F6
:102F9000F3EC8F2E912CE9E0CE2EE3E0DE2EF12C27
:102FA000E12CB8010E2C02C0759567950A94E2F7E2
:102FB0006170F60181916F010E94C701FFEFEF1A66
:102FC000FF0A24E0E216F10461F7C4010197F1F76A
:102FD00081E090E0003110F490E080E08B5F9C4F46
:102FE000DC011296EC91E23108F0E251F0E0E45E8F
:102FF000FE4FE49190917B008E2F880F880F807296
:103000009F7D892B80937B00E770E064E0937C00D8
:1030100080917A00806480937A0080917A0086FDA6
:10302000FCCF8091780090917900E0900503F090BA
:103030000603EA0CFB1CF701C580D6809601369585
:103040002795280F391FC60164E0969587956A95E4
:10305000E1F7281B390B220F331F50E040E02C52C0
:10306000310941095109AFEFBFE30E94A82230E0C6
:1030700020E06B35F0EC7F07FFEF8F079F077CF0B8
:10308000611520E8720729EE82072FE092070CF005
:10309000CFC026EA3FE340E050E00E948922D701FA
:1030A00014963C932E9313972C153D0508F4C3C03A
:1030B0002C193D09D7018D919C911197009709F02A
:1030C000BFC02330310520F0E1E0F0E0ED93FC9348
:1030D0000F5F1F4FF7E0AF0EB11C0032110509F072
:1030E0005ACF109244053EE2632E34E0732E4DE039
:1030F000E42E43E0F42ED3018D919C91119701971A
:1031000009F0B3C21396ED91FC911497FB87EA87FF
:1031100015962D913C913D872C87D70118969C914F
:10312000B92FB295BF70BE87F701878130900E0529
:1031300092FF05C0382E32942FE03222339493FF51
:1031400098C08F708F5F888BD7011696BC91BF8710
:103150008B2F90E0FC01F595E795F595E795F987BC
:10316000E887E3702E2E5701F2E0AF0EB11C670125
:1031700024E0C20ED11C00E09E012B5F3F4FA50151
:10318000B6018A859B850E942C099E01295F3F4FCD
:10319000A501B6018C859D850E942C093E853530A0
:1031A00009F06BC001E09E012F5F3F4FA501B60102
:1031B0008A859B850E942C099E012A5F3F4FA501AD
:1031C000B6018C859D850E942C098E010B5F1F4FD7
:1031D0009501A60160E0D70118968C910E946809BC
:1031E0000E5F1F4F9501A60160E0F70180850E94E8
:1031F0006809D70118968C9180FF08C08FE79981E4
:10320000B82FB91BB9839E81891B8E839E818981CA
:10321000981709F421C2232D4D81F7016081822D79
:103220000E94870A232D4981D70111966C9181C094
:103230002FEF3FE334CFF601E21BF30B9F013ACFB0
:10324000019709F045CF2031310580F412968C9119
:1032500012978F5F12968C931297843008F438CFB0
:1032600011961C921E9212961C9232CFF701128276
:103270002FCFF0910E05F88B67CF00E09E012F5FF6
:103280003F4F2701E3E04E0E511CA2014701F5E03C
:103290008F0E911CB4018A859B850E942C099E018A
:1032A0002A5F3F4FA201B4018C859D850E942C09A5
:1032B0008E010B5F1F4F9501A60160E0D7011896A4
:1032C0008C910E946809045011099201A40161E0E7
:1032D000F70180850E9468090A5F1F4F9501A601CA
:1032E00060E0D70118968C910E946809015011097D
:1032F0009201A40161E0F70180850E946809EE85D2
:10330000E150E83008F0A8C1F0E0E757F64E0C9421
:10331000F8229119AD19C619551A0619E31A141B8A
:10332000FC1A4D818F81841709F496C1232DD70192
:103330006C91822D0E94870A8D8190E00E94080185
:103340000E94F5010E94D1026093460570934705E3
:1033500080934805909349057FC14D818F818417E3
:1033600099F0232DF7016081822D0E94870A81E068
:1033700049819E81941709F46DC12889D70111965E
:103380006C918F858370D6CF80E0F2CF9E8189814A
:10339000981709F461C1B885B0FF41C0F7010081F9
:1033A000F0E80F9F80011124D70111968C91082B12
:1033B000809186059091870508171907A9F0602F5D
:1033C0006F77432D82E60E940C09B801660F672FC4
:1033D000661F770B71956F77432D83E60E940C096A
:1033E00010938705009386051981432D6D8186E032
:1033F0000E940C09432D612F86E20E940C09432D87
:103400006FE782E60E940C09432D6FE783E60E9476
:103410000C09EFEFFFEFF0938705E09386058EEF41
:10342000820D823008F088CFD7010C91B0E80B9F55
:1034300080011124F7018181082B8091F50690917C
:10344000F60608171907A9F0602F6F77432D82E65B
:103450000E94810AB801660F672F661F770B71956E
:103460006F77432D83E60E94810A1093F60600933E
:10347000F5061981432D6D8186E00E94810A432D56
:10348000612F86E20E94810A432D6FE782E60E9447
:10349000810A432D6FE783E60E94810A2FEF3FEFF9
:1034A0003093F6062093F50647CF9E8189819817C1
:1034B00009F4D2C0388530FF40C0D7010C91B0E884
:1034C0000B9F80011124F7018181082B80918405D5
:1034D0009091850508171907A9F0602F6F77432D84
:1034E00084E60E940C09B801660F672F661F770BF0
:1034F00071956F77432D85E60E940C091093850521
:10350000009384051981432D6D8186E00E940C098A
:10351000432D612F86E20E940C09432D6FE784E65C
:103520000E940C09432D6FE785E60E940C092FEFDE
:103530003FEF30938505209384058EEF820D823016
:1035400008F0FACED7010C91B0E80B9F800111244E
:10355000F7018181082B8091F3069091F4060817FA
:103560001907A9F0602F6F77432D84E60E94810A26
:10357000B801660F672F661F770B71956F77432D24
:1035800085E60E94810A1093F4060093F3061981E0
:10359000432D6D8186E00E94810A432D612F86E2D2
:1035A0000E94810A432D6FE784E60E94810A432D21
:1035B0006FE785E60E94810A2FEF3FEF3093F40614
:1035C0002093F306B9CE6D818F81861709F444C02C
:1035D000388530FF05C0232D40E080EC0E94DF08D5
:1035E0008EEF820D823008F0A7CE232D40E06D8152
:1035F00080EC0E94410AA0CE4D818F81841761F139
:10360000888580FF06C0232DD7016C9180EA0E9437
:10361000DF088EEF820D823008F08ECE232D4D8193
:10362000F701608180EAE5CF6D818F818617A1F077
:10363000F885F0FF05C0232D40E080ED0E94DF08F3
:103640008EEF820D823008F077CE232D40E06D8121
:1036500080EDCFCF811170CED30113968D919C91C7
:10366000149716969C938E931597B7E06B0E711C6A
:10367000E9E0EE0EF11C2DE234E02E153F0509F0D5
:103680003ACDF0907A0530E13F1508F478C0E0912A
:103690007805F091790580819181DC01ED91FC91B3
:1036A0000084F185E02D0995892B09F468C080918B
:1036B0001D068E7F80931D06E0917805F0917905B7
:1036C00080819181DC01ED91FC910284F385E02DF4
:1036D0000995182F8D3F09F452C080918205909171
:1036E0008305009709F0DEC110937D0500917B05ED
:1036F000802F0E9498070E94A607882361F017FD7B
:103700000AC000937D0510937E05E1E0F0E0F093A0
:103710008305E093820510917D05812F0E94980713
:10372000813F09F487C108F01CC1803B39F048F49F
:10373000803921F0803A11F0803859F423E030E0EC
:103740007BC1803D09F476C108F0FAC0803C09F4E1
:1037500071C180911D06816080931D06E091500526
:10376000F0915105309709F0099510928305109258
:103770008205109281051092800510927B05F090D1
:10378000E906F0E1FF1540F10091E7061091E80627
:10379000D8011B968D919C91892B09F4E0C28091F0
:1037A0008C078E7F80938C07E091E706F091E80606
:1037B000858596859C012F5F3F4F368725878E0F25
:1037C0009F1FDC0117961C91838594850197948730
:1037D00083871D3F09F0F8C387E295E00E944F06FA
:1037E00081E195E00E944F06809133059091340568
:1037F000019799F48091350590913605892B69F4EC
:1038000081E080939F020E94D10260939A0270939C
:103810009B0280939C0290939D0280911D05909144
:103820001E05019799F480911F0590912005892B21
:1038300069F481E080939E020E94D10260939A0213
:1038400070939B0280939C0290939D02809133051C
:1038500090913405892B49F4809135059091360576
:10386000019719F481E00E94A40B80911D059091AD
:103870001E05892B49F480911F0590912005019721
:1038800019F480E00E94A40B10919F02111104C052
:1038900080919E02882331F10E94D102C0909A0249
:1038A000D0909B02E0909C02F0909D026C197D09E3
:1038B0008E099F096D3F73408105910598F0112392
:1038C00031F01092100580910E050E94DD0280916A
:1038D0009E02882339F081E08093100580910F05C6
:1038E0000E94F1020E94D102009146051091470505
:1038F0002091480530914905601B710B820B930B99
:10390000683E73408105910530F08DE395E00E949B
:103910004A060E94F50180914405882321F08BE935
:103920009FE00197F1F780E090E0892B09F42CCB20
:103930000E94A905882309F427CB0E94000024CB0C
:10394000803E09F4FBCE803F09F003CF20E830E051
:10395000309381052093800510927B0580938D051F
:103960006FC0873F99F308F05EC0833F09F462C0DF
:1039700008F4E4CE863F09F0ECCE80938A051092DD
:10398000890510928B0510928C0581E080930D06BD
:103990001092830510928205109281051092800585
:1039A00080918A05803939F480918C05811103C09A
:1039B00080E880938A0580918A058058813630F4AA
:1039C00080918905F81611F0F11004C08EE495E09D
:1039D0000E94B50790918805392F317090FFCFCEA6
:1039E000892F8E7F09F4CBCE80918A0520E8280F9D
:1039F000213608F02FC120918905F21619F031E027
:103A0000F11030E09695923009F41DC1933009F41D
:103A10001EC1913009F0B3CE40918C0560918B05A9
:103A20000E942009ACCE8D3F08F4A7CF8E3F08F04E
:103A3000A4CF8FCE22E030E0309381052093800523
:103A40002091820530918305409180055091810538
:103A50004150510924173507F0F080938A051F70F3
:103A60001F5F1093890580917E0580938B051092CE
:103A70008C0521E030E030930F0620930E06109263
:103A8000830510928205109281051092800581E0D5
:103A900080930D0685CF2F5F3F4F30938305209392
:103AA00082056DCE17FF0CC01D3F08F04EC0183FB9
:103AB00008F04EC0103F09F45AC0173F09F457C030
:103AC00020917D05FC01E25BFA4F203F19F0273F72
:103AD00009F077C017AFA0908005B09081059501DF
:103AE000215031098217930708F4ABC0D0907D05AF
:103AF000B0EFDB1619F0E7EFDE1265C010910C068F
:103B000080EF80930C0680938A0580E880938B0574
:103B100010928C051092890580E890E090930F0632
:103B200080930E0681E080930D068EE495E00E945E
:103B3000B50787EF80938D0510938E0582E090E0A6
:103B400090938305809382051ACE1E3F08F4B8CF68
:103B500010938A0510928B0510928C05109289059E
:103B600081E090E090930F0680930E0691CF209114
:103B70008D05203F19F0273F09F0EBCD9C012F5F09
:103B80003F4F825B9A4FDC01DF961C9380EF80935E
:103B90008A0520938B0530938C051092890530930C
:103BA0000F0620930E0681E080930D061092830588
:103BB00010928205109281051092800510927B056B
:103BC000EFCE17A788CF8D2D0E949807182F8093CE
:103BD0008A050E94A607882349F18D2D8F708F5F7B
:103BE0008093890580917E0580938B0580917F0568
:103BF000F3E0AF16B10409F080E080938C051092D9
:103C0000830510928205109281051092800581E053
:103C100080930D06103B39F060F4103921F0103A12
:103C200011F0103859F6D0927B05BACE1092890562
:103C3000D9CF103DC1F3103EB1F3103C09F0BECF17
:103C4000F2CF01967DCF332309F499CDE5CE311122
:103C500096CDE2CEE0E1E80FE03108F090CDF0E063
:103C6000EC5CF14E0C94F8224A1E9B1E7C1E6A1ED0
:103C7000BF1BBF1B441EBF1B441EBF1B441E441E54
:103C8000441EBF1B441E441E682F88E795E00E9417
:103C9000120975CDE0908B05F0908C0521E8E216B5
:103CA000F10418F0E0E8EE2EF12C0EE415E0C80166
:103CB0008E5495408E159F0508F061CDD801DF9692
:103CC0006C9180917805909179050E9475080F5F3D
:103CD0001F4FEDCF10918B0563EF80917805909188
:103CE00079050E947508612F6F7780917805909112
:103CF00079050E94750843CD00918C05B0E80B9FB3
:103D00008001112480918B05082B62EF809178054A
:103D1000909179050E947508602F6F7780917805E2
:103D2000909179050E947508000F012F001F110B5B
:103D30001195602FD9CF60918B05E0E16E9FB001A6
:103D40001124607710918C051F70162B61EF809104
:103D50007805909179050E947508612FC6CFF8010A
:103D6000168615868091920290919302A0919402FA
:103D7000B0919502409196025091970260919802FD
:103D800070919902841B950BA60BB70B8F73992723
:103D9000AA27BB27892B8A2B8B2B09F47DC0809106
:103DA000960290919702A0919802B0919902880F83
:103DB000991F880F991FFC01EE56FE4F808191815B
:103DC00062817381409092025090930260909402BD
:103DD000709095028090960290909702A090980221
:103DE000B0909902481459046A047B04D1F0809081
:103DF000960290909702A0909802B0909902FFEFDF
:103E00008F1A9F0AAF0ABF0A2FE382229924AA249D
:103E1000BB248092960290929702A0929802B09250
:103E20009902D8011F968C931F9750969C93509798
:103E300051966C93519752967C935297882329F10F
:103E4000282F30E044E0359527954A95E1F75396C1
:103E50004C9153974217130609F0BECC8F70482F30
:103E600050E01B962D913C91FA01EE0FFF1FE95D8A
:103E7000FE4FE181E13009F48AC008F472C0E230FB
:103E800009F495C0E33009F471C0F8018385948585
:103E9000892B09F4A1CC83CC8091FC020E94D4042C
:103EA00070E060E090E0882309F48CCF809092026B
:103EB00090909302A0909402B0909502FFEF8F1A19
:103EC0009F0AAF0ABF0A2FE382229924AA24BB24A7
:103ED0008091960290919702A0919802B0919902D8
:103EE00088159905AA05BB0509F459CF8091FC02F4
:103EF0000E94D40444E050E0BE016F5F7F4F809188
:103F0000FC020E94600404970CF449CF8091920255
:103F100090919302A0919402B0919502880F991FFD
:103F2000880F991F8E569E4F49815A816B817C81E3
:103F3000DC014D935D936D937C9313978092920275
:103F400090929302A0929402B0929502BFEF8B1AC6
:103F50009B0AAB0ABB0AEFE38E229924AA24BB2456
:103F6000B7CF843019F04730510571F4F801E20FF2
:103F7000F31F978360872D5F3F4FD8011C963C93BA
:103F80002E931B97718781CF4530510561F4A901AC
:103F90004F5F5F4FF80154874387200F311FD901CE
:103FA00017969C9372CF4630510509F06ECFF801F9
:103FB000E20FF31F97832E5F3F4FD8011C963C936F
:103FC0002E931B97608761CF8091F1069091F20646
:103FD000009709F0F7C01093EC060091EA06802FD5
:103FE0000E9498070E94A607882361F017FD0AC067
:103FF0000093EC061093ED0621E030E03093F206DA
:104000002093F1061091EC06812F0E949807813FC2
:1040100009F4A1C0C8F5803B39F048F4803921F09B
:10402000803A11F0803851F423E030E096C0803DB2
:1040300009F491C0D0F4803C09F48DC080918C07C4
:10404000816080938C07E091BF06F091C0063097A5
:1040500009F009951092F2061092F1061092F006FE
:104060001092EF061092EA06B7CB803EE9F2803F4D
:1040700029F720E830E03093F0062093EF06109205
:10408000EA068093FC066DC0873F99F308F05CC098
:10409000833F09F460C040F2863F81F68093F906C1
:1040A0001092F8061092FA061092FB0681E08093B7
:1040B0007C071092F2061092F1061092F006109210
:1040C000EF068091F906803939F48091FB06811161
:1040D00003C080E88093F9068091F9068058813604
:1040E00030F48091F806F81611F0F11004C08DEB51
:1040F00096E00E94B5079091F706392F317090FF36
:104100006BCB892F8E7F09F467CB8091F90620E86D
:10411000280F213608F02EC12091F806F21619F06A
:1041200031E0F11030E09695923009F41CC19330E3
:1041300009F41DC1913009F04FCB4091FB0660910D
:10414000FA060E94180B48CB8D3F08F4A7CF8E3F8C
:1041500008F0A4CF73CF22E030E03093F006209334
:10416000EF062091F1063091F2064091EF06509152
:10417000F0064150510924173507E8F08093F906FD
:104180001F701F5F1093F8068091ED068093FA066A
:104190001092FB0681E090E090937E0780937D076C
:1041A0001092F2061092F1061092F0061092EF06AD
:1041B00080937C0786CF2F5F3F4F3093F20620938A
:1041C000F1060ACB17FF0CC01D3F08F04EC0183F88
:1041D00008F04EC0103F09F45BC0173F09F458C007
:1041E0002091EC06FC01E354F94F203F19F0273FE2
:1041F00009F077C017AFA090EF06B090F0069501D8
:10420000215031098217930708F4ABC0D090EC0617
:10421000F0EFDF1619F027EFD21265C010917B077F
:1042200080EF80937B078093F90680E88093FA06FD
:104230001092FB061092F80680E890E090937E07BB
:1042400080937D0781E080937C078DEB96E00E9450
:10425000B50787EF8093FC061093FD0682E090E09F
:104260009093F2068093F106B7CA1E3F08F4B8CFC8
:104270001093F9061092FA061092FB061092F806B7
:10428000A1E0B0E0B0937E07A0937D0781E090CFDE
:104290002091FC06203F19F0273F09F0CFCE9C016A
:1042A0002F5F3F4F8354994FFC0117AF80EF8093EE
:1042B000F9062093FA063093FB061092F806309325
:1042C0007E0720937D0781E080937C071092F206A1
:1042D0001092F1061092F0061092EF061092EA0684
:1042E000F0CE17A788CF8D2D0E949807182F8093A6
:1042F000F9060E94A607882349F18D2D8F708F5FE4
:104300008093F8068091ED068093FA068091EE0680
:1043100033E0A316B10409F080E08093FB0610920D
:10432000F2061092F1061092F0061092EF0681E06C
:1043300080937C07103B39F060F4103921F0103A7B
:1043400011F0103859F6D092EA06BBCE1092F8065A
:10435000D9CF103DC1F3103EB1F3103C09F0BECFF0
:10436000F2CF01967DCF332309F436CAE6CE311160
:1043700033CAE3CEE0E1E80FE03108F02DCAF0E007
:10438000EC53FE4D0C94F822DA2136220D22EB215B
:10439000EC1BEC1BD421EC1BD421EC1BD421D4212D
:1043A000D421EC1BD421D421682F87EE96E00E9403
:1043B000F20A12CA6091FA067091FB066138710523
:1043C00010F060E870E021E04CEF56E087EE96E0F8
:1043D0000E94A80A01CA1091FA0663EF8091E706CD
:1043E0009091E8060E94150A882309F4F5C963EF45
:1043F0008091E7069091E8060E94A909612F6F77E6
:104400008091E7069091E8060E94A9098091E7064D
:104410009091E8060E947E09DFC9F090FA060091AB
:10442000FB0662EF8091E7069091E8060E94150A6C
:10443000882309F4D1C980E8089F800111240F293D
:1044400062EF8091E7069091E8060E94A909602F2B
:104450006F778091E7069091E8060E94A909000F06
:10446000012F001F110B1195602FC9CF0091FB0682
:104470001091FA0661EF8091E7069091E8060E949C
:10448000150A882309F4A8C961EF8091E706909185
:10449000E8060E94A90990E1199FB00111246077F4
:1044A0000F70602BADCF61E081E10E94C70164E134
:1044B00070E080E090E00E949F0260E081E10E9455
:1044C000C70110E000E060E0C8010E947B220F5F9E
:1044D0001F4F011534E01307B1F761E081E10E943D
:1044E000C7010C948715F999FECF92BD81BDF89A4A
:1044F000992780B50895262FF999FECF1FBA92BD4E
:1045000081BD20BD0FB6F894FA9AF99A0FBE0196B4
:104510000895052E97FB1EF400940E94A02257FDDB
:1045200007D00E94B32207FC03D04EF40C94A022C3
:1045300050954095309521953F4F4F4F5F4F0895CF
:1045400090958095709561957F4F8F4F9F4F0895FF
:104550000E94D522A59F900DB49F900DA49F800D21
:10456000911D11240895A1E21A2EAA1BBB1BFD0167
:104570000DC0AA1FBB1FEE1FFF1FA217B307E40742
:10458000F50720F0A21BB30BE40BF50B661F771F9A
:10459000881F991F1A9469F760957095809590957A
:1045A0009B01AC01BD01CF010895A29FB001B39F53
:1045B000C001A39F700D811D1124911DB29F700D2C
:1045C000811D1124911D0895AA1BBB1B51E107C039
:1045D000AA1FBB1FA617B70710F0A61BB70B881F93
:1045E000991F5A95A9F780959095BC01CD01089522
:1045F000EE0FFF1F0590F491E02D0994F894FFCF82
:10460000FFFFFFFF00E100000000000000C180810B
:1046100000000004050607000080089009A00AB009
:104620000BC00CD00DE00E000001000202030304D9
:1046300000050006000700080309030A030B030C2A
:10464000020D020E030F01000000003C014A04AB02
:10465000031003DD04B2048A0400000000DE05FA42
:10466000046C052A069D057B058F0500000000B43B
:0C46700006B606B1065A0E4D494449003A
:00000001FF
