:100000000C94DE000C9406010C9406010C9406017D
:100010000C9406010C9406010C9406010C94060144
:100020000C9406010C9406010C9465140C94E314D2
:100030000C9406010C9406010C9406010C94060124
:100040000C9406010C9406010C9406010C94060114
:100050000C9406010C9406010C9406010C941B14DC
:100060000C9406010C943B170C9415170C94060184
:100070000C9406010C9406010C9406010C940601E4
:100080000C9406010C9406010C9406010C940601D4
:100090000C9406010C9406010C9406010C940601C4
:1000A0000C9406010C9406010C940601080B000246
:1000B0000202000009040000010202000005240001
:1000C0001001052401010104240206052406000193
:1000D0000705810310004009040100020A00000026
:1000E00007050202400000070583024000000403E8
:1000F000090412010002EF020140501D4F6100018E
:100100000102030141726475696E6F005348494BE7
:10011000204E333242205633000405060000000012
:10012000240027002A002D003000000000002500D8
:1001300028002B002E0031000000000023002600C4
:1001400029002C002F000404040404030405020207
:100150000202040302020202060606060606040460
:1001600002020204040408020110408040102040F2
:10017000804080080204018040201002011080109D
:10018000204040200000000200090F00000304018D
:10019000000C000000000000000000000000000053
:1001A000000000070605040100080A0B0C0D093FBA
:1001B000065B4F666D7D077F6F00A01711241FBE81
:1001C000CFEFDAE0DEBFCDBF11E0A0E0B1E0E8E2C2
:1001D000F9E402C005900D92AC37B107D9F727E0DA
:1001E000ACE7B1E001C01D92A53AB207E1F710E01B
:1001F000CEEDD0E004C02197FE010E948C24CD3DBD
:10020000D107C9F70E94B0180C9492240C940000F6
:10021000DC01683E83E0780710F067EE73E080E071
:100220006436710520F08F5F64567109F9CF811132
:100230000BC016961C921697E0E06A30710568F0C4
:10024000EF5F6A507109F9CFE82FF0E0E155FE4FFA
:10025000E4911696EC931697EFCF81110CC0E11143
:100260000AC015961C92159761557E4FFB0164914B
:1002700014966C930895F0E0E155FE4FE4911596C5
:10028000EC931597F1CFCF93DF931F92CDB7DEB7E5
:100290006983DC01ED91FC910280F381E02D41E066
:1002A00050E0BE016F5F7F4F09950F90DF91CF91B6
:1002B000089581508F3008F047C0E82FF0E0ED59E5
:1002C000FE4F0C948C2480018401720178017C0122
:1002D000A401A401A40187018D01910195019B0155
:1002E000A4019F01809180008F7780938000089502
:1002F000809180008F7DF9CF80918000877FF5CF3E
:1003000084B58F7784BD089584B58F7DFBCF8091B0
:1003100090008F77809390000895809190008F7D5A
:10032000F9CF80919000877FF5CF8091C0008F77C3
:100330008093C00008958091C0008F7DF9CF809197
:10034000C200877F8093C2000895CF93DF93282F48
:1003500030E0F901EC57FE4F8491F901EB59FE4F63
:10036000D491F901EA5BFE4FC491CC23A1F0811135
:100370000E945901EC2FF0E0EE0FFF1FE85CFE4FEA
:10038000A591B491EC91ED2381E090E009F480E037
:10039000DF91CF91089580E090E0FACF1F93CF9343
:1003A000DF93282F30E0F901EC57FE4F8491F901DB
:1003B000EB59FE4FD491F901EA5BFE4FC491CC2377
:1003C000A9F0162F81110E945901EC2FF0E0EE0FD9
:1003D000FF1FE65DFE4FA591B4918FB7F894EC91A5
:1003E000111108C0D095DE23DC938FBFDF91CF9130
:1003F0001F910895DE2BF8CFCF92DF92EF92FF92FC
:100400000F931F93CF93DF93EC0161E08A810E94E9
:10041000CE0160E08A810E94CE018E016E0183E0F0
:10042000C81AD108F801E68088E0F82E6E2D661F04
:100430006627661F88810E94CE0161E089810E9443
:10044000CE0160E089810E94CE01EE0CFA94F11099
:10045000EDCF01501109C016D10621F761E08A8164
:100460000E94CE0160E08A810E94CE0188858823A7
:1004700011F081E08F83DF91CF911F910F91FF9059
:10048000EF90DF90CF900895CF92DF92EF92FF929E
:100490001F93CF93DF93EC01162F70E9E72E75E0E1
:1004A000F72ED12CC12C688170E00C2C02C0759500
:1004B00067950A94E2F76170D7018D917D010E94E2
:1004C000CE01BFEFCB1ADB0AE4E0CE16D10459F718
:1004D00083EC90E00197F1F781E090E028812031F2
:1004E00010F490E080E084579A4FDC011296EC9172
:1004F000E23108F0E251F0E0ED55FE4FE4919091C9
:100500007B008E2F880F880F80729F7D892B8093B0
:100510007B00E770E064E0937C0080917A00806467
:1005200080937A0080917A0086FDFCCF80917800DC
:10053000909179002881C0918C05D0918D05B7E00C
:100540002B9FC00DD11D1124ED80FE8097013695A3
:100550002795280F391FC70154E0969587955A951E
:10056000E1F7281B390B220F331F50E040E02C52DB
:10057000310941095109AFEFBFE30E943C2430E04B
:1005800020E06B35E0EC7E07EFEF8E079E0784F0EE
:100590002FEF3FE36115F0E87F07F9EE8F07FFE0EB
:1005A0009F0734F426EA3FE340E050E00E941D2418
:1005B0003C832B832E153F05B8F02E193F09888107
:1005C00099810097B1F42530310510F4112321F001
:1005D00081E090E099838883DF91CF911F91FF9014
:1005E000EF90DF90CF900895C701821B930B9C0181
:1005F000E6CF019789F72031310538F48A818F5F82
:100600008A83843048F3198218821A82E5CFCF9307
:10061000DF9390E0FC01EB59FE4F24918A5B9E4FE3
:10062000FC0184918823C9F090E0880F991FFC0198
:10063000E45EFE4FA591B491FC01E65DFE4FC591CD
:10064000D49161110DC09FB7F8948C9120958223AD
:100650008C938881282328839FBFDF91CF910895B1
:10066000623051F49FB7F8943C91822F8095832398
:100670008C93E8812E2BEFCF8FB7F894EC912E2B33
:100680002C938FBFEACF3FB7F89480918F0490915D
:100690009004A0919104B091920426B5A89B05C046
:1006A0002F3F19F00196A11DB11D3FBFBA2FA92FF1
:1006B000982F8827BC01CD01620F711D811D911DEE
:1006C00042E0660F771F881F991F4A95D1F708955A
:1006D0008F929F92AF92BF92CF92DF92EF92FF9252
:1006E0004B015C010E9443036B017C010E944303A8
:1006F0006C197D098E099F09683E7340810591053B
:10070000A8F321E0821A9108A108B10888EEC80E6A
:1007100083E0D81EE11CF11C81149104A104B104F2
:1007200029F7FF90EF90DF90CF90BF90AF909F9010
:100730008F9008952FB7F89460918B0470918C047A
:1007400080918D0490918E042FBF08958093E900CD
:100750008091F200882319F08AE38093E8000895DD
:1007600083E00C94A60340917A0350917B0320917F
:1007700078033091790342175307B4F49091E8005D
:100780009570E1F39091E80092FD19C08093F1001B
:1007900080917A0390917B0301968F739927892B1F
:1007A00019F48EEF8093E80080917A0390917B0397
:1007B000019690937B0380937A0381E0089580E013
:1007C0000895DF92EF92FF920F931F93CF93DF93E1
:1007D000D82E8A01EB017B01E40EF51ECE15DF0554
:1007E00059F0D7FE12C0FE0184910E94B3032196F6
:1007F0008111F4CF0FEF1FEFC801DF91CF911F914F
:100800000F91FF90EF90DF9008958881EECF2FB782
:10081000F89487708093E9009091E800892F8072A6
:1008200095FF04C09091F20080E4891B2FBF0895CA
:1008300083E00E94070490E008957F928F929F9238
:10084000AF92BF92CF92DF92EF92FF920F931F93DE
:10085000CF93DF93C82E8B017A01809181038111A0
:1008600010C08FEF9FEFDF91CF911F910F91FF90FD
:10087000EF90DF90CF90BF90AF909F908F907F9040
:10088000089580917F0380FF05C08091E000826021
:100890008093E000CE2DDF2DD12C8AEFB82E8C2D49
:1008A0008770982E8C2D8072882E8C2D8074782ED7
:1008B0009AE3A92E209719F4DD2009F452C08C2D5B
:1008C0000E94070481110AC0BA94BB2051F261E072
:1008D00070E080E090E00E946803ECCF8C171D066A
:1008E00011F00CF08C2F9FB7F8949092E9002091B2
:1008F000E80025FD02C09FBFDDCF282F30E0C21BDE
:10090000D30B882029F08150A0F01092F100FBCF8A
:10091000F801C7FC0AC0815050F041914093F100AA
:10092000FACF44914093F10031968150D0F7020FF5
:10093000131FDD2021F0A092E800D12CDCCF8091A4
:10094000E80085FD07C0A092E800DD24D39420973D
:1009500091F2F3CF209779F6772069F2A092E80020
:10096000CACF5D9884E680937E03C7017CCFCF9386
:10097000DF93EC0180910B01882331F083E00E942A
:100980001D041816190634F081E090E09B838A83D9
:1009900080E090E0DF91CF910895909181039923B9
:1009A00019F13FB7F89487708093E9008091F200C5
:1009B00090E0481759070CF4CA01282FFB0154E6B0
:1009C000215038F0289850937D034091F1004193D5
:1009D000F7CF009739F02091F200211103C02BE6E8
:1009E0002093E8003FBF08958FEF9FEF08950F9386
:1009F0001F93CF93DF931F92CDB7DEB78C01FC011D
:100A00008485958597FF0FC041E050E0BE016F5F80
:100A10007F4F82E00E94CD04019771F4898190E0BC
:100A2000F80195878487F801848595850F90DF917B
:100A3000CF911F910F9108958FEF9FEFF1CFCF933B
:100A4000DF931F92CDB7DEB7FC018485958597FDB6
:100A500008C02FEF3FEF358724870F90DF91CF91AC
:100A6000089541E050E0BE016F5F7F4F82E00E9439
:100A7000CD04019719F4898190E0EFCF8FEF9FEFBC
:100A8000ECCF9FB7F89487708093E9008091F200D3
:100A90009FBF0895FC018485958597FD06C082E07F
:100AA0000E94410590E00196089582E00E94410570
:100AB00090E00895615030F02091F100FC01208316
:100AC0000196F8CF289884E680937D030895AF922D
:100AD000BF92CF92DF92EF92FF920F931F93CF932B
:100AE000DF936C017B018B01040F151FEB015E018D
:100AF000AE18BF08C017D10759F06991D601ED9122
:100B0000FC910190F081E02DC6010995892B79F7C0
:100B1000C501DF91CF911F910F91FF90EF90DF9072
:100B2000CF90BF90AF9008958091700381110DC058
:100B300082E080936C0384E080936D0310926F03D6
:100B400010926E0381E0809370038CE693E0089529
:100B50000F931F93CF93DF931F92CDB7DEB782E041
:100B6000898342E450E06CEA70E080E80E94E1038F
:100B70000E949405DC0112960D911C91011511053E
:100B800089F0D801ED91FC910280F381E02DBE0146
:100B90006F5F7F4FC801099597FD04C0F80100857C
:100BA0001185ECCF89810F90DF91CF911F910F912B
:100BB0000895FC01538D448D252F30E0842F90E063
:100BC000821B930B541710F0CF9608950197089548
:100BD000FC01918D828D981761F0A28DAE0FBF2F11
:100BE000B11D5D968C91928D9F5F9F73928F90E067
:100BF00008958FEF9FEF0895FC01918D828D9817D6
:100C000031F0828DE80FF11D858D90E008958FEF12
:100C10009FEF0895FC01918D228D892F90E0805CDB
:100C20009F4F821B91098F739927089583EE94E05B
:100C30000E940A0621E0892B09F420E0822F089502
:100C400080E090E0892B29F00E94160681110C9417
:100C500000000895FC01A48DA80FB92FB11DA35A5F
:100C6000BF4F2C91848D90E001968F739927848FCC
:100C7000A689B7892C93A089B1898C9182748C93B1
:100C8000938D848D981306C00288F389E02D8081AE
:100C90008F7D80830895EF92FF920F931F93CF93E0
:100CA000DF93EC0181E0888F9B8D8C8D981319C0A8
:100CB000E889F989808185FF14C09FB7F894EE898F
:100CC000FF896083E889F9898081827480839FBF6E
:100CD00081E090E0DF91CF911F910F91FF90EF9015
:100CE0000895F62E0B8D10E00F5F1F4F0F73112725
:100CF000E02E8C8D8E110CC00FB607FCFACFE88960
:100D0000F989808185FFF5CFCE010E942A06F1CFB7
:100D1000EB8DEC0FFD2FF11DE35AFF4FF0829FB7D3
:100D2000F8940B8FEA89FB8980818062CFCFCF93C3
:100D3000DF93EC01888D8823B9F0AA89BB89E88903
:100D4000F9898C9185FD03C0808186FD0DC00FB6A9
:100D500007FCF7CF8C9185FFF2CF808185FFEDCF27
:100D6000CE010E942A06E9CFDF91CF910895FC01C0
:100D7000148215821682089590E080E0089580E044
:100D800008950F931F93CF93DF93CDB7DEB7C4566B
:100D9000D1090FB6F894DEBF0FBECDBFFC01DB0159
:100DA0009C919E5F9C939E01295F3F4F8AE5D901EC
:100DB0001D928A95E9F788E089838BE08A8322E097
:100DC0002C8391E09D839E8339E0398764E06A87B4
:100DD0009E879F873A8B44E24B8B9C8BA0E0B1E0CF
:100DE000BE8BAD8B09E010E0188F0F8B998F3B8F76
:100DF0006C8F2F8F98A353E059A387E08CA34DA34A
:100E00009EA3B8A7AFA3A1E4B0E0BAA7A9A786E0C4
:100E10008BA74CA72DA79EA79FA789AB4AAB2BAB4F
:100E20002CAB2DAB3FAB48AF59AF9AAF5BAF9CAF8C
:100E30002DAF9EAF21963FAF219722964FAF2297BD
:100E400023965FAF239724962FAF249725966FAFF5
:100E5000259726969FAF269727969FAF2797289688
:100E60009FAF28972A963FAF2A9745E02B964FAF22
:100E70002B972D962FAF2D9760E470E02F967FAFC4
:100E80006EAF2F9763964FAF639785E264968FAFEF
:100E9000649765969FAF659766969FAF66976796CE
:100EA0009FAF679768963FAF689769964FAF69970E
:100EB0006B962FAF6B976D967FAF6EAF6D97A196C8
:100EC0004FAFA197A2968FAFA297A3969FAFA3977C
:100ED000A4969FAFA497A5965FAFA59792819B8399
:100EE0009B879F5F9A8F9D8F83812C968FAF2C97C6
:100EF0008F5F80686A968FAF6A9744E650E0BE01C4
:100F00006F5F7F4F80E00E94E103CC59DF4F0FB647
:100F1000F894DEBF0FBECDBFDF91CF911F910F912F
:100F200008950F93CF93DF93F901DB012C91EA0130
:100F30003881231B330B2F5F3F4F3695322F2227EB
:100F400037952795DC010E946924DC01CB017EE006
:100F5000B695A795979587957A95D1F78115D0E4A1
:100F60009D07A105B10520F08FEF9FE3A0E0B0E061
:100F7000002331F08F778083DF91CF910F91089517
:100F800027E0B695A795979587952A95D1F7808301
:100F9000EA016881680F6083EFCF0F931F93F80118
:100FA00090E002C0959587956A95E2F780FF08C0AA
:100FB000D9018C919081891BDA019C91890F8083E2
:100FC0001F910F91089580916403811141C080E1C8
:100FD000809352038FE0809353038AE080935403FD
:100FE0008EE08093550361E080E10E94070361E099
:100FF000809153030E94070361E0809154030E9493
:10100000070361E0809155030E94070360E080912F
:1010100052030E94CE0160E0809153030E94CE01F2
:1010200060E0809154030E94CE0161E080915503FD
:101030000E94CE0182E593E00E94B7061092590308
:1010400010925A038FEF8093630381E080936403CF
:1010500082E593E00895DC018D919C91DC01ED9196
:10106000FC910190F081E02D0994CF92DF92EF92F4
:10107000FF920F931F93CF93DF938C017B016A0143
:1010800060EFFC01808191810E942B08E601EC0C4D
:10109000FD1C6991F801808191810E942B08CE1579
:1010A000DF05B9F767EFF80180819181DF91CF917A
:1010B0001F910F91FF90EF90DF90CF900C942B0831
:1010C000EF92FF920F931F93CF93DF930150003164
:1010D00020F567FF22C0D22F142FC62F7C01602F6E
:1010E0006C2BFC0182A593A50E942B08612F6F77C2
:1010F000F70182A593A50E942B08CF7EC03C69F022
:101100006D2F6F77F70182A593A5DF91CF911F9186
:101110000F91FF90EF900C942B08DF91CF911F91CE
:101120000F91FF90EF9008950F93022F242F462FD9
:1011300060EB0E9460080F9108956D3F48F46A3F8C
:1011400010F4683F39F4FC01808191810C942B08E4
:101150006E3FC8F708950F93613E20F40E94600827
:101160000F910895683FE0F38A960F910C949D08C3
:1011700087FF0AC09CE0980F923030F08D3F21F03D
:10118000803F18F4807F089580E00895982F9F7E17
:10119000282F2F7C203839F0803E29F081E0903CC8
:1011A00019F080E0089581E00895CF93DF93EC017A
:1011B000E881F981309711F0CB9609958CAD823F8B
:1011C00009F49EC090F5803C09F486C090F4803903
:1011D00009F454C030F4803809F445C0DF91CF9150
:1011E0000895803A09F475C0803BC1F7EA85FB8514
:1011F0003CC0803E09F459C058F4803D79F7EE8533
:10120000FF85309759F36DAD8BADDF91CF91099488
:10121000803F09F464C0813F09F7EC89FD8930976C
:10122000E9F28DADDF91CF9109948A3F91F180F47D
:10123000863F09F477C028F4833F81F6E88DF98D65
:10124000EECF883FF1F0893F49F6E8A1F9A11BC034
:101250008C3F29F108F18E3F29F18F3F09F0BECF75
:10126000E8A5F9A510C0EC81FD81309709F4B6CF4F
:101270004EAD6DAD8BADDF91CF910994EE81FF81C5
:10128000F4CFEC8DFD8D309709F4A8CFDF91CF918D
:101290000994EE8DFF8DF7CFEAA1FBA1F4CFECA16D
:1012A000FDA1F1CFEEA1FFA1EECFE889F98930973A
:1012B00009F494CF6EAD20E8629FB00111246078EC
:1012C0007F738DAD8F77682B70528BADDF91CF918F
:1012D0000994E885F985C9CFEC85FD8592CFEA8927
:1012E000FB89309709F47ACF6DAD7EAD6138710519
:1012F00010F060E870E0CE01CF96DF91CF910994B5
:10130000EE89FF89309709F469CF8EAD20E8829F7E
:10131000C001112480789F732DAD2F77822BDF9130
:10132000CF910994EA8DFB8DAECF0F931F93CF938E
:10133000DF9300D000D0CDB7DEB7FC0120899189C2
:101340008289378539832A839B838C8300E815E063
:10135000F801838144E050E0BE016F5F7F4F8F5FF3
:101360000E941D04F80183818F5F0E94A6030F90E5
:101370000F900F900F90DF91CF911F910F910895D3
:101380000F931F93CF93DF9300D000D0CDB7DEB77C
:101390008C01262FFC01848195813681303FD9F064
:1013A000009711F4208B04C08130910581F4618B8A
:1013B000F801848195810196958384830F900F9025
:1013C0000F900F90DF91CF911F910F910895029789
:1013D00079F7628BEDCF603F49F48389F0E18F9F0D
:1013E000C00111248460F8018787DCCF63E070E0DE
:1013F0000E947824AC01273F39F493899295907F1D
:1014000085E0840F982B9787F8014115510521F449
:10141000208B128A118ACCCF4130510519F4218BCF
:10142000128AC6CF228B273F19F29089818937858E
:1014300039839A838B832C838091830544E050E029
:10144000BE016F5F7F4F8F5F0E941D0480918305F7
:101450008F5F0E94A603ACCFDC0116966C931697A3
:1014600053968C91539720E1829FC0011124603FD5
:10147000E8F4E62FE295EF70E750FF0BEE0FFF1F49
:10148000E95EFE4F9181892B1F968C931F97529690
:101490001C92529751961C92519750961C925097BD
:1014A00015961C921E92149781E008958460ECCFEB
:1014B000BF92CF92DF92EF92FF920F931F93CF9341
:1014C000DF938C016B01B42EE52EF22E60EFFC0150
:1014D000808191810E942C0A882351F181E0F826B5
:1014E00031F060EFF801808191810E94C009CB2D1D
:1014F000DE2DCC0EDD1EF80180819181CC15DD053D
:1015000021F069910E94C009F6CFFF2019F067EF22
:101510000E94C009F80180819181DF91CF911F91D4
:101520000F91FF90EF90DF90CF90BF900C949509B2
:10153000DF91CF911F910F91FF90EF90DF90CF90AF
:10154000BF900895EF92FF920F931F93CF93DF9375
:101550000150003180F567FF2EC0D22F142FC62F07
:101560007C01FC0182A593A50E942C0A882319F115
:10157000602F6C2BF70182A593A50E94C009612FF3
:101580006F77F70182A593A50E94C009CF7EC03C6A
:1015900039F06D2F6F77F70182A593A50E94C009DE
:1015A000F70182A593A5DF91CF911F910F91FF9035
:1015B000EF900C949509DF91CF911F910F91FF90BF
:1015C000EF9008950F93022F242F462F60EB0E9477
:1015D000A20A0F9108950F931F93CF936D3FD8F4F4
:1015E0006A3F10F4683FC9F4C62F8C01FC0180816A
:1015F00091810E942C0A882381F06C2FF801808150
:1016000091810E94C009F80180819181CF911F9141
:101610000F910C9495096E3F38F7CF911F910F9160
:1016200008950F93613E20F40E94A20A0F9108953D
:10163000683FE0F38A960F910C94EB0ACF93DF9307
:10164000EC0170E06F5F7F4F0E94080183E78E839B
:10165000CE010E94FC010E949A0369877A878B87DA
:101660009C87DF91CF910895CF93DF93EC0170E0D9
:101670000E94080189E38E83CE010E94FC010E9432
:101680009A0369877A878B879C87DF91CF9108952A
:10169000CF92DF92EF92FF921F93CF93DF93182F99
:1016A00081E291E0189F6001199FD00C112484E918
:1016B000E82E85E0F82EC1E0D0E0C6018C0F9D1F1A
:1016C0000E940724F70181937F012196C232F1E045
:1016D000DF0799F7109396070E94E307612FDF91C8
:1016E000CF911F91FF90EF90DF90CF900C941E0B45
:1016F000833010F40C94480B0895862F633010F457
:101700000C94780B0895FF920F931F93CF93DF9360
:10171000EC01F62E08811981C8010E940724F816F1
:1017200021F06F2DC8010E940F24CE01DF91CF91CF
:101730001F910F91FF9008958F929F92AF92BF9249
:10174000DF92EF92FF920F931F93CF93DF93CDB76A
:10175000DEB7C352D1400FB6F894DEBF0FBECDBF87
:101760001A82198260E08E010F5F1F4FC8010E942C
:10177000830BF80180E09FE73FE020E1808340E2B7
:10178000480F418312821382948395833683178294
:1017900020878F5F3996803289F7CF5DDE4F1882C0
:1017A000C152D140AA24BB24A01AB10A83E0D82E8A
:1017B00048018FED881A8EEF980A7801F701619140
:1017C0007F01CF018A0D9B1DCE5DDE4F99838883FB
:1017D000C252D140CE018E5D9E4F0E94830B8E146B
:1017E0009F0461F7DA94FFEDAF1AFEEFBF0AD11044
:1017F000E4CFEBE1F1E0659174918DEF93E0CE5D84
:10180000DE4F99838883C252D140CE018E5D9E4FB8
:101810000E94830BEAE1F1E0659174918EEF93E011
:10182000CE5DDE4F99838883C252D140CE018E5D5A
:101830009E4F0E94830BE9E1F1E0659174918FEF77
:1018400093E0CE5DDE4F99838883C252D140CE01B2
:101850008E5D9E4F0E94830BCD5DDE4F0FB6F894D8
:10186000DEBF0FBECDBFDF91CF911F910F91FF90D3
:10187000EF90DF90BF90AF909F908F90089584E09D
:10188000E7E7F1E0DB0101900D928A95E1F784E052
:10189000089580916802811105C01092670281E06D
:1018A0008093680280914C028111A5C010927D0145
:1018B00010927C0110927F0110927E0110928101A2
:1018C0001092800110928301109282011092850182
:1018D0001092840110928701109286011092890162
:1018E0001092880110928B0110928A0110928D0142
:1018F00010928C0110928F0110928E011092910122
:101900001092900110929301109292011092950101
:1019100010929401109297011092960110929901E1
:101920001092980110929B0110929A0110929D01C1
:1019300010929C0110929F0110929E011092A101A1
:101940001092A0011092A3011092A2011092A50181
:101950001092A40184E592E09093A7018093A601E0
:101960001092A8011092A9011092AA011092AF0141
:101970001092AE011092B1011092B0018FEF9FEF63
:101980009093B3018093B2019093B5018093B40119
:1019900083E08093B6011092B7011092B8011092C3
:1019A000B9011092BA0110923B02EBEBF1E080E832
:1019B000DF011D928A95E9F710923E0210923F02D4
:1019C0001092400210924102109242021092430281
:1019D0001092440210924502109246021092470261
:1019E000109248021092490210924A0210924B0241
:1019F00081E080934C028CE791E0089580914A0346
:101A0000811109C083EE94E09093490380934803C9
:101A100081E080934A03809140038111A5C0109218
:101A20007102109270021092730210927202109260
:101A30007502109274021092770210927602109240
:101A400079021092780210927B0210927A02109220
:101A50007D0210927C0210927F0210927E02109200
:101A600081021092800210928302109282021092E0
:101A700085021092840210928702109286021092C0
:101A800089021092880210928B0210928A021092A0
:101A90008D0210928C0210928F0210928E02109280
:101AA0009102109290021092930210929202109260
:101AB0009502109294021092970210929602109240
:101AC00099021092980288E493E090939B0280938D
:101AD0009A0210929C0210929D0210929E02109205
:101AE000A3021092A2021092A5021092A4028FEFFC
:101AF0009FEF9093A7028093A6029093A9028093F0
:101B0000A80283E08093AA021092AB021092AC026A
:101B10001092AD021092AE0210922F03EFEAF2E0A3
:101B200080E8DF011D928A95E9F710923203109246
:101B3000330310923403109235031092360310923F
:101B40003703109238031092390310923A0310921F
:101B50003B0310923C0310923D0310923E031092FF
:101B60003F0381E08093400380E792E008950F9364
:101B70001F93CF93DF93C82FD62F142F022F8D7F63
:101B8000813039F40E94FE0C202F412F6D2F0E94CE
:101B90009408C250C23058F40E94490C202F412FA3
:101BA0006D2FDF91CF911F910F910C94E20ADF917D
:101BB000CF911F910F9108952F923F924F925F9274
:101BC0006F927F928F929F92AF92BF92CF92DF924D
:101BD000EF92FF920F931F93CF93DF93CDB7DEB7B2
:101BE00060970FB6F894DEBF0FBECDBF9E878D877E
:101BF000562EDC01AC90CA2CD12CB7E0AB9EC001B4
:101C000011248C569A4FFC01EF5DFE4F20813181EB
:101C10002130310509F064C33396208131813A8740
:101C200029878A5D9E4FDC010D90BC91A02DBC8759
:101C3000AB8789E08C9DF0018D9DF00D1124EC5651
:101C4000FA4F9085B92FB295BF70BF878781F0900A
:101C5000950792FF05C0F82EF2947FE0F722F394E7
:101C60008F7044244394480E93FF4090950789E079
:101C70008C9D90018D9D300D1124F901EC56FA4F89
:101C8000FE83ED83F681F88B2F2F30E0A901559567
:101C900047955595479558874F834370E42EA89EE6
:101CA00050011124C5018A569A4F3C01D501A8560E
:101CB000BA4F4D0100E09E012E5F3F4FAC01BD01C8
:101CC00089859A850E9491079E012C5F3F4FA30151
:101CD000B4018B859C850E9491078F85835083304A
:101CE00008F048C001E09E012F5F3F4FA301B401FF
:101CF00089859A850E9491079E012D5F3F4FA30120
:101D0000B4018B859C850E9491078E010E5F1F4F49
:101D10009301A40160E0ED81FE8180850E94CD07E2
:101D20000E5F1F4F9301A40160E0AD81BE81189644
:101D30008C910E94CD07ED81FE81808580FF08C0D7
:101D40008FE79981F82FF91BF9839B81891B8B837E
:101D5000EF85E150E83008F0D3C0F0E0EE54F14FE9
:101D60000C948C24010F550FAB0F57103A0F041130
:101D700052112411950129563A4F1901A5014756D0
:101D80005A4F5A0100E09E012F5F3F4FA101B5015C
:101D900089859A850E9491079E012D5F3F4FA10181
:101DA000B5018B859C850E9491078E010E5F1F4FA8
:101DB0009301A40160E0AD81BE8118968C910E94D0
:101DC000CD07015011099101A50161E0ED81FE816E
:101DD00080850E94CD070D5F1F4F9301A40160E035
:101DE000AD81BE8118968C910E94CD0701501109DA
:101DF0009101A50161E0ED81FE8180850E94CD0702
:101E0000A7CF4A81511004C08C81841709F478C08F
:101E100089E08C9DF0018D9DF00D1124EC56FA4F58
:101E20002F2D60818E2D0E94B70D0E94E3078C013B
:101E3000AD85BE852C916A81FC0181898F3F09F4B3
:101E4000218BD80151968C91082E000C990B2817E4
:101E5000190609F055C070E0C8010E940801C801C8
:101E60000E94FC010E949A03F801618772878387B0
:101E7000948746C0511005C09B818981981709F449
:101E80003FC089E08C9D80018D9D100D11240C5662
:101E90001A4F2F2D4A81D8016C918E2D0E94B70DBB
:101EA0002F2D4981F8016181BDCF4A81511003C0B6
:101EB0008C814817F9F089E08C9DF0018D9DF00D23
:101EC0001124EC56FA4F2F2D60818E2D0E94B70DF4
:101ED000552071F089E08C9DF0018D9DF00D11244D
:101EE000EC56FA4F242D49816181888983709BCFFC
:101EF000552453949B8189819813ECCF511095CF31
:101F000027E02C9DC0012D9D900D11248C569A4FD9
:101F1000FC01EA5DFE4F8C5D9E4FDC018D919C9132
:101F20009183808360960FB6F894DEBF0FBECDBF5D
:101F3000DF91CF911F910F91FF90EF90DF90CF90A5
:101F4000BF90AF909F908F907F906F905F904F90D9
:101F50003F902F900895511004C09B81898198175C
:101F600079F2FF81F0FF4FC00E94FE0C5C0189E016
:101F70008C9DF0018D9DF00D1124EC56FA4F0081DF
:101F800020E8029F800111248181082BD501D89679
:101F90008D919C9108171907B1F0402F4F772F2D85
:101FA00062E6C5010E949408A801440F452F441F12
:101FB000550B51954F772F2D63E6C5010E9494086C
:101FC000F50111AF00AF19812F2D4A8166E0C501DF
:101FD0000E9494082F2D412F66E2C5010E949408AB
:101FE0002F2D4FE762E6C5010E9494082F2D4FE781
:101FF00063E6C5010E9494088FEF9FEFD501D99643
:102000009C938E93D8978EEF8E0D823008F00DCF73
:102010000E94490C5C0189E08C9DF0018D9DF00DC2
:102020001124EC56FA4F0081B0E80B9F8001112477
:102030008181082BF50180AD91AD08171907C1F01A
:10204000402F4F772F2D62E6C5010E94E20AA801BA
:10205000440F452F441F550B51954F772F2D63E6A5
:10206000C5010E94E20AD501D9961C930E93D89718
:1020700019812F2D4A8166E0C5010E94E20A2F2DA9
:10208000412F66E2C5010E94E20A2F2D4FE762E66A
:10209000C5010E94E20A2F2D4FE763E6C5010E94A9
:1020A000E20A8FEF9FEFF50191AF80AFBECE5110E6
:1020B00005C09B818981981709F422CFFF81F0FF29
:1020C0004FC00E94FE0C5C0189E08C9DF0018D9D4B
:1020D000F00D1124EC56FA4F008120E8029F800198
:1020E00011248181082BD501D6968D919C910817DA
:1020F0001907B1F0402F4F772F2D64E6C5010E94DC
:102100009408A801440F452F441F550B51954F7754
:102110002F2D65E6C5010E949408F50117AB06ABAB
:1021200019812F2D4A8166E0C5010E9494082F2D48
:10213000412F66E2C5010E9494082F2D4FE764E607
:10214000C5010E9494082F2D4FE765E6C5010E9446
:1021500094088FEF9FEFD501D7969C938E93D697D7
:102160008EEF8E0D823008F060CE0E94490C5C012B
:1021700089E08C9DF0018D9DF00D1124EC56FA4FF5
:102180000081B0E80B9F800111248181082BF501AB
:1021900086A997A908171907C1F0402F4F772F2D4F
:1021A00064E6C5010E94E20AA801440F452F441FBE
:1021B000550B51954F772F2D65E6C5010E94E20A18
:1021C000D501D7961C930E93D69719812F2D4A814E
:1021D00066E0C5010E94E20A2F2D412F66E2C5018B
:1021E0000E94E20A2F2D4FE764E6C5010E94E20A31
:1021F0002F2D4FE765E6C5010E94E20A8FEF9FEFA2
:10220000F50197AB86AB11CE511005C09C818A8138
:10221000981709F475CEFF81F0FF08C00E94FE0CEC
:102220000F2D20E04A8160EC0E9460088EEF8E0D39
:10223000823008F0FACD0E94490C0F2D20E04A812F
:1022400060EC0E94A20AF1CD511005C09C818A81E8
:10225000981709F455CE2F8120FF10C00E94FE0C64
:1022600029E02C9DF0012D9DF00D1124EC56FA4F24
:102270000F2D2A81408160EA0E9460088EEF8E0D4A
:10228000823008F0D2CD0E94490C29E02C9DF0014B
:102290002D9DF00D1124EC56FA4F0F2D2A8140810F
:1022A00060EACFCF511005C09C818A81981709F44C
:1022B00027CE3F8130FF08C00E94FE0C0F2D20E08A
:1022C0004A8160ED0E9460088EEF8E0D823008F02A
:1022D000ACCD0E94490C0F2D20E04A8160EDB1CFBA
:1022E000232B09F01FCE0E94E307FC018189082EF1
:1022F000000C990BAD85BE852C912817190609F0A5
:1023000011CE0E94E3072FEFFC01218B0BCE0F9320
:102310001F93CF93DF931F92CDB7DEB70E94E307E1
:102320008C010E94B7068DE6F801868384E58583DB
:1023300088E58483C8010E94FC0168EE73E080E0B8
:1023400090E00E94680319828981803248F461E03C
:10235000CE0101960E94440289818F5F8983F4CF68
:1023600019828981803248F461E0CE0101960E9491
:10237000DC0D89818F5F8983F4CF0F90DF91CF913E
:102380001F910F910895DF92EF92FF920F931F9389
:10239000CF93DF93CDB7DEB761970FB6F894DEBF6A
:1023A0000FBECDBFDC016430710508F4A7C01196E3
:1023B0008C911197803209F0A1C01296EC9112977E
:1023C000E150E93008F09AC0F0E0E751FE4E0C947D
:1023D0008C24F2119112E112F0121C13E6127E12FB
:1023E0008C129F1314962C91149713968C9113971B
:1023F00069E0689FC00111248C569A4FFC0120832C
:1024000015962C91159713968C911397689FC00180
:1024100011248C569A4FFC0121831A962C911A97FD
:1024200013968C911397689FC00111248C569A4F74
:10243000FC0122831B962C911B9713968C9113976A
:10244000689FC00111248C569A4FFC0124831C966E
:102450002C911C9713968C911397689FC00111249F
:102460008C569A4FFC0123831D962C911D97139631
:102470008C911397689FC00111248C569A4FFC01D0
:10248000258313968C911397689FC00111248C5655
:102490009A4F16962C911697F0E12F9FA0011124C8
:1024A00017962C911797242BFC01278313968C9158
:1024B0001397689FC00111248C569A4F18962C913F
:1024C0001897F4E02F9FA001112419962C911997C9
:1024D000242BFC01268313968C911397689FF0019F
:1024E0001124EC56FA4F1F968C911F9790E1899F0B
:1024F000900111241E968C91822B808761960FB6D5
:10250000F894DEBF0FBECDBFDF91CF911F910F9129
:10251000FF90EF90DF90089513968C918093B4060E
:10252000EDCF13962C91233048F741E251E0249FE0
:10253000C001259F900D112404E915E0FC01E45928
:10254000F5407F01F80161918F01C7018E0F9F1F38
:102550009A838983CE0101960E94830BF6E0053BA6
:102560001F0781F70E94E3078C010E94B7068DE6E2
:10257000F80185838CE18483C8010E94FC016CE230
:1025800071E080E090E00E946803E3E0FE2EEE241C
:10259000E394DD24D394F8018481EE2081F08068F7
:1025A0008483C8010E94FC016CE271E080E090E04D
:1025B0000E946803ED24FA94F110EDCF9FCF8F773E
:1025C000EFCF13968C910E94780B98CF13968C9135
:1025D0009FEF980F903108F091CF809395078ECFA1
:1025E0001B821C821D8280E2898384E08A838DEFB6
:1025F00093E00E9407248D838EEF93E00E940724CE
:102600008C838FEF93E00E9407248B830E94490CF8
:1026100020E0AE014F5F5F4F65E070E08A960E9458
:10262000580A0E94FE0CAE014F5F5F4F65E070E0FC
:102630008A960E94350862CF04E915E0F12C60E229
:10264000D62E75E0E72EF801278196818085D98204
:10265000EA82FB8230813C8331813D83422F50E00E
:1026600034E0559547953A95E1F74E832F702F83C7
:10267000292F30E035952795359527952887937034
:10268000998792819A8794819B8793819C87958172
:102690009D87982F9F709E8790E054E09595879531
:1026A0005A95E1F78F870E94490C20E0AE014F5FF9
:1026B0005F4F6FE070E08A960E94580A0E94FE0CFD
:1026C000AE014F5F5F4F6FE070E08A960E94350861
:1026D000F394075F1F4FF0E2FF12B5CFF98288E055
:1026E0008A838091B4068B830E94490C20E0AE015E
:1026F0004F5F5F4F63E070E08A960E94580A0E9425
:10270000FE0CAE014F5F5F4F63E070E08A960E945F
:102710003508F88A83E6898B0E94490C20E0AE01D7
:10272000405F5F4F62E070E08A960E94580A0E9404
:10273000FE0CAE01405F5F4F62E070E079CF0E9417
:102740008711DCCE0F93CF93DF93FC0121812E3FC5
:1027500049F1EC018091B406823069F0853031F1A5
:10276000813089F40E94FE0C08812B814A816981A5
:102770000E94AB0808C00E94490C08812B814A8145
:1027800069810E94110B0E94E307EC018E81806831
:102790008E83CE010E94FC010E949A0369877A878A
:1027A0008B879C87DF91CF910F9108950E94490CF0
:1027B00008812B814A8169810E94110BD3CF0F932D
:1027C000CF93DF93FC0121812E3F01F1EC01809139
:1027D000B406843039F18530E9F0833041F40E9449
:1027E000490C08812B814A8169810E94110B0E944A
:1027F000E307EC018E8180688E83CE010E94FC018C
:102800000E949A0369877A878B879C87DF91CF9193
:102810000F9108950E94490C08812B814A8169819A
:102820000E94110B0E94FE0C08812B814A81698154
:102830000E94AB08DCCF1F920F920FB60F921124AB
:102840002F933F938F939F93AF93BF9380918B046C
:1028500090918C04A0918D04B0918E0430918A04E3
:1028600023E0230F2D3758F50196A11DB11D2093AC
:102870008A0480938B0490938C04A0938D04B0936E
:102880008E0480918F0490919004A0919104B09156
:1028900092040196A11DB11D80938F049093900422
:1028A000A0939104B0939204BF91AF919F918F91A7
:1028B0003F912F910F900FBE0F901F90189526E813
:1028C000230F0296A11DB11DD2CF1F920F920FB6FA
:1028D0000F9211242F933F934F935F936F937F93A6
:1028E0008F939F93AF93BF93CF93EF93FF93C09139
:1028F000E1008091E100837F8093E100C3FF0FC07E
:102900001092E90081E08093EB001092EC0082E3EA
:102910008093ED001092810388E08093F000C2FF65
:102920001BC083E00E94A60380917E03882341F0B0
:1029300080917E03815080937E03811101C05D9A56
:1029400080917D03882341F080917D0381508093A5
:102950007D03811101C0289AC4FF23C08091E20049
:102960008E7E81608093E2008091E1008F7E809373
:10297000E10080917F038E7E806180937F03FF91D1
:10298000EF91CF91BF91AF919F918F917F916F9177
:102990005F914F913F912F910F900FBE0F901F901D
:1029A0001895C0FFECCF8091E2008E7E806180930D
:1029B000E2008091E1008E7E8093E10080917F03B0
:1029C0008E7E8160DACF1F920F920FB60F92112484
:1029D000CF92DF92EF92FF920F931F932F933F932B
:1029E0004F935F936F937F938F939F93AF93BF9317
:1029F000EF93FF93CF93DF93CDB7DEB76C97DEBF36
:102A0000CDBF1092E9008091E80083FF25C068E007
:102A1000CE0145960E945A0582EF8093E8008D8989
:102A200087FF39C09091E80090FFFCCF982F9076F7
:102A300009F034C19E894F89588D2F89F88C9111E6
:102A400031C0803861F5809180038093F10010924D
:102A5000F1008EEF8093E8006C960FB6F894DEBF1D
:102A60000FBECDBFDF91CF91FF91EF91BF91AF919D
:102A70009F918F917F916F915F914F913F912F9196
:102A80001F910F91FF90EF90DF90CF900F900FBEAE
:102A90000F901F9018959EEF9093E800C7CF10926B
:102AA000F100D5CF913059F48111D3CF4130510588
:102AB00081F6809180038D7F80938003CACF93300D
:102AC00049F48111C6CF4130510519F68091800338
:102AD0008260F2CF953041F48091E80080FFFCCF16
:102AE00020682093E300B5CF963009F0A9C00B8D84
:102AF0001C8D22E01092E90010927B0310927A0361
:102B0000F2122EC010927903109278030E94A80549
:102B10001F8299E09983FA8291E09E8390EA9887D8
:102B20009AEF998720917A0330917B03275F3F4F7B
:102B30003C832B838D831092E90010927B031092CB
:102B40007A03109379030093780349E050E0BE01C3
:102B50006F5F7F4F80E00E94E1030E94A80579CF5C
:102B600010937903009378030E949405DC01129678
:102B70000D911C910115110509F451C1D801ED9178
:102B8000FC910480F581E02DBE016B5E7F4FC80192
:102B90000995009709F03EC1F80100851185EACF3B
:102BA000F3E0FF120EC08F89882309F440C0823001
:102BB00061F440E86CE08CE091E00E946D178111B7
:102BC00048CF81E28093EB0047CF813029F440E881
:102BD00067E084E091E0F1CF833099F70E9494059B
:102BE000DC011296ED90FC908E010F5F1F4F680183
:102BF000E114F10479F0D701ED91FC910680F781A1
:102C0000E02DB801C7010995080F111DF701E084F7
:102C1000F184EECFD8011C92F60101900020E9F773
:102C20003197BF016C197D0940E0C601C6CF6EEE39
:102C300070E0FB01449150E080E80E94E10309CF7D
:102C4000973009F4BECF983021F481E08093F100F1
:102C500000CF993009F0FDCE837009F0B2CFEDE0DE
:102C6000F1E081E031E096E32191222371F080933D
:102C7000E9003093EB00DF0111972C912093EC00D9
:102C80009093ED008F5F873079F78EE78093EA00AD
:102C90001092EA008F8980938103DBCE8B8D9C8D0F
:102CA0001092E90010927B0310927A0390937903BB
:102CB00080937803898D811192C08E899D89913A84
:102CC00049F4813209F07DCF47E050E064E071E0E3
:102CD00080E0B3CF913209F074CF833269F48F89E9
:102CE000988DB0E0A0E08093000190930101A09343
:102CF0000201B0930301ADCE803269F48091E80007
:102D000082FFFCCF67E084E091E00E945A058BEFE0
:102D10008093E8009ECE823209F09BCE8F8980930B
:102D20000B01EEEFFFE7859194918B3F9C4D51F1A4
:102D3000E0E0F8E08091040190910501A091060186
:102D4000B0910701803B9440A105B105F1F4809159
:102D50000B0180FD1AC0EE3F8AE0F80789F587E78E
:102D600097E7918380838091600080937C0388E162
:102D70009BE00FB6F894A895809360000FBE9093E7
:102D8000600067CEEEEFFAE0D5CF80819181873782
:102D9000974709F05ECEA895809160008861809386
:102DA000600080917C0380936000EE3F2AE0F20790
:102DB00089F08091FE0A9091FF0A9183808349CE29
:102DC000808191818737980751F29093FF0A809311
:102DD000FE0AC5CF1092FF0A1092FE0A3ACE0E9458
:102DE0009405DC0112960D911C910115110509F451
:102DF000E8CED801ED91FC910190F081E02DBE016B
:102E00006B5E7F4FC8010995811123CEF8010085C3
:102E10001185EBCF181619060CF41BCED2CEF1E0BB
:102E2000FF12BECE62EF70E004CF1F920F920FB67A
:102E30000F9211242F933F934F935F936F937F9340
:102E40008F939F93AF93BF93EF93FF9383EE94E0A1
:102E50000E942A06FF91EF91BF91AF919F918F91B0
:102E60007F916F915F914F913F912F910F900FBE86
:102E70000F901F9018951F920F920FB60F9211246A
:102E80002F938F939F93EF93FF93E091F304F0912F
:102E9000F4048081E091F904F091FA0482FD1BC0F2
:102EA00090818091FC048F5F8F732091FD048217C5
:102EB00041F0E091FC04F0E0ED51FB4F958F8093E1
:102EC000FC04FF91EF919F918F912F910F900FBE76
:102ED0000F901F9018958081F4CFEF92FF920F937F
:102EE0001F93CF93DF93F82E192FE62E042F81E046
:102EF000860F880F0E94B30383E00E94B303CF2D97
:102F0000D12FEC0EFD2EF11CCE15DF05B9F007FF19
:102F100013C0FE0184910E94B303182F80E00E9429
:102F2000B303812321968111EFCFDF91CF911F91C0
:102F30000F91FF90EF9008958881EDCF81E0F5CF5C
:102F4000CF93DF93109296041092950488EE93E04D
:102F5000A0E0B0E08093970490939804A093990424
:102F6000B0939A042BE431E03093940420939304BB
:102F70002FEF3FEF3093A00420939F041092E604BC
:102F80001092E5048093E7049093E804A093E90489
:102F9000B093EA048DE591E09093E4048093E30418
:102FA0008DEC90E09093F0048093EF048CEC90E033
:102FB0009093F2048093F10488EC90E09093F404F1
:102FC0008093F30489EC90E09093F6048093F504E9
:102FD0008AEC90E09093F8048093F7048EEC90E0F4
:102FE0009093FA048093F9041092FC041092FD046B
:102FF0001092FE041092FF0482E080938405809377
:1030000085058AE895E09093870580938605109260
:103010008905109288058FE691E090938105809351
:10302000800580E880938A0581E880938B050E9463
:103030009405FC01818190918405482F490F552703
:10304000551F483051059CF5A281B381109709F5B1
:1030500020E835E03383228320812093820580930A
:10306000830580918505820F808320918605A22F9C
:10307000B09187058A2F821B8917C8F481813D9101
:10308000C82FD0E0C45FDE4F38838F5F8183F2CFDB
:10309000D90118962D913C91199721153105C1F749
:1030A00020E835E019963C932E931897D5CF81E20E
:1030B00091E0E4E9F5E0DF019C011D9221503040F0
:1030C000E1F7E5EBF6E085E997E0118210821482E2
:1030D000138216821582128237968E179F07A9F7E0
:1030E00081E08093950710929607109298071092AE
:1030F000970710929A071092990710929C071092C6
:103100009B0710929D0710929E0710929F071092A6
:10311000A0071092A1071092A2071092A307109285
:10312000A40785EB96E090938D0580938C0588E04D
:1031300080938E0589E080938F0580911301909193
:103140001401A0911501B091160180939005909300
:103150009105A0939205B0939305DF91CF910895C7
:10316000CF93DF93CDB7DEB760970FB6F894DEBF8D
:103170000FBECDBF789484B5826084BD84B5816074
:1031800084BD85B5826085BD85B5816085BD809132
:103190006E00816080936E001092810080918100AA
:1031A00082608093810080918100816080938100A2
:1031B0008091800081608093800080919100826086
:1031C0008093910080919100816080939100809123
:1031D00090008160809390008091C1008460809312
:1031E000C1008091C10082608093C1008091C100C4
:1031F00081608093C1008091C30081608093C3008F
:103200008091C00082608093C0008091C200816084
:103210008093C20080917A00846080937A008091CC
:103220007A00826080937A0080917A008160809336
:103230007A0080917A00806880937A0010928103EE
:103240001092800310927F038091D7008160809359
:10325000D70080EA8093D80089B5806189BD89B59F
:10326000826089BD09B400FEFDCF61E070E080E0BE
:1032700090E00E9468038091D8008F7C80618093E9
:10328000D8008091E000807F8093E0008091E10091
:103290008E7E8093E1008DE08093E200559A209A23
:1032A0000E94E3078C01DC0118968C91189781111C
:1032B00009C060E013968C910E94CE0181E0F80174
:1032C0008087878361E081E00E94070361E081E0FD
:1032D0000E94CE0161E081E10E94070362E085E186
:1032E0000E94070362E084E10E94070385E10E94D7
:1032F000A501892B91F460E081E10E94CE010E943A
:103300009A03603A7F408105910510F00C94E72301
:1033100085E10E94A501892B91F38DEF93E00E9436
:103320000724EBE1F1E025913491821315C08EEF73
:1033300093E00E940724EAE1F1E0259134918213A1
:103340000BC08FEF93E00E940724E9E1F1E02591A3
:103350003491821709F4AFC003E010E061E081E12D
:103360000E94CE016CE271E080E090E00E94680370
:1033700060E081E10E94CE016CE271E080E090E0CB
:103380000E9468030150110949F70E94E3078C016C
:1033900063E0F62E74E0E72EECE05E2EFCE16F2E8B
:1033A000A8E57A2EB0E58B2E80E4D82E92E4992EF3
:1033B00023E4A22E33E2B32E41E2C42EC8010E94C0
:1033C000B706D8011596EC92C8010E94FC0164E68C
:1033D00070E080E090E00E946803F8015582C80127
:1033E0000E94FC0164E670E080E090E00E946803C7
:1033F000D80115966C92C8010E94FC0164E670E049
:1034000080E090E00E946803F8017582C8010E9484
:10341000FC0164E670E080E090E00E946803D8015F
:1034200015968C9215971496DC92C8010E94FC01A7
:1034300064E670E080E090E00E946803F801D582C5
:103440009482C8010E94FC0164E670E080E090E094
:103450000E946803D8011496AC92C8010E94FC0136
:1034600064E670E080E090E00E946803F801B482B6
:10347000C8010E94FC0164E670E080E090E00E94D8
:103480006803D8011496CC9214971596EC92C80153
:103490000E94FC0164E670E080E090E00E94680316
:1034A000C8010E94B706C8010E94FC01FA94F110FD
:1034B00085CF0E949C0B00E915E061E0F801819145
:1034C0008F010E940703F5E004391F07B1F760E0A0
:1034D00088E00E94070360E089E00E94070390E013
:1034E00080E00E9407240E94780B0E94490C2FED77
:1034F00033E1DC012D933C930E94FE0C22EA33E180
:10350000FC01318320830E94490C03EC11E1DC01B2
:1035100053961C930E9352970E94FE0CFC01138B42
:10352000028B0E94490C0DE71BE0DC011D961C93E9
:103530000E931C970E94FE0CFC01158704870E94C5
:10354000490C8C01DC019A96ED91FC919B971582B8
:10355000148216861586148613869C961C929C9758
:103560009E961C929E979D961C929D97D5961C9216
:103570001E92D497D3961C921E92D297EE24EA9470
:10358000FE2CD796FC92EE92D697D996FC92EE92AC
:10359000D8970E949A03F801EE53FF4F608371831E
:1035A0008283938333971082F80114AE13AE15AE65
:1035B00016AEE054FF4F11821082D801DA968C913A
:1035C000DA97817082608E7FDA968C930E94FE0C6F
:1035D0008C01DC019A96ED91FC910190F081E02D37
:1035E000A089B18982E08C93A485B5851C92A685BB
:1035F000B7858FE38C93108EA489B58986E08C9370
:10360000A289B3898C9180618C93A289B3898C91B2
:1036100088608C93A289B3898C9180688C9302888E
:10362000F389E02D80818F7D8083F80114A616A692
:1036300015A615AA14AA13AA12AAF7AAE6AAF1AE09
:10364000E0AE0E949A03F801EE53FF4F608371834E
:103650008283938333971082D801DC961C92DC9787
:10366000DB961C92DB97DD961C92DD97DE961C9212
:10367000319611821082F80182AD81708260816082
:1036800082AF0E94490CDC01DA961C920E94FE0C6B
:10369000FC0112AE0E94E3078C010E94B70698E07D
:1036A000F92ED8011696FC92169715961C9215972E
:1036B00014961C92C8010E94FC0168E770E080E04B
:1036C00090E00E946803F801F682F5821482C80136
:1036D0000E94FC0168E770E080E090E00E946803CF
:1036E000D8011696FC9216971596FC92159714968B
:1036F000FC92C8010E94FC0168E770E080E090E065
:103700000E946803F801F682F5828CE08483C80188
:103710000E94FC0168E770E080E090E00E9468038E
:10372000D8011696FC9216971596FC9215978EE086
:1037300014968C93C8010E94FC0168E770E080E059
:1037400090E00E946803F801F682F5822FE0E22EF5
:10375000E482C8010E94FC0168E770E080E090E02C
:103760000E946803D8011696FC92169739E0F32E52
:103770001596FC9215971496EC92C8010E94FC01D4
:1037800068E770E080E090E00E946803F801F6824C
:10379000F582E482C8010E94FC0168E770E080E0E5
:1037A00090E00E94680389E2D80116968C931697E0
:1037B0001596FC9215971496EC92C8010E94FC0194
:1037C00068E770E080E090E00E94680389E3F80118
:1037D0008683F582E482C8010E94FC016CE271E0FC
:1037E00080E090E00E946803C8010E94B706C8010B
:1037F0000E94FC010E949A03D80119966D937D9353
:103800008D939C931C9742E0842E912C50E8A52E1A
:10381000B12CCC24C394D12C19828981803248F4F4
:1038200060E0CE0101960E94440289818F5F898306
:10383000F4CF0E94E307FC0117821982898180324C
:1038400048F460E0CE0101960E94DC0D89818F5F13
:103850008983F4CF0E94490C7C01DC019C96BC91C9
:10386000BD83B13108F000C11C01EFEC2E0E311CFC
:10387000D7019A960D911C91F80183859485892B27
:1038800009F454C0D1018C918E7F8C93D7019A9604
:10389000ED91FC91858596859C012F5F3F4F368782
:1038A00025878E0F9F1FDC0117961C9183859485B9
:1038B0000197948783871D3FD9F2D701D4968D91C4
:1038C0009C91D597009709F0A1C29F961C939F9752
:1038D0009D960C91802F0E94B8080E94C6088823EC
:1038E00039F017FD05C0F70107A710ABD5AAC4AA88
:1038F000D7019F961C91812F0E94B808813F09F43F
:103900004EC208F0DFC1803B49F008F0B2C18039F7
:1039100029F0803A19F0803809F0B2C1E3E0F0E014
:10392000D701D396FC93EE93D2973CC216861586A8
:103930008091820490918304A0918404B0918504C5
:1039400040918604509187046091880470918904A5
:10395000841B950BA60BB70B8F739927AA27BB2740
:10396000892B8A2B8B2B09F4E8C0809186049091D7
:103970008704A0918804B0918904880F991F880F4B
:10398000991FFC01EE57FC4F8081918142804F8648
:103990005380588A2091820430918304409184049A
:1039A000509185044090860450908704609088046C
:1039B000709089042415350546055705D1F04090CF
:1039C00086045090870460908804709089042FEFDB
:1039D000421A520A620A720A3FE3432255246624BD
:1039E00077244092860450928704609288047092F3
:1039F0008904D8011F968C931F9750969C935097DB
:103A0000EF855196EC935197F8895296FC93529713
:103A1000882321F1282F30E064E0359527956A95B9
:103A2000E1F753966C91539762171306E9F48F7080
:103A3000682F70E01B962D913C91FB01EE0FFF1F4C
:103A4000E95DFE4FE181E13009F4F5C008F4DBC027
:103A5000E23009F400C1E33009F4DAC0F8018385EB
:103A60009485892B09F00ECF0E94FE0C7C01DC01AD
:103A70009C964C90B0E1B41508F45FC38C010153DF
:103A80001F4FD7019A96ED91FC9180819181DC01C5
:103A9000ED91FC910084F185E02D0995892B09F4C5
:103AA0004CC3F80180818E7F8083D7019A96ED9177
:103AB000FC9180819181DC01ED91FC910284F38580
:103AC000E02D0995782EBDEF8B17D9F2F70184A967
:103AD00095A9009709F052C477A665A4862D0E9487
:103AE000B8080E94C608882369F077FC0BC0D7018C
:103AF0009F966C929F97D0967C92D097D596DC92A9
:103B0000CE92D497F70177A4872D0E94B808813F01
:103B100009F4FFC308F090C3803B49F008F0F4C2F9
:103B2000803929F0803A19F0803809F0F5C223E095
:103B300030E0F70133AB22ABF1C3809183050E94E3
:103B40004105882309F45BC080918204909183042D
:103B5000A0918404B09185040196A11DB11D2C0192
:103B60003D012FE342225524662477248091860468
:103B700090918704A0918804B091890484159505DB
:103B8000A605B70509F4F1CE809183050E94410591
:103B900044E050E0BE016F5F7F4F809183050E943B
:103BA000CD0404970CF4E1CE8091820490918304BB
:103BB000A0918404B0918504880F991F880F991FE4
:103BC0008E579C4F49815A816B817C81DC014D93DA
:103BD0005D936D937C93139740928204509283047B
:103BE0006092840470928504BFEF4B1A5B0A6B0AE3
:103BF0007B0AEFE34E22552466247724B7CF188A38
:103C00001F8690E0C7CE843019F06730710581F4CB
:103C1000F801E20FF31F97834F8440862D5F3F4FDB
:103C2000D8011C963C932E931B97B889B18716CF69
:103C30006530710561F4A9014F5F5F4FF80154874A
:103C40004387200F311FD90117969C9307CF663009
:103C5000710509F003CFF801E20FF31F97832E5F80
:103C60003F4FD8011C963C932E931B97BF85B0877E
:103C7000F5CE803D09F493C0A8F4803C09F48FC0D0
:103C8000F101808181608083D7011296ED91FC91D2
:103C9000309709F00995F70115AA14AA13AA12AAD8
:103CA00015A6E2CE803E09F439CE803F49F7D70110
:103CB000D396BC92AE92D2979D961C929D97DF961A
:103CC0008C9370C0873F99F308F062C0833F09F47A
:103CD00066C008F423CE863F99F6F70184AF13AE91
:103CE00015AE16AE81E0E154FF4F8083D701D59623
:103CF0001C921E92D497D3961C921E92D297D701F3
:103D0000DC968C91DC97803941F4DE968C91DE97BD
:103D1000811103C080E8DC968C93F70184AD805854
:103D2000813630F483AD4D80481611F0411003C048
:103D3000C7010E94D508D701DA968C91DA97982F9F
:103D4000917080FF91CE282F2E7F09F48DCEDC96C6
:103D50006C91DC9720E8260F213608F03DC1DB96F8
:103D60000C914D80401619F091E0411090E086953D
:103D7000823009F424C1833009F42BC1813009F069
:103D800073CED701DE962C91DE97DD964C911DC146
:103D90008D3F08F4A2CF8E3F08F09FCF71CFF7017F
:103DA00093AA82AAD701D4962D913C91D597D29609
:103DB0004D915C91D3974150510924173507F8F084
:103DC000DC968C93DC971F701F5FDB961C93DB9750
:103DD000D0968C91D097DD968C93DD97DE961C92D1
:103DE000F701E054FF4FD182C082F70115AA14AA4F
:103DF00013AA12AA81E0E154FF4F808380CF2F5F86
:103E00003F4FD5963C932E93D49732CD17FF0CC0DD
:103E10001D3F08F052C0183F08F052C0103F09F48F
:103E20005BC0173F09F458C0D7019F962C91F7014A
:103E3000E80FF91F203F19F0273F09F07CC017AFAA
:103E4000F70162A873A893012150310982179307E3
:103E500008F4B1C037A4970121543F4F290130EF36
:103E6000331619F047EF341268C0F701E254FF4FE0
:103E7000708080EF8083D701DC968C93DC9780E89C
:103E8000DD968C93DD97DE961C92DE97DB961C9276
:103E90003296B182A08281E0F2018083C7010E9444
:103EA000D50887EFD701DF968C93F701E05CFF4FD1
:103EB0007082F70195AA84AAD7CD1E3F08F4B4CF2B
:103EC000F70114AF15AE16AE13AEE054FF4FD1821A
:103ED000C08281E0319791CFD701DF962C91203FAE
:103EE00011F0273F19F59C012F5F3F4F8E0D9F1D4D
:103EF000FC0117AF80EFD701DC968C93DC97DD9641
:103F00002C93DD97DE963C93DE97DB961C92F701AF
:103F1000E054FF4F3183208381E031978083F701A4
:103F200015AA14AA13AA12AA15A6E9CED1018C913A
:103F300081608C93A9CE17A783CF832D0E94B808E8
:103F4000182FD701DC968C930E94C608882329F18C
:103F5000832D8F708F5FF70183AFF70180A985AF45
:103F600080E0F3E06F16710419F4D701D1968C91BB
:103F7000F70186AF15AA14AA13AA12AA81E0D201EA
:103F80008C93103B39F068F4103921F0103A11F09D
:103F9000103869F4F70135A6B2CED701DB961C9232
:103FA000DCCF103DB9F3103EA9F3103C99F3D701D3
:103FB0009D961C92A4CE019695AB84AB59CC9923C7
:103FC00009F452CDF70126AD45ADC7010E94110B92
:103FD0004BCD911149CDD5CEE0E1E60FE03108F0AF
:103FE00043CDF0E0EA50F04E0C948C240B20672077
:103FF0003C201C20341D341D0620341D0620341D99
:10400000062006200620341D06200620C7018A96B9
:104010000E94EB0A29CDA701415C5F4FF70165AD16
:1040200076AD6138710510F060E870E021E0C701FD
:104030008A960E94580A18CDDD961C91DD9763EF91
:104040009A968D919C910E942C0A882309F40CCD9C
:1040500063EFF70182A593A50E94C009612F6F77D6
:10406000D7019A968D919C910E94C009F70182A573
:1040700093A50E949509F8CCDD961C91DD97DE96FC
:104080000C91DE9762EF9A968D919C910E942C0A7A
:10409000882309F4E9CCB0E80B9FB0011124FB019F
:1040A000E12B8F0162EFD7019A968D919C910E942E
:1040B000C009602F6F77F70182A593A50E94C00900
:1040C000000F012F001F110B1195602FC8CFDE9636
:1040D0000C91DE97DD961C91DD9761EF9A968D919C
:1040E0009C910E942C0A882309F4BECC61EFF70151
:1040F00082A593A50E94C009F0E11F9FB001112481
:1041000060770F70602BACCF803D09F402C108F0DE
:1041100082C0803C09F4FDC0F80180818160808309
:10412000D7011296ED91FC91309709F00995F701AE
:1041300015AA14AA13AA12AA15A685E10E94A50120
:104140008C0184E10E94A5017C010E949A032B014D
:104150003C018091990790919A07012B09F0AFC219
:10416000009709F07BC221E030E030939A0720935A
:10417000990740929D0750929E0760929F07709208
:10418000A00780919B0790919C07EF2809F0F5C24A
:10419000009709F0BBC281E090E090939C07809368
:1041A0009B074092A1075092A2076092A3077092CA
:1041B000A4070E94E3078C010E949A03D801199674
:1041C0004D905D906D907C901C97641975098609DF
:1041D0009709683E73408105910530F0C8010E943F
:1041E000B706C8010E94FC010E94E307FC01878119
:1041F000882321F08BE99FE00197F1F780E090E0C0
:10420000892B09F409CB0E941606882309F401CBF7
:104210000E940000FECA803E09F489CC803F09F06C
:104220007BCFD701D396BC92AE92D2979D961C922B
:104230009D97DF968C9372C0873F99F308F062C018
:10424000833F09F466C008F472CC863F09F064CF5E
:10425000D701DC968C93DC97DB961C92DB97DD967E
:104260001C92DD97DE961C9281E0F701E154FF4F2E
:104270008083F70115AA14AA13AA12AAD701DC9603
:104280008C91DC97803941F4DE968C91DE97811118
:1042900003C080E8DC968C93F70184AD80588136AA
:1042A00028F483AD481611F0411003C0C7010E94E5
:1042B000D508D701DA968C91DA97982F917080FF04
:1042C0003CCF282F2E7F09F438CFDC966C91DC97F9
:1042D00020E8260F213608F041C1DB960C914016EC
:1042E00019F091E0411090E08695823009F426C1E2
:1042F000833009F430C1813009F01FCFF70126ADBA
:1043000045AD25C18D3F08F4A3CF8E3F08F0A0CF67
:1043100003CFD701D3969C928E92D297D701D49691
:104320002D913C91D597D2964D915C91D397415068
:10433000510924173507E0F0DC968C93B72DBF7038
:104340007B2E7394F70173AE80A985AF16AEE0544F
:10435000FF4FD182C082D701D5961C921E92D4976E
:10436000D3961C921E92D29781E03197808386CF9C
:104370002F5F3F4FF70135AB24AB83CB77FE12C0E5
:10438000FCEFF71508F459C038EF532E751408F0F8
:1043900058C020EF622E761409F465C027EF72161C
:1043A00009F461C0D7019F962C91F701E80FF91F1E
:1043B000203F19F0273F09F07EC077AEF70162A8D1
:1043C00073A89301215031098217930708F4B2C0F2
:1043D00037A4970121543F4F3E832D8330EF33168E
:1043E00019F047EF341269C0F701E254FF4F7080B3
:1043F00080EF8083D701DC968C93DC9780E8DD9694
:104400008C93DD97DE961C92DE97DB961C9232969B
:10441000B182A08281E0ED81FE818083C7010E948C
:10442000D50887EFD701DF968C93F701E05CFF4F4B
:104430007082F70195AA84AA80CE3EEF731608F425
:10444000B1CFD701DC967C92DC97DD961C92DD978C
:10445000DE961C92DE97DB961C92F701E054FF4F2C
:10446000D182C08281CFF70127AD203F19F0273FCD
:1044700009F052CE9C012F5F3F4F8E0D9F1DDC0136
:10448000DF967C9280EFF70184AF25AF36AF13AE95
:10449000E054FF4F3183208381E031978083D7013F
:1044A000D5961C921E92D497D3961C921E92D297A8
:1044B0009D961C92E3CE77A681CF832D0E94B808EB
:1044C000182FD701DC968C930E94C608882331F1FF
:1044D000832D8F708F5FF70183AFF70180A985AFC0
:1044E00080E0F3E06F16710419F4D701D1968C9136
:1044F000F70186AF15AA14AA13AA12AA81E0AD810A
:10450000BE818C93103B39F068F4103921F0103AD9
:1045100011F0103869F4F70135A6B0CED701DB965B
:104520001C92DBCF103DB9F3103EA9F3103C99F378
:10453000D701BECF019695AB84ABA3CA992309F4EA
:10454000FCCDD701DE962C91DE97DD964C91C7010C
:104550000E94AB08F2CD9111F0CDD0CEE0E1E60F94
:10456000E03108F0EACDF0E0E854FD4D0C948C24E5
:10457000CD221723F922E9229D209D20C8229D20CB
:10458000C8229D20C822C822C8229D20C822C82235
:10459000C7018A960E949D08D0CD3701FFE36F0EB8
:1045A000711CDD960D911C910138110510F000E889
:1045B00010E0060D171D0615170509F4BECDF30111
:1045C00061913F01D7019A968D919C910E942B0891
:1045D000F2CFF70115AD63EF82A593A50E942B08DA
:1045E000612F6F77D7019A968D919C910E942B082D
:1045F000A4CDF70106ADF0E80F9F80011124DD96F0
:104600008C91DD97082B62EF9A968D919C910E9478
:104610002B08602F6F77F70182A593A50E942B08C6
:10462000000F012F001F110B1195602FDACFF7013A
:1046300065ADF0E16F9FB00111246077DE961C91AB
:10464000DE971F70162B61EF9A968D919C910E94B8
:104650002B08612FF70182A593A5C8CF019709F018
:1046600090CD80919D0790919E07A0919F07B0915A
:10467000A007A3019201281B390B4A0B5B0BDA013F
:10468000C901893E9340A105B10508F47ACD42E005
:1046900050E050939A074093990780919707909123
:1046A0009807019709F06DCD10929807109297071F
:1046B0000E94E307609195070E94340B62CD019739
:1046C00091F48091970790919807009789F48091D1
:1046D00095078F708F5F809395070E94E307609125
:1046E00095070E94340B10929A071092990749CDB2
:1046F0000197C9F780919607823020F48F5F0E945E
:10470000780BF1CF80E00E94480BEDCF813091050E
:1047100009F04FCD4091A1075091A2076091A307E6
:104720007091A407441A550A660A770AA9EE4A1638
:10473000A3E05A066104710408F43BCDE2E0F0E026
:10474000F0939C07E0939B0720919707309198077F
:104750002115310559F490939807809397070E948B
:10476000E307609196070E941E0B23CD213031058F
:1047700009F01FCD0E9487111CCD0197A9F48091EB
:104780009707909198070097A1F48091950790E082
:104790000E968F7099278F5F809395070E94E3078D
:1047A000609195070E94340B10929C0710929B0712
:1047B00000CD0197C9F780919607882321F0815099
:1047C0000E94780BF1CF82E00E94480BEDCF61E0B0
:1047D00081E10E94CE0164E170E080E090E00E94FF
:1047E000680360E081E10E94CE0110E000E060E03B
:1047F000C8010E940F240F5F1F4F011524E012070C
:10480000B1F761E081E10E94CE010C948D19F99914
:10481000FECF92BD81BDF89A992780B50895262FC5
:10482000F999FECF1FBA92BD81BD20BD0FB6F89495
:10483000FA9AF99A0FBE01960895052E97FB1EF479
:1048400000940E94342457FD07D00E94472407FC9F
:1048500003D04EF40C943424509540953095219516
:104860003F4F4F4F5F4F089590958095709561959C
:104870007F4F8F4F9F4F08950E946924A59F900DF1
:10488000B49F900DA49F800D911D11240895A1E265
:104890001A2EAA1BBB1BFD010DC0AA1FBB1FEE1FBA
:1048A000FF1FA217B307E407F50720F0A21BB30B05
:1048B000E40BF50B661F771F881F991F1A9469F781
:1048C00060957095809590959B01AC01BD01CF01DD
:1048D0000895A29FB001B39FC001A39F700D811DD9
:1048E0001124911DB29F700D811D1124911D0895F9
:1048F000AA1BBB1B51E107C0AA1FBB1FA617B70706
:1049000010F0A61BB70B881F991F5A95A9F7809521
:104910009095BC01CD010895EE0FFF1F0590F49115
:08492000E02D0994F894FFCF8B
:10492800FFFFFFFF00E100000000000000C18081E0
:1049380000000004050607000080089009A00AB0DE
:104948000BC00CD00DE00E000001000202030304AE
:1049580000050006000700080309030A030B030CFF
:10496800020D020E030F01000000004301B70418F6
:1049780004B0034A051F05F704000000004B066752
:1049880005D90597060A06E805FC0500000000BFE2
:0C49980006C106BC063F0C4D4944490016
:00000001FF
