:100000000C94FC000C9424010C9424010C94240105
:100010000C9424010C9424010C9424010C942401CC
:100020000C9424010C9424010C94F50E0C94730F81
:100030000C9424010C9424010C9424010C942401AC
:100040000C9424010C9424010C9424010C9424019C
:100050000C9424010C9424010C9424010C94AB0EF8
:100060000C9424010C94CB110C94A5110C94240134
:100070000C9424010C9424010C9424010C9424016C
:100080000C9424010C9424010C9424010C9424015C
:100090000C9424010C9424010C9424010C9424014C
:1000A0000C9424010C9424010C9424010F0E0C09CF
:1000B0001F1814100D0B0A021E1915110807040150
:1000C0001D1A1612060503001C1B17130F0E0C0930
:1000D0001F1814100D0B0A021E1915110807040130
:1000E0001D1A1612060503001C1B1713080B00022D
:1000F00002020000090400000102020000052400C1
:100100001001052401010104240206052406000152
:100110000705810310004009040100020A000000E5
:1001200007050202400000070583024000000403A7
:10013000090412010002EF020140501D4F6100014D
:100140000102030141726475696E6F005348494BA7
:10015000204E333242000400010706050401000866
:100160000A0B0C0D0900000000240027002A002DB6
:1001700000300000000000250028002B002E003178
:1001800000000000002300260029002C002F00049E
:10019000040404040304050202020204030202022E
:1001A0000206060606060604040202020404040807
:1001B000020110408040102040804080080204016D
:1001C00080402010020110801020404020000000DC
:1001D0000200090F0000030401000C0000000000F1
:1001E0000000000000000000000000007E306D797B
:1001F000335B5F707F7B261211241FBECFEFDAE0E6
:10020000DEBFCDBF13E0A0E0B1E0EEE5FEE402C04A
:1002100005900D92A438B107D9F727E0A4E8B3E020
:1002200001C01D92A93AB207E1F710E0CCEFD0E08F
:1002300004C02197FE010E949924CB3FD107C9F742
:100240000E945A140C942D270C940000CF93DF9336
:100250001F92CDB7DEB76983DC01ED91FC9102807E
:10026000F381E02D41E050E0BE016F5F7F4F0995C3
:100270000F90DF91CF91089581508F3008F047C0E3
:10028000E82FF0E0EA5BFE4F0C94992463016701CC
:1002900055015B015F018701870187016A017001D8
:1002A000740178017E0187018201809180008F773F
:1002B000809380000895809180008F7DF9CF809198
:1002C0008000877FF5CF84B58F7784BD089584B58E
:1002D0008F7DFBCF809190008F7780939000089561
:1002E000809190008F7DF9CF80919000877FF5CF2E
:1002F0008091C0008F778093C00008958091C000E6
:100300008F7DF9CF8091C200877F8093C2000895CE
:10031000CF93DF93282F30E0F901E353FE4F849110
:10032000F901E255FE4FD491F901E157FE4FC49116
:10033000CC23A1F081110E943C01EC2FF0E0EE0FE4
:10034000FF1FEF57FE4FA591B491EC91ED2381E093
:1003500090E009F480E0DF91CF91089580E090E093
:10036000FACF1F93CF93DF93282F30E0F901E353A7
:10037000FE4F8491F901E255FE4FD491F901E15706
:10038000FE4FC491CC23A9F0162F81110E943C018D
:10039000EC2FF0E0EE0FFF1FED58FE4FA591B4914A
:1003A0008FB7F894EC91111108C0D095DE23DC933F
:1003B0008FBFDF91CF911F910895DE2BF8CFCF93A0
:1003C000DF9390E0FC01E255FE4F249181579E4F50
:1003D000FC0184918823C9F090E0880F991FFC01EB
:1003E000EB59FE4FA591B491FC01ED58FE4FC5911C
:1003F000D49161110DC09FB7F8948C912095822300
:100400008C938881282328839FBFDF91CF91089503
:10041000623051F49FB7F8943C91822F80958323EA
:100420008C93E8812E2BEFCF8FB7F894EC912E2B85
:100430002C938FBFEACF3FB7F8948091AD04909191
:10044000AE04A091AF04B091B00426B5A89B05C03E
:100450002F3F19F00196A11DB11D3FBFBA2FA92F43
:10046000982F8827BC01CD01620F711D811D911D40
:1004700042E0660F771F881F991F4A95D1F70895AC
:100480008F929F92AF92BF92CF92DF92EF92FF92A4
:100490004B015C010E941B026B017C010E941B024C
:1004A0006C197D098E099F09683E7340810591058D
:1004B000A8F321E0821A9108A108B10888EEC80EBD
:1004C00083E0D81EE11CF11C81149104A104B10445
:1004D00029F7FF90EF90DF90CF90BF90AF909F9063
:1004E0008F9008952FB7F8946091A9047091AA0491
:1004F0008091AB049091AC042FBF08958093E900E4
:100500008091F200882319F08AE38093E80008952F
:1005100083E00C947E0240919203509193032091CA
:1005200090033091910342175307B4F49091E8007F
:100530009570E1F39091E80092FD19C08093F1006D
:10054000809192039091930301968F739927892B41
:1005500019F48EEF8093E8008091920390919303B9
:100560000196909393038093920381E0089580E035
:100570000895EF92FF920F931F93CF93DF93F82E7E
:10058000192FE62E042F81E0860F880F0E948B0220
:1005900083E00E948B02CF2DD12FEC0EFD2EF11C9B
:1005A000CE15DF05B9F007FF13C0FE0184910E944C
:1005B0008B02182F80E00E948B02812321968111EB
:1005C000EFCFDF91CF911F910F91FF90EF900895A2
:1005D0008881EDCF81E0F5CFDF92EF92FF920F930C
:1005E0001F93CF93DF93D82E8A01EB017B01E40E9A
:1005F000F51ECE15DF0559F0D7FE12C0FE0184911D
:100600000E948B0221968111F4CF0FEF1FEFC801DA
:10061000DF91CF911F910F91FF90EF90DF900895A0
:100620008881EECF2FB7F89487708093E90090917E
:10063000E800892F807295FF04C09091F20080E459
:10064000891B2FBF089583E00E94120390E0089554
:100650007F928F929F92AF92BF92CF92DF92EF9252
:10066000FF920F931F93CF93DF93C82E8B017A01D4
:1006700080919903811110C08FEF9FEFDF91CF918F
:100680001F910F91FF90EF90DF90CF90BF90AF90B0
:100690009F908F907F9008958091970380FF05C071
:1006A0008091E00082608093E000CE2DDF2DD12C80
:1006B0008AEFB82E8C2D8770982E8C2D8072882E04
:1006C0008C2D8074782E9AE3A92E209719F4DD20C2
:1006D00009F452C08C2D0E94120381110AC0BA94F1
:1006E000BB2051F261E070E080E090E00E944002A7
:1006F000ECCF8C171D0611F00CF08C2F9FB7F894DF
:100700009092E9002091E80025FD02C09FBFDDCF57
:10071000282F30E0C21BD30B882029F08150A0F095
:100720001092F100FBCFF801C7FC0AC0815050F0D5
:1007300041914093F100FACF44914093F1003196FA
:100740008150D0F7020F131FDD2021F0A092E800A6
:10075000D12CDCCF8091E80085FD07C0A092E80095
:10076000DD24D394209791F2F3CF209779F6772068
:1007700069F2A092E800CACF5D9884E68093960360
:10078000C7017CCFCF93DF93EC01809110038823C6
:1007900031F083E00E9428031816190634F081E036
:1007A00090E09B838A8380E090E0DF91CF91089571
:1007B00090919903992319F13FB7F894877080932A
:1007C000E9008091F20090E0481759070CF4CA0143
:1007D000282FFB0154E6215038F0289850939503B8
:1007E0004091F1004193F7CF009739F02091F2004A
:1007F000211103C02BE62093E8003FBF08958FEF3F
:100800009FEF08950F931F93CF93DF931F92CDB760
:10081000DEB78C01FC018485958597FF0FC041E010
:1008200050E0BE016F5F7F4F82E00E94D8030197C6
:1008300071F4898190E0F80195878487F8018485B7
:1008400095850F90DF91CF911F910F9108958FEFB4
:100850009FEFF1CFCF93DF931F92CDB7DEB7FC01AF
:100860008485958597FD08C02FEF3FEF3587248756
:100870000F90DF91CF91089541E050E0BE016F5F8E
:100880007F4F82E00E94D803019719F4898190E09C
:10089000EFCF8FEF9FEFECCF9FB7F89487708093E7
:1008A000E9008091F2009FBF0895FC018485958541
:1008B00097FD06C082E00E944C0490E001960895E6
:1008C00082E00E944C0490E00895615030F0209145
:1008D000F100FC0120830196F8CF289884E68093EC
:1008E00095030895AF92BF92CF92DF92EF92FF925D
:1008F0000F931F93CF93DF936C017B018B01040F48
:10090000151FEB015E01AE18BF08C017D10759F0E3
:100910006991D601ED91FC910190F081E02DC60125
:100920000995892B79F7C501DF91CF911F910F911F
:10093000FF90EF90DF90CF90BF90AF90089580919F
:10094000880381110DC082E08093840384E080934A
:100950008503109287031092860381E080938803B9
:1009600084E893E008950F931F93CF93DF931F9232
:10097000CDB7DEB782E0898342E450E06CEE70E0F0
:1009800080E80E94EC020E949F04DC0112960D9107
:100990001C910115110589F0D801ED91FC9102809F
:1009A000F381E02DBE016F5F7F4FC801099597FD70
:1009B00004C0F80100851185ECCF89810F90DF918B
:1009C000CF911F910F910895FC01538D448D252FD8
:1009D00030E0842F90E0821B930B541710F0CF96D9
:1009E000089501970895FC01918D828D981761F00B
:1009F000A28DAE0FBF2FB11D5D968C91928D9F5F22
:100A00009F73928F90E008958FEF9FEF0895FC0100
:100A1000918D828D981731F0828DE80FF11D858DB3
:100A200090E008958FEF9FEF0895FC01918D228D46
:100A3000892F90E0805C9F4F821B91098F739927CB
:100A4000089580E296E00E94150521E0892B09F4C3
:100A500020E0822F089580E090E0892B29F00E9409
:100A6000210581110C9400000895FC01A48DA80FAC
:100A7000B92FB11DA35ABF4F2C91848D90E00196E0
:100A80008F739927848FA689B7892C93A089B18900
:100A90008C9182748C93938D848D981306C00288F8
:100AA000F389E02D80818F7D80830895EF92FF92FE
:100AB0000F931F93CF93DF93EC0181E0888F9B8D81
:100AC0008C8D981319C0E889F989808185FF14C03D
:100AD0009FB7F894EE89FF896083E889F98980815E
:100AE000827480839FBF81E090E0DF91CF911F915E
:100AF0000F91FF90EF900895F62E0B8D10E00F5F91
:100B00001F4F0F731127E02E8C8D8E110CC00FB666
:100B100007FCFACFE889F989808185FFF5CFCE01FE
:100B20000E943505F1CFEB8DEC0FFD2FF11DE35A3F
:100B3000FF4FF0829FB7F8940B8FEA89FB89808181
:100B40008062CFCFCF93DF93EC01888D8823B9F0FB
:100B5000AA89BB89E889F9898C9185FD03C08081C8
:100B600086FD0DC00FB607FCF7CF8C9185FFF2CF45
:100B7000808185FFEDCFCE010E943505E9CFDF9161
:100B8000CF91089590E080E0089580E008950F935C
:100B90001F93CF93DF93CDB7DEB7C456D1090FB6FD
:100BA000F894DEBF0FBECDBFFC01DB019C919E5FC0
:100BB0009C939E01295F3F4F8AE5D9011D928A953A
:100BC000E9F788E089838BE08A8322E02C8391E037
:100BD0009D839E8339E0398764E06A879E879F877B
:100BE0003A8B44E24B8B9C8BA0E0B1E0BE8BAD8B8B
:100BF00009E010E0188F0F8B998F3B8F6C8F2F8F30
:100C000098A353E059A387E08CA34DA39EA3B8A754
:100C1000AFA3A1E4B0E0BAA7A9A786E08BA74CA731
:100C20002DA79EA79FA789AB4AAB2BAB2CAB2DABB7
:100C30003FAB48AF59AF9AAF5BAF9CAF2DAF9EAF04
:100C400021963FAF219722964FAF229723965FAF11
:100C5000239724962FAF249725966FAF2597269636
:100C60009FAF269727969FAF279728969FAF2897E5
:100C70002A963FAF2A9745E02B964FAF2B972D969C
:100C80002FAF2D9760E470E02F967FAF6EAF2F9758
:100C900063964FAF639785E264968FAF64976596CE
:100CA0009FAF659766969FAF669767969FAF67976A
:100CB00068963FAF689769964FAF69976B962FAF6D
:100CC0006B976D967FAF6EAF6D97A1964FAFA19763
:100CD000A2968FAFA297A3969FAFA397A4969FAF1C
:100CE000A497A5965FAFA59792819B839B879F5FF3
:100CF0009A8F9D8F83812C968FAF2C978F5F806802
:100D00006A968FAF6A9744E650E0BE016F5F7F4FEF
:100D100080E00E94EC02CC59DF4F0FB6F894DEBFA2
:100D20000FBECDBFDF91CF911F910F9108950F930B
:100D30001F93CF93DF93EC0188810E9488019B8BE6
:100D40008A8B288939898217930751F00E94720291
:100D50006C8B7D8B8E8B9F8B8A899B89998B888BE3
:100D60000E9472020C891D892E893F89601B710BBC
:100D7000820B930B0A811B812C813D8160177107C7
:100D80008207930740F08E859F859D878C878A898F
:100D90009B899F878E872C853D858E859F8528170B
:100DA000390781F04A855B854230510581F48E8197
:100DB0009F81A885B9850196A11DB11D8E839F8352
:100DC000A887B987DF91CF911F910F9108954115A1
:100DD000510531F421303105A9F7892B41F3F2CFC8
:100DE0004130510579F7232B69F7019759F7DFCF88
:100DF00087FF0AC09CE0980F923030F08D3F21F0C1
:100E0000803F18F4807F089580E00895982F9F7E9A
:100E1000282F2F7C203839F0803E29F081E0903C4B
:100E200019F080E0089581E00895CF93DF93EC01FD
:100E3000E881F981309711F0CB9609958CAD823F0E
:100E400009F49EC090F5803C09F486C090F4803986
:100E500009F454C030F4803809F445C0DF91CF91D3
:100E60000895803A09F475C0803BC1F7EA85FB8597
:100E70003CC0803E09F459C058F4803D79F7EE85B6
:100E8000FF85309759F36DAD8BADDF91CF9109940C
:100E9000803F09F464C0813F09F7EC89FD893097F0
:100EA000E9F28DADDF91CF9109948A3F91F180F401
:100EB000863F09F477C028F4833F81F6E88DF98DE9
:100EC000EECF883FF1F0893F49F6E8A1F9A11BC0B8
:100ED0008C3F29F108F18E3F29F18F3F09F0BECFF9
:100EE000E8A5F9A510C0EC81FD81309709F4B6CFD3
:100EF0004EAD6DAD8BADDF91CF910994EE81FF8149
:100F0000F4CFEC8DFD8D309709F4A8CFDF91CF9110
:100F10000994EE8DFF8DF7CFEAA1FBA1F4CFECA1F0
:100F2000FDA1F1CFEEA1FFA1EECFE889F9893097BD
:100F300009F494CF6EAD20E8629FB001112460786F
:100F40007F738DAD8F77682B70528BADDF91CF9112
:100F50000994E885F985C9CFEC85FD8592CFEA89AA
:100F6000FB89309709F47ACF6DAD7EAD613871059C
:100F700010F060E870E0CE01CF96DF91CF91099438
:100F8000EE89FF89309709F469CF8EAD20E8829F02
:100F9000C001112480789F732DAD2F77822BDF91B4
:100FA000CF910994EA8DFB8DAECFDC018D919C91A0
:100FB000DC01ED91FC910190F081E02D09940F93FB
:100FC0001F93CF93DF93FC01EC57FF4F2081222327
:100FD00009F450C0EC01688161506F708981682B01
:100FE00080917A0590917B050E94D5078981803F89
:100FF000F9F08E010B571F4FF80180819181029704
:1010000038F06A8180917A0590917B050E94D5071E
:10101000F80180819181039768F16B8180917A0555
:1010200090917B05DF91CF911F910F910C94D50783
:1010300060EF80917A0590917B050E94D5078E0123
:10104000A8014C1B5D0B80917A0590917B050F5F89
:101050001F4F2A813B812138310510F020E830E014
:101060004217530728F4F80163810E94D507E8CF9F
:1010700067EFD8CFDF91CF911F910F9108951F9304
:10108000CF93DF932150203118F587FF21C0D42F53
:10109000162FC82F622F682B80917A0590917B05BF
:1010A0000E94D507612F6F7780917A0590917B051B
:1010B0000E94D507CF7EC03C59F06D2F6F7780918D
:1010C0007A0590917B05DF91CF911F910C94D50704
:1010D000DF91CF911F910895242F462F682F80EB29
:1010E0000C943F086D3F48F46A3F10F4683F39F4B0
:1010F000FC01808191810C94D5076E3FC8F708955B
:10110000813E10F40C943F08883F28F0682F8AE74E
:1011100095E00C94720808950F931F93CF93DF937B
:1011200000D000D0CDB7DEB7FC012089918982893B
:10113000378539832A839B838C8302E015E0F8018D
:10114000838144E050E0BE016F5F7F4F8F5F0E945C
:101150002803F80183818F5F0E947E020F900F9019
:101160000F900F90DF91CF911F910F9108950F93E2
:101170001F93CF93DF9300D000D0CDB7DEB78C01A3
:10118000262FFC01848195813681303FD9F000976C
:1011900011F4208B04C08130910581F4618BF8013A
:1011A000848195810196958384830F900F900F9091
:1011B0000F90DF91CF911F910F910895029779F7CA
:1011C000628BEDCF603F49F48389F0E18F9FC001CE
:1011D00011248460F8018787DCCF63E070E00E940F
:1011E0008524AC01273F39F493899295907F85E05F
:1011F000840F982B9787F8014115510521F4208B16
:10120000128A118ACCCF4130510519F4218B128AF0
:10121000C6CF228B273F19F2908981893785398380
:101220009A838B832C838091050544E050E0BE01B6
:101230006F5F7F4F8F5F0E942803809105058F5F4E
:101240000E947E02ACCFDC0116966C9316975396E3
:101250008C91539720E1829FC0011124603FE8F4F4
:10126000E62FE295EF70E750FF0BEE0FFF1FE25EF7
:10127000FC4F9181892B1F968C931F9752961C923D
:10128000529751961C92519750961C9250971596D2
:101290001C921E92149781E008958460ECCF0F9306
:1012A0001F93CF93DF93DFEFD20FD03198F587FFF5
:1012B00031C0142F062FC82F682F8091E906909116
:1012C000EA060E942309882329F16D2F6C2B809157
:1012D000E9069091EA060E94B708602F6F77809127
:1012E000E9069091EA060E94B708CF7EC03C41F023
:1012F000612F6F778091E9069091EA060E94B70806
:101300008091E9069091EA06DF91CF911F910F91AC
:101310000C948C08DF91CF911F910F910895242F89
:10132000462F682F80EB0C944F09BF92CF92DF922B
:10133000EF92FF920F931F93CF93DF938C016B017A
:10134000B42EE52EF22E60EFFC01808191810E9487
:101350002309882351F181E0F82631F060EFF8018C
:10136000808191810E94B708CB2DDE2DCC0EDD1E31
:10137000F80180819181CC15DD0521F069910E94F1
:10138000B708F6CFFF2019F067EF0E94B708F80101
:1013900080819181DF91CF911F910F91FF90EF900C
:1013A000DF90CF90BF900C948C08DF91CF911F916C
:1013B0000F91FF90EF90DF90CF90BF9008950F9323
:1013C0001F93CF936D3FD8F46A3F10F4683FC9F480
:1013D000C62F8C01FC01808191810E942309882302
:1013E00081F06C2FF801808191810E94B708F8018B
:1013F00080819181CF911F910F910C948C086E3F49
:1014000038F7CF911F910F910895813E10F40C94FD
:101410004F09883F28F0682F89EE96E00C94DF0989
:1014200008950F931F93CF93DF93082F162FD42F78
:10143000C8E06D2F661F6627661F802F0E94B101CE
:10144000DD0F61E0812F0E94B10160E0812F0E94D9
:10145000B101C15071F7DF91CF911F910F910895A4
:101460000F931F93CF93DF9300D0CDB7DEB78C01DE
:1014700069834A8360E0FC0182810E94B101498155
:10148000F801648180810E94110A4A81F801648117
:1014900080810E94110A61E0F80182810F900F9013
:1014A000DF91CF911F910F910C94B1010F931F9376
:1014B000CF93DF938C01C1E0D0E0F8018681978162
:1014C0008C179D073CF040E06C2FC8010E94300A49
:1014D0002196F3CFDF91CF911F910F910895CF9374
:1014E000C82F8EE395E00E94560A40E86C2F8EE3E9
:1014F00095E00E94300A0E94720260934605709344
:1015000047058093480590934905CF910895CF935F
:10151000DF93EC0189818E3FE1F0909104029230DB
:1015200041F0953081F0913049F4CE010E94DF07FF
:1015300005C028814B816A810E94050A82E0DF9103
:10154000CF910C946F0A28814B816A810E94050A11
:10155000ECCFDF91CF910895CF93DF93EC01898198
:101560008E3FD9F090910402943099F0953061F05B
:10157000933029F428814B816A810E94050A82E018
:10158000DF91CF910C946F0A28814B816A810E9470
:10159000050ACE010E94DF07F2CFDF91CF910895B7
:1015A000AF92BF92CF92DF92EF92FF920F931F9371
:1015B000CF93DF93CDB7DEB7A2970FB6F894DEBF17
:1015C0000FBECDBF2AE0AE014F5F5F4F5A010E94B0
:1015D0008E22F50101900020E9F731978F010A1959
:1015E0001B09B8016F5F7F4F90E080E00E9460268A
:1015F0007C01009761F1FC011082B5010E94262751
:10160000D12CC12CC016D10629F1F701EC0DFD1D1E
:10161000E114F10421F41092B104E1EBF4E08081D3
:1016200089831A824AE050E070E060E0C5010E94C0
:101630006E21FB01E451FE4F4491602F6C198EE343
:1016400095E00E94300AFFEFCF1ADF0ADBCF10E0EF
:1016500000E0D6CFE114F10499F0C701A2960FB6CD
:10166000F894DEBF0FBECDBFDF91CF911F910F91D8
:10167000FF90EF90DF90CF90BF90AF900C94D72564
:10168000A2960FB6F894DEBF0FBECDBFDF91CF910B
:101690001F910F91FF90EF90DF90CF90BF90AF9090
:1016A0000895CF93C82F8EE395E00E94560A6C2FC1
:1016B00070E090E080E00E94D00A0E947202609385
:1016C0004605709347058093480590934905CF914F
:1016D0000895CF93C82F8EE395E00E94560A6C2F91
:1016E00070E06F5F7F4F072E000C880B990B0E94F4
:1016F000D00A47E662E08EE395E00E94300A0E943D
:101700007202609346057093470580934805909355
:101710004905CF910895CF92DF92EF92FF921F93E8
:10172000CF93DF93182F82E091E0189F6001199FFB
:10173000D00C112484E0E82E81E0F82EC1E0D0E046
:10174000C6018C0F9D1F0E94CD23F70181937F015D
:101750002196C330F1E0DF0799F710930703812F3B
:10176000DF91CF911F91FF90EF90DF90CF900C947D
:10177000690B833010F40C948B0B0895862F633023
:1017800010F40C94B90B08950F931F93CF93C82FA7
:10179000882349F11092A7040E9472020091A204CA
:1017A0001091A3042091A4043091A504601B710B37
:1017B000820B930B6F3F710581059105C8F58091F0
:1017C00008038823E9F080910703CC2399F0823045
:1017D00068F48F5F0E94B90B80910703CF911F912E
:1017E0000F910C94690B1092A604D6CF80E00E9452
:1017F0008B0BF2CF882311F08150ECCF82E0F7CF32
:1018000080910603CC2371F0803150F48F5F809378
:10181000060380910603CF911F910F910C94510BF9
:1018200081E0F5CF823010F08150F1CF80E1EFCF31
:10183000CF911F910F910895FF920F931F93CF9314
:10184000DF93EC01F62E08811981C8010E94CD2397
:10185000F81621F06F2DC8010E94D523CE01DF912B
:10186000CF911F910F91FF900895EF92FF920F93E8
:101870001F93CF93DF93CDB7DEB761970FB6F89480
:10188000DEBF0FBECDBFDC016430710508F48AC035
:1018900011968C911197803209F084C01296EC91C8
:1018A0001297E150E93008F07DC0F0E0E65AF34FBE
:1018B0000C949924630CE90C450D540D750D4A0DDB
:1018C000D20CDF0CE40C14968C9114971396EC91C7
:1018D000139728E0E29FF0011124EC5FFE4F808314
:1018E00015968C9115971396EC91139738E0E39F1A
:1018F000F0011124EC5FFE4F818319968C911997AA
:101900001396EC91139798E0E99FF0011124EC5F96
:10191000FE4F82831A968C911A971396EC91139727
:1019200028E0E29FF0011124EC5FFE4F84831B96B8
:101930008C911B971396EC91139738E0E39FF0017D
:101940001124EC5FFE4F83831C968C911C97139699
:10195000EC91139798E0E99FF0011124EC5FFE4FA2
:1019600085831396EC91139728E0E29FF0011124F0
:10197000EC5FFE4F16968C91169790E1899F90012F
:10198000112417968C911797822B868318968C9129
:1019900018971396EC9128E0E29FF0011124EC5F78
:1019A000FE4F878361960FB6F894DEBF0FBECDBFA2
:1019B000DF91CF911F910F91FF90EF9008951396B3
:1019C0008C9180930402EECF13968C918093050244
:1019D000E9CF13962C91233028F742E051E0249F61
:1019E000C001259F900D112404E011E0FC01E4509A
:1019F000F1407F01F80161918F01C7018E0F9F1F98
:101A00009A838983CE0101960E941C0CF2E0063075
:101A10001F0781F78EE395E00E94560A4BE562E0CE
:101A20008EE395E00E94300A4CE161E08EE395E0A0
:101A30000E94300A6CE271E080E090E00E94400277
:101A40004CE961E08EE395E00E94300A6CE271E0BF
:101A500080E090E00E9440024CE161E08EE395E07E
:101A60000E94300A6CE271E080E090E00E94400247
:101A70004CE961E08EE395E00E94300A6CE271E08F
:101A800080E090E00E9440028DCF13968C910E94DE
:101A9000B90B88CF13968C919FEF980F903108F077
:101AA00081CF809306037ECF1B821C821D8280E241
:101AB000898384E08A838DEF93E00E94CD238D8318
:101AC0008EEF93E00E94CD238C838FEF93E00E94F2
:101AD000CD238B8320E0AE014F5F5F4F65E070E068
:101AE00089EE96E00E9495095DCF0CEC10E020E2B3
:101AF000F22E35E0E32EF801A591B491BB2783E0E7
:101B0000AA0FBB1F8A95E1F7AC5FBE4F16968C916A
:101B10001697F982EA82F801259134912B839C91E2
:101B20009C8311969C9111979D83282F30E094E01F
:101B3000359527959A95E1F72E838F708F831796A9
:101B40008C911797888712968C9112978987149693
:101B50008C9114978A8713968C9113978B8715967F
:101B60008C918C8720E0AE014F5F5F4F6CE070E09E
:101B700089EE96E00E9495090F5F1F4F20E00C3E12
:101B8000120709F0B8CFFD8688E08E8780910402A5
:101B90008F8720E0AE01435F5F4F63E070E089EE26
:101BA00096E00E949509F98289E08A838091050276
:101BB0008B8320E0AE014F5F5F4F63E070E089EE02
:101BC00096E00E949509F88A83E6898B20E0AE01B1
:101BD000405F5F4F62E070E083CF8F929F92AF9241
:101BE000BF92DF92EF92FF920F931F93CF93DF93F9
:101BF000CDB7DEB7C450D1400FB6F894DEBF0FBEEC
:101C0000CDBF1A82198260E08E010F5F1F4FC8019D
:101C10000E941C0C4CEA50E020E03FE760E1FA0132
:101C200085919491FC01FF2793E0EE0FFF1F9A9599
:101C3000E1F7E00FF11F208380E2820F818312829F
:101C4000138234833583168267832F5F4F5F5F4F24
:101C5000203229F781E0CF5FDE4F8883C150D14029
:101C600082E0CE5FDE4F8883C250D140AA24BB24DD
:101C7000A01AB10A83E0D82E48018EEF881A980A7C
:101C80007801F70161917F01CF018A0D9B1DCD5F26
:101C9000DE4F99838883C350D140CE018D5F9E4F24
:101CA0000E941C0C8E149F0461F7DA94FEEFAF1AA9
:101CB000BF0AD110E5CFE8E5F1E0659174918DEFB1
:101CC00093E0CD5FDE4F99838883C350D140CE012E
:101CD0008D5F9E4F0E941C0CE7E5F1E065917491C9
:101CE0008EEF93E0CD5FDE4F99838883C350D14060
:101CF000CE018D5F9E4F0E941C0CE6E5F1E06591E0
:101D000074918FEF93E0CD5FDE4F99838883C3504A
:101D1000D140CE018D5F9E4F0E941C0CCC5FDE4FE8
:101D20000FB6F894DEBF0FBECDBFDF91CF911F91EC
:101D30000F91FF90EF90DF90BF90AF909F908F90AA
:101D4000089584E0EEE7F3E0DB0101900D928A95BF
:101D5000E1F784E008951F920F920FB60F921124BD
:101D60002F933F938F939F93AF93BF938091A90439
:101D70009091AA04A091AB04B091AC043091A80456
:101D800023E0230F2D3758F50196A11DB11D209397
:101D9000A8048093A9049093AA04A093AB04B093E1
:101DA000AC048091AD049091AE04A091AF04B091C9
:101DB000B0040196A11DB11D8093AD049093AE04B3
:101DC000A093AF04B093B004BF91AF919F918F9156
:101DD0003F912F910F900FBE0F901F90189526E8FE
:101DE000230F0296A11DB11DD2CF1F920F920FB6E5
:101DF0000F9211242F933F934F935F936F937F9391
:101E00008F939F93AF93BF93CF93EF93FF93C09123
:101E1000E1008091E100837F8093E100C3FF0FC068
:101E20001092E90081E08093EB001092EC0082E3D5
:101E30008093ED001092990388E08093F000C2FF38
:101E40001BC083E00E947E0280919603882341F0AC
:101E500080919603815080939603811101C05D9A11
:101E600080919503882341F0809195038150809360
:101E70009503811101C0289AC4FF23C08091E2001C
:101E80008E7E81608093E2008091E1008F7E80935E
:101E9000E100809197038E7E806180939703FF918C
:101EA000EF91CF91BF91AF919F918F917F916F9162
:101EB0005F914F913F912F910F900FBE0F901F9008
:101EC0001895C0FFECCF8091E2008E7E80618093F8
:101ED000E2008091E1008E7E8093E1008091970383
:101EE0008E7E8160DACF1F920F920FB60F9211246F
:101EF000CF92DF92EF92FF920F931F932F933F9316
:101F00004F935F936F937F938F939F93AF93BF9301
:101F1000EF93FF93CF93DF93CDB7DEB76C97DEBF20
:101F2000CDBF1092E9008091E80083FF25C068E0F2
:101F3000CE0145960E94650482EF8093E8008D896A
:101F400087FF39C09091E80090FFFCCF982F9076E2
:101F500009F034C19E894F89588D2F89F88C9111D1
:101F600031C0803861F5809198038093F100109220
:101F7000F1008EEF8093E8006C960FB6F894DEBF08
:101F80000FBECDBFDF91CF91FF91EF91BF91AF9188
:101F90009F918F917F916F915F914F913F912F9181
:101FA0001F910F91FF90EF90DF90CF900F900FBE99
:101FB0000F901F9018959EEF9093E800C7CF109256
:101FC000F100D5CF913059F48111D3CF4130510573
:101FD00081F6809198038D7F80939803CACF9330C8
:101FE00049F48111C6CF4130510519F6809198030B
:101FF0008260F2CF953041F48091E80080FFFCCF01
:1020000020682093E300B5CF963009F0A9C00B8D6E
:102010001C8D22E01092E90010929303109292031B
:10202000F2122EC010929103109290030E94B304FA
:102030001F8299E09983FA8291E09E8390EA9887C3
:102040009AEF99872091920330919303275F3F4F36
:102050003C832B838D831092E9001092930310929E
:102060009203109391030093900349E050E0BE0166
:102070006F5F7F4F80E00E94EC020E94B30479CF33
:1020800010939103009390030E949F04DC01129629
:102090000D911C910115110509F451C1D801ED9163
:1020A000FC910480F581E02DBE016B5E7F4FC8017D
:1020B0000995009709F03EC1F80100851185EACF26
:1020C000F3E0FF120EC08F89882309F440C08230EC
:1020D00061F440E869E08CE491E00E94B90281116A
:1020E00048CF81E28093EB0047CF813029F440E86C
:1020F00067E084E491E0F1CF833099F70E949F0478
:10210000DC011296ED90FC908E010F5F1F4F68016D
:10211000E114F10479F0D701ED91FC910680F7818B
:10212000E02DB801C7010995080F111DF701E084E2
:10213000F184EECFD8011C92F60101900020E9F75E
:102140003197BF016C197D0940E0C601C6CF6EE230
:1021500071E0FB01449150E080E80E94EC0209CF5D
:10216000973009F4BECF983021F481E08093F100DC
:1021700000CF993009F0FDCE837009F0B2CFE2E1D3
:10218000F3E081E031E096E32191222371F0809326
:10219000E9003093EB00DF0111972C912093EC00C4
:1021A0009093ED008F5F873079F78EE78093EA0098
:1021B0001092EA008F8980939903DBCE8B8D9C8DE2
:1021C0001092E9001092930310929203909391035E
:1021D00080939003898D811192C08E899D89913A57
:1021E00049F4813209F07DCF47E050E069E073E0C7
:1021F00080E0B3CF913209F074CF833269F48F89D4
:10220000988DB0E0A0E08093000190930101A0932D
:102210000201B0930301ADCE803269F48091E800F1
:1022200082FFFCCF67E089E093E00E9465048BEFBA
:102230008093E8009ECE823209F09BCE8F898093F6
:102240001003EEEFFFE7859194918B3F9C4D51F188
:10225000E0E0F8E08091090390910A03A0910B035C
:10226000B0910C03803B9440A105B105F1F480913D
:10227000100380FD1AC0EE3F8AE0F80789F587E772
:1022800097E791838083809160008093940388E135
:102290009BE00FB6F894A895809360000FBE9093D2
:1022A000600067CEEEEFFAE0D5CF8081918187376D
:1022B000974709F05ECEA895809160008861809371
:1022C00060008091940380936000EE3F2AE0F20763
:1022D00089F08091FE0A9091FF0A9183808349CE14
:1022E000808191818737980751F29093FF0A8093FC
:1022F000FE0AC5CF1092FF0A1092FE0A3ACE0E9443
:102300009F04DC0112960D911C910115110509F431
:10231000E8CED801ED91FC910190F081E02DBE0155
:102320006B5E7F4FC8010995811123CEF8010085AE
:102330001185EBCF181619060CF41BCED2CEF1E0A6
:10234000FF12BECE62E371E004CF1F920F920FB670
:102350000F9211242F933F934F935F936F937F932B
:102360008F939F93AF93BF93EF93FF9380E296E099
:102370000E943505FF91EF91BF91AF919F918F9191
:102380007F916F915F914F913F912F910F900FBE71
:102390000F901F9018951F920F920FB60F92112455
:1023A0002F938F939F93EF93FF93E0913006F091DB
:1023B00031068081E0913606F091370682FD1BC020
:1023C0009081809139068F5F8F7320913A06821732
:1023D00041F0E0913906F0E0E05EF94F958F80938F
:1023E0003906FF91EF919F918F912F910F900FBE22
:1023F0000F901F9018958081F4CFCF93DF93EC015D
:10240000862F688379831A821B821C821D821E821A
:102410001F82188619861B861A8662E00E94DF01D9
:1024200088810E9488019D878C8788810E9488010D
:102430009F878E8788810E948801998B888B1C8A50
:102440001D8A1E8A1F8ADF91CF910895CF93DF9353
:102450001092B5041092B40488EE93E0A0E0B0E0CE
:102460008093B6049093B704A093B804B093B904D2
:1024700022E533E03093B3042093B2042FEF3FEF13
:102480003093BF042093BE041092230610922206BC
:102490008093240690932506A0932606B0932706E2
:1024A00084E693E090932106809320068DEC90E0E3
:1024B00090932D0680932C068CEC90E090932F0641
:1024C00080932E0688EC90E090933106809330063E
:1024D00089EC90E090933306809332068AEC90E08A
:1024E00090933506809334068EEC90E090933706F7
:1024F000809336061092390610923A0610923B06E7
:1025000010923C0682E080930605809307058CE0DC
:1025100095E0909309058093080510920B051092A1
:102520000A0586E793E0909303058093020580E80F
:1025300080930C0581E880930D050E949F04FC01A7
:10254000818190910605482F490F5527551F483026
:1025500051059CF5A281B381109709F522E035E081
:102560003383228320812093040580930505809185
:102570000705820F808320910805A22FB0910905DD
:102580008A2F821B8917C8F481813D91C82FD0E022
:10259000CF5EDC4F38838F5F8183F2CFD9011896ED
:1025A0002D913C91199721153105C1F722E035E0B5
:1025B00019963C932E931897D5CF1092A20710929C
:1025C000C0061092BF061092C2061092C106109269
:1025D000C4061092C3061092C6061092C506109249
:1025E000C8061092C7061092CA061092C906109229
:1025F000CC061092CB061092CE061092CD06109209
:10260000D0061092CF061092D2061092D1061092E8
:10261000D4061092D3061092D6061092D5061092C8
:10262000D8061092D7061092DA061092D9061092A8
:10263000DC061092DB061092DE061092DD06109288
:10264000E0061092DF061092E2061092E106109268
:10265000E4061092E3061092E6061092E506109248
:10266000E8061092E7068FE897E09093EA068093D9
:10267000E9061092EB061092EC061092ED0610920D
:10268000F2061092F1061092F4061092F3068FEF04
:102690009FEF9093F6068093F5069093F80680934B
:1026A000F70623E02093F9061092FA061092FB0633
:1026B0001092FC061092FD0610927E0720E8EEEFC5
:1026C000F6E0DF01322F1D923A95E9F7109281076B
:1026D0001092820710928307109284071092850748
:1026E0001092860710928707109288071092890728
:1026F00010928A0710928B0710928C0710928D0708
:1027000010928E0740E256E05093BE064093BD06FD
:1027100010925105109250051092530510925205D7
:1027200010925505109254051092570510925605B7
:10273000109259051092580510925B0510925A0597
:1027400010925D0510925C0510925F0510925E0577
:102750001092610510926005109263051092620557
:102760001092650510926405109267051092660537
:10277000109269051092680510926B0510926A0517
:1027800010926D0510926C0510926F0510926E05F7
:1027900010927105109270051092730510927205D7
:1027A00010927505109274051092770510927605B7
:1027B00010927905109278054DEB56E050937B0509
:1027C00040937A0510927C0510927D0510927E054B
:1027D000109283051092820510928505109284054F
:1027E000909387058093860590938905809388054B
:1027F00083E080938A0510928B0510928C051092CD
:102800008D0510928E0510920F06EFE8F5E0DF01BE
:102810001D922A95E9F71092120610921306109253
:1028200014061092150610921606109217061092B2
:1028300018061092190610921A0610921B06109292
:102840001C0610921D0610921E0610921F0680E1B3
:1028500090E090933F0580933E058AE090E090934E
:102860004105809340058FE090E09093430580936D
:10287000420561E080E10E94DF0161E08091400556
:102880000E94DF0161E0809142050E94DF0161E06A
:10289000809140050E94B10165E170E086E295E01B
:1028A0000E94FD1164E170E08EE095E0DF91CF9130
:1028B0000C94FD11CF93DF93CDB7DEB72F970FB6F2
:1028C000F894DEBF0FBECDBF789484B5826084BD1E
:1028D00084B5816084BD85B5826085BD85B5816024
:1028E00085BD80916E00816080936E0010928100A2
:1028F000809181008260809381008091810081605D
:10290000809381008091800081608093800080911D
:10291000910082608093910080919100816080930A
:102920009100809190008160809390008091C1001F
:1029300084608093C1008091C10082608093C10057
:102940008091C10081608093C1008091C30081604B
:102950008093C3008091C00082608093C00080910A
:10296000C20081608093C20080917A00846080936D
:102970007A0080917A00826080937A0080917A0058
:10298000816080937A0080917A00806880937A00D9
:102990001092990310929803109297038091D70098
:1029A00081608093D70080EA8093D80089B58061E8
:1029B00089BD89B5826089BD09B400FEFDCF61E0A3
:1029C00070E080E090E00E9440028091D8008F7C0F
:1029D00080618093D8008091E000807F8093E00048
:1029E0008091E1008E7E8093E1008DE08093E20093
:1029F000559A209A40E06AE08EE395E00E94300A02
:102A000082E090E0909345058093440540E06FE0BC
:102A10008EE395E00E94300A41E06BE08EE395E0A2
:102A20000E94300A40E069E08EE395E00E94300A9F
:102A30008EE395E00E94560A41E06CE08EE395E05B
:102A40000E94300A82E080934A0583E080934B0520
:102A500084E080934C0585E080934D050AE415E001
:102A600061E0D8018D918D010E94DF01B5E00E3447
:102A70001B07B1F76AE070E080E090E00E9440023E
:102A800088E080934E0560E00E94DF0189E080933A
:102A90004F0560E00E94DF0161E081E00E94DF01FC
:102AA00061E081E00E94B10161E081E10E94DF010B
:102AB00062E085E10E94DF0162E084E10E94DF01C3
:102AC00060E088E00E94DF0160E089E00E94DF01B1
:102AD00082E390E0A0E0B0E0809328059093290580
:102AE000A0932A05B0932B058093100590931105B0
:102AF000A0931205B093130585E10E948801892BEC
:102B000091F460E081E10E94B1010E947202603A9A
:102B10007F408105910510F00C944E2185E10E94C3
:102B20008801892B91F38DEF93E00E94CD23E8E596
:102B3000F1E025913491821315C08EEF93E00E944D
:102B4000CD23E7E5F1E02591349182130BC08FEF9F
:102B500093E00E94CD23E6E5F1E0259134918217C0
:102B600009F4C5C003E010E061E081E10E94B10119
:102B70006CE271E080E090E00E94400260E081E160
:102B80000E94B1016CE271E080E090E00E9440029E
:102B90000150110949F713E08EE395E00E94560AAF
:102BA00040E162E08EE395E00E94300A64E670E066
:102BB00080E090E00E9440028EE395E00E94560A79
:102BC00048E162E08EE395E00E94300A64E670E03E
:102BD00080E090E00E9440028EE395E00E94560A59
:102BE0004CE162E08EE395E00E94300A64E670E01A
:102BF00080E090E00E9440028EE395E00E94560A39
:102C00004DE062E08EE395E00E94300A64E670E0F9
:102C100080E090E00E9440028EE395E00E94560A18
:102C200045E062E08EE395E00E94300A41E061E019
:102C30008EE395E00E94300A64E670E080E090E068
:102C40000E9440028EE395E00E94560A41E062E055
:102C50008EE395E00E94300A41E261E08EE395E068
:102C60000E94300A64E670E080E090E00E9440023A
:102C70008EE395E00E94560A41E661E08EE395E01E
:102C80000E94300A64E670E080E090E00E9440021A
:102C90008EE395E00E94560A42E661E08EE395E0FD
:102CA0000E94300A64E670E080E090E00E944002FA
:102CB0008EE395E00E94560A42E461E08EE395E0DF
:102CC0000E94300A40E162E08EE395E00E94300A03
:102CD00064E670E080E090E00E9440028EE395E0C0
:102CE0000E94560A115009F057CF0E94ED0D90E056
:102CF00080E00E94CD230E94B90B8CEA9AE0909369
:102D0000C0068093BF0687E89AE0909351058093B0
:102D1000500585E39CE09093D2068093D1068EEB1C
:102D20009BE09093CC068093CB0690935D058093B7
:102D30005C05E091E906F091EA0615821482168698
:102D40001586148613861092EB061092ED061092EB
:102D5000EC061092F4061092F3061092F20610920E
:102D6000F1060FEF1FEF1093F6060093F506109390
:102D7000F8060093F7060E94720260938107709331
:102D80008207809383079093840710927E071092A6
:102D9000FB061092FA061092FC061092FD061092A5
:102DA000800710927F078091F906817082608E7F84
:102DB0008093F906E0917A05F0917B050190F0810E
:102DC000E02DA089B18982E08C93A485B5851C9201
:102DD000A685B7858FE38C93108EA489B58986E08C
:102DE0008C93A289B3898C9180618C93A289B389D9
:102DF0008C9188608C93A289B3898C9180688C9324
:102E00000288F389E02D80818F7D808310927C057C
:102E100010927E0510927D05109285051092840512
:102E20001092830510928205109387050093860502
:102E300010938905009388050E9472026093120620
:102E400070931306809314069093150610920F0644
:102E500010928C0510928B0510928D0510928E05A4
:102E6000109211061092100680918A05817082607E
:102E7000816080938A056EEF8091E9069091EA0661
:102E80000E942309882369F06EEF8091E9069091F2
:102E9000EA060E94B7088091E9069091EA060E942E
:102EA0008C086EEF8AE795E00E94720815E041E019
:102EB00061E08EE395E00E94300A48E062E08EE334
:102EC00095E00E94300A60EA70E080E090E00E94A5
:102ED00040028EE395E00E94560A40E461E08EE3F2
:102EE00095E00E94300A41E062E08EE395E00E94A6
:102EF000300A60EA70E080E090E00E9440028EE3D9
:102F000095E00E94560A48E061E08EE395E00E9459
:102F1000300A40E462E08EE395E00E94300A60EA05
:102F200070E080E090E00E9440028EE395E00E9415
:102F3000560A115009F0BBCF0E94720260934605F9
:102F4000709347058093480590934905A4E02A2E85
:102F5000A1E03A2EB6E08B2EB2E09B2E1B861A869D
:102F6000FAE4EF2EF5E0FF2E10E000E06A857B85A5
:102F7000002E02C0759567950A94E2F76170D7013B
:102F80008D917D010E94B1010F5F1F4F043011052B
:102F900069F781E090E0BA85B03110F490E080E00C
:102FA000865B9A4FDC011496EC91E23108F0E25115
:102FB000F0E0E75AFE4FE49190917B008E2F880F4E
:102FC000880F80729F7D892B80937B00E770E0647F
:102FD000E0937C0080917A00806480937A008091F5
:102FE0007A0086FDFCCF8091780060917900762F81
:102FF000682F90E080E00E94D2222DEC3CEC4CE463
:103000005EE30E940F236B017C01F40160817181FA
:1030100090E080E00E94D2222DEC3CEC4CE45FE397
:103020000E940F239B01AC01C701B6010E94A0249E
:103030000E940C259B01D40111967C936E93F101A3
:10304000F781F9870F2F10E0E4E015950795EA95D1
:10305000E1F707701296ED90FC901397053061F53B
:10306000E616F70609F479C014964D915C91159710
:103070004617570709F471C016964D915C91461793
:10308000570709F46AC0AFEFBFE30E9476242BEF25
:1030900033E040E050E00E9415246901CC0CCD2CB7
:1030A000CC1CDD08D194822F86958D83898582FD85
:1030B000CAC010910603CDC0AFEFBFE30E947624D3
:1030C0002BEF33E040E050E00E941524220F232F25
:1030D000221F330B3195C22E9701AFEFBFE30E9441
:1030E00076242BEF33E040E050E00E94152467E0A7
:1030F00055954795379527956A95D1F7C21669F189
:10310000D40114962D913C91AFEFBFE30E94762439
:103110002BEF33E040E050E00E94152497E05595F6
:103120004795379527959A95D1F7C216B1F0F401D6
:1031300026813781AFEFBFE30E9476242BEF33E087
:1031400040E050E00E94152487E05595479537955B
:1031500027958A95D1F7C212A9CFEA85FB853196CA
:10316000FB87EA87F8E02F0E311C28E0820E911CC5
:103170008A859B85809709F0F3CEE0907C0590E1ED
:103180009E1508F4F8C1E0917A05F0917B058081E5
:103190009181DC01ED91FC910084F185E02D099590
:1031A000892B09F4E8C180911F068E7F80931F064A
:1031B000E0917A05F0917B0580819181DC01ED91B0
:1031C000FC910284F385E02D0995182F8D3F09F4B9
:1031D000D2C18091840590918505009709F054C370
:1031E00010937F0500917D05802F0E94F8060E94B4
:1031F0000607882361F017FD0AC000937F0510932E
:103200008005E1E0F0E0F0938505E09384051091FE
:103210007F05812F0E94F806813F09F4FDC208F066
:1032200092C2803B49F008F088C1803929F0803A89
:1032300019F0803809F089C1A3E0B0E0B0938305AC
:10324000A0938205EFC2D10116961C9112951F70B2
:103250001F5FB985A0900603B3FF06C0F101A680E9
:10326000FA2DFF70AF2EA394D1011496BC908B2D34
:1032700090E0B0E0A0E08C879D87AE87BF87D1014A
:103280001296BC904B2C512C712C612CD12CF12C12
:10329000E12CB985B0FF6AC0A30192018C859D85A0
:1032A000AE85BF85281B390B4A0B5B0BC701B601E6
:1032B0000E94E3232FE730E040E050E00E94152415
:1032C000BC84B20E053009F4A1C0F1014580512C37
:1032D000712C612C2381822F90E0B0E0A0E08D83DF
:1032E0009E83AF83B887998591FD95C0A301920114
:1032F0008D819E81AF81B885281B390B4A0B5B0BF2
:10330000C701B6010E94E3232FE730E040E050E020
:103310000E9415244D805E806F807884420E531E7B
:10332000641E751E4D82033009F4AEC008F086C0DD
:10333000013099F1023009F488C0D40114968D91BE
:103340009C91159717969C938E93169712968D9134
:103350009C91139715969C938E9314978D919C91A5
:10336000119713969C938E931297F7CE2C853D85DB
:103370004E855F852419350946095709C701B601ED
:103380000E94E3232FE730E040E050E00E94152444
:10339000B22EB40C053009F098CF809105028D7FD4
:1033A000B1F4412F6B2DD1018C910E946C08F10179
:1033B000878190E004E0959587950A95E1F78770FD
:1033C000853029F4412F6D8181810E946C088091A4
:1033D000050281508230B0F4412F6B2DD1018C91C8
:1033E0000E948F09F101878190E0B4E0959587955F
:1033F000BA95E1F78770853029F4412F6D8181817D
:103400000E948F0981E00E946F0A97CF9FE7AD81EC
:103410009A1B9D83C2CF2D813E814F8158852419EF
:10342000350946095709C701B6010E94E3232FE772
:1034300030E040E050E00E94152470CF043009F4E1
:1034400052C0053009F079CFA8CF809105028D7F59
:1034500061F4412F6B2DD1018C910E946C084A2D93
:10346000642DF10181810E946C08809105028150D8
:10347000823040F6412F6B2DD1018C910E948F0933
:103480004A2D6D81F101BBCF809105028D7F99F4AA
:10349000D1016C916F77412F83E60E946C08F10196
:1034A00061816F77412F82E60E946C08412F6B2D5E
:1034B00086E00E946C08809105028150823008F0FD
:1034C000A1CFD1016C916F77412F83E60E948F09C4
:1034D000F10161816F77412F82E60E948F09412FB0
:1034E0006B2D86E08DCF809105028D7F99F4D101FF
:1034F0006C916F77412F85E60E946C08F101618124
:103500006F77412F84E60E946C08412F6B2D86E077
:103510000E946C08809105028150823008F072CFC1
:10352000D1016C916F77412F85E60E948F09F101DF
:1035300061816F77412F84E6D0CF803D09F46CC163
:1035400008F0F0C0803C09F467C180911F068160DB
:1035500080931F06E0915205F0915305309709F0D2
:10356000099510928505109284051092830510929A
:10357000820510927D05B090EB0630E13B1540F1DD
:103580000091E9061091EA06D8011B968D919C9155
:10359000892B09F4D5C280918E078E7F80938E0788
:1035A000E091E906F091EA06858596859C012F5FFA
:1035B0003F4F368725878E0F9F1FDC0117961C9182
:1035C000838594850197948783871D3F09F0EDC318
:1035D00086E295E00E9497068EE095E00E949706AD
:1035E0008091320590913305019799F480913405CB
:1035F00090913505892B69F481E08093A7040E949E
:1036000072026093A2047093A3048093A404909325
:10361000A50480911A0590911B05019799F480915A
:103620001C0590911D05892B69F481E08093A60407
:103630000E9472026093A2047093A3048093A40476
:103640009093A5048091320590913305892B49F41C
:103650008091340590913505019719F481E00E941D
:10366000C40B80911A0590911B05892B49F4809118
:103670001C0590911D05019719F480E00E94C40B70
:103680001091A704111104C08091A604882331F180
:103690000E947202C090A204D090A304E090A404FF
:1036A000F090A5046C197D098E099F096D3F734048
:1036B0008105910598F0112331F010920803809153
:1036C00006030E94510B8091A604882339F081E003
:1036D00080930803809107030E94690B0E94720285
:1036E0000091460510914705209148053091490504
:1036F000601B710B820B930B663971058105910577
:1037000020F08EE395E00E94560A80E090E0892B3D
:1037100009F41CCC0E942105882309F417CC0E94CF
:10372000000014CC803E09F487CD803F09F00DCF16
:10373000E0E8F0E0F0938305E093820510927D05C8
:1037400080938F056FC0873F99F308F05EC0833F79
:1037500009F462C008F470CD863F09F0F6CE80937C
:103760008C0510928B0510928D0510928E0581E0CC
:1037700080930F06109285051092840510928305A0
:103780001092820580918C05803939F480918E05E4
:10379000811103C080E880938C0580918C0580584E
:1037A000813630F480918B05E81611F0E11004C0E9
:1037B00080E595E00E94150790918A05392F3170B8
:1037C00090FFD9CE892F8E7F09F4D5CE80918C05BC
:1037D00020E8280F213608F02FC120918B05E21632
:1037E00019F031E0E11030E09695923009F41DC1F6
:1037F000933009F41EC1913009F0BDCE40918E0581
:1038000060918D050E948008B6CE8D3F08F4A7CF49
:103810008E3F08F0A4CF99CE22E030E030938305AC
:103820002093820520918405309185054091820581
:10383000509183054150510924173507F0F08093CA
:103840008C051F701F5F10938B05809180058093FE
:103850008D0510928E0521E030E030931106209303
:10386000100610928505109284051092830510921F
:10387000820581E080930F0685CF2F5F3F4F309305
:1038800085052093840577CE17FF0CC01D3F08F0F7
:103890004EC0183F08F04EC0103F09F45AC0173F01
:1038A00009F457C020917F05FC01E05BFA4F203FEF
:1038B00019F0273F09F077C017AFA0908205B090AC
:1038C00083059501215031098217930708F4ABC095
:1038D000D0907F05B0EFDB1619F0E7EFDE1265C080
:1038E00010910E0680EF80930E0680938C0580E881
:1038F00080938D0510928E0510928B0520E830E0A4
:10390000309311062093100681E080930F0680E526
:1039100095E00E94150787EF80938F05109390051F
:1039200082E090E0909385058093840524CE1E3F2D
:1039300008F4B8CF10938C0510928D0510928E0567
:1039400010928B0581E090E0909311068093100611
:1039500091CF20918F05203F19F0273F09F0F5CD39
:103960009C012F5F3F4F805B9A4FDC01DF961C93D9
:1039700080EF80938C0520938D0530938E051092F7
:103980008B05309311062093100681E080930F067B
:10399000109285051092840510928305109282057D
:1039A00010927D05EFCE17A788CF8D2D0E94F806C7
:1039B000182F80938C050E940607882349F18D2DCE
:1039C0008F708F5F80938B058091800580938D052C
:1039D0008091810593E0A916B10409F080E08093FD
:1039E0008E05109285051092840510928305109221
:1039F000820581E080930F06103B39F060F41039A6
:103A000021F0103A11F0103859F6D0927D05BACE57
:103A100010928B05D9CF103DC1F3103EB1F3103C8D
:103A200009F0BECFF2CF01967DCF332309F4A3CDA9
:103A3000E5CE3111A0CDE2CEE0E1E80FE03108F0B3
:103A40009ACDF0E0EA5DF24E0C9499243C1D8C1D59
:103A50006D1D5B1DBB1ABB1A361DBB1A361DBB1A6A
:103A6000361D361D361DBB1A361D361D682F8AE7DA
:103A700095E00E9472087FCDE0908D05F0908E0554
:103A8000A1E8EA16F10418F0A0E8EA2EF12C00E50E
:103A900015E0C801805595408E159F0508F06BCD47
:103AA000F80167AD80917A0590917B050E94D5075A
:103AB0000F5F1F4FEECF10918D0563EF80917A0558
:103AC00090917B050E94D507612F6F7780917A05D1
:103AD00090917B050E94D5074ECD00918E05F0E8B0
:103AE0000F9F8001112480918D05082B62EF80913A
:103AF0007A0590917B050E94D507602F6F778091A2
:103B00007A0590917B050E94D507000F012F001FB9
:103B1000110B1195602FD9CF80918D0520E1829FE7
:103B2000C0011124807710918E051F70182B61EF52
:103B300080917A0590917B050E94D507612FC6CFB1
:103B4000F8011686158680919A0490919B04A091A5
:103B50009C04B0919D0440919E0450919F046091FB
:103B6000A0047091A104841B950BA60BB70B8F7357
:103B70009927AA27BB27892B8A2B8B2B09F47DC079
:103B800080919E0490919F04A091A004B091A10403
:103B9000880F991F880F991FFC01E656FC4F808102
:103BA00091814281538140909A0450909B0460908F
:103BB0009C0470909D04C0909E04D0909F04E0905F
:103BC000A004F090A1044C145D046E047F04D1F0B5
:103BD000C0909E04D0909F04E090A004F090A104B7
:103BE000FFEFCF1ADF0AEF0AFF0A2FE3C222DD241C
:103BF000EE24FF24C0929E04D0929F04E092A00481
:103C0000F092A104D8011F968C931F9750969C9315
:103C1000509751964C93519752965C9352978823A4
:103C200029F1282F30E064E0359527956A95E1F772
:103C300053966C9153976217130609F0C9CC8F7095
:103C4000682F70E01B962D913C91FB01EE0FFF1F3A
:103C5000E25DFC4FE181E13009F48AC008F472C0F2
:103C6000E23009F495C0E33009F471C0F8018385AE
:103C70009485892B09F4ACCC8ECC809105050E94EB
:103C80004C0450E040E090E0882309F48CCFC090D1
:103C90009A04D0909B04E0909C04F0909D04FFEF68
:103CA000CF1ADF0AEF0AFF0A2FE3C222DD24EE2437
:103CB000FF2480919E0490919F04A091A004B09154
:103CC000A1048C159D05AE05BF0509F459CF80915F
:103CD00005050E944C0444E050E0BE016F5F7F4F39
:103CE000809105050E94D80304970CF449CF809178
:103CF0009A0490919B04A0919C04B0919D04880F1C
:103D0000991F880F991F86569C4F49815A816B8154
:103D10007C81DC014D935D936D937C931397C092EE
:103D20009A04D0929B04E0929C04F0929D04BFEF11
:103D3000CB1ADB0AEB0AFB0AEFE3CE22DD24EE24EA
:103D4000FF24B7CF843019F06730710571F4F801A2
:103D5000E20FF31F978340872D5F3F4FD8011C96DA
:103D60003C932E931B97518781CF6530710561F489
:103D7000A9014F5F5F4FF80154874387200F311F20
:103D8000D90117969C9372CF6630710509F06ECFFA
:103D9000F801E20FF31F97832E5F3F4FD8011C9667
:103DA0003C932E931B97408761CF8091F3069091AF
:103DB000F406009709F0FBC01093EE060091EC06A4
:103DC000802F0E94F8060E940607882361F017FDE5
:103DD0000AC00093EE061093EF0621E030E0309326
:103DE000F4062093F3061091EE06812F0E94F80648
:103DF000813F09F4A5C0E8F5803B39F068F48039CB
:103E000021F0803A11F0803871F4E3E0F0E0F093B3
:103E1000F206E093F1069AC0803D09F491C0D0F417
:103E2000803C09F48DC080918E07816080938E075D
:103E3000E091C106F091C206309709F00995109201
:103E4000F4061092F3061092F2061092F106109208
:103E5000EC06BECB803EC9F2803F29F720E830E077
:103E60003093F2062093F1061092EC068093FE0642
:103E70006DC0873F99F308F05CC0833F09F460C0D0
:103E800020F2863F81F68093FB061092FA0610928C
:103E9000FC061092FD0681E080937E071092F406E6
:103EA0001092F3061092F2061092F1068091FB0632
:103EB000803939F48091FD06811103C080E8809338
:103EC000FB068091FB068058813630F48091FA061B
:103ED000B81611F0B11004C08FEB96E00E941507E0
:103EE0009091F906392F317090FF72CB892F8E7F18
:103EF00009F46ECB8091FB0620E8280F213608F0EC
:103F000032C12091FA06B21619F031E0B11030E05A
:103F10009695923009F420C1933009F421C1913073
:103F200009F056CB4091FD066091FC060E94050AFF
:103F30004FCB8D3F08F4A7CF8E3F08F0A4CF73CFAF
:103F4000A2E0B0E0B093F206A093F1062091F30650
:103F50003091F4064091F1065091F206415051091A
:103F600024173507E8F08093FB061F701F5F10933E
:103F7000FA068091EF068093FC061092FD0681E020
:103F800090E09093800780937F071092F406109240
:103F9000F3061092F2061092F10680937E0786CF08
:103FA0002F5F3F4F3093F4062093F30611CB17FF9A
:103FB0000CC01D3F08F04EC0183F08F04EC0103F27
:103FC00009F45BC0173F09F458C02091EE06FC01CC
:103FD000E154F94F203F19F0273F09F077C017AFA0
:103FE000C090F106D090F206960121503109821757
:103FF000930708F4ABC0E090EE06F0EFEF1619F06F
:1040000027EFE21265C010917D0780EF80937D0756
:104010008093FB0680E88093FC061092FD061092C8
:10402000FA0680E890E09093800780937F0781E014
:1040300080937E078FEB96E00E94150787EF8093B1
:10404000FE061093FF06A2E0B0E0B093F406A09342
:10405000F306BECA1E3F08F4B8CF1093FB061092B9
:10406000FC061092FD061092FA06A1E0B0E0B093B3
:104070008007A0937F0781E090CF2091FE06203F2C
:1040800019F0273F09F0CFCE9C012F5F3F4F81549D
:10409000994FFC0117AF80EF8093FB062093FC063D
:1040A0003093FD061092FA063093800720937F0725
:1040B00081E080937E071092F4061092F30610922E
:1040C000F2061092F1061092EC06F0CE17A788CFF8
:1040D0008E2D0E94F806182F8093FB060E9406077B
:1040E000882349F18E2D8F708F5F8093FA0680911F
:1040F000EF068093FC068091F006B3E0CB16D10466
:1041000009F080E08093FD061092F4061092F30609
:104110001092F2061092F10681E080937E07103B28
:1041200039F060F4103921F0103A11F0103859F6D6
:10413000E092EC06BBCE1092FA06D9CF103DC1F347
:10414000103EB1F3103C09F0BECFF2CF0196909330
:10415000F4068093F3063CCA332309F439CAE2CE4D
:10416000311136CADFCEE0E1E80FE03108F030CAA5
:10417000F0E0E354FF4D0C949924D3203121062123
:10418000E420E81AE81ACD20E81ACD20E81ACD205C
:10419000CD20CD20E81ACD20CD20682F89EE96E0E5
:1041A0000E94DF0915CA6091FC067091FD06613816
:1041B000710510F060E870E021E04EEF56E089EE06
:1041C00096E00E94950904CA1091FC0663EF809165
:1041D000E9069091EA060E942309882309F4F8C9A8
:1041E00063EF8091E9069091EA060E94B708612F7B
:1041F0006F778091E9069091EA060E94B708809156
:10420000E9069091EA060E948C08E2C91091FC062A
:104210000091FD0662EF8091E9069091EA060E9406
:104220002309882309F4D4C9E0E80E9FB0011124C2
:104230009B01212B890162EF8091E9069091EA06AA
:104240000E94B708602F6F778091E9069091EA0687
:104250000E94B708000F012F001F110B1195602F4E
:10426000C7CF0091FD061091FC0661EF8091E90631
:104270009091EA060E942309882309F4A9C961EFF5
:104280008091E9069091EA060E94B70830E1139FF9
:10429000B001112460770F70602BABCF61E081E13A
:1042A0000E94B10164E170E080E090E00E94400271
:1042B00060E081E10E94B10110E000E060E0C8012F
:1042C0000E94D5230F5F1F4F0115F4E01F07B1F7C0
:1042D00061E081E10E94B1010C949315B0E0A0E08F
:1042E000E4E7F1E20C9440245C016B017A01611572
:1042F000710519F0FB0191838083E114F10451F001
:10430000C7010297839730F040E030E020E090E072
:1043100072C05E01E5012196F5011081812F90E0C8
:104320000E948522892BA9F71D3201F52196F501FE
:10433000118101E0E114F10409F4DAC0F0E1EF16B3
:10434000F10409F082C0103359F488818F7D8835DB
:1043500009F076C0198122960260F0E1EF2EF12C6F
:10436000812C912CA12C88E0B82E8CC01B3221F41A
:10437000E5012296F501118100E0DCCFEAE0EE16BE
:10438000F10409F4BBC0F0E1EF16F10409F06DC0CF
:10439000E7CF78E0E72EF12C812C912CA12C60E165
:1043A000B62E70C03FE9310F3A3128F439EA332E86
:1043B00080C021E09AC0302F3170C114D10431F097
:1043C000222309F12197F601D183C08327FF21C061
:1043D00060E070E080E090E8311104C06FEF7FEFA3
:1043E0008FEF9FE722E230E03093A4072093A307EA
:1043F000462F372F282F642F732F822FCDB7DEB78C
:10440000E1E10C945C2401FF04C02297F601D18302
:10441000C083332341F090958095709561957F4FCF
:104420008F4F9F4FE5CF97FFE3CF82E290E09093CD
:10443000A4078093A3076FEF7FEF8FEF9FE7D8CF9D
:1044400010E3E114F10409F4A4CF28E0E216F1042A
:1044500009F4A2CF0CF092CF812C912CA12CE0E496
:10446000BE2E82E0E816F10469F060E070E080E0C2
:1044700090E897010F2C000C440B550B0E94F3237E
:1044800049015A0120E060E070E0CB0127010F2CC8
:10449000000C66087708FE0150ED352E310E39E02C
:1044A000331540F43FEB310F3A3108F07BCF49EC44
:1044B000342E310E3E141F040CF07DCF27FD15C0A5
:1044C00086169706A806B90678F0A30192010E9405
:1044D000E323630D711D811D911D613071058105FF
:1044E00020E8920708F465CF2FEF21961081D3CFF3
:1044F000103309F42ACF2AE0E22EF12C9CEC892E0D
:10450000982CA82C9CE0B92EBDCF91110C94BF2201
:10451000803219F089508550C8F70895BB272A309A
:1045200051F4992342F4BDE2909580957095619580
:104530007F4F8F4F9F4F0C949E22BB27FA01A62FCF
:104540006217710581059105330B30FB66F0AA27D0
:10455000660F771F881F991FAA1FA21710F0A21BB2
:1045600063953850A9F7A05DAA3308F0A95DA1931F
:1045700036F7B111B1931082CA010C94C222992767
:1045800088270895DC01FC01672F71917723E1F7FB
:10459000329704C07C916D9370836291AE17BF0710
:1045A000C8F30895E89409C097FB3EF49095809570
:1045B000709561957F4F8F4F9F4F9923A9F0F92FE9
:1045C00096E9BB279395F695879577956795B79567
:1045D000F111F8CFFAF4BB0F11F460FF1BC06F5F4D
:1045E0007F4F8F4F9F4F16C0882311F096E911C05F
:1045F000772321F09EE8872F762F05C0662371F080
:1046000096E8862F70E060E02AF09A95660F771F93
:10461000881FDAF7880F9695879597F908950E9475
:1046200022230C9493230E94852338F00E948C232C
:1046300020F0952311F00C947C230C9482231124F8
:104640000C94C7230E94A42370F3959FC1F3950F88
:1046500050E0551F629FF001729FBB27F00DB11D06
:10466000639FAA27F00DB11DAA1F649F6627B00D96
:10467000A11D661F829F2227B00DA11D621F739F7F
:10468000B00DA11D621F839FA00D611D221F749F8D
:104690003327A00D611D231F849F600D211D822FD4
:1046A000762F6A2F11249F5750409AF0F1F08823FB
:1046B0004AF0EE0FFF1FBB1F661F771F881F915028
:1046C0005040A9F79E3F510580F00C947C230C9438
:1046D000C7235F3FE4F3983ED4F3869577956795BB
:1046E000B795F795E7959F5FC1F7FE2B880F911D52
:1046F0009695879597F9089597F99F6780E870E0F8
:1047000060E008959FEF80EC089500240A94161647
:10471000170618060906089500240A9412161306AF
:10472000140605060895092E0394000C11F488233D
:1047300052F0BB0F40F4BF2B11F460FF04C06F5F59
:104740007F4F8F4F9F4F089557FD9058440F551F2F
:1047500059F05F3F71F04795880F97FB991F61F003
:104760009F3F79F087950895121613061406551F7A
:10477000F2CF4695F1DF08C0161617061806991FE6
:10478000F1CF86957105610508940895E894BB27DB
:1047900066277727CB0197F90895F999FECF92BD47
:1047A00081BDF89A992780B50895262FF999FECFF3
:1047B0001FBA92BD81BD20BD0FB6F894FA9AF99A3E
:1047C0000FBE01960895DB018F939F930E943424BE
:1047D000BF91AF91A29F800D911DA39F900DB29F9D
:1047E000900D11240895A1E21A2EAA1BBB1BFD01F6
:1047F0000DC0AA1FBB1FEE1FFF1FA217B307E407C0
:10480000F50720F0A21BB30BE40BF50B661F771F17
:10481000881F991F1A9469F76095709580959095F7
:104820009B01AC01BD01CF010895052E97FB1EF43D
:1048300000940E942C2457FD07D00E94F32307FC0C
:1048400003D04EF40C942C2450954095309521952E
:104850003F4F4F4F5F4F08959095809570956195AC
:104860007F4F8F4F9F4F08950E947624A59F900DF4
:10487000B49F900DA49F800D911D112408952F9237
:104880003F924F925F926F927F928F929F92AF92E0
:10489000BF92CF92DF92EF92FF920F931F93CF932D
:1048A000DF93CDB7DEB7CA1BDB0B0FB6F894DEBFC4
:1048B0000FBECDBF09942A88398848885F846E84EA
:1048C0007D848C849B84AA84B984C884DF80EE8034
:1048D000FD800C811B81AA81B981CE0FD11D0FB63D
:1048E000F894DEBF0FBECDBFED010895A29FB001C9
:1048F000B39FC001A39F700D811D1124911DB29F14
:10490000700D811D1124911D0895AA1BBB1B51E13F
:1049100007C0AA1FBB1FA617B70710F0A61BB70B2F
:10492000881F991F5A95A9F780959095BC01CD01D4
:104930000895EE0FFF1F0590F491E02D0994505853
:10494000BB27AA270E94B7240C9493230E94852397
:1049500038F00E948C2320F039F49F3F19F426F49C
:104960000C9482230EF4E095E7FB0C947C23E92F52
:104970000E94A42358F3BA176207730784079507A8
:1049800020F079F4A6F50C94C6230EF4E0950B2ED6
:10499000BA2FA02D0B01B90190010C01CA01A00191
:1049A0001124FF27591B99F0593F50F4503E68F1EC
:1049B0001A16F040A22F232F342F4427585FF3CF2D
:1049C000469537952795A795F0405395C9F77EF4FE
:1049D0001F16BA0B620B730B840BBAF09150A1F047
:1049E000FF0FBB1F661F771F881FC2F70EC0BA0FCD
:1049F000621F731F841F48F4879577956795B79555
:104A0000F7959E3F08F0B0CF9395880F08F099274F
:104A1000EE0F9795879508950E94AC2388F09F57D5
:104A200098F0B92F9927B751B0F0E1F0660F771FD2
:104A3000881F991F1AF0BA95C9F714C0B13091F0C8
:104A40000E94C623B1E008950C94C623672F782FE7
:104A50008827B85F39F0B93FCCF38695779567958D
:104A6000B395D9F73EF490958095709561957F4FF9
:104A70008F4F9F4F08950F931F93CF93DF938230F3
:104A8000910510F482E090E0E091A707F091A8076B
:104A900030E020E0B0E0A0E0309799F42115310536
:104AA00009F44AC0281B390B24303105D8F58A8116
:104AB0009B816115710589F1FB0193838283FE015E
:104AC00011C0408151810281138148175907E0F0DC
:104AD0004817590799F4109761F012960C931297A2
:104AE00013961C933296CF01DF91CF911F910F91B6
:104AF00008950093A7071093A807F4CF2115310557
:104B000051F04217530738F0A901DB019A01BD01AA
:104B1000DF01F801C1CFEF01F9CF9093A80780938F
:104B2000A707CDCFFE01E20FF31F8193919322508F
:104B3000310939832883D7CF2091A5073091A60763
:104B4000232B41F420911A0330911B033093A607C5
:104B50002093A507209118033091190321153105E1
:104B600041F42DB73EB740911C0350911D03241B07
:104B7000350BE091A507F091A607E217F307A0F423
:104B80002E1B3F0B2817390778F0AC014E5F5F4FA3
:104B90002417350748F04E0F5F1F5093A607409328
:104BA000A507819391939FCFF0E0E0E09CCFCF9356
:104BB000DF930097E9F0FC01329713821282A091F3
:104BC000A707B091A807ED0130E020E01097A1F40D
:104BD00020813181820F931F2091A5073091A60774
:104BE0002817390709F061C0F093A607E093A507DD
:104BF000DF91CF910895EA01CE17DF07E8F54A81EA
:104C00005B819E0141155105B1F7E901FB83EA8300
:104C100049915991C40FD51FEC17FD0761F48081AC
:104C200091810296840F951FE9019983888382817F
:104C300093819B838A83F0E0E0E012968D919C91B2
:104C400013970097B9F52D913C911197CD010296DC
:104C5000820F931F2091A5073091A60728173907C7
:104C600039F6309751F51092A8071092A707B09324
:104C7000A607A093A507BCCFD383C28340815181EF
:104C8000840F951FC817D90761F44E5F5F4F888165
:104C90009981480F591F518340838A819B81938357
:104CA00082832115310509F0B0CFF093A807E09376
:104CB000A7079ECFFD01DC01C0CF13821282D7CFA0
:104CC000B0E0A0E0E6E6F6E20C9441248C01009707
:104CD00051F4CB010E943B258C01C801CDB7DEB752
:104CE000E0E10C945D24FC01E60FF71F9C012250CB
:104CF0003109E217F30708F49DC0D901CD91DC9189
:104D00001197C617D70798F0C530D10530F3CE01FB
:104D100004978617970708F3C61BD70B2297C193F2
:104D2000D1936D937C93CF010E94D725D6CF5B01A1
:104D3000AC1ABD0A4C018C0E9D1EA091A707B09124
:104D4000A807512C412CF12CE12C109731F58091C2
:104D5000A5079091A6078815990509F05CC046162D
:104D6000570608F058C080911803909119030097D6
:104D700041F48DB79EB740911C0350911D03841BD5
:104D8000950BE817F90708F055C0F093A607E093D4
:104D9000A507F90171836083A0CF8D919C91119734
:104DA00012966C90129713967C901397A815B905DC
:104DB00059F56C0142E0C40ED11CCA14DB0420F189
:104DC000AC014A195B09DA011296159780F06282EC
:104DD000738251834083D9016D937C93E114F10474
:104DE00071F0D7011396FC93EE93129776CF22962B
:104DF0008C0F9D1FF90191838083F301EFCFF09316
:104E0000A807E093A70769CF4816590608F42C01B4
:104E10007D01D3019ACFCB010E943B257C010097F5
:104E200049F0AE01B8010E941D27C8010E94D72594
:104E3000870153CF10E000E050CFFB01DC0102C03E
:104E400001900D9241505040D8F70895FB01DC01CC
:0E4E500001900D920020E1F70895F894FFCF35
:104E5E00FFFFFFFF00000000000000000000000048
:104E6E000000000000000000000000000000000034
:104E7E000000000000000000000000000000000024
:104E8E000000000000000000000000000000000014
:104E9E000000000000000000000000000000000004
:104EAE0000000000000000000000000000000000F4
:104EBE0000000000000000000000000000000000E4
:104ECE0000000000000000000000000000000000D4
:104EDE0000000000000000000000000000000000C4
:104EEE0000000000000000000000000000000000B4
:104EFE0000000000000000000000000000000000A4
:104F0E000000000000000000000000000000000093
:104F1E000000000000000000000000000000000083
:104F2E000000000000000000000000000000000073
:104F3E000000000000000000000000000000000063
:104F4E000000000000000000000000000000000053
:104F5E000000000000000000000000000000000043
:104F6E000000000000000000000000000000000033
:104F7E000000000000000000000000000000000023
:104F8E000000000000000000000000000000000013
:104F9E000000000000000000000000000000000003
:104FAE0000000000000000000000000000000000F3
:104FBE0000000000000000000000000000000000E3
:104FCE0000000000000000000000000000000000D3
:104FDE0000000000000000000000000000000000C3
:104FEE0000000000000000000000000000000000B3
:104FFE0000000000000000000000000000000000A3
:10500E000000000000000000000000000000000092
:10501E000000000000000000000000000000000082
:10502E000000000000000000000000000000000072
:10503E000000000000000000000000000000000062
:10504E000000000000000000000000000000000052
:10505E0000000000000001000000E1000000000060
:10506E000000C180810000000000A9078000000040
:10507E0080089009A00AB00BC00CD00DE00E000005
:10508E0001000202030304000500060007000803E6
:10509E0009030A030B030C020D020E030F0100009D
:1050AE0000002601C2032303880255042A040204C9
:1050BE000000000056057204E404A2051505F30471
:1050CE00070500000000C505C705C205A10E4D4924
:0450DE004449000041
:00000001FF
