:100000000C94FC000C9424010C9424010C94240105
:100010000C9424010C9424010C9424010C942401CC
:100020000C9424010C9424010C94F50E0C94730F81
:100030000C9424010C9424010C9424010C942401AC
:100040000C9424010C9424010C9424010C9424019C
:100050000C9424010C9424010C9424010C94AB0EF8
:100060000C9424010C94CB110C94A5110C94240134
:100070000C9424010C9424010C9424010C9424016C
:100080000C9424010C9424010C9424010C9424015C
:100090000C9424010C9424010C9424010C9424014C
:1000A0000C9424010C9424010C9424010F0E0C09CF
:1000B0001F1814100D0B0A021E1915110807040150
:1000C0001D1A1612060503001C1B17130F0E0C0930
:1000D0001F1814100D0B0A021E1915110807040130
:1000E0001D1A1612060503001C1B1713080B00022D
:1000F00002020000090400000102020000052400C1
:100100001001052401010104240206052406000152
:100110000705810310004009040100020A000000E5
:1001200007050202400000070583024000000403A7
:10013000090412010002EF020140501D4F6100014D
:100140000102030141726475696E6F005348494BA7
:10015000204E333242000400020706050401000865
:100160000A0B0C0D0900000000240027002A002DB6
:1001700000300000000000250028002B002E003178
:1001800000000000002300260029002C002F00049E
:10019000040404040304050202020204030202022E
:1001A0000206060606060604040202020404040807
:1001B000020110408040102040804080080204016D
:1001C00080402010020110801020404020000000DC
:1001D0000200090F0000030401000C0000000000F1
:1001E0000000000000000000000000007E306D797B
:1001F000335B5F707F7B261211241FBECFEFDAE0E6
:10020000DEBFCDBF13E0A0E0B1E0E4E0FEE402C059
:1002100005900D92A434B107D9F727E0A4E4B3E028
:1002200001C01D92A936B207E1F710E0CCEFD0E093
:1002300004C02197FE010E945E24CB3FD107C9F77D
:100240000E945A140C9400270C940000CF93DF9363
:100250001F92CDB7DEB76983DC01ED91FC9102807E
:10026000F381E02D41E050E0BE016F5F7F4F0995C3
:100270000F90DF91CF91089581508F3008F047C0E3
:10028000E82FF0E0EA5BFE4F0C945E246301670107
:1002900055015B015F018701870187016A017001D8
:1002A000740178017E0187018201809180008F773F
:1002B000809380000895809180008F7DF9CF809198
:1002C0008000877FF5CF84B58F7784BD089584B58E
:1002D0008F7DFBCF809190008F7780939000089561
:1002E000809190008F7DF9CF80919000877FF5CF2E
:1002F0008091C0008F778093C00008958091C000E6
:100300008F7DF9CF8091C200877F8093C2000895CE
:10031000CF93DF93282F30E0F901E353FE4F849110
:10032000F901E255FE4FD491F901E157FE4FC49116
:10033000CC23A1F081110E943C01EC2FF0E0EE0FE4
:10034000FF1FEF57FE4FA591B491EC91ED2381E093
:1003500090E009F480E0DF91CF91089580E090E093
:10036000FACF1F93CF93DF93282F30E0F901E353A7
:10037000FE4F8491F901E255FE4FD491F901E15706
:10038000FE4FC491CC23A9F0162F81110E943C018D
:10039000EC2FF0E0EE0FFF1FED58FE4FA591B4914A
:1003A0008FB7F894EC91111108C0D095DE23DC933F
:1003B0008FBFDF91CF911F910895DE2BF8CFCF93A0
:1003C000DF9390E0FC01E255FE4F249181579E4F50
:1003D000FC0184918823C9F090E0880F991FFC01EB
:1003E000EB59FE4FA591B491FC01ED58FE4FC5911C
:1003F000D49161110DC09FB7F8948C912095822300
:100400008C938881282328839FBFDF91CF91089503
:10041000623051F49FB7F8943C91822F80958323EA
:100420008C93E8812E2BEFCF8FB7F894EC912E2B85
:100430002C938FBFEACF3FB7F89480916D049091D1
:100440006E04A0916F04B091700426B5A89B05C0FE
:100450002F3F19F00196A11DB11D3FBFBA2FA92F43
:10046000982F8827BC01CD01620F711D811D911D40
:1004700042E0660F771F881F991F4A95D1F70895AC
:100480008F929F92AF92BF92CF92DF92EF92FF92A4
:100490004B015C010E941B026B017C010E941B024C
:1004A0006C197D098E099F09683E7340810591058D
:1004B000A8F321E0821A9108A108B10888EEC80EBD
:1004C00083E0D81EE11CF11C81149104A104B10445
:1004D00029F7FF90EF90DF90CF90BF90AF909F9063
:1004E0008F9008952FB7F8946091690470916A0411
:1004F00080916B0490916C042FBF08958093E90064
:100500008091F200882319F08AE38093E80008952F
:1005100083E00C947E02409152035091530320914A
:1005200050033091510342175307B4F49091E800FF
:100530009570E1F39091E80092FD19C08093F1006D
:10054000809152039091530301968F739927892BC1
:1005500019F48EEF8093E800809152039091530339
:100560000196909353038093520381E0089580E0B5
:100570000895EF92FF920F931F93CF93DF93F82E7E
:10058000192FE62E042F81E0860F880F0E948B0220
:1005900083E00E948B02CF2DD12FEC0EFD2EF11C9B
:1005A000CE15DF05B9F007FF13C0FE0184910E944C
:1005B0008B02182F80E00E948B02812321968111EB
:1005C000EFCFDF91CF911F910F91FF90EF900895A2
:1005D0008881EDCF81E0F5CFDF92EF92FF920F930C
:1005E0001F93CF93DF93D82E8A01EB017B01E40E9A
:1005F000F51ECE15DF0559F0D7FE12C0FE0184911D
:100600000E948B0221968111F4CF0FEF1FEFC801DA
:10061000DF91CF911F910F91FF90EF90DF900895A0
:100620008881EECF2FB7F89487708093E90090917E
:10063000E800892F807295FF04C09091F20080E459
:10064000891B2FBF089583E00E94120390E0089554
:100650007F928F929F92AF92BF92CF92DF92EF9252
:10066000FF920F931F93CF93DF93C82E8B017A01D4
:1006700080915903811110C08FEF9FEFDF91CF91CF
:100680001F910F91FF90EF90DF90CF90BF90AF90B0
:100690009F908F907F9008958091570380FF05C0B1
:1006A0008091E00082608093E000CE2DDF2DD12C80
:1006B0008AEFB82E8C2D8770982E8C2D8072882E04
:1006C0008C2D8074782E9AE3A92E209719F4DD20C2
:1006D00009F452C08C2D0E94120381110AC0BA94F1
:1006E000BB2051F261E070E080E090E00E944002A7
:1006F000ECCF8C171D0611F00CF08C2F9FB7F894DF
:100700009092E9002091E80025FD02C09FBFDDCF57
:10071000282F30E0C21BD30B882029F08150A0F095
:100720001092F100FBCFF801C7FC0AC0815050F0D5
:1007300041914093F100FACF44914093F1003196FA
:100740008150D0F7020F131FDD2021F0A092E800A6
:10075000D12CDCCF8091E80085FD07C0A092E80095
:10076000DD24D394209791F2F3CF209779F6772068
:1007700069F2A092E800CACF5D9884E680935603A0
:10078000C7017CCFCF93DF93EC018091D002882307
:1007900031F083E00E9428031816190634F081E036
:1007A00090E09B838A8380E090E0DF91CF91089571
:1007B00090915903992319F13FB7F894877080936A
:1007C000E9008091F20090E0481759070CF4CA0143
:1007D000282FFB0154E6215038F0289850935503F8
:1007E0004091F1004193F7CF009739F02091F2004A
:1007F000211103C02BE62093E8003FBF08958FEF3F
:100800009FEF08950F931F93CF93DF931F92CDB760
:10081000DEB78C01FC018485958597FF0FC041E010
:1008200050E0BE016F5F7F4F82E00E94D8030197C6
:1008300071F4898190E0F80195878487F8018485B7
:1008400095850F90DF91CF911F910F9108958FEFB4
:100850009FEFF1CFCF93DF931F92CDB7DEB7FC01AF
:100860008485958597FD08C02FEF3FEF3587248756
:100870000F90DF91CF91089541E050E0BE016F5F8E
:100880007F4F82E00E94D803019719F4898190E09C
:10089000EFCF8FEF9FEFECCF9FB7F89487708093E7
:1008A000E9008091F2009FBF0895FC018485958541
:1008B00097FD06C082E00E944C0490E001960895E6
:1008C00082E00E944C0490E00895615030F0209145
:1008D000F100FC0120830196F8CF289884E68093EC
:1008E00055030895AF92BF92CF92DF92EF92FF929D
:1008F0000F931F93CF93DF936C017B018B01040F48
:10090000151FEB015E01AE18BF08C017D10759F0E3
:100910006991D601ED91FC910190F081E02DC60125
:100920000995892B79F7C501DF91CF911F910F911F
:10093000FF90EF90DF90CF90BF90AF90089580919F
:10094000480381110DC082E08093440384E08093CA
:100950004503109247031092460381E080934803B9
:1009600084E493E008950F931F93CF93DF931F9236
:10097000CDB7DEB782E0898342E450E06CEE70E0F0
:1009800080E80E94EC020E949F04DC0112960D9107
:100990001C910115110589F0D801ED91FC9102809F
:1009A000F381E02DBE016F5F7F4FC801099597FD70
:1009B00004C0F80100851185ECCF89810F90DF918B
:1009C000CF911F910F910895FC01538D448D252FD8
:1009D00030E0842F90E0821B930B541710F0CF96D9
:1009E000089501970895FC01918D828D981761F00B
:1009F000A28DAE0FBF2FB11D5D968C91928D9F5F22
:100A00009F73928F90E008958FEF9FEF0895FC0100
:100A1000918D828D981731F0828DE80FF11D858DB3
:100A200090E008958FEF9FEF0895FC01918D228D46
:100A3000892F90E0805C9F4F821B91098F739927CB
:100A4000089580EE95E00E94150521E0892B09F4B8
:100A500020E0822F089580E090E0892B29F00E9409
:100A6000210581110C9400000895FC01A48DA80FAC
:100A7000B92FB11DA35ABF4F2C91848D90E00196E0
:100A80008F739927848FA689B7892C93A089B18900
:100A90008C9182748C93938D848D981306C00288F8
:100AA000F389E02D80818F7D80830895EF92FF92FE
:100AB0000F931F93CF93DF93EC0181E0888F9B8D81
:100AC0008C8D981319C0E889F989808185FF14C03D
:100AD0009FB7F894EE89FF896083E889F98980815E
:100AE000827480839FBF81E090E0DF91CF911F915E
:100AF0000F91FF90EF900895F62E0B8D10E00F5F91
:100B00001F4F0F731127E02E8C8D8E110CC00FB666
:100B100007FCFACFE889F989808185FFF5CFCE01FE
:100B20000E943505F1CFEB8DEC0FFD2FF11DE35A3F
:100B3000FF4FF0829FB7F8940B8FEA89FB89808181
:100B40008062CFCFCF93DF93EC01888D8823B9F0FB
:100B5000AA89BB89E889F9898C9185FD03C08081C8
:100B600086FD0DC00FB607FCF7CF8C9185FFF2CF45
:100B7000808185FFEDCFCE010E943505E9CFDF9161
:100B8000CF91089590E080E0089580E008950F935C
:100B90001F93CF93DF93CDB7DEB7C456D1090FB6FD
:100BA000F894DEBF0FBECDBFFC01DB019C919E5FC0
:100BB0009C939E01295F3F4F8AE5D9011D928A953A
:100BC000E9F788E089838BE08A8322E02C8391E037
:100BD0009D839E8339E0398764E06A879E879F877B
:100BE0003A8B44E24B8B9C8BA0E0B1E0BE8BAD8B8B
:100BF00009E010E0188F0F8B998F3B8F6C8F2F8F30
:100C000098A353E059A387E08CA34DA39EA3B8A754
:100C1000AFA3A1E4B0E0BAA7A9A786E08BA74CA731
:100C20002DA79EA79FA789AB4AAB2BAB2CAB2DABB7
:100C30003FAB48AF59AF9AAF5BAF9CAF2DAF9EAF04
:100C400021963FAF219722964FAF229723965FAF11
:100C5000239724962FAF249725966FAF2597269636
:100C60009FAF269727969FAF279728969FAF2897E5
:100C70002A963FAF2A9745E02B964FAF2B972D969C
:100C80002FAF2D9760E470E02F967FAF6EAF2F9758
:100C900063964FAF639785E264968FAF64976596CE
:100CA0009FAF659766969FAF669767969FAF67976A
:100CB00068963FAF689769964FAF69976B962FAF6D
:100CC0006B976D967FAF6EAF6D97A1964FAFA19763
:100CD000A2968FAFA297A3969FAFA397A4969FAF1C
:100CE000A497A5965FAFA59792819B839B879F5FF3
:100CF0009A8F9D8F83812C968FAF2C978F5F806802
:100D00006A968FAF6A9744E650E0BE016F5F7F4FEF
:100D100080E00E94EC02CC59DF4F0FB6F894DEBFA2
:100D20000FBECDBFDF91CF911F910F9108950F930B
:100D30001F93CF93DF93EC0188810E9488019B8BE6
:100D40008A8B288939898217930751F00E94720291
:100D50006C8B7D8B8E8B9F8B8A899B89998B888BE3
:100D60000E9472020C891D892E893F89601B710BBC
:100D7000820B930B0A811B812C813D8160177107C7
:100D80008207930740F08E859F859D878C878A898F
:100D90009B899F878E872C853D858E859F8528170B
:100DA000390781F04A855B854230510581F48E8197
:100DB0009F81A885B9850196A11DB11D8E839F8352
:100DC000A887B987DF91CF911F910F9108954115A1
:100DD000510531F421303105A9F7892B41F3F2CFC8
:100DE0004130510579F7232B69F7019759F7DFCF88
:100DF00087FF0AC09CE0980F923030F08D3F21F0C1
:100E0000803F18F4807F089580E00895982F9F7E9A
:100E1000282F2F7C203839F0803E29F081E0903C4B
:100E200019F080E0089581E00895CF93DF93EC01FD
:100E3000E881F981309711F0CB9609958CAD823F0E
:100E400009F49EC090F5803C09F486C090F4803986
:100E500009F454C030F4803809F445C0DF91CF91D3
:100E60000895803A09F475C0803BC1F7EA85FB8597
:100E70003CC0803E09F459C058F4803D79F7EE85B6
:100E8000FF85309759F36DAD8BADDF91CF9109940C
:100E9000803F09F464C0813F09F7EC89FD893097F0
:100EA000E9F28DADDF91CF9109948A3F91F180F401
:100EB000863F09F477C028F4833F81F6E88DF98DE9
:100EC000EECF883FF1F0893F49F6E8A1F9A11BC0B8
:100ED0008C3F29F108F18E3F29F18F3F09F0BECFF9
:100EE000E8A5F9A510C0EC81FD81309709F4B6CFD3
:100EF0004EAD6DAD8BADDF91CF910994EE81FF8149
:100F0000F4CFEC8DFD8D309709F4A8CFDF91CF9110
:100F10000994EE8DFF8DF7CFEAA1FBA1F4CFECA1F0
:100F2000FDA1F1CFEEA1FFA1EECFE889F9893097BD
:100F300009F494CF6EAD20E8629FB001112460786F
:100F40007F738DAD8F77682B70528BADDF91CF9112
:100F50000994E885F985C9CFEC85FD8592CFEA89AA
:100F6000FB89309709F47ACF6DAD7EAD613871059C
:100F700010F060E870E0CE01CF96DF91CF91099438
:100F8000EE89FF89309709F469CF8EAD20E8829F02
:100F9000C001112480789F732DAD2F77822BDF91B4
:100FA000CF910994EA8DFB8DAECFDC018D919C91A0
:100FB000DC01ED91FC910190F081E02D09940F93FB
:100FC0001F93CF93DF93FC01EC57FF4F2081222327
:100FD00009F450C0EC01688161506F708981682B01
:100FE00080913A0590913B050E94D5078981803F09
:100FF000F9F08E010B571F4FF80180819181029704
:1010000038F06A8180913A0590913B050E94D5079E
:10101000F80180819181039768F16B8180913A0595
:1010200090913B05DF91CF911F910F910C94D507C3
:1010300060EF80913A0590913B050E94D5078E01A3
:10104000A8014C1B5D0B80913A0590913B050F5F09
:101050001F4F2A813B812138310510F020E830E014
:101060004217530728F4F80163810E94D507E8CF9F
:1010700067EFD8CFDF91CF911F910F9108951F9304
:10108000CF93DF932150203118F587FF21C0D42F53
:10109000162FC82F622F682B80913A0590913B053F
:1010A0000E94D507612F6F7780913A0590913B059B
:1010B0000E94D507CF7EC03C59F06D2F6F7780918D
:1010C0003A0590913B05DF91CF911F910C94D50784
:1010D000DF91CF911F910895242F462F682F80EB29
:1010E0000C943F086D3F48F46A3F10F4683F39F4B0
:1010F000FC01808191810C94D5076E3FC8F708955B
:10110000813E10F40C943F08883F28F0682F8AE352
:1011100095E00C94720808950F931F93CF93DF937B
:1011200000D000D0CDB7DEB7FC012089918982893B
:10113000378539832A839B838C8302EC14E0F80182
:10114000838144E050E0BE016F5F7F4F8F5F0E945C
:101150002803F80183818F5F0E947E020F900F9019
:101160000F900F90DF91CF911F910F9108950F93E2
:101170001F93CF93DF9300D000D0CDB7DEB78C01A3
:10118000262FFC01848195813681303FD9F000976C
:1011900011F4208B04C08130910581F4618BF8013A
:1011A000848195810196958384830F900F900F9091
:1011B0000F90DF91CF911F910F910895029779F7CA
:1011C000628BEDCF603F49F48389F0E18F9FC001CE
:1011D00011248460F8018787DCCF63E070E00E940F
:1011E0004A24AC01273F39F493899295907F85E09A
:1011F000840F982B9787F8014115510521F4208B16
:10120000128A118ACCCF4130510519F4218B128AF0
:10121000C6CF228B273F19F2908981893785398380
:101220009A838B832C838091C50444E050E0BE01F7
:101230006F5F7F4F8F5F0E9428038091C5048F5F8F
:101240000E947E02ACCFDC0116966C9316975396E3
:101250008C91539720E1829FC0011124603FE8F4F4
:10126000E62FE295EF70E750FF0BEE0FFF1FE25203
:10127000FD4F9181892B1F968C931F9752961C923C
:10128000529751961C92519750961C9250971596D2
:101290001C921E92149781E008958460ECCF0F9306
:1012A0001F93CF93DF93DFEFD20FD03198F587FFF5
:1012B00031C0142F062FC82F682F8091A906909156
:1012C000AA060E942309882329F16D2F6C2B809197
:1012D000A9069091AA060E94B708602F6F778091A7
:1012E000A9069091AA060E94B708CF7EC03C41F0A3
:1012F000612F6F778091A9069091AA060E94B70886
:101300008091A9069091AA06DF91CF911F910F912C
:101310000C948C08DF91CF911F910F910895242F89
:10132000462F682F80EB0C944F09BF92CF92DF922B
:10133000EF92FF920F931F93CF93DF938C016B017A
:10134000B42EE52EF22E60EFFC01808191810E9487
:101350002309882351F181E0F82631F060EFF8018C
:10136000808191810E94B708CB2DDE2DCC0EDD1E31
:10137000F80180819181CC15DD0521F069910E94F1
:10138000B708F6CFFF2019F067EF0E94B708F80101
:1013900080819181DF91CF911F910F91FF90EF900C
:1013A000DF90CF90BF900C948C08DF91CF911F916C
:1013B0000F91FF90EF90DF90CF90BF9008950F9323
:1013C0001F93CF936D3FD8F46A3F10F4683FC9F480
:1013D000C62F8C01FC01808191810E942309882302
:1013E00081F06C2FF801808191810E94B708F8018B
:1013F00080819181CF911F910F910C948C086E3F49
:1014000038F7CF911F910F910895813E10F40C94FD
:101410004F09883F28F0682F89EA96E00C94DF098D
:1014200008950F931F93CF93DF93082F162FD42F78
:10143000C8E06D2F661F6627661F802F0E94B101CE
:10144000DD0F61E0812F0E94B10160E0812F0E94D9
:10145000B101C15071F7DF91CF911F910F910895A4
:101460000F931F93CF93DF9300D0CDB7DEB78C01DE
:1014700069834A8360E0FC0182810E94B101498155
:10148000F801648180810E94110A4A81F801648117
:1014900080810E94110A61E0F80182810F900F9013
:1014A000DF91CF911F910F910C94B1010F931F9376
:1014B000CF93DF938C01C1E0D0E0F8018681978162
:1014C0008C179D073CF040E06C2FC8010E94300A49
:1014D0002196F3CFDF91CF911F910F910895CF9374
:1014E000C82F8EEF94E00E94560A40E86C2F8EEFD2
:1014F00094E00E94300A0E94720260930605709385
:1015000007058093080590930905CF910895CF931F
:10151000DF93EC0189818E3FE1F0909104029230DB
:1015200041F0953081F0913049F4CE010E94DF07FF
:1015300005C028814B816A810E94050A82E0DF9103
:10154000CF910C946F0A28814B816A810E94050A11
:10155000ECCFDF91CF910895CF93DF93EC01898198
:101560008E3FD9F090910402943099F0953061F05B
:10157000933029F428814B816A810E94050A82E018
:10158000DF91CF910C946F0A28814B816A810E9470
:10159000050ACE010E94DF07F2CFDF91CF910895B7
:1015A000AF92BF92CF92DF92EF92FF920F931F9371
:1015B000CF93DF93CDB7DEB7A2970FB6F894DEBF17
:1015C0000FBECDBF2AE0AE014F5F5F4F5A010E94B0
:1015D0005322F50101900020E9F731978F010A1994
:1015E0001B09B8016F5F7F4F90E080E00E943326B7
:1015F0007C01009761F1FC011082B5010E94F9267F
:10160000D12CC12CC016D10629F1F701EC0DFD1D1E
:10161000E114F10421F410927104E1E7F4E0808117
:1016200089831A824AE050E070E060E0C5010E94C0
:101630003321FB01E451FE4F4491602F6C198EEF72
:1016400094E00E94300AFFEFCF1ADF0ADBCF10E0F0
:1016500000E0D6CFE114F10499F0C701A2960FB6CD
:10166000F894DEBF0FBECDBFDF91CF911F910F91D8
:10167000FF90EF90DF90CF90BF90AF900C94AA2591
:10168000A2960FB6F894DEBF0FBECDBFDF91CF910B
:101690001F910F91FF90EF90DF90CF90BF90AF9090
:1016A0000895CF93C82F8EEF94E00E94560A6C2FB6
:1016B00070E090E080E00E94D00A0E947202609385
:1016C0000605709307058093080590930905CF914F
:1016D0000895CF93C82F8EEF94E00E94560A6C2F86
:1016E00070E06F5F7F4F072E000C880B990B0E94F4
:1016F000D00A47E662E08EEF94E00E94300A0E9432
:101700007202609306057093070580930805909315
:101710000905CF910895CF92DF92EF92FF921F9328
:10172000CF93DF93182F82E091E0189F6001199FFB
:10173000D00C112484E0E82E81E0F82EC1E0D0E046
:10174000C6018C0F9D1F0E949223F70181937F0198
:101750002196C330F1E0DF0799F71093C702812F7C
:10176000DF91CF911F91FF90EF90DF90CF900C947D
:10177000690B833010F40C948B0B0895862F633023
:1017800010F40C94B90B08950F931F93CF93C82FA7
:10179000882349F1109267040E947202009162044A
:1017A000109163042091640430916504601B710BF7
:1017B000820B930B6F3F710581059105C8F58091F0
:1017C000C8028823E9F08091C702CC2399F08230C7
:1017D00068F48F5F0E94B90B8091C702CF911F916F
:1017E0000F910C94690B10926604D6CF80E00E9492
:1017F0008B0BF2CF882311F08150ECCF82E0F7CF32
:101800008091C602CC2371F0803150F48F5F8093B9
:10181000C6028091C602CF911F910F910C94510B7B
:1018200081E0F5CF823010F08150F1CF80E1EFCF31
:10183000CF911F910F910895FF920F931F93CF9314
:10184000DF93EC01F62E08811981C8010E949223D2
:10185000F81621F06F2DC8010E949A23CE01DF9166
:10186000CF911F910F91FF900895EF92FF920F93E8
:101870001F93CF93DF93CDB7DEB761970FB6F89480
:10188000DEBF0FBECDBFDC016430710508F48AC035
:1018900011968C911197803209F084C01296EC91C8
:1018A0001297E150E93008F07DC0F0E0E65AF34FBE
:1018B0000C945E24630CE90C450D540D750D4A0D16
:1018C000D20CDF0CE40C14968C9114971396EC91C7
:1018D000139728E0E29FF0011124EC5FFE4F808314
:1018E00015968C9115971396EC91139738E0E39F1A
:1018F000F0011124EC5FFE4F818319968C911997AA
:101900001396EC91139798E0E99FF0011124EC5F96
:10191000FE4F82831A968C911A971396EC91139727
:1019200028E0E29FF0011124EC5FFE4F84831B96B8
:101930008C911B971396EC91139738E0E39FF0017D
:101940001124EC5FFE4F83831C968C911C97139699
:10195000EC91139798E0E99FF0011124EC5FFE4FA2
:1019600085831396EC91139728E0E29FF0011124F0
:10197000EC5FFE4F16968C91169790E1899F90012F
:10198000112417968C911797822B868318968C9129
:1019900018971396EC9128E0E29FF0011124EC5F78
:1019A000FE4F878361960FB6F894DEBF0FBECDBFA2
:1019B000DF91CF911F910F91FF90EF9008951396B3
:1019C0008C9180930402EECF13968C918093050244
:1019D000E9CF13962C91233028F742E051E0249F61
:1019E000C001259F900D112404E011E0FC01E4509A
:1019F000F1407F01F80161918F01C7018E0F9F1F98
:101A00009A838983CE0101960E941C0CF2E0063075
:101A10001F0781F78EEF94E00E94560A4BE562E0C3
:101A20008EEF94E00E94300A4CE161E08EEF94E08A
:101A30000E94300A6CE271E080E090E00E94400277
:101A40004CE961E08EEF94E00E94300A6CE271E0B4
:101A500080E090E00E9440024CE161E08EEF94E073
:101A60000E94300A6CE271E080E090E00E94400247
:101A70004CE961E08EEF94E00E94300A6CE271E084
:101A800080E090E00E9440028DCF13968C910E94DE
:101A9000B90B88CF13968C919FEF980F903108F077
:101AA00081CF8093C6027ECF1B821C821D8280E282
:101AB000898384E08A838DEF93E00E9492238D8353
:101AC0008EEF93E00E9492238C838FEF93E00E942D
:101AD00092238B8320E0AE014F5F5F4F65E070E0A3
:101AE00089EA96E00E9495095DCF0CEC10E020E2B7
:101AF000F22E35E0E32EF801A591B491BB2783E0E7
:101B0000AA0FBB1F8A95E1F7AC5FBE4F16968C916A
:101B10001697F982EA82F801259134912B839C91E2
:101B20009C8311969C9111979D83282F30E094E01F
:101B3000359527959A95E1F72E838F708F831796A9
:101B40008C911797888712968C9112978987149693
:101B50008C9114978A8713968C9113978B8715967F
:101B60008C918C8720E0AE014F5F5F4F6CE070E09E
:101B700089EA96E00E9495090F5F1F4F20E00C3E16
:101B8000120709F0B8CFFD8688E08E8780910402A5
:101B90008F8720E0AE01435F5F4F63E070E089EA2A
:101BA00096E00E949509F98289E08A838091050276
:101BB0008B8320E0AE014F5F5F4F63E070E089EA06
:101BC00096E00E949509F88A83E6898B20E0AE01B1
:101BD000405F5F4F62E070E083CF8F929F92AF9241
:101BE000BF92DF92EF92FF920F931F93CF93DF93F9
:101BF000CDB7DEB7C450D1400FB6F894DEBF0FBEEC
:101C0000CDBF1A82198260E08E010F5F1F4FC8019D
:101C10000E941C0C4CEA50E020E03FE760E1FA0132
:101C200085919491FC01FF2793E0EE0FFF1F9A9599
:101C3000E1F7E00FF11F208380E2820F818312829F
:101C4000138234833583168267832F5F4F5F5F4F24
:101C5000203229F781E0CF5FDE4F8883C150D14029
:101C600082E0CE5FDE4F8883C250D140AA24BB24DD
:101C7000A01AB10A83E0D82E48018EEF881A980A7C
:101C80007801F70161917F01CF018A0D9B1DCD5F26
:101C9000DE4F99838883C350D140CE018D5F9E4F24
:101CA0000E941C0C8E149F0461F7DA94FEEFAF1AA9
:101CB000BF0AD110E5CFE8E5F1E0659174918DEFB1
:101CC00093E0CD5FDE4F99838883C350D140CE012E
:101CD0008D5F9E4F0E941C0CE7E5F1E065917491C9
:101CE0008EEF93E0CD5FDE4F99838883C350D14060
:101CF000CE018D5F9E4F0E941C0CE6E5F1E06591E0
:101D000074918FEF93E0CD5FDE4F99838883C3504A
:101D1000D140CE018D5F9E4F0E941C0CCC5FDE4FE8
:101D20000FB6F894DEBF0FBECDBFDF91CF911F91EC
:101D30000F91FF90EF90DF90BF90AF909F908F90AA
:101D4000089584E0EEE3F3E0DB0101900D928A95C3
:101D5000E1F784E008951F920F920FB60F921124BD
:101D60002F933F938F939F93AF93BF938091690479
:101D700090916A04A0916B04B0916C043091680456
:101D800023E0230F2D3758F50196A11DB11D209397
:101D900068048093690490936A04A0936B04B093E1
:101DA0006C0480916D0490916E04A0916F04B091C9
:101DB00070040196A11DB11D80936D0490936E0473
:101DC000A0936F04B0937004BF91AF919F918F91D6
:101DD0003F912F910F900FBE0F901F90189526E8FE
:101DE000230F0296A11DB11DD2CF1F920F920FB6E5
:101DF0000F9211242F933F934F935F936F937F9391
:101E00008F939F93AF93BF93CF93EF93FF93C09123
:101E1000E1008091E100837F8093E100C3FF0FC068
:101E20001092E90081E08093EB001092EC0082E3D5
:101E30008093ED001092590388E08093F000C2FF78
:101E40001BC083E00E947E0280915603882341F0EC
:101E500080915603815080935603811101C05D9A91
:101E600080915503882341F08091550381508093E0
:101E70005503811101C0289AC4FF23C08091E2005C
:101E80008E7E81608093E2008091E1008F7E80935E
:101E9000E100809157038E7E806180935703FF910C
:101EA000EF91CF91BF91AF919F918F917F916F9162
:101EB0005F914F913F912F910F900FBE0F901F9008
:101EC0001895C0FFECCF8091E2008E7E80618093F8
:101ED000E2008091E1008E7E8093E10080915703C3
:101EE0008E7E8160DACF1F920F920FB60F9211246F
:101EF000CF92DF92EF92FF920F931F932F933F9316
:101F00004F935F936F937F938F939F93AF93BF9301
:101F1000EF93FF93CF93DF93CDB7DEB76C97DEBF20
:101F2000CDBF1092E9008091E80083FF25C068E0F2
:101F3000CE0145960E94650482EF8093E8008D896A
:101F400087FF39C09091E80090FFFCCF982F9076E2
:101F500009F034C19E894F89588D2F89F88C9111D1
:101F600031C0803861F5809158038093F100109260
:101F7000F1008EEF8093E8006C960FB6F894DEBF08
:101F80000FBECDBFDF91CF91FF91EF91BF91AF9188
:101F90009F918F917F916F915F914F913F912F9181
:101FA0001F910F91FF90EF90DF90CF900F900FBE99
:101FB0000F901F9018959EEF9093E800C7CF109256
:101FC000F100D5CF913059F48111D3CF4130510573
:101FD00081F6809158038D7F80935803CACF933048
:101FE00049F48111C6CF4130510519F6809158034B
:101FF0008260F2CF953041F48091E80080FFFCCF01
:1020000020682093E300B5CF963009F0A9C00B8D6E
:102010001C8D22E01092E90010925303109252039B
:10202000F2122EC010925103109250030E94B3047A
:102030001F8299E09983FA8291E09E8390EA9887C3
:102040009AEF99872091520330915303275F3F4FB6
:102050003C832B838D831092E900109253031092DE
:102060005203109351030093500349E050E0BE0126
:102070006F5F7F4F80E00E94EC020E94B30479CF33
:1020800010935103009350030E949F04DC011296A9
:102090000D911C910115110509F451C1D801ED9163
:1020A000FC910480F581E02DBE016B5E7F4FC8017D
:1020B0000995009709F03EC1F80100851185EACF26
:1020C000F3E0FF120EC08F89882309F440C08230EC
:1020D00061F440E869E08CE491E00E94B90281116A
:1020E00048CF81E28093EB0047CF813029F440E86C
:1020F00067E084E491E0F1CF833099F70E949F0478
:10210000DC011296ED90FC908E010F5F1F4F68016D
:10211000E114F10479F0D701ED91FC910680F7818B
:10212000E02DB801C7010995080F111DF701E084E2
:10213000F184EECFD8011C92F60101900020E9F75E
:102140003197BF016C197D0940E0C601C6CF6EE230
:1021500071E0FB01449150E080E80E94EC0209CF5D
:10216000973009F4BECF983021F481E08093F100DC
:1021700000CF993009F0FDCE837009F0B2CFE2EDC7
:10218000F2E081E031E096E32191222371F0809327
:10219000E9003093EB00DF0111972C912093EC00C4
:1021A0009093ED008F5F873079F78EE78093EA0098
:1021B0001092EA008F8980935903DBCE8B8D9C8D22
:1021C0001092E9001092530310925203909351031E
:1021D00080935003898D811192C08E899D89913A97
:1021E00049F4813209F07DCF47E050E069EC72E0BC
:1021F00080E0B3CF913209F074CF833269F48F89D4
:10220000988DB0E0A0E08093000190930101A0932D
:102210000201B0930301ADCE803269F48091E800F1
:1022200082FFFCCF67E089EC92E00E9465048BEFAF
:102230008093E8009ECE823209F09BCE8F898093F6
:10224000D002EEEFFFE7859194918B3F9C4D51F1C9
:10225000E0E0F8E08091C9029091CA02A091CB021F
:10226000B091CC02803B9440A105B105F1F480917E
:10227000D00280FD1AC0EE3F8AE0F80789F587E7B3
:1022800097E791838083809160008093540388E175
:102290009BE00FB6F894A895809360000FBE9093D2
:1022A000600067CEEEEFFAE0D5CF8081918187376D
:1022B000974709F05ECEA895809160008861809371
:1022C00060008091540380936000EE3F2AE0F207A3
:1022D00089F08091FE0A9091FF0A9183808349CE14
:1022E000808191818737980751F29093FF0A8093FC
:1022F000FE0AC5CF1092FF0A1092FE0A3ACE0E9443
:102300009F04DC0112960D911C910115110509F431
:10231000E8CED801ED91FC910190F081E02DBE0155
:102320006B5E7F4FC8010995811123CEF8010085AE
:102330001185EBCF181619060CF41BCED2CEF1E0A6
:10234000FF12BECE62E371E004CF1F920F920FB670
:102350000F9211242F933F934F935F936F937F932B
:102360008F939F93AF93BF93EF93FF9380EE95E08E
:102370000E943505FF91EF91BF91AF919F918F9191
:102380007F916F915F914F913F912F910F900FBE71
:102390000F901F9018951F920F920FB60F92112455
:1023A0002F938F939F93EF93FF93E091F005F0911C
:1023B000F1058081E091F605F091F70582FD1BC0E3
:1023C00090818091F9058F5F8F732091FA058217B4
:1023D00041F0E091F905F0E0E052FA4F958F8093DB
:1023E000F905FF91EF919F918F912F910F900FBE63
:1023F0000F901F9018958081F4CFCF93DF93EC015D
:10240000862F688379831A821B821C821D821E821A
:102410001F82188619861B861A8662E00E94DF01D9
:1024200088810E9488019D878C8788810E9488010D
:102430009F878E8788810E948801998B888B1C8A50
:102440001D8A1E8A1F8ADF91CF910895CF93DF9353
:10245000109275041092740488EE93E0A0E0B0E04E
:102460008093760490937704A0937804B0937904D2
:1024700022E133E030937304209372042FEF3FEF97
:1024800030937F0420937E041092E3051092E205BE
:102490008093E4059093E505A093E605B093E705E6
:1024A00084E293E09093E1058093E0058DEC90E069
:1024B0009093ED058093EC058CEC90E09093EF0504
:1024C0008093EE0588EC90E09093F1058093F00501
:1024D00089EC90E09093F3058093F2058AEC90E00C
:1024E0009093F5058093F4058EEC90E09093F705BA
:1024F0008093F6051092F9051092FA051092FB05EB
:102500001092FC0582E08093C6048093C7048CEC93
:1025100094E09093C9048093C8041092CB04109265
:10252000CA0486E393E09093C3048093C20480E8D6
:102530008093CC0481E88093CD040E949F04FC0129
:1025400081819091C604482F490F5527551F483067
:1025500051059CF5A281B381109709F522EC34E076
:102560003383228320812093C4048093C504809107
:10257000C704820F80832091C804A22FB091C904A0
:102580008A2F821B8917C8F481813D91C82FD0E022
:10259000CF52DD4F38838F5F8183F2CFD9011896F8
:1025A0002D913C91199721153105C1F722EC34E0AA
:1025B00019963C932E931897D5CF109262071092DC
:1025C000800610927F061092820610928106109269
:1025D0008406109283061092860610928506109249
:1025E00088061092870610928A0610928906109229
:1025F0008C0610928B0610928E0610928D06109209
:10260000900610928F0610929206109291061092E8
:1026100094061092930610929606109295061092C8
:1026200098061092970610929A06109299061092A8
:102630009C0610929B0610929E0610929D06109288
:10264000A00610929F061092A2061092A106109268
:10265000A4061092A3061092A6061092A506109248
:10266000A8061092A7068FE497E09093AA0680939D
:10267000A9061092AB061092AC061092AD0610920D
:10268000B2061092B1061092B4061092B3068FEF04
:102690009FEF9093B6068093B5069093B80680930B
:1026A000B70623E02093B9061092BA061092BB0633
:1026B0001092BC061092BD0610923E0720E8EEEB89
:1026C000F6E0DF01322F1D923A95E9F710924107AB
:1026D0001092420710924307109244071092450748
:1026E0001092460710924707109248071092490728
:1026F00010924A0710924B0710924C0710924D0708
:1027000010924E0740EE55E050937E0640937D06B2
:1027100010921105109210051092130510921205D7
:1027200010921505109214051092170510921605B7
:10273000109219051092180510921B0510921A0597
:1027400010921D0510921C0510921F0510921E0577
:102750001092210510922005109223051092220557
:102760001092250510922405109227051092260537
:10277000109229051092280510922B0510922A0517
:1027800010922D0510922C0510922F0510922E05F7
:1027900010923105109230051092330510923205D7
:1027A00010923505109234051092370510923605B7
:1027B00010923905109238054DE756E050933B05CD
:1027C00040933A0510923C0510923D0510923E054B
:1027D000109243051092420510924505109244054F
:1027E000909347058093460590934905809348054B
:1027F00083E080934A0510924B0510924C0510928D
:102800004D0510924E051092CF05EFE4F5E0DF0183
:102810001D922A95E9F71092D2051092D3051092D5
:10282000D4051092D5051092D6051092D7051092B6
:10283000D8051092D9051092DA051092DB05109296
:10284000DC051092DD051092DE051092DF0580E1B7
:1028500090E09093FF048093FE048AE090E09093D0
:102860000105809300058FE090E09093030580932D
:10287000020561E080E10E94DF0161E080910005D6
:102880000E94DF0161E0809102050E94DF0161E0AA
:10289000809100050E94B10165E170E086EE94E050
:1028A0000E94FD1164E170E08EEC94E0DF91CF9125
:1028B0000C94FD11CF93DF93CDB7DEB72F970FB6F2
:1028C000F894DEBF0FBECDBF789484B5826084BD1E
:1028D00084B5816084BD85B5826085BD85B5816024
:1028E00085BD80916E00816080936E0010928100A2
:1028F000809181008260809381008091810081605D
:10290000809381008091800081608093800080911D
:10291000910082608093910080919100816080930A
:102920009100809190008160809390008091C1001F
:1029300084608093C1008091C10082608093C10057
:102940008091C10081608093C1008091C30081604B
:102950008093C3008091C00082608093C00080910A
:10296000C20081608093C20080917A00846080936D
:102970007A0080917A00826080937A0080917A0058
:10298000816080937A0080917A00806880937A00D9
:102990001092590310925803109257038091D70058
:1029A00081608093D70080EA8093D80089B58061E8
:1029B00089BD89B5826089BD09B400FEFDCF61E0A3
:1029C00070E080E090E00E9440028091D8008F7C0F
:1029D00080618093D8008091E000807F8093E00048
:1029E0008091E1008E7E8093E1008DE08093E20093
:1029F000559A209A40E06AE08EEF94E00E94300AF7
:102A000082E090E0909305058093040540E06FE03C
:102A10008EEF94E00E94300A41E06BE08EEF94E08C
:102A20000E94300A40E069E08EEF94E00E94300A94
:102A30008EEF94E00E94560A41E06CE08EEF94E045
:102A40000E94300A82E080930A0583E080930B05A0
:102A500084E080930C0585E080930D050AE015E085
:102A600061E0D8018D918D010E94DF01B5E00E304B
:102A70001B07B1F76AE070E080E090E00E9440023E
:102A800088E080930E0560E00E94DF0189E080937A
:102A90000F0560E00E94DF0161E081E00E94DF013C
:102AA00061E081E00E94B10161E081E10E94DF010B
:102AB00062E085E10E94DF0162E084E10E94DF01C3
:102AC00060E088E00E94DF0160E089E00E94DF01B1
:102AD00082E390E0A0E0B0E08093E8049093E90402
:102AE000A093EA04B093EB048093D0049093D104B4
:102AF000A093D204B093D30485E10E948801892B6E
:102B000091F460E081E10E94B1010E947202603A9A
:102B10007F408105910510F00C94132185E10E94FE
:102B20008801892B91F38DEF93E00E949223E8E5D1
:102B3000F1E025913491821315C08EEF93E00E944D
:102B40009223E7E5F1E02591349182130BC08FEFDA
:102B500093E00E949223E6E5F1E0259134918217FB
:102B600009F4C5C003E010E061E081E10E94B10119
:102B70006CE271E080E090E00E94400260E081E160
:102B80000E94B1016CE271E080E090E00E9440029E
:102B90000150110949F713E08EEF94E00E94560AA4
:102BA00040E162E08EEF94E00E94300A64E670E05B
:102BB00080E090E00E9440028EEF94E00E94560A6E
:102BC00048E162E08EEF94E00E94300A64E670E033
:102BD00080E090E00E9440028EEF94E00E94560A4E
:102BE0004CE162E08EEF94E00E94300A64E670E00F
:102BF00080E090E00E9440028EEF94E00E94560A2E
:102C00004DE062E08EEF94E00E94300A64E670E0EE
:102C100080E090E00E9440028EEF94E00E94560A0D
:102C200045E062E08EEF94E00E94300A41E061E00E
:102C30008EEF94E00E94300A64E670E080E090E05D
:102C40000E9440028EEF94E00E94560A41E062E04A
:102C50008EEF94E00E94300A41E261E08EEF94E052
:102C60000E94300A64E670E080E090E00E9440023A
:102C70008EEF94E00E94560A41E661E08EEF94E008
:102C80000E94300A64E670E080E090E00E9440021A
:102C90008EEF94E00E94560A42E661E08EEF94E0E7
:102CA0000E94300A64E670E080E090E00E944002FA
:102CB0008EEF94E00E94560A42E461E08EEF94E0C9
:102CC0000E94300A40E162E08EEF94E00E94300AF8
:102CD00064E670E080E090E00E9440028EEF94E0B5
:102CE0000E94560A115009F057CF0E94ED0D90E056
:102CF00080E00E9492230E94B90B8CEA9AE09093A4
:102D0000800680937F0687E89AE090931105809370
:102D1000100585E39CE090939206809391068EEBDC
:102D20009BE090938C0680938B0690931D05809377
:102D30001C05E091A906F091AA0615821482168658
:102D40001586148613861092AB061092AD0610926B
:102D5000AC061092B4061092B3061092B20610920E
:102D6000B1060FEF1FEF1093B6060093B506109350
:102D7000B8060093B7060E947202609341077093F1
:102D80004207809343079093440710923E071092A6
:102D9000BB061092BA061092BC061092BD061092A5
:102DA000400710923F078091B906817082608E7F44
:102DB0008093B906E0913A05F0913B050190F081CE
:102DC000E02DA089B18982E08C93A485B5851C9201
:102DD000A685B7858FE38C93108EA489B58986E08C
:102DE0008C93A289B3898C9180618C93A289B389D9
:102DF0008C9188608C93A289B3898C9180688C9324
:102E00000288F389E02D80818F7D808310923C05BC
:102E100010923E0510923D05109245051092440512
:102E20001092430510924205109347050093460502
:102E300010934905009348050E9472026093D205E1
:102E40007093D3058093D4059093D5051092CF0548
:102E500010924C0510924B0510924D0510924E05A4
:102E60001092D1051092D00580914A058170826040
:102E7000816080934A056EEF8091A9069091AA0621
:102E80000E942309882369F06EEF8091A906909132
:102E9000AA060E94B7088091A9069091AA060E94EE
:102EA0008C086EEF8AE395E00E94720815E041E01D
:102EB00061E08EEF94E00E94300A48E062E08EEF1D
:102EC00094E00E94300A60EA70E080E090E00E94A6
:102ED00040028EEF94E00E94560A40E461E08EEFDB
:102EE00094E00E94300A41E062E08EEF94E00E949C
:102EF000300A60EA70E080E090E00E9440028EEFCD
:102F000094E00E94560A48E061E08EEF94E00E944F
:102F1000300A40E462E08EEF94E00E94300A60EAFA
:102F200070E080E090E00E9440028EEF94E00E940A
:102F3000560A115009F0BBCF0E9472026093060539
:102F400070930705809308059093090586E092E049
:102F50009F838E83F4E02F2EF1E03F2E1B861A868E
:102F60000AE015E0F12CE12C6A857B850E2C02C06D
:102F7000759567950A94E2F76170D8018D918D017E
:102F80000E94B101BFEFEB1AFB0AE4E0EE16F10478
:102F900059F781E090E0FA85F03110F490E080E09C
:102FA000865F9A4FDC011496EC91E23108F0E25111
:102FB000F0E0E75AFE4FE49190917B008E2F880F4E
:102FC000880F80729F7D892B80937B00E770E0647F
:102FD000E0937C0080917A00806480937A008091F5
:102FE0007A0086FDFCCF8091780060917900EE81B7
:102FF000FF81C080D180E280F380762F682F90E03F
:1030000080E00E9497222AE939E949E95EE30E94BB
:10301000D4224B015C01B70190E080E00E9497222E
:1030200023E333E343E35FE30E94D4229B01AC013B
:10303000C501B4010E946C240E94D824DB012FEF4B
:1030400033E00E94642410E000E06530FCEF7F076D
:10305000FFEF8F079F0784F00FEF13E0611520EF5C
:1030600072072FE0820791053CF42CEF33E040E03B
:1030700050E00E94DA238901AE81BF8111961C9332
:103080000E93CE14DF0421F013961C930E93129727
:103090009801AFEFBFE30E943B242FEF33E040E005
:1030A00050E00E94DA232901EE81FF81E480F5805F
:1030B0009701AFEFBFE30E943B242FEF33E040E0E6
:1030C00050E00E94DA234201880C892C881C990860
:1030D0009194512CC201959587959E878D879D85EA
:1030E0009887D1011796BC91B9878B2F90E0E4E0C7
:1030F00095958795EA95E1F7E82FE770ED83E53040
:1031000009F079C0E016F10621F02695F8852F1315
:103110007EC08A859B8501969B878A87AE81BF8109
:103120001696BF83AE83B8E02B0E311C809709F052
:1031300017CFE0903C05E0E1EE1508F4E8C1E0911E
:103140003A05F0913B0580819181DC01ED91FC9184
:103150000084F185E02D0995892B09F4D8C180916F
:10316000DF058E7F8093DF05E0913A05F0913B0506
:1031700080819181DC01ED91FC910284F385E02D49
:103180000995182F8D3F09F4C2C180914405909193
:103190004505009709F043C310933F0500913D0595
:1031A000802F0E94F8060E940607882361F017FD11
:1031B0000AC000933F0510934005E1E0F0E0F09372
:1031C0004505E093440510913F05812F0E94F806C4
:1031D000813F09F4EDC208F082C2803B49F008F05B
:1031E00078C1803929F0803A19F0803809F079C126
:1031F00023E030E0DFC2E016F10609F48ACF220FA7
:10320000232F221F330B3195821609F482CFAE8112
:10321000BF8115961C930E931497B9851091C60221
:10322000B2FF05C0F101168112951F701F5FF9856D
:10323000F3FF73C0D10116968C918F708F5F8C87CE
:10324000F101C480D12CF12CE12C2281422E512C91
:10325000712C612CB12CA12CF985F170FF87298587
:1032600020FD5FC0A70196012419350946095709B9
:10327000C501B4010E94A8232FE730E040E050E0F0
:103280000E94DA2369017A01C40CD51CE61CF71CE4
:103290000C2D7D81753009F059C08F85882321F070
:1032A0009FE7AD859A1B9887809105028D7FB1F4C9
:1032B000412F602FD1018C910E946C08F101878110
:1032C00090E024E0959587952A95E1F78770853001
:1032D00029F4412F688581810E946C088091050244
:1032E00081508230B0F4412F602FD1018C910E9427
:1032F0008F09F101878190E0B4E095958795BA95A3
:10330000E1F78770853029F4412F688581810E941B
:103310008F0981E00E946F0AFCCEB091C602BC8783
:103320008FCFA30192012C193D094E095F09C501F8
:10333000B4010E94A8232FE730E040E050E00E9453
:10334000DA23C20ED31EE41EF51EA2CFF101C58002
:10335000D12CF12CE12C4380512C712C612CF9855E
:10336000F1FD42C0A7019601241935094609570904
:10337000C501B4010E94A8232FE730E040E050E0EF
:103380000E94DA2369017A01C40CD51CE61CF71CE3
:10339000C8862D81233009F443C0D8F5213009F4C3
:1033A00083CF223009F0B5CE809105028D7F61F484
:1033B000412F602FD1018C910E946C084C856C2D9F
:1033C000F10181810E946C08809105028150823058
:1033D00008F09FCF412F602FD1018C910E948F095F
:1033E0004C856885F10192CFA30192012C193D090A
:1033F0004E095F09C501B4010E94A8232FE730E000
:1034000040E050E00E94DA23C20ED31EE41EF51EF7
:10341000BFCF7D81743099F1753009F07ACE44CFF9
:10342000809105028D7F99F4D1016C916F77412FC6
:1034300083E60E946C08F10161816F77412F82E67B
:103440000E946C08412F602F86E00E946C088091DA
:1034500005028150823008F05CCFD1016C916F770A
:10346000412F83E60E948F09F10161816F77412F1F
:1034700082E60E948F09412F602F86E048CF80911D
:1034800005028D7F99F4D1016C916F77412F85E60C
:103490000E946C08F10161816F77412F84E60E94E0
:1034A0006C08412F602F86E00E946C088091050215
:1034B0008150823008F02DCFD1016C916F77412F70
:1034C00085E60E948F09F10161816F77412F84E6C3
:1034D000D0CF803D09F46CC108F0F0C0803C09F405
:1034E00067C18091DF0581608093DF05E09112055F
:1034F000F0911305309709F0099510924505109247
:103500004405109243051092420510923D05B0907B
:10351000AB06F0E1FB1540F10091A9061091AA0657
:10352000D8011B968D919C91892B09F4D5C280916D
:103530004E078E7F80934E07E091A906F091AA0670
:10354000858596859C012F5F3F4F368725878E0F97
:103550009F1FDC0117961C918385948501979487A2
:1035600083871D3F09F0EDC386EE94E00E94970625
:103570008EEC94E00E9497068091F2049091F304FF
:10358000019799F48091F4049091F504892B69F4E2
:1035900081E0809367040E947202609362047093DA
:1035A000630480936404909365048091DA0490919D
:1035B000DB04019799F48091DC049091DD04892B60
:1035C00069F481E0809366040E9472026093620451
:1035D0007093630480936404909365048091F20473
:1035E0009091F304892B49F48091F4049091F504AF
:1035F000019719F481E00E94C40B8091DA04909144
:10360000DB04892B49F48091DC049091DD0401975F
:1036100019F480E00E94C40B10916704111104C0DA
:1036200080916604882331F10E947202C090620486
:10363000D0906304E0906404F09065046C197D09F7
:103640008E099F096D3F73408105910598F0112304
:1036500031F01092C8028091C6020E94510B8091F5
:103660006604882339F081E08093C8028091C70204
:103670000E94690B0E9472020091060510910705D5
:103680002091080530910905601B710B820B930B8B
:10369000663971058105910520F08EEF94E00E9456
:1036A000560A80E090E0892B09F450CC0E94210555
:1036B000882309F44BCC0E94000048CC803E09F4DA
:1036C00097CD803F09F00DCF20E830E030934305DF
:1036D0002093420510923D0580934F056FC0873FB0
:1036E00099F308F05EC0833F09F462C008F480CD0E
:1036F000863F09F0F6CE80934C0510924B05109250
:103700004D0510924E0581E08093CF05109245053E
:1037100010924405109243051092420580914C0589
:10372000803939F480914E05811103C080E880937F
:103730004C0580914C058058813630F480914B05C2
:10374000E81611F0E11004C080E195E00E94150731
:1037500090914A05392F317090FFD9CE892F8E7FF5
:1037600009F4D5CE80914C0520E8280F213608F0C9
:103770002EC120914B05E21619F031E0E11030E046
:103780009695923009F41CC1933009F41DC1913013
:1037900009F0BDCE40914E0560914D050E94800814
:1037A000B6CE8D3F08F4A7CF8E3F08F0A4CF99CEB8
:1037B00022E030E0309343052093420520914405F8
:1037C00030914505409142055091430541505109C2
:1037D00024173507E8F080934C051F701F5F109386
:1037E0004B058091400580934D0510924E0581E078
:1037F00090E09093D1058093D005109245051092EA
:10380000440510924305109242058093CF0586CF60
:103810002F5F3F4F309345052093440578CE17FF27
:103820000CC01D3F08F04EC0183F08F04EC0103FBE
:1038300009F45BC0173F09F458C020913F05FC0113
:10384000E05FFA4F203F19F0273F09F077C017AF2C
:10385000A0904205B090430595012150310982178F
:10386000930708F4ABC0D0903F05F0EFDF1619F0D6
:1038700027EFD21265C01091CE0580EF8093CE0560
:1038800080934C0580E880934D0510924E05109270
:103890004B0580E890E09093D1058093D00581E0BE
:1038A0008093CF0580E195E00E94150787EF809314
:1038B0004F051093500582E090E09093450580936A
:1038C000440525CE1E3F08F4B8CF10934C05109246
:1038D0004D0510924E0510924B05A1E0B0E0B0935B
:1038E000D105A093D00581E090CF20914F05203FD6
:1038F00019F0273F09F0F5CD9C012F5F3F4F805F06
:103900009A4FFC0117AF80EF80934C0520934D0533
:1039100030934E0510924B053093D1052093D0057E
:1039200081E08093CF0510924505109244051092D6
:1039300043051092420510923D05F0CE17A788CF9F
:103940008D2D0E94F806182F80934C050E940607C3
:10395000882349F18D2D8F708F5F80934B05809167
:10396000400580934D058091410573E0A716B10491
:1039700009F080E080934E051092450510924405B1
:10398000109243051092420581E08093CF05103BD1
:1039900039F060F4103921F0103A11F0103859F66E
:1039A000D0923D05BBCE10924B05D9CF103DC1F34F
:1039B000103EB1F3103C09F0BECFF2CF01967DCF9F
:1039C000332309F4A4CDE6CE3111A1CDE3CEE0E15D
:1039D000E80FE03108F09BCDF0E0EF50F34E0C948F
:1039E0005E24071D581D391D271D871A871A011DC2
:1039F000871A011D871A011D011D011D871A011D4E
:103A0000011D682F8AE395E00E94720880CDE09046
:103A10004D05F0904E0581E8E816F10418F0A0E895
:103A2000EA2EF12C00E115E0C801805195408E1579
:103A30009F0508F06CCDD801DF966C9180913A0516
:103A400090913B050E94D5070F5F1F4FEDCF10915E
:103A50004D0563EF80913A0590913B050E94D50793
:103A6000612F6F7780913A0590913B050E94D507B1
:103A70004ECD00914E05B0E80B9F8001112480913E
:103A80004D05082B62EF80913A0590913B050E940D
:103A9000D507602F6F7780913A0590913B050E9482
:103AA000D507000F012F001F110B1195602FD9CFE3
:103AB00060914D05E0E16E9FB00111246077109197
:103AC0004E051F70162B61EF80913A0590913B05D2
:103AD0000E94D507612FC6CFF80116861586809102
:103AE0005A0490915B04A0915C04B0915D044091F4
:103AF0005E0450915F046091600470916104841BC6
:103B0000950BA60BB70B8F739927AA27BB27892B79
:103B10008A2B8B2B09F47DC080915E0490915F0409
:103B2000A0916004B0916104880F991F880F991FBC
:103B3000FC01E65AFC4F8081918142815381409083
:103B40005A0450905B0460905C0470905D04C090D7
:103B50005E04D0905F04E0906004F09061044C1427
:103B60005D046E047F04D1F0C0905E04D0905F04C9
:103B7000E0906004F0906104FFEFCF1ADF0AEF0AD3
:103B8000FF0A2FE3C222DD24EE24FF24C0925E044C
:103B9000D0925F04E0926004F0926104D8011F9615
:103BA0008C931F9750969C93509751964C93519796
:103BB00052965C935297882329F1282F30E064E0D5
:103BC000359527956A95E1F753966C91539762174F
:103BD000130609F0C9CC8F70682F70E01B962D91E9
:103BE0003C91FB01EE0FFF1FE251FD4FE181E130FF
:103BF00009F48AC008F472C0E23009F495C0E330D9
:103C000009F471C0F80183859485892B09F4ACCC43
:103C10008ECC8091C5040E944C0450E040E090E0BE
:103C2000882309F48CCFC0905A04D0905B04E090B4
:103C30005C04F0905D04FFEFCF1ADF0AEF0AFF0A81
:103C40002FE3C222DD24EE24FF2480915E049091B4
:103C50005F04A0916004B09161048C159D05AE05D0
:103C6000BF0509F459CF8091C5040E944C0444E07B
:103C700050E0BE016F5F7F4F8091C5040E94D80362
:103C800004970CF449CF80915A0490915B04A09161
:103C90005C04B0915D04880F991F880F991F865AA4
:103CA0009C4F49815A816B817C81DC014D935D93EE
:103CB0006D937C931397C0925A04D0925B04E09268
:103CC0005C04F0925D04BFEFCB1ADB0AEB0AFB0A3F
:103CD000EFE3CE22DD24EE24FF24B7CF843019F0A9
:103CE0006730710571F4F801E20FF31F9783408785
:103CF0002D5F3F4FD8011C963C932E931B97518705
:103D000081CF6530710561F4A9014F5F5F4FF80104
:103D100054874387200F311FD90117969C9372CF88
:103D20006630710509F06ECFF801E20FF31F97833B
:103D30002E5F3F4FD8011C963C932E931B974087D4
:103D400061CF8091B3069091B406009709F0F8C056
:103D50001093AE060091AC06802F0E94F8060E94D8
:103D60000607882361F017FD0AC00093AE06109382
:103D7000AF0681E090E09093B4068093B306109173
:103D8000AE06812F0E94F806813F09F4A1C0C8F554
:103D9000803B39F048F4803921F0803A11F08038C6
:103DA00051F423E030E096C0803D09F491C0D0F496
:103DB000803C09F48DC080914E07816080934E074E
:103DC000E0918106F0918206309709F009951092F2
:103DD000B4061092B3061092B2061092B106109279
:103DE000AC06C2CB803EE9F2803F29F720E830E004
:103DF0003093B2062093B1061092AC068093BE06B3
:103E00006DC0873F99F308F05CC0833F09F460C040
:103E100040F2863F81F68093BB061092BA0610925C
:103E2000BC061092BD0681E080933E071092B40656
:103E30001092B3061092B2061092B1068091BB06A2
:103E4000803939F48091BD06811103C080E88093E8
:103E5000BB068091BB068058813630F48091BA064B
:103E6000B81611F0B11004C08FE796E00E94150754
:103E70009091B906392F317090FF76CB892F8E7FC4
:103E800009F472CB8091BB0620E8280F213608F098
:103E90002FC12091BA06B21619F031E0B11030E00E
:103EA0009695923009F41DC1933009F41EC19130EA
:103EB00009F05ACB4091BD066091BC060E94050AEC
:103EC00053CB8D3F08F4A7CF8E3F08F0A4CF73CF1C
:103ED00022E030E03093B2062093B1062091B30681
:103EE0003091B4064091B1065091B206415051094B
:103EF00024173507F0F08093BB061F701F5F1093E7
:103F0000BA068091AF068093BC061092BD06A1E070
:103F1000B0E0B0934007A0933F071092B406109210
:103F2000B3061092B2061092B10681E080933E076C
:103F300085CF2F5F3F4F3093B4062093B30614CB49
:103F400017FF0CC01D3F08F04EC0183F08F04EC0D0
:103F5000103F09F45AC0173F09F457C02091AE062C
:103F6000FC01E158F94F203F19F0273F09F077C0D5
:103F700017AFC090B106D090B2069601215031091A
:103F80008217930708F4ABC0E090AE06B0EFEB16D3
:103F900019F0E7EFEE1265C010913D0780EF8093B6
:103FA0003D078093BB0680E88093BC061092BD0657
:103FB0001092BA0680E890E09093400780933F0704
:103FC00081E080933E078FE796E00E94150787EF18
:103FD0008093BE061093BF0682E090E09093B406F3
:103FE0008093B306C1CA1E3F08F4B8CF1093BB0636
:103FF0001092BC061092BD061092BA06E1E0F0E005
:10400000F0934007E0933F0790CF2091BE06203FFA
:1040100019F0273F09F0CFCE9C012F5F3F4F815809
:10402000994FDC01DF961C9380EF8093BB062093B1
:10403000BC063093BD061092BA0630934007209319
:104040003F0781E080933E071092B4061092B306BA
:104050001092B2061092B1061092AC06EFCE17A7DE
:1040600088CF8E2D0E94F806182F8093BB060E94E1
:104070000607882349F18E2D8F708F5F8093BA06D3
:104080008091AF068093BC068091B006F3E0CF1616
:10409000D10409F080E08093BD061092B40610921E
:1040A000B3061092B2061092B10681E080933E07EB
:1040B000103B39F060F4103921F0103A11F010384B
:1040C00059F6E092AC06BACE1092BA06D9CF103D9E
:1040D000C1F3103EB1F3103C09F0BECFF2CF019610
:1040E0007DCF332309F440CAE5CE31113DCAE2CE7B
:1040F000E0E1E80FE03108F037CAF0E0EE57FF4D9D
:104100000C945E249820F620CB20A920B41AB41A6F
:104110009220B41A9220B41A922092209220B41ABB
:1041200092209220682F89EA96E00E94DF091CCA3B
:104130006091BC067091BD066138710510F060E8B1
:1041400070E021E04EEB56E089EA96E00E94950986
:104150000BCA1091BC0663EF8091A9069091AA0644
:104160000E942309882309F4FFC963EF8091A906FF
:104170009091AA060E94B708612F6F778091A906D7
:104180009091AA060E94B7088091A9069091AA066C
:104190000E948C08E9C91091BC060091BD0662EF2F
:1041A0008091A9069091AA060E942309882309F408
:1041B000DBC920E8029FB0011124CB01812B8C01C7
:1041C00062EF8091A9069091AA060E94B708602F1D
:1041D0006F778091A9069091AA060E94B708000FF8
:1041E000012F001F110B1195602FC7CF0091BD0645
:1041F0001091BC0661EF8091A9069091AA060E94D9
:104200002309882309F4B0C961EF8091A906909130
:10421000AA060E94B70890E1199FB00111246077A7
:104220000F70602BABCF61E081E10E94B10164E1CE
:1042300070E080E090E00E94400260E081E10E9436
:10424000B10110E000E060E0C8010E949A230F5F16
:104250001F4F0115F4E01F07B1F761E081E10E94F3
:10426000B1010C949315B0E0A0E0E9E3F1E20C9405
:1042700005245C016B017A016115710519F0FB01E0
:1042800091838083E114F10451F0C7010297839771
:1042900030F040E030E020E090E072C05E01E501E7
:1042A0002196F5011081812F90E00E944A22892BEE
:1042B000A9F71D3201F52196F501118101E0E11404
:1042C000F10409F4DAC0F0E1EF16F10409F082C05C
:1042D000103359F488818F7D883509F076C01981B3
:1042E00022960260F0E1EF2EF12C812C912CA12C72
:1042F00088E0B82E8CC01B3221F4E5012296F5012E
:10430000118100E0DCCFEAE0EE16F10409F4BBC055
:10431000F0E1EF16F10409F06DC0E7CF78E0E72E89
:10432000F12C812C912CA12C60E1B62E70C03FE9BC
:10433000310F3A3128F439EA332E80C021E09AC097
:10434000302F3170C114D10431F0222309F12197AB
:10435000F601D183C08327FF21C060E070E080E0D8
:1043600090E8311104C06FEF7FEF8FEF9FE722E2FB
:1043700030E03093640720936307462F372F282FB0
:10438000642F732F822FCDB7DEB7E1E10C94212487
:1043900001FF04C02297F601D183C083332341F08B
:1043A00090958095709561957F4F8F4F9F4FE5CF8A
:1043B00097FFE3CF82E290E09093640780936307D6
:1043C0006FEF7FEF8FEF9FE7D8CF10E3E114F10499
:1043D00009F4A4CF28E0E216F10409F4A2CF0CF00E
:1043E00092CF812C912CA12CE0E4BE2E82E0E81625
:1043F000F10469F060E070E080E090E897010F2C34
:10440000000C440B550B0E94B82349015A0120E0CF
:1044100060E070E0CB0127010F2C000C66087708E4
:10442000FE0150ED352E310E39E0331540F43FEBEF
:10443000310F3A3108F07BCF49EC342E310E3E1467
:104440001F040CF07DCF27FD15C086169706A80621
:10445000B90678F0A30192010E94A823630D711D93
:10446000811D911D61307105810520E8920708F4D6
:1044700065CF2FEF21961081D3CF103309F42ACFC7
:104480002AE0E22EF12C9CEC892E982CA82C9CE0A2
:10449000B92EBDCF91110C948422803219F089502D
:1044A0008550C8F70895BB272A3051F4992342F468
:1044B000BDE290958095709561957F4F8F4F9F4F8E
:1044C0000C946322BB27FA01A62F621771058105A0
:1044D0009105330B30FB66F0AA27660F771F881F04
:1044E000991FAA1FA21710F0A21B63953850A9F7B5
:1044F000A05DAA3308F0A95DA19336F7B111B1937D
:104500001082CA010C948722992788270895DC011C
:10451000FC01672F71917723E1F7329704C07C91FA
:104520006D9370836291AE17BF07C8F30895E89446
:1045300009C097FB3EF490958095709561957F4FEB
:104540008F4F9F4F9923A9F0F92F96E9BB27939599
:10455000F695879577956795B795F111F8CFFAF4A9
:10456000BB0F11F460FF1BC06F5F7F4F8F4F9F4FDA
:1045700016C0882311F096E911C0772321F09EE838
:10458000872F762F05C0662371F096E8862F70E09E
:1045900060E02AF09A95660F771F881FDAF7880F78
:1045A0009695879597F908950E94E7220C945823D1
:1045B0000E944A2338F00E94512320F0952311F0E5
:1045C0000C9441230C94472311240C948C230E94B7
:1045D000692370F3959FC1F3950F50E0551F629FBB
:1045E000F001729FBB27F00DB11D639FAA27F00D4C
:1045F000B11DAA1F649F6627B00DA11D661F829F73
:104600002227B00DA11D621F739FB00DA11D621F57
:10461000839FA00D611D221F749F3327A00D611D74
:10462000231F849F600D211D822F762F6A2F112456
:104630009F5750409AF0F1F088234AF0EE0FFF1F89
:10464000BB1F661F771F881F91505040A9F79E3FE0
:10465000510580F00C9441230C948C235F3FE4F3CC
:10466000983ED4F3869577956795B795F795E79536
:104670009F5FC1F7FE2B880F911D9695879597F93F
:10468000089597F99F6780E870E060E008959FEFD4
:1046900080EC089500240A941616170618060906D9
:1046A000089500240A9412161306140605060895A8
:1046B000092E0394000C11F4882352F0BB0F40F430
:1046C000BF2B11F460FF04C06F5F7F4F8F4F9F4F70
:1046D000089557FD9058440F551F59F05F3F71F0F2
:1046E0004795880F97FB991F61F09F3F79F0879559
:1046F0000895121613061406551FF2CF4695F1DFE2
:1047000008C0161617061806991FF1CF8695710571
:10471000610508940895E894BB2766277727CB01A5
:1047200097F90895F999FECF92BD81BDF89A99271E
:1047300080B50895262FF999FECF1FBA92BD81BD8D
:1047400020BD0FB6F894FA9AF99A0FBE0196089513
:10475000DB018F939F930E94F923BF91AF91A29F9A
:10476000800D911DA39F900DB29F900D112408956F
:10477000A1E21A2EAA1BBB1BFD010DC0AA1FBB1F65
:10478000EE1FFF1FA217B307E407F50720F0A21BD7
:10479000B30BE40BF50B661F771F881F991F1A9444
:1047A00069F760957095809590959B01AC01BD016E
:1047B000CF010895052E97FB1EF400940E94F1236B
:1047C00057FD07D00E94B82307FC03D04EF40C9489
:1047D000F12350954095309521953F4F4F4F5F4FB6
:1047E000089590958095709561957F4F8F4F9F4F5D
:1047F00008950E943B24A59F900DB49F900DA49F07
:10480000800D911D112408952F923F924F925F9237
:104810006F927F928F929F92AF92BF92CF92DF92D0
:10482000EF92FF920F931F93CF93DF93CDB7DEB735
:10483000CA1BDB0B0FB6F894DEBF0FBECDBF0994C9
:104840002A88398848885F846E847D848C849B8420
:10485000AA84B984C884DF80EE80FD800C811B812E
:10486000AA81B981CE0FD11D0FB6F894DEBF0FBE5D
:10487000CDBFED010895A29FB001B39FC001A39FDA
:10488000700D811D1124911DB29F700D811D112489
:10489000911D0895AA1BBB1B51E107C0AA1FBB1F96
:1048A000A617B70710F0A61BB70B881F991F5A95BC
:1048B000A9F780959095BC01CD010895EE0FFF1FDB
:1048C0000590F491E02D09940E943B24B7FF0895D0
:1048D000821B930B08955058BB27AA270E9483245C
:1048E0000C9458230E944A2338F00E94512320F050
:1048F00039F49F3F19F426F40C9447230EF4E09505
:10490000E7FB0C944123E92F0E94692358F3BA175F
:10491000620773078407950720F079F4A6F50C94D5
:104920008B230EF4E0950B2EBA2FA02D0B01B901AD
:1049300090010C01CA01A0011124FF27591B99F015
:10494000593F50F4503E68F11A16F040A22F232F21
:10495000342F4427585FF3CF469537952795A79571
:10496000F0405395C9F77EF41F16BA0B620B730B18
:10497000840BBAF09150A1F0FF0FBB1F661F771F89
:10498000881FC2F70EC0BA0F621F731F841F48F43E
:10499000879577956795B795F7959E3F08F0B0CFC7
:1049A0009395880F08F09927EE0F979587950895AE
:1049B0000E94DF246894B1110C948C2308950E9406
:1049C000712388F09F5798F0B92F9927B751B0F00D
:1049D000E1F0660F771F881F991F1AF0BA95C9F783
:1049E00014C0B13091F00E948B23B1E008950C9473
:1049F0008B23672F782F8827B85F39F0B93FCCF326
:104A0000869577956795B395D9F73EF490958095FF
:104A1000709561957F4F8F4F9F4F08950F931F9310
:104A2000CF93DF938230910510F482E090E0E09123
:104A30006707F091680730E020E0B0E0A0E0309731
:104A400099F42115310509F44AC0281B390B24308B
:104A50003105D8F58A819B816115710589F1FB01CA
:104A600093838283FE0111C04081518102811381B1
:104A700048175907E0F04817590799F4109761F063
:104A800012960C93129713961C933296CF01DF91D6
:104A9000CF911F910F9108950093670710936807B6
:104AA000F4CF2115310551F04217530738F0A90111
:104AB000DB019A01BD01DF01F801C1CFEF01F9CFA0
:104AC0009093680780936707CDCFFE01E20FF31F35
:104AD000819391932250310939832883D7CF209134
:104AE000650730916607232B41F42091DA0230915B
:104AF000DB0230936607209365072091D80230913E
:104B0000D9022115310541F42DB73EB74091DC02A1
:104B10005091DD02241B350BE0916507F09166078B
:104B2000E217F307A0F42E1B3F0B2817390778F084
:104B3000AC014E5F5F4F2417350748F04E0F5F1FE3
:104B40005093660740936507819391939FCFF0E060
:104B5000E0E09CCFCF93DF930097E9F0FC01329720
:104B600013821282A0916707B0916807ED0130E0CF
:104B700020E01097A1F420813181820F931F2091B2
:104B80006507309166072817390709F061C0F0936F
:104B90006607E0936507DF91CF910895EA01CE178C
:104BA000DF07E8F54A815B819E0141155105B1F7A8
:104BB000E901FB83EA8349915991C40FD51FEC1792
:104BC000FD0761F4808191810296840F951FE901B0
:104BD00099838883828193819B838A83F0E0E0E0DC
:104BE00012968D919C9113970097B9F52D913C9158
:104BF0001197CD010296820F931F20916507309186
:104C000066072817390739F6309751F5109268076B
:104C100010926707B0936607A0936507BCCFD38354
:104C2000C28340815181840F951FC817D90761F451
:104C30004E5F5F4F88819981480F591F5183408390
:104C40008A819B81938382832115310509F0B0CF3E
:104C5000F0936807E09367079ECFFD01DC01C0CFAA
:104C600013821282D7CFB0E0A0E0E9E3F6E20C9421
:104C700006248C01009751F4CB010E940E258C0173
:104C8000C801CDB7DEB7E0E10C942224FC01E60FA9
:104C9000F71F9C0122503109E217F30708F49DC069
:104CA000D901CD91DC911197C617D70798F0C5307F
:104CB000D10530F3CE0104978617970708F3C61B7A
:104CC000D70B2297C193D1936D937C93CF010E9410
:104CD000AA25D6CF5B01AC1ABD0A4C018C0E9D1ED5
:104CE000A0916707B0916807512C412CF12CE12C61
:104CF000109731F5809165079091660788159905A1
:104D000009F05CC04616570608F058C08091D802DA
:104D10009091D902009741F48DB79EB74091DC0283
:104D20005091DD02841B950BE817F90708F055C078
:104D3000F0936607E0936507F90171836083A0CF64
:104D40008D919C91119712966C90129713967C906E
:104D50001397A815B90559F56C0142E0C40ED11C92
:104D6000CA14DB0420F1AC014A195B09DA0112967E
:104D7000159780F06282738251834083D9016D93CD
:104D80007C93E114F10471F0D7011396FC93EE9338
:104D9000129776CF22968C0F9D1FF9019183808305
:104DA000F301EFCFF0936807E093670769CF4816E8
:104DB000590608F42C017D01D3019ACFCB010E9442
:104DC0000E257C01009749F0AE01B8010E94F02643
:104DD000C8010E94AA25870153CF10E000E050CF00
:104DE000FB01DC0102C001900D9241505040D8F708
:104DF0000895FB01DC0101900D920020E1F7089578
:044E0000F894FFCF54
:104E0400FFFFFFFF000000000000000000000000A2
:104E1400000000000000000000000000000000008E
:104E2400000000000000000000000000000000007E
:104E3400000000000000000000000000000000006E
:104E4400000000000000000000000000000000005E
:104E5400000000000000000000000000000000004E
:104E6400000000000000000000000000000000003E
:104E7400000000000000000000000000000000002E
:104E8400000000000000000000000000000000001E
:104E9400000000000000000000000000000000000E
:104EA40000000000000000000000000000000000FE
:104EB40000000000000000000000000000000000EE
:104EC40000000000000000000000000000000000DE
:104ED40000000000000000000000000000000000CE
:104EE40000000000000000000000000000000000BE
:104EF40000000000000000000000000000000000AE
:104F0400000000000000000000000000000000009D
:104F1400000000000000000000000000000000008D
:104F2400000000000000000000000000000000007D
:104F3400000000000000000000000000000000006D
:104F4400000000000000000000000000000000005D
:104F5400000000000000000000000000000000004D
:104F6400000000000000000000000000000000003D
:104F7400000000000000000000000000000000002D
:104F8400000000000000000000000000000000001D
:104F9400000000000000000000000000000000000D
:104FA40000000000000000000000000000000000FD
:104FB40000000000000000000000000000000000ED
:104FC40000000000000001000000E10000000000FB
:104FD4000000C1808100000000006907800000001B
:104FE40080089009A00AB00BC00CD00DE00E0000A0
:104FF4000100020203030400050006000700080381
:1050040009030A030B030C020D020E030F01000037
:1050140000002601C2032303880255042A04020463
:105024000000000056057204E404A2051505F3040B
:10503400070500000000C505C705C205A10E4D49BE
:0450440044490000DB
:00000001FF
