:100000000C94FC000C9424010C9424010C94240105
:100010000C9424010C9424010C9424010C942401CC
:100020000C9424010C9424010C948C0D0C940A0E55
:100030000C9424010C9424010C9424010C942401AC
:100040000C9424010C9424010C9424010C9424019C
:100050000C9424010C9424010C9424010C94420D62
:100060000C9424010C9462100C943C100C94240108
:100070000C9424010C9424010C9424010C9424016C
:100080000C9424010C9424010C9424010C9424015C
:100090000C9424010C9424010C9424010C9424014C
:1000A0000C9424010C9424010C9424010F0E0C09CF
:1000B0001F1814100D0B0A021E1915110807040150
:1000C0001D1A1612060503001C1B1713080B00024D
:1000D00002020000090400000102020000052400E1
:1000E0001001052401010104240206052406000173
:1000F0000705810310004009040100020A00000006
:1001000007050202400000070583024000000403C7
:10011000090412010002EF020140501D4F6100016D
:100120000102030141726475696E6F005348494BC7
:10013000204E333242000306000F0E0C091F181424
:10014000100D0B0A021E191511080704011D1A16BD
:1001500012060503001C1B171307060504010008FF
:100160000A0B0C0D0900000000240027002A002DB6
:1001700000300000000000250028002B002E003178
:1001800000000000002300260029002C002F00049E
:10019000040404040304050202020204030202022E
:1001A0000206060606060604040202020404040807
:1001B000020110408040102040804080080204016D
:1001C00080402010020110801020404020000000DC
:1001D0000200090F0000030401000C0000000000F1
:1001E0000000000000000000000000007E306D797B
:1001F000335B5F707F7BBD1011241FBECFEFDAE051
:10020000DEBFCDBF11E0A0E0B1E0E0EBFBE402C057
:1002100005900D92AE37B107D9F727E0AEE7B1E010
:1002200001C01D92A636B207E1F710E0CCEFD0E096
:1002300004C02197FE010E944223CB3FD107C9F79A
:100240000E94F1120C94D6250C940000CF93DF93FA
:100250001F92CDB7DEB76983DC01ED91FC9102807E
:10026000F381E02D41E050E0BE016F5F7F4F0995C3
:100270000F90DF91CF91089581508F3008F047C0E3
:10028000E82FF0E0EA5BFE4F0C9442236301670124
:1002900055015B015F018701870187016A017001D8
:1002A000740178017E0187018201809180008F773F
:1002B000809380000895809180008F7DF9CF809198
:1002C0008000877FF5CF84B58F7784BD089584B58E
:1002D0008F7DFBCF809190008F7780939000089561
:1002E000809190008F7DF9CF80919000877FF5CF2E
:1002F0008091C0008F778093C00008958091C000E6
:100300008F7DF9CF8091C200877F8093C2000895CE
:10031000CF93DF93282F30E0F901E353FE4F849110
:10032000F901E255FE4FD491F901E157FE4FC49116
:10033000CC23A1F081110E943C01EC2FF0E0EE0FE4
:10034000FF1FEF57FE4FA591B491EC91ED2381E093
:1003500090E009F480E0DF91CF91089580E090E093
:10036000FACF1F93CF93DF93282F30E0F901E353A7
:10037000FE4F8491F901E255FE4FD491F901E15706
:10038000FE4FC491CC23A9F0162F81110E943C018D
:10039000EC2FF0E0EE0FFF1FED58FE4FA591B4914A
:1003A0008FB7F894EC91111108C0D095DE23DC933F
:1003B0008FBFDF91CF911F910895DE2BF8CFCF93A0
:1003C000DF9390E0FC01E255FE4F249181579E4F50
:1003D000FC0184918823C9F090E0880F991FFC01EB
:1003E000EB59FE4FA591B491FC01ED58FE4FC5911C
:1003F000D49161110DC09FB7F8948C912095822300
:100400008C938881282328839FBFDF91CF91089503
:10041000623051F49FB7F8943C91822F80958323EA
:100420008C93E8812E2BEFCF8FB7F894EC912E2B85
:100430002C938FBFEACF3FB7F89480916A049091D4
:100440006B04A0916C04B0916D0426B5A89B05C007
:100450002F3F19F00196A11DB11D3FBFBA2FA92F43
:10046000982F8827BC01CD01620F711D811D911D40
:1004700042E0660F771F881F991F4A95D1F70895AC
:100480008F929F92AF92BF92CF92DF92EF92FF92A4
:100490004B015C010E941B026B017C010E941B024C
:1004A0006C197D098E099F09683E7340810591058D
:1004B000A8F321E0821A9108A108B10888EEC80EBD
:1004C00083E0D81EE11CF11C81149104A104B10445
:1004D00029F7FF90EF90DF90CF90BF90AF909F9063
:1004E0008F9008952FB7F894609166047091670417
:1004F00080916804909169042FBF08958093E9006A
:100500008091F200882319F08AE38093E80008952F
:1005100083E00C947E0240918C0150918D012091DA
:100520008A0130918B0142175307B4F49091E8008F
:100530009570E1F39091E80092FD19C08093F1006D
:1005400080918C0190918D0101968F739927892B51
:1005500019F48EEF8093E80080918C0190918D01C9
:10056000019690938D0180938C0181E0089580E045
:100570000895EF92FF920F931F93CF93DF93F82E7E
:10058000192FE62E042F81E0860F880F0E948B0220
:1005900083E00E948B02CF2DD12FEC0EFD2EF11C9B
:1005A000CE15DF05B9F007FF13C0FE0184910E944C
:1005B0008B02182F80E00E948B02812321968111EB
:1005C000EFCFDF91CF911F910F91FF90EF900895A2
:1005D0008881EDCF81E0F5CFDF92EF92FF920F930C
:1005E0001F93CF93DF93D82E8A01EB017B01E40E9A
:1005F000F51ECE15DF0559F0D7FE12C0FE0184911D
:100600000E948B0221968111F4CF0FEF1FEFC801DA
:10061000DF91CF911F910F91FF90EF90DF900895A0
:100620008881EECF2FB7F89487708093E90090917E
:10063000E800892F807295FF04C09091F20080E459
:10064000891B2FBF089583E00E94120390E0089554
:100650007F928F929F92AF92BF92CF92DF92EF9252
:10066000FF920F931F93CF93DF93C82E8B017A01D4
:1006700080919301811110C08FEF9FEFDF91CF9197
:100680001F910F91FF90EF90DF90CF90BF90AF90B0
:100690009F908F907F9008958091910180FF05C079
:1006A0008091E00082608093E000CE2DDF2DD12C80
:1006B0008AEFB82E8C2D8770982E8C2D8072882E04
:1006C0008C2D8074782E9AE3A92E209719F4DD20C2
:1006D00009F452C08C2D0E94120381110AC0BA94F1
:1006E000BB2051F261E070E080E090E00E944002A7
:1006F000ECCF8C171D0611F00CF08C2F9FB7F894DF
:100700009092E9002091E80025FD02C09FBFDDCF57
:10071000282F30E0C21BD30B882029F08150A0F095
:100720001092F100FBCFF801C7FC0AC0815050F0D5
:1007300041914093F100FACF44914093F1003196FA
:100740008150D0F7020F131FDD2021F0A092E800A6
:10075000D12CDCCF8091E80085FD07C0A092E80095
:10076000DD24D394209791F2F3CF209779F6772068
:1007700069F2A092E800CACF5D9884E68093900168
:10078000C7017CCFCF93DF93EC0180910B018823CD
:1007900031F083E00E9428031816190634F081E036
:1007A00090E09B838A8380E090E0DF91CF91089571
:1007B00090919301992319F13FB7F8948770809332
:1007C000E9008091F20090E0481759070CF4CA0143
:1007D000282FFB0154E6215038F0289850938F01C0
:1007E0004091F1004193F7CF009739F02091F2004A
:1007F000211103C02BE62093E8003FBF08958FEF3F
:100800009FEF08950F931F93CF93DF931F92CDB760
:10081000DEB78C01FC018485958597FF0FC041E010
:1008200050E0BE016F5F7F4F82E00E94D8030197C6
:1008300071F4898190E0F80195878487F8018485B7
:1008400095850F90DF91CF911F910F9108958FEFB4
:100850009FEFF1CFCF93DF931F92CDB7DEB7FC01AF
:100860008485958597FD08C02FEF3FEF3587248756
:100870000F90DF91CF91089541E050E0BE016F5F8E
:100880007F4F82E00E94D803019719F4898190E09C
:10089000EFCF8FEF9FEFECCF9FB7F89487708093E7
:1008A000E9008091F2009FBF0895FC018485958541
:1008B00097FD06C082E00E944C0490E001960895E6
:1008C00082E00E944C0490E00895615030F0209145
:1008D000F100FC0120830196F8CF289884E68093EC
:1008E0008F010895AF92BF92CF92DF92EF92FF9265
:1008F0000F931F93CF93DF936C017B018B01040F48
:10090000151FEB015E01AE18BF08C017D10759F0E3
:100910006991D601ED91FC910190F081E02DC60125
:100920000995892B79F7C501DF91CF911F910F911F
:10093000FF90EF90DF90CF90BF90AF90089580919F
:10094000820181110DC082E080937E0184E080935A
:100950007F01109281011092800181E080938201D9
:100960008EE791E008950F931F93CF93DF931F922B
:10097000CDB7DEB782E0898342E450E06CEC70E0F2
:1009800080E80E94EC020E949F04DC0112960D9107
:100990001C910115110589F0D801ED91FC9102809F
:1009A000F381E02DBE016F5F7F4FC801099597FD70
:1009B00004C0F80100851185ECCF89810F90DF918B
:1009C000CF911F910F910895FC01538D448D252FD8
:1009D00030E0842F90E0821B930B541710F0CF96D9
:1009E000089501970895FC01918D828D981761F00B
:1009F000A28DAE0FBF2FB11D5D968C91928D9F5F22
:100A00009F73928F90E008958FEF9FEF0895FC0100
:100A1000918D828D981731F0828DE80FF11D858DB3
:100A200090E008958FEF9FEF0895FC01918D228D46
:100A3000892F90E0805C9F4F821B91098F739927CB
:100A400008958DED95E00E94150521E0892B09F4AC
:100A500020E0822F089580E090E0892B29F00E9409
:100A6000210581110C9400000895FC01A48DA80FAC
:100A7000B92FB11DA35ABF4F2C91848D90E00196E0
:100A80008F739927848FA689B7892C93A089B18900
:100A90008C9182748C93938D848D981306C00288F8
:100AA000F389E02D80818F7D80830895EF92FF92FE
:100AB0000F931F93CF93DF93EC0181E0888F9B8D81
:100AC0008C8D981319C0E889F989808185FF14C03D
:100AD0009FB7F894EE89FF896083E889F98980815E
:100AE000827480839FBF81E090E0DF91CF911F915E
:100AF0000F91FF90EF900895F62E0B8D10E00F5F91
:100B00001F4F0F731127E02E8C8D8E110CC00FB666
:100B100007FCFACFE889F989808185FFF5CFCE01FE
:100B20000E943505F1CFEB8DEC0FFD2FF11DE35A3F
:100B3000FF4FF0829FB7F8940B8FEA89FB89808181
:100B40008062CFCFCF93DF93EC01888D8823B9F0FB
:100B5000AA89BB89E889F9898C9185FD03C08081C8
:100B600086FD0DC00FB607FCF7CF8C9185FFF2CF45
:100B7000808185FFEDCFCE010E943505E9CFDF9161
:100B8000CF91089590E080E0089580E008950F935C
:100B90001F93CF93DF93CDB7DEB7C456D1090FB6FD
:100BA000F894DEBF0FBECDBFFC01DB019C919E5FC0
:100BB0009C939E01295F3F4F8AE5D9011D928A953A
:100BC000E9F788E089838BE08A8322E02C8391E037
:100BD0009D839E8339E0398764E06A879E879F877B
:100BE0003A8B44E24B8B9C8BA0E0B1E0BE8BAD8B8B
:100BF00009E010E0188F0F8B998F3B8F6C8F2F8F30
:100C000098A353E059A387E08CA34DA39EA3B8A754
:100C1000AFA3A1E4B0E0BAA7A9A786E08BA74CA731
:100C20002DA79EA79FA789AB4AAB2BAB2CAB2DABB7
:100C30003FAB48AF59AF9AAF5BAF9CAF2DAF9EAF04
:100C400021963FAF219722964FAF229723965FAF11
:100C5000239724962FAF249725966FAF2597269636
:100C60009FAF269727969FAF279728969FAF2897E5
:100C70002A963FAF2A9745E02B964FAF2B972D969C
:100C80002FAF2D9760E470E02F967FAF6EAF2F9758
:100C900063964FAF639785E264968FAF64976596CE
:100CA0009FAF659766969FAF669767969FAF67976A
:100CB00068963FAF689769964FAF69976B962FAF6D
:100CC0006B976D967FAF6EAF6D97A1964FAFA19763
:100CD000A2968FAFA297A3969FAFA397A4969FAF1C
:100CE000A497A5965FAFA59792819B839B879F5FF3
:100CF0009A8F9D8F83812C968FAF2C978F5F806802
:100D00006A968FAF6A9744E650E0BE016F5F7F4FEF
:100D100080E00E94EC02CC59DF4F0FB6F894DEBFA2
:100D20000FBECDBFDF91CF911F910F9108950F930B
:100D30001F93CF93DF93EC0188810E9488019B8BE6
:100D40008A8B288939898217930751F00E94720291
:100D50006C8B7D8B8E8B9F8B8A899B89998B888BE3
:100D60000E9472020C891D892E893F89601B710BBC
:100D7000820B930B0A811B812C813D8160177107C7
:100D80008207930740F08E859F859D878C878A898F
:100D90009B899F878E872C853D858E859F8528170B
:100DA000390781F04A855B854230510581F48E8197
:100DB0009F81A885B9850196A11DB11D8E839F8352
:100DC000A887B987DF91CF911F910F9108954115A1
:100DD000510531F421303105A9F7892B41F3F2CFC8
:100DE0004130510579F7232B69F7019759F7DFCF88
:100DF00087FF0AC09CE0980F923030F08D3F21F0C1
:100E0000803F18F4807F089580E00895982F9F7E9A
:100E1000282F2F7C203839F0803E29F081E0903C4B
:100E200019F080E0089581E00895CF93DF93EC01FD
:100E3000E881F981309711F0CB9609958CAD823F0E
:100E400009F49EC090F5803C09F486C090F4803986
:100E500009F454C030F4803809F445C0DF91CF91D3
:100E60000895803A09F475C0803BC1F7EA85FB8597
:100E70003CC0803E09F459C058F4803D79F7EE85B6
:100E8000FF85309759F36DAD8BADDF91CF9109940C
:100E9000803F09F464C0813F09F7EC89FD893097F0
:100EA000E9F28DADDF91CF9109948A3F91F180F401
:100EB000863F09F477C028F4833F81F6E88DF98DE9
:100EC000EECF883FF1F0893F49F6E8A1F9A11BC0B8
:100ED0008C3F29F108F18E3F29F18F3F09F0BECFF9
:100EE000E8A5F9A510C0EC81FD81309709F4B6CFD3
:100EF0004EAD6DAD8BADDF91CF910994EE81FF8149
:100F0000F4CFEC8DFD8D309709F4A8CFDF91CF9110
:100F10000994EE8DFF8DF7CFEAA1FBA1F4CFECA1F0
:100F2000FDA1F1CFEEA1FFA1EECFE889F9893097BD
:100F300009F494CF6EAD20E8629FB001112460786F
:100F40007F738DAD8F77682B70528BADDF91CF9112
:100F50000994E885F985C9CFEC85FD8592CFEA89AA
:100F6000FB89309709F47ACF6DAD7EAD613871059C
:100F700010F060E870E0CE01CF96DF91CF91099438
:100F8000EE89FF89309709F469CF8EAD20E8829F02
:100F9000C001112480789F732DAD2F77822BDF91B4
:100FA000CF910994EA8DFB8DAECFDC018D919C91A0
:100FB000DC01ED91FC910190F081E02D09941F93EB
:100FC000CF93DF932150203118F587FF21C0D42F14
:100FD000162FC82F622F682B809137059091380506
:100FE0000E94D507612F6F77809137059091380562
:100FF0000E94D507CF7EC03C59F06D2F6F7780914E
:10100000370590913805DF91CF911F910C94D5074A
:10101000DF91CF911F910895242F462F682F80EBE9
:101020000C94DF076D3F48F46A3F10F4683F39F4D1
:10103000FC01808191810C94D5076E3FC8F708951B
:10104000813E10F40C94DF07883F28F0682F87E377
:1010500095E00C94120808950F931F93CF93DF939C
:1010600000D000D0CDB7DEB7FC01208991898289FC
:10107000378539832A839B838C830FEB14E0F80137
:10108000838144E050E0BE016F5F7F4F8F5F0E941D
:101090002803F80183818F5F0E947E020F900F90DA
:1010A0000F900F90DF91CF911F910F9108950F93A3
:1010B0001F93CF93DF9300D000D0CDB7DEB78C0164
:1010C000262FFC01848195813681303FD9F000972D
:1010D00011F4208B04C08130910581F4618BF801FB
:1010E000848195810196958384830F900F900F9052
:1010F0000F90DF91CF911F910F910895029779F78B
:10110000628BEDCF603F49F48389F0E18F9FC0018E
:1011100011248460F8018787DCCF63E070E00E94CF
:101120002E23AC01273F39F493899295907F85E077
:10113000840F982B9787F8014115510521F4208BD6
:10114000128A118ACCCF4130510519F4218B128AB1
:10115000C6CF228B273F19F2908981893785398341
:101160009A838B832C838091C20444E050E0BE01BB
:101170006F5F7F4F8F5F0E9428038091C2048F5F53
:101180000E947E02ACCFDC0116966C9316975396A4
:101190008C91539720E1829FC0011124603FE8F4B5
:1011A000E62FE295EF70E750FF0BEE0FFF1FE75EB3
:1011B000FE4F9181892B1F968C931F9752961C92FC
:1011C000529751961C92519750961C925097159693
:1011D0001C921E92149781E008958460ECCF0F93C7
:1011E0001F93CF93DF93DFEFD20FD03198F587FFB6
:1011F00031C0142F062FC82F682F8091A60690911A
:10120000A7060E94C308882329F16D2F6C2B8091BB
:10121000A6069091A7060E945708602F6F778091CD
:10122000A6069091A7060E945708CF7EC03C41F0C9
:10123000612F6F778091A6069091A7060E945708AC
:101240008091A6069091A706DF91CF911F910F91F3
:101250000C942C08DF91CF911F910F910895242FAA
:10126000462F682F80EB0C94EF08BF92CF92DF924D
:10127000EF92FF920F931F93CF93DF938C016B013B
:10128000B42EE52EF22E60EFFC01808191810E9448
:10129000C308882351F181E0F82631F060EFF801AE
:1012A000808191810E945708CB2DDE2DCC0EDD1E52
:1012B000F80180819181CC15DD0521F069910E94B2
:1012C0005708F6CFFF2019F067EF0E945708F80182
:1012D00080819181DF91CF911F910F91FF90EF90CD
:1012E000DF90CF90BF900C942C08DF91CF911F918D
:1012F0000F91FF90EF90DF90CF90BF9008950F93E4
:101300001F93CF936D3FD8F46A3F10F4683FC9F440
:10131000C62F8C01FC01808191810E94C308882323
:1013200081F06C2FF801808191810E945708F801AB
:1013300080819181CF911F910F910C942C086E3F69
:1013400038F7CF911F910F910895813E10F40C94BE
:10135000EF08883F28F0682F86EA96E00C947F0912
:1013600008950F931F93CF93DF93082F162FD42F39
:10137000C8E06D2F661F6627661F802F0E94B1018F
:10138000DD0F61E0812F0E94B10160E0812F0E949A
:10139000B101C15071F7DF91CF911F910F91089565
:1013A0000F931F93CF93DF9300D0CDB7DEB78C019F
:1013B00069834A8360E0FC0182810E94B101498116
:1013C000F801648180810E94B1094A81F801648139
:1013D00080810E94B10961E0F80182810F900F9035
:1013E000DF91CF911F910F910C94B1010F931F9337
:1013F000CF93DF938C01C1E0D0E0F8018681978123
:101400008C179D073CF040E06C2FC8010E94D0096A
:101410002196F3CFDF91CF911F910F910895CF9334
:10142000C82F8BEF94E00E94F60940E86C2F8BEFF9
:1014300094E00E94D0090E947202609303057093A9
:1014400004058093050590930605CF9108950F93A9
:101450001F93CF93DF93FC01EC57FF4F2081222392
:1014600051F1EC01688161506F708981682B809126
:101470003705909138050E94D5078981803F11F189
:101480008E010B571F4FF80180819181029738F030
:101490006A8180913705909138050E94D507F8013F
:1014A00080819181039738F06B818091370590910D
:1014B00038050E94D50782E0DF91CF911F910F91EF
:1014C0000C940F0A60EF80913705909138050E94C7
:1014D000D5078E01A8014C1B5D0B809137059091BB
:1014E00038050F5F1F4F2A813B812138310510F0ED
:1014F00020E830E04217530728F4F80163810E9486
:10150000D507E8CF67EFD5CF209149052E3F51F0A1
:10151000FC0120814381628181810E94A50982E0D2
:101520000C940F0A0895AF92BF92CF92DF92EF9280
:10153000FF920F931F93CF93DF93CDB7DEB7A297A0
:101540000FB6F894DEBF0FBECDBF2AE0AE014F5FED
:101550005F4F5A010E943721F50101900020E9F701
:1015600031978F010A191B09B8016F5F7F4F90E017
:1015700080E00E9409257C01009761F1FC01108246
:10158000B5010E94CF25D12CC12CC016D10629F15E
:10159000F701EC0DFD1DE114F10421F410926E042D
:1015A000EEE6F4E0808189831A824AE050E070E040
:1015B00060E0C5010E941720FB01E451FE4F4491F9
:1015C000602F6C198BEF94E00E94D009FFEFCF1AC7
:1015D000DF0ADBCF10E000E0D6CFE114F10499F090
:1015E000C701A2960FB6F894DEBF0FBECDBFDF9144
:1015F000CF911F910F91FF90EF90DF90CF90BF9010
:10160000AF900C948024A2960FB6F894DEBF0FBE64
:10161000CDBFDF91CF911F910F91FF90EF90DF90A1
:10162000CF90BF90AF900895CF93C82F8BEF94E0E9
:101630000E94F6096C2F70E06F5F7F4F072E000C41
:10164000880B990B0E94930A47E662E08BEF94E0C7
:101650000E94D0090E9472026093030570930405F2
:101660008093050590930605CF910895CF93C82FD9
:101670008BEF94E00E94F6096C2F70E090E080E020
:101680000E94930A0E9472026093030570930405FE
:101690008093050590930605CF910895CF92DF9230
:1016A000EF92FF921F93CF93DF93182F81EC189F37
:1016B000600111248DE9E82E83E0F82EC1E0D0E02E
:1016C000C6018C0F9D1F0E947622F70181937F0136
:1016D0002196C23CD105A1F710939C03812FDF9185
:1016E000CF911F91FF90EF90DF90CF900C94140B4F
:1016F000853010F40C944E0B0895862F653010F44D
:101700000C94780B08950F931F93CF93C82F8823C1
:1017100049F1109264040E94720200915F041091DA
:1017200060042091610430916204601B710B820B94
:10173000930B6F3F710581059105C8F580915E049B
:101740008823E9F080919C03CC2399F0843068F4DD
:101750008F5F0E94780B80919C03CF911F910F9116
:101760000C94140B10926304D6CF80E00E944E0BB1
:10177000F2CF882311F08150ECCF84E0F7CF809135
:101780009D03CC2371F0803150F48F5F80939D03D3
:1017900080919D03CF911F910F910C94360B81E0A6
:1017A000F5CF823010F08150F1CF80E1EFCFCF91B3
:1017B0001F910F910895FF920F931F93CF93DF9383
:1017C000EC01F62E08811981C8010E947622F816D4
:1017D00021F06F2DC8010E947E22CE01DF91CF91B2
:1017E0001F910F91FF900895DF92EF92FF920F9358
:1017F0001F93CF93DF93CDB7DEB729970FB6F89439
:10180000DEBF0FBECDBFFC016430710568F0918171
:10181000903251F48281833009F4C8C098F4813049
:1018200001F1823009F468C029960FB6F894DEBF42
:101830000FBECDBFDF91CF911F910F91FF90EF9021
:10184000DF900895853009F4D5C008F4B3C0863020
:1018500059F783819FEF980F903130F780939D0364
:10186000E3CF2781838136E0389FC001112483565E
:101870009C4FDC0114962C9387818630A9F2248139
:101880008381389FC001112483569C4FDC0111963F
:101890002C9325818381389FC001112483569C4F4E
:1018A000DC0112962C9326818381389FC00111247C
:1018B00083569C4FDC0113962C938381389FD00173
:1018C0001124A356BC4F81E09085911101C080E0A6
:1018D00015968C93838190E0019626E0289FD00195
:1018E000299FB00D1124A356BC4F81E09185911121
:1018F00001C080E08C9398CF0381053008F094CF2D
:10190000B1EC0B9F800111243DE9E32E33E0F32E6F
:101910000D591340F70161917F01C8018E0F9F1F80
:101920009A838983CE0101960E94DB0BFEE5EF16B8
:10193000F4E0FF0679F78BEF94E00E94F6094BE59F
:1019400062E08BEF94E00E94D0094CE161E08BEF04
:1019500094E00E94D0096CE271E080E090E00E9487
:1019600040024CE961E08BEF94E00E94D0096CE208
:1019700071E080E090E00E9440024CE161E08BEF7A
:1019800094E00E94D0096CE271E080E090E00E9457
:1019900040024CE961E08BEF94E00E94D0096CE2D8
:1019A00071E080E090E00E9440023ECF83810E947F
:1019B000780B3ACF1B821C821D82998384E08A8334
:1019C0008DEF93E00E9476228D838EEF93E00E944C
:1019D00076228C838FEF93E00E9476228B8320E027
:1019E000AE014F5F5F4F65E070E086EA96E00E94CF
:1019F00035091ACF0CEA10E080E2D82E95E0E92EE6
:101A000026E0F22EF80185919491D982EA82F801BC
:101A1000259134912B839927F89EF001F99EF00DC2
:101A20001124E356FC4F21812C8322812D832381B5
:101A30002E8324812F83258128870196F89EF0012B
:101A4000F99EF00D1124E356FC4F8081898720E038
:101A5000AE014F5F5F4F69E070E086EA96E00E945A
:101A600035090F5F1F4F80E00C3C180759F6DCCE9C
:101A700084E0E9E7F1E0DB0101900D928A95E1F75E
:101A800084E008951F920F920FB60F9211242F93A6
:101A90003F938F939F93AF93BF93809166049091F0
:101AA0006704A0916804B09169043091650423E053
:101AB000230F2D3758F50196A11DB11D2093650404
:101AC0008093660490936704A0936804B0936904BC
:101AD00080916A0490916B04A0916C04B0916D04A4
:101AE0000196A11DB11D80936A0490936B04A0938D
:101AF0006C04B0936D04BF91AF919F918F913F9112
:101B00002F910F900FBE0F901F90189526E8230F6E
:101B10000296A11DB11DD2CF1F920F920FB60F9248
:101B200011242F933F934F935F936F937F938F93E2
:101B30009F93AF93BF93CF93EF93FF93C091E10037
:101B40008091E100837F8093E100C3FF0FC010927A
:101B5000E90081E08093EB001092EC0082E3809337
:101B6000ED001092930188E08093F000C2FF1BC04B
:101B700083E00E947E0280919001882341F0809151
:101B80009001815080939001811101C05D9A8091F4
:101B90008F01882341F080918F01815080938F01C4
:101BA000811101C0289AC4FF23C08091E2008E7E7B
:101BB00081608093E2008091E1008F7E8093E1005C
:101BC000809191018E7E806180939101FF91EF91D0
:101BD000CF91BF91AF919F918F917F916F915F91C5
:101BE0004F913F912F910F900FBE0F901F9018951E
:101BF000C0FFECCF8091E2008E7E80618093E20096
:101C00008091E1008E7E8093E100809191018E7E33
:101C10008160DACF1F920F920FB60F921124CF92EC
:101C2000DF92EF92FF920F931F932F933F934F9367
:101C30005F936F937F938F939F93AF93BF93EF9334
:101C4000FF93CF93DF93CDB7DEB76C97DEBFCDBFE9
:101C50001092E9008091E80083FF25C068E0CE0182
:101C600045960E94650482EF8093E8008D8987FF86
:101C700039C09091E80090FFFCCF982F907609F042
:101C800034C19E894F89588D2F89F88C911131C0AC
:101C9000803861F5809192018093F1001092F100FB
:101CA0008EEF8093E8006C960FB6F894DEBF0FBEFF
:101CB000CDBFDF91CF91FF91EF91BF91AF919F91F8
:101CC0008F917F916F915F914F913F912F911F91D4
:101CD0000F91FF90EF90DF90CF900F900FBE0F907D
:101CE0001F9018959EEF9093E800C7CF1092F100D7
:101CF000D5CF913059F48111D3CF4130510581F6C0
:101D0000809192018D7F80939201CACF933049F4E4
:101D10008111C6CF4130510519F680919201826040
:101D2000F2CF953041F48091E80080FFFCCF20682D
:101D30002093E300B5CF963009F0A9C00B8D1C8D20
:101D400022E01092E90010928D0110928C01F212A3
:101D50002EC010928B0110928A010E94B3041F8240
:101D600099E09983FA8291E09E8390EA98879AEFAE
:101D7000998720918C0130918D01275F3F4F3C83E3
:101D80002B838D831092E90010928D0110928C01AB
:101D900010938B0100938A0149E050E0BE016F5F10
:101DA0007F4F80E00E94EC020E94B30479CF109331
:101DB0008B0100938A010E949F04DC0112960D9111
:101DC0001C910115110509F451C1D801ED91FC9147
:101DD0000480F581E02DBE016B5E7F4FC80109953F
:101DE000009709F03EC1F80100851185EACFF3E0C4
:101DF000FF120EC08F89882309F440C0823061F43D
:101E000040E869E08CE291E00E94B902811148CF7C
:101E100081E28093EB0047CF813029F440E867E00E
:101E200084E291E0F1CF833099F70E949F04DC01B6
:101E30001296ED90FC908E010F5F1F4F6801E11428
:101E4000F10479F0D701ED91FC910680F781E02D46
:101E5000B801C7010995080F111DF701E084F1844D
:101E6000EECFD8011C92F60101900020E9F73197DE
:101E7000BF016C197D0940E0C601C6CF6EE071E07C
:101E8000FB01449150E080E80E94EC0209CF9730BA
:101E900009F4BECF983021F481E08093F10000CFA7
:101EA000993009F0FDCE837009F0B2CFEDE0F1E09A
:101EB00081E031E096E32191222371F08093E900E3
:101EC0003093EB00DF0111972C912093EC0090935D
:101ED000ED008F5F873079F78EE78093EA001092EC
:101EE000EA008F8980939301DBCE8B8D9C8D1092BD
:101EF000E90010928D0110928C0190938B018093D8
:101F00008A01898D811192C08E899D89913A49F407
:101F1000813209F07DCF47E050E064E071E080E07D
:101F2000B3CF913209F074CF833269F48F89988DE1
:101F3000B0E0A0E08093000190930101A093020122
:101F4000B0930301ADCE803269F48091E80082FF46
:101F5000FCCF67E084E091E00E9465048BEF809302
:101F6000E8009ECE823209F09BCE8F8980930B01D0
:101F7000EEEFFFE7859194918B3F9C4D51F1E0E0AE
:101F8000F8E08091040190910501A0910601B091C3
:101F90000701803B9440A105B105F1F480910B014C
:101FA00080FD1AC0EE3F8AE0F80789F587E797E7DA
:101FB000918380838091600080938E0188E19BE013
:101FC0000FB6F894A895809360000FBE90936000C0
:101FD00067CEEEEFFAE0D5CF8081918187379747C2
:101FE00009F05ECEA89580916000886180936000C2
:101FF00080918E0180936000EE3F2AE0F20789F025
:102000008091FE0A9091FF0A9183808349CE80815E
:1020100091818737980751F29093FF0A8093FE0AC7
:10202000C5CF1092FF0A1092FE0A3ACE0E949F047A
:10203000DC0112960D911C910115110509F4E8CEF1
:10204000D801ED91FC910190F081E02DBE016B5E15
:102050007F4FC8010995811123CEF80100851185B4
:10206000EBCF181619060CF41BCED2CEF1E0FF12FE
:10207000BECE62E171E004CF1F920F920FB60F92B5
:1020800011242F933F934F935F936F937F938F937D
:102090009F93AF93BF93EF93FF938DED95E00E94D5
:1020A0003505FF91EF91BF91AF919F918F917F91F6
:1020B0006F915F914F913F912F910F900FBE0F90B5
:1020C0001F9018951F920F920FB60F9211242F9305
:1020D0008F939F93EF93FF93E091ED05F091EE05C1
:1020E0008081E091F305F091F40582FD1BC09081A1
:1020F0008091F6058F5F8F732091F705821741F06D
:10210000E091F605F0E0E352FA4F958F8093F605E3
:10211000FF91EF919F918F912F910F900FBE0F9094
:102120001F9018958081F4CFCF93DF93EC01862F19
:10213000688379831A821B821C821D821E821F8201
:10214000188619861B861A8662E00E94DF01888144
:102150000E9488019D878C8788810E9488019F87C3
:102160008E8788810E948801998B888B1C8A1D8AA2
:102170001E8A1F8ADF91CF910895CF93DF9310922B
:1021800072041092710488EE93E0A0E0B0E08093B6
:10219000730490937404A0937504B09376042DE4B3
:1021A00031E03093700420936F042FEF3FEF3093B2
:1021B0007C0420937B041092E0051092DF0580934D
:1021C000E1059093E205A093E305B093E4058FE564
:1021D00091E09093DE058093DD058DEC90E0909387
:1021E000EA058093E9058CEC90E09093EC058093F0
:1021F000EB0588EC90E09093EE058093ED0589EC7B
:1022000090E09093F0058093EF058AEC90E0909336
:10221000F2058093F1058EEC90E09093F4058093A5
:10222000F3051092F6051092F7051092F80510923A
:10223000F90582E08093C3048093C40489EC94E0A0
:102240009093C6048093C5041092C8041092C704EA
:1022500081E791E09093C0048093BF0480E880936D
:10226000C90481E88093CA040E949F04FC01818113
:102270009091C304482F490F5527551F48305105E9
:102280009CF5A281B381109709F52FEB34E03383DD
:10229000228320812093C1048093C2048091C404CE
:1022A000820F80832091C504A22FB091C6048A2F8B
:1022B000821B8917C8F481813D91C82FD0E0C45F8B
:1022C000DE4F38838F5F8183F2CFD90118962D912D
:1022D0003C91199721153105C1F72FEB34E0199680
:1022E0003C932E931897D5CF10925F0710927D06DE
:1022F00010927C0610927F0610927E061092810644
:102300001092800610928306109282061092850623
:102310001092840610928706109286061092890603
:102320001092880610928B0610928A0610928D06E3
:1023300010928C0610928F0610928E0610929106C3
:1023400010929006109293061092920610929506A3
:102350001092940610929706109296061092990683
:102360001092980610929B0610929A0610929D0663
:1023700010929C0610929F0610929E061092A10643
:102380001092A0061092A3061092A2061092A50623
:102390001092A4068CE497E09093A7068093A6067B
:1023A0001092A8061092A9061092AA061092AF06E3
:1023B0001092AE061092B1061092B0068FEF9FEF0A
:1023C0009093B3068093B2069093B5068093B406BB
:1023D00023E02093B6061092B7061092B80610922A
:1023E000B9061092BA0610923B0720E8EBEBF6E034
:1023F000DF01322F1D923A95E9F710923E071092B5
:102400003F07109240071092410710924207109226
:102410004307109244071092450710924607109206
:102420004707109248071092490710924A071092E6
:102430004B074DED55E050937B0640937A06109282
:102440000E0510920D051092100510920F051092B6
:102450001205109211051092140510921305109296
:102460001605109215051092180510921705109276
:102470001A051092190510921C0510921B05109256
:102480001E0510921D051092200510921F05109236
:102490002205109221051092240510922305109216
:1024A00026051092250510922805109227051092F6
:1024B0002A051092290510922C0510922B051092D6
:1024C0002E0510922D051092300510922F051092B6
:1024D0003205109231051092340510923305109296
:1024E0003605109235054AE756E05093380540937B
:1024F00037051092390510923A0510923B0510925B
:10250000400510923F0510924205109241059093AC
:10251000440580934305909346058093450583E0E9
:1025200080934705109248051092490510924A057C
:1025300010924B051092CC05ECE4F5E0DF011D9202
:102540002A95E9F71092CF051092D0051092D10587
:102550001092D2051092D3051092D4051092D50591
:102560001092D6051092D7051092D8051092D90571
:102570001092DA051092DB051092DC0580E190E004
:102580009093FC048093FB048AE090E09093FE0417
:102590008093FD048FE090E0909300058093FF040A
:1025A00061E080E10E94DF0161E08091FD040E9412
:1025B000DF0161E08091FF040E94DF0161E0809112
:1025C000FD040E94B10165E170E083EE94E00E9499
:1025D000941064E170E08BEC94E0DF91CF910C9467
:1025E0009410CF93DF93CDB7DEB7CC5CD1090FB693
:1025F000F894DEBF0FBECDBF789484B5826084BDF1
:1026000084B5816084BD85B5826085BD85B58160F6
:1026100085BD80916E00816080936E001092810074
:10262000809181008260809381008091810081602F
:1026300080938100809180008160809380008091F0
:1026400091008260809391008091910081608093DD
:102650009100809190008160809390008091C100F2
:1026600084608093C1008091C10082608093C1002A
:102670008091C10081608093C1008091C30081601E
:102680008093C3008091C00082608093C0008091DD
:10269000C20081608093C20080917A008460809340
:1026A0007A0080917A00826080937A0080917A002B
:1026B000816080937A0080917A00806880937A00AC
:1026C0001092930110929201109291018091D70083
:1026D00081608093D70080EA8093D80089B58061BB
:1026E00089BD89B5826089BD09B400FEFDCF61E076
:1026F00070E080E090E00E9440028091D8008F7CE2
:1027000080618093D8008091E000807F8093E0001A
:102710008091E1008E7E8093E1008DE08093E20065
:10272000559A209A40E06AE08BEF94E00E94D0092D
:1027300082E090E0909302058093010540E06FE015
:102740008BEF94E00E94D00941E06BE08BEF94E0C6
:102750000E94D00940E069E08BEF94E00E94D0092C
:102760008BEF94E00E94F60941E06CE08BEF94E07F
:102770000E94D00982E08093070583E080930805DA
:1027800084E08093090585E080930A055BE0C52E0F
:1027900055E0D52E07E015E061E0D8018D918D015F
:1027A0000E94DF01C016D106B9F76AE070E080E050
:1027B00090E00E94400288E080930B0560E00E9458
:1027C000DF0189E080930C0560E00E94DF0161E099
:1027D00081E00E94DF0161E081E00E94B10161E0DF
:1027E00081E10E94DF0162E085E10E94DF0162E099
:1027F00084E10E94DF0160E088E00E94DF0160E088
:1028000089E00E94DF0182E390E0A0E0B0E08093E5
:10281000E5049093E604A093E704B093E804809362
:10282000CD049093CE04A093CF04B093D00485E15F
:102830000E948801892B91F460E081E10E94B1013E
:102840000E947202603A7F408105910510F00C945D
:10285000F71F85E10E948801892B91F38DEF93E0AA
:102860000E94762208E311E0F80125913491821349
:1028700015C08EEF93E00E947622E7E3F1E0259108
:10288000349182130BC08FEF93E00E947622E6E32F
:10289000F1E025913491821709F44EC145E0C42E30
:1028A000D12C61E081E10E94B1016CE271E080E035
:1028B00090E00E94400260E081E10E94B1016CE280
:1028C00071E080E090E00E944002F1E0CF1AD10870
:1028D00041F733E0F32E8BEF94E00E94F60940E1DC
:1028E00062E08BEF94E00E94D00964E670E080E043
:1028F00090E00E9440028BEF94E00E94F60948E1CC
:1029000062E08BEF94E00E94D00964E670E080E022
:1029100090E00E9440028BEF94E00E94F6094CE1A7
:1029200062E08BEF94E00E94D00964E670E080E002
:1029300090E00E9440028BEF94E00E94F6094DE087
:1029400062E08BEF94E00E94D00964E670E080E0E2
:1029500090E00E9440028BEF94E00E94F60945E06F
:1029600062E08BEF94E00E94D00941E061E08BEFE0
:1029700094E00E94D00964E670E080E090E00E945C
:1029800040028BEF94E00E94F60941E062E08BEF99
:1029900094E00E94D00941E261E08BEF94E00E9454
:1029A000D00964E670E080E090E00E9440028BEF86
:1029B00094E00E94F60941E661E08BEF94E00E940A
:1029C000D00964E670E080E090E00E9440028BEF66
:1029D00094E00E94F60942E661E08BEF94E00E94E9
:1029E000D00964E670E080E090E00E9440028BEF46
:1029F00094E00E94F60942E461E08BEF94E00E94CB
:102A0000D00940E162E08BEF94E00E94D00964E6D7
:102A100070E080E090E00E9440028BEF94E00E9422
:102A2000F609FA94F11057CF1A82198260E09E01DC
:102A30002F5F3F4F6901C9010E94DB0B81E0898351
:102A400029E331E080E096E0A1E0F901659174911D
:102A5000AB015527F601699FE00DF11D112481831B
:102A600060E2680F6283A483138215824F5F5F4F19
:102A7000949FF001959FF00D1124EC0DFD1D108227
:102A80008F5F2F5F3F4F803201F7662477246C18E9
:102A90007D0825E0F22E460131EC830E911C560193
:102AA000D5016D915D01CD01860D971DCE53DF4F90
:102AB00099838883C25CD040CE018E539F4F0E9481
:102AC000DB0BA814B90461F7FA94B1EC6B0E711C1E
:102AD000F110E5CFF801659174918DEF93E0CE533D
:102AE000DF4F99838883C25CD040CE018E539F4FC5
:102AF0000E94DB0BE7E3F1E0659174918EEF93E0C8
:102B0000CE53DF4F99838883C25CD040CE018E5371
:102B10009F4F0E94DB0BE6E3F1E0659174918FEF2C
:102B200093E0CE53DF4F99838883C25CD040CE01BF
:102B30008E539F4F0E94DB0B90E080E00E94762234
:102B40000E94780B87E29AE090937D0680937C0642
:102B500084E89AE090930E0580930D0584EF9BE046
:102B600090938F0680938E068DE79BE09093890665
:102B70008093880690931A0580931905E091A60624
:102B8000F091A70615821482168615861486138680
:102B90001092A8061092AA061092A9061092B106E9
:102BA0001092B0061092AF061092AE060FEF1FEF14
:102BB0001093B3060093B2061093B5060093B406C3
:102BC0000E94720260933E0770933F078093400714
:102BD0009093410710923B071092B8061092B706E7
:102BE0001092B9061092BA0610923D0710923C0757
:102BF0008091B606817082608E7F8093B606E091E8
:102C00003705F09138050190F081E02DA089B18958
:102C100082E08C93A485B5851C92A685B7858FE349
:102C20008C93108EA489B58986E08C93A289B38990
:102C30008C9180618C93A289B3898C9188608C93EC
:102C4000A289B3898C9180688C930288F389E02DE6
:102C500080818F7D80831092390510923B05109200
:102C60003A051092420510924105109240051092CB
:102C70003F051093440500934305109346050093C8
:102C800045050E9472026093CF057093D005809332
:102C9000D1059093D2051092CC051092490510925F
:102CA000480510924A0510924B051092CE051092DD
:102CB000CD058091470581708260816080934705D2
:102CC0006EEF8091A6069091A7060E94C308882304
:102CD00069F06EEF8091A6069091A7060E945708B2
:102CE0008091A6069091A7060E942C086EEF87E3BC
:102CF00095E00E94120815E041E061E08BEF94E05E
:102D00000E94D00948E062E08BEF94E00E94D00975
:102D100060EA70E080E090E00E9440028BEF94E077
:102D20000E94F60940E461E08BEF94E00E94D00934
:102D300041E062E08BEF94E00E94D00960EA70E02D
:102D400080E090E00E9440028BEF94E00E94F60940
:102D500048E061E08BEF94E00E94D00940E462E03B
:102D60008BEF94E00E94D00960EA70E080E090E090
:102D70000E9440028BEF94E00E94F609115009F086
:102D8000BBCF0E9472026093030570930405809389
:102D90000505909306058BEF482E83E0582E612C95
:102DA000712C22242394312C0FE7F02E14E9812E6C
:102DB00011E0912E0DE913E0CC53DF4F19821882F8
:102DC000C45CD040B7E0AB2EB5E0BB2ED12CC12CFB
:102DD000CC53DF4F68817981C45CD0400C2C02C099
:102DE000759567950A94E2F76170F50181915F012D
:102DF0000E94B101FFEFCF1ADF0A24E0C216D1040E
:102E000039F781E090E0CC53DF4F3881C45CD0408B
:102E1000303110F490E080E0895F9A4FDC01149625
:102E2000EC91E23108F0E251F0E0E75AFE4FE49114
:102E300090917B008E2F880F880F80729F7D892B49
:102E400080937B00E770E064E0937C0080917A00DF
:102E5000806480937A0080917A0086FDFCCF809117
:102E6000780060917900762F682F90E080E00E94D2
:102E70007B212DEC3CEC4CE45EE30E94B8215B012D
:102E80006C01F4016081718190E080E00E947B21FF
:102E90002DEC3CEC4CE45FE30E94B8219B01AC01BB
:102EA000C601B5010E9449230E94B5239B01D401AC
:102EB00011967C936E93F801A4801296CD90DC90CD
:102EC0001397F5E0AF124AC0C616D70609F48FC0B3
:102ED00014964D915C9115974617570709F487C0D2
:102EE00016964D915C914617570709F480C0AFEFD5
:102EF000BFE30E941F23A30192010E94BE22C901C9
:102F0000880F892F881F990B9195B82EE22EE69491
:102F1000D8011396DC908FEF8D0D803110F0D0909A
:102F20009D03F3E0AF1609F447C1FA1508F4E1C0B8
:102F300021E0A21609F4E4C032E0A31609F414C19A
:102F4000F40184819581978386838281938195831F
:102F50008483808191819383828349C0AFEFBFE3F3
:102F60000E941F23A30192010E94BE22220F232F41
:102F7000221F330B3195B22E9601AFEFBFE30E94B3
:102F80001F23A30192010E94BE22F7E055954795A9
:102F900037952795FA95D1F7B21649F1D4011496D1
:102FA0002D913C91AFEFBFE30E941F23A30192013B
:102FB0000E94BE2277E055954795379527957A95DB
:102FC000D1F7B216A1F0F40126813781AFEFBFE34C
:102FD0000E941F23A30192010E94BE2267E0559523
:102FE0004795379527956A95D1F7B21291CFCC5373
:102FF000DF4F28813981C45CD0402F5F3F4FCC53D5
:10300000DF4F39832883C45CD04038E0830E911CA5
:103010000A5F1F4FCC53DF4F48815981C45CD040B9
:103020004032510509F0CECEC090390550E15C1513
:1030300008F433C1E0913705F09138058081918122
:10304000DC01ED91FC910084F185E02D0995892B3F
:1030500009F423C18091DC058E7F8093DC05E0912B
:103060003705F091380580819181DC01ED91FC916B
:103070000284F385E02D0995182F8D3F09F40DC1C9
:103080008091410590914205009709F08EC21093FE
:103090003C0500913A05802F0E94F8060E94060721
:1030A000882351F017FD08C000933C0510933D059F
:1030B000309242052092410510913C05812F0E94DB
:1030C000F806813F09F43BC208F0D0C1803B49F0CB
:1030D00008F0C5C0803929F0803A19F0803809F02D
:1030E000C6C093E0892E912C9092400580923F05B6
:1030F0002CC244E0A41609F48DC055E0A51220CFDF
:10310000D80115968C91882331F0BF2DBB19BB2EA9
:10311000EF2DEE19EE2ED80111968C91B5E04D2DC4
:103120006B2DAB1219C00E940C084D2D6E2DF801AD
:1031300082810E940C084D2D6B2DD80111968C9127
:103140000E942F094D2D6E2DF80182810E942F09BA
:1031500081E00E940F0AF4CE0E940C084D2D6B2DC9
:10316000D80111968C91F2CFF8018581CF2CCB1824
:10317000811101C0CB2CD80116968C91882319F0AF
:10318000BF2DBB19BB2E4D2D6C2DF80181810E94E6
:103190000C084D2D6B2DD80112968C910E940C08B5
:1031A0004D2D6C2DF80181810E942F094D2D6B2D25
:1031B000D80112968C91CACFF8018581882319F025
:1031C000FF2DFB19BF2ED80111966C916F774D2DF5
:1031D00083E60E940C08F80161816F774D2D83E62C
:1031E0000E942F09D80112966C916F774D2D82E6BF
:1031F0000E940C08F80162816F774D2D82E60E94D3
:103200002F094D2D6B2D86E00E940C084D2D6B2D46
:1032100086E09CCFD80115968C91882319F0BF2D9C
:10322000BB19BB2EF80161816F774D2D85E60E9499
:103230000C08D80111966C916F774D2D85E60E9490
:103240002F09F80162816F774D2D84E60E940C08EA
:10325000D80112966C916F774D2D84E6D0CF803DCA
:1032600009F46DC108F0F0C0803C09F468C1809198
:10327000DC0581608093DC05E0910F05F09110057D
:10328000309709F00995109242051092410510926D
:10329000400510923F0510923A05D090A806F0E143
:1032A000FD1540F10091A6061091A706D8011B96C6
:1032B0008D919C91892B09F4D9C280914B078E7F07
:1032C00080934B07E091A606F091A7068585968529
:1032D0009C012F5F3F4F368725878E0F9F1FDC0194
:1032E00017961C91838594850197948783871D3F4A
:1032F00009F005C483EE94E00E9497068BEC94E0FD
:103300000E9497068091EF049091F004019799F440
:103310008091F1049091F204892B69F481E080930B
:1033200064040E94720260935F047093600480934F
:103330006104909362048091D7049091D80401971E
:1033400099F48091D9049091DA04892B69F481E091
:10335000809363040E94720260935F047093600420
:1033600080936104909362048091EF049091F00443
:10337000892B49F48091F1049091F204019719F49A
:1033800081E00E94830B8091D7049091D804892B0F
:1033900049F48091D9049091DA04019719F480E0FE
:1033A0000E94830B10916404111104C08091630486
:1033B000882331F10E94720280905F049090600433
:1033C000A0906104B0906204681979098A099B0988
:1033D0006D3F73408105910598F0112331F01092F3
:1033E0005E0480919D030E94360B809163048823C4
:1033F00039F081E080935E0480919C030E94140B5D
:103400000E947202009103051091040520910505A8
:1034100030910605601B710B820B930B66397105A9
:103420008105910520F08BEF94E00E94F609E0E021
:10343000F0E0EF2B09F4BACC0E942105882309F4AF
:10344000B3CC0E940000B0CC803E09F44ACE803F4D
:1034500009F00DCF00E8A02EB12CB0924005A0924B
:103460003F0510923A0580934C056FC0873F91F35A
:1034700008F05EC0833F09F462C008F432CE863F94
:1034800009F0F5CE809349051092480510924A053F
:1034900010924B0581E08093CC051092420510926A
:1034A00041051092400510923F05809149058039F1
:1034B00039F480914B05811103C080E88093490560
:1034C000809149058058813630F480914805C816AE
:1034D00011F0C11004C08DE095E00E941507909195
:1034E0004705392F317090FFD8CE892F8E7F09F490
:1034F000D4CE8091490520E8280F213608F031C14B
:1035000020914805C21619F031E0C11030E09695BF
:10351000923009F41FC1933009F420C1913009F0B1
:10352000BCCE40914B0560914A050E942008B5CE63
:103530008D3F08F4A7CF8E3F08F0A4CF98CEE2E0ED
:10354000F0E0F0934005E0933F0520914105309174
:10355000420540913F0550914005415051092417C3
:103560003507E0F0809349051F701F5F10934805F1
:1035700080913D0580934A0510924B053092CE050F
:103580002092CD05109242051092410510924005FF
:1035900010923F0581E08093CC0587CF2F5F3F4F8E
:1035A000309342052093410578CE17FF0CC01D3F94
:1035B00008F050C0183F08F050C0103F09F45AC03E
:1035C000173F09F457C020913C05FC01E35FFA4F17
:1035D000203F19F0273F09F077C017AF80903F05D3
:1035E000909040059401215031098217930708F407
:1035F000ABC0B0903C05B0EFBB1619F0E7EFBE12C0
:1036000065C01091CB0580EF8093CB058093490571
:1036100080E880934A0510924B0510924805B0E867
:103620008B2E912C9092CE058092CD0581E08093D7
:10363000CC058DE095E00E94150787EF80934C053F
:1036400010934D0512E0A12EB12CB0924205A0922C
:10365000410523CE1E3F08F4B6CF109349051092C2
:103660004A0510924B05109248053092CE052092E3
:10367000CD0590CF20914C05203F19F0273F09F050
:10368000F6CD9C012F5F3F4F835F9A4FDC01DF96A1
:103690001C9380EF8093490520934A0530934B0596
:1036A000109248053093CE052093CD0581E080939C
:1036B000CC051092420510924105109240051092DF
:1036C0003F0510923A05F1CE17A788CF8B2D0E94A7
:1036D000F806182F809349050E940607882349F1B0
:1036E0008B2D8F708F5F8093480580913D0580936F
:1036F0004A0580913E0523E08216910409F080E09E
:1037000080934B051092420510924105109240059E
:1037100010923F0581E08093CC05103B39F060F4B6
:10372000103921F0103A11F0103859F6B0923A05DC
:10373000BCCE10924805D9CF103DC1F3103EB1F375
:10374000103C09F0BECFF2CF0196909342058093D2
:103750004105A3CD332309F4A0CDE3CE31119DCD96
:10376000E0CEE0E1E80FE03108F097CDF0E0E5547D
:10377000F44E0C944223D11B221C031CF11B4D1947
:103780004D19CB1B4D19CB1B4D19CB1BCB1BCB1B89
:103790004D19CB1BCB1B682F87E395E00E941208C5
:1037A0007CCDC0904A05D0904B0531E8C316D104BA
:1037B00018F0A0E8CA2ED12C0DE015E0C8018D50FC
:1037C00095408C159D0508F068CDD801DF966C9169
:1037D00080913705909138050E94D5070F5F1F4FE4
:1037E000EDCF10914A0563EF809137059091380530
:1037F0000E94D507612F6F7780913705909138052A
:103800000E94D5074ACD00914B05B0E80B9F80017F
:10381000112480914A05082B62EF80913705909121
:1038200038050E94D507602F6F77809137059091FA
:1038300038050E94D507000F012F001F110B1195AD
:10384000602FD9CF80914A05E0E18E9FC0011124FD
:10385000807710914B051F70182B61EF8091370511
:10386000909138050E94D507612FC6CFF8011686C2
:1038700015868091940390919503A0919603B09141
:103880009703409198035091990360919A03709126
:103890009B03841B950BA60BB70B8F739927AA2745
:1038A000BB27892B8A2B8B2B09F487C08091980327
:1038B00090919903A0919A03B0919B03880F991F4F
:1038C000880F991FFC01EC56FD4F80819181C280C9
:1038D0008380C453DF4F8882CC5CD0402091940316
:1038E00030919503409196035091970380909803EF
:1038F00090909903A0909A03B0909B0328153905E6
:103900004A055B05D1F08090980390909903A090B0
:103910009A03B0909B032FEF821A920AA20AB20A6E
:103920003FE383229924AA24BB2480929803909297
:103930009903A0929A03B0929B03D8011F968C938F
:103940001F9750969C9350975196CC925197C45381
:10395000DF4FE881CC5CD0405296EC93529788239D
:1039600029F1282F30E064E0359527956A95E1F735
:1039700053966C9153976217130609F0BBCC8F7066
:10398000682F70E01B962D913C91FB01EE0FFF1FFD
:10399000E75DFE4FE181E13009F494C008F477C09F
:1039A000E23009F49FC0E33009F476C0F801838562
:1039B0009485892B09F49ECC80CC8091C2040E940E
:1039C0004C04882309F45BC0809094039090950385
:1039D000A0909603B09097032FEF821A920AA20A42
:1039E000B20A3FE383229924AA24BB24809198033E
:1039F00090919903A0919A03B0919B038815990522
:103A0000AA05BB0509F452CF8091C2040E944C0460
:103A100044E050E0BE016F5F7F4F8091C2040E947E
:103A2000D80304970CF442CF8091940390919503AE
:103A3000A0919603B0919703880F991F880F991F43
:103A40008C569D4F49815A816B817C81DC014D935D
:103A50005D936D937C93139780929403909295035A
:103A6000A0929603B0929703BFEF8B1A9B0AAB0A02
:103A7000BB0AEFE38E229924AA24BB24B7CFC453F8
:103A8000DF4F1882CC5CD040C12C90E027CF84302F
:103A900019F06730710599F4F801E20FF31F97836D
:103AA000C0862D5F3F4FD8011C963C932E931B97E9
:103AB000C453DF4FB881CC5CD040B18777CF65303D
:103AC000710561F4A9014F5F5F4FF8015487438787
:103AD000200F311FD90117969C9368CF663071056E
:103AE00009F064CFF801E20FF31F97832E5F3F4F79
:103AF000D8011C963C932E931B97C08657CF80917C
:103B0000B0069091B106009709F0FAC01093AB0689
:103B10000091A906802F0E94F8060E9406078823BC
:103B200051F017FD08C00093AB061093AC0630921D
:103B3000B1062092B0061091AB06812F0E94F806C4
:103B4000813F09F4A6C0F0F5803B39F070F480396C
:103B500021F0803A11F0803879F433E0A32EB12CB3
:103B6000B092AF06A092AE069BC0803D09F491C012
:103B7000D0F4803C09F48DC080914B078160809324
:103B80004B07E0917E06F0917F06309709F009958A
:103B90001092B1061092B0061092AF061092AE06C7
:103BA0001092A906A7CB803EC1F2803F29F720E8FA
:103BB00030E03093AF062093AE061092A9068093B2
:103BC000BB066EC0873F99F308F05CC0833F09F4E1
:103BD00060C018F2863F81F68093B8061092B7064F
:103BE0001092B9061092BA0681E080933B071092BA
:103BF000B1061092B0061092AF061092AE068091F8
:103C0000B806803939F48091BA06811103C080E882
:103C10008093B8068091B8068058813630F4809140
:103C2000B706D81611F0D11004C08CE796E00E94B8
:103C300015079091B606392F317090FF5BCB892F15
:103C40008E7F09F457CB8091B80620E8280F2136E3
:103C500008F032C12091B706D21619F031E0D11028
:103C600030E09695923009F420C1933009F421C1D7
:103C7000913009F03FCB4091BA066091B9060E949D
:103C8000A50938CB8D3F08F4A7CF8E3F08F0A4CF0D
:103C900073CF42E0842E912C9092AF068092AE06B4
:103CA0002091B0063091B1064091AE065091AF061A
:103CB0004150510924173507E0F08093B8061F7072
:103CC0001F5F1093B7068091AC068093B9061092DF
:103CD000BA0630923D0720923C071092B10610922E
:103CE000B0061092AF061092AE0681E080933B07BB
:103CF00086CF2F5F3F4F3093B1062093B006FACAAC
:103D000017FF0CC01D3F08F050C0183F08F050C00E
:103D1000103F09F45AC0173F09F457C02091AB0671
:103D2000FC01E458F94F203F19F0273F09F077C014
:103D300017AF8090AE069090AF06940121503109E4
:103D40008217930708F4ABC0B090AB06B0EFBB1678
:103D500019F0E7EFBE1265C010913A0780EF80932B
:103D60003A078093B80680E88093B9061092BA06A5
:103D70001092B70690E8892E912C90923D07809280
:103D80003C0781E080933B078CE796E00E94150793
:103D900087EF8093BB061093BC0622E0A22EB12CC5
:103DA000B092B106A092B006A5CA1E3F08F4B6CFE5
:103DB0001093B8061092B9061092BA061092B70680
:103DC00030923D0720923C0790CF2091BB06203FC8
:103DD00019F0273F09F0D0CE9C012F5F3F4F845848
:103DE000994FDC01DF961C9380EF8093B8062093F7
:103DF000B9063093BA061092B70630933D07209368
:103E00003C0781E080933B071092B1061092B00608
:103E10001092AF061092AE061092A906F0CE17A728
:103E200088CF8B2D0E94F806182F8093B8060E9429
:103E30000607882349F18B2D8F708F5F8093B7061B
:103E40008091AC068093B9068091AD0623E082167E
:103E5000910409F080E08093BA061092B1061092A6
:103E6000B0061092AF061092AE0681E080933B0739
:103E7000103B39F060F4103921F0103A11F010388D
:103E800059F6B092A906BBCE1092B706D9CF103D15
:103E9000C1F3103EB1F3103C09F0BECFF2CF019652
:103EA0009093B1068093B00625CA332309F422CA41
:103EB000E2CE31111FCADFCEE0E1E80FE03108F0B9
:103EC00019CAF0E0EA59F04E0C9442237C1FDA1F25
:103ED000AF1F8D1F7A197A19761F7A19761F7A19F2
:103EE000761F761F761F7A19761F761F682F86EA4F
:103EF00096E00E947F09FEC96091B9067091BA06EA
:103F00006138710510F060E870E021E04BEB56E09D
:103F100086EA96E00E943509EDC91091B90663EF73
:103F20008091A6069091A7060E94C308882309F4F1
:103F3000E1C963EF8091A6069091A7060E945708F9
:103F4000612F6F778091A6069091A7060E9457086F
:103F50008091A6069091A7060E942C08CBC91091CB
:103F6000B9060091BA0662EF8091A6069091A70665
:103F70000E94C308882309F4BDC930E8039FB0013B
:103F80001124AB01412B8A0162EF8091A60690912A
:103F9000A7060E945708602F6F778091A606909120
:103FA000A7060E945708000F012F001F110B119543
:103FB000602FC7CF0091BA061091B90661EF8091CA
:103FC000A6069091A7060E94C308882309F492C907
:103FD00061EF8091A6069091A7060E94570850E1D4
:103FE000159FB001112460770F70602BABCF61E09B
:103FF00081E10E94B10164E170E080E090E00E9404
:10400000400260E081E10E94B10110E000E060E068
:10401000C8010E947E220F5F1F4F0115E4E01E07BA
:10402000B1F761E081E10E94B1010C942E14B0E07F
:10403000A0E0EDE1F0E20C94E9225C016B017A0171
:104040006115710519F0FB0191838083E114F1047E
:1040500051F0C7010297839730F040E030E020E054
:1040600090E072C05E01E5012196F5011081812F7B
:1040700090E00E942E21892BA9F71D3201F521968F
:10408000F501118101E0E114F10409F4DAC0F0E175
:10409000EF16F10409F082C0103359F488818F7D46
:1040A000883509F076C0198122960260F0E1EF2E82
:1040B000F12C812C912CA12C88E0B82E8CC01B32C5
:1040C00021F4E5012296F501118100E0DCCFEAE060
:1040D000EE16F10409F4BBC0F0E1EF16F10409F0AB
:1040E0006DC0E7CF78E0E72EF12C812C912CA12C2C
:1040F00060E1B62E70C03FE9310F3A3128F439EA59
:10410000332E80C021E09AC0302F3170C114D10409
:1041100031F0222309F12197F601D183C08327FFD3
:1041200021C060E070E080E090E8311104C06FEFE2
:104130007FEF8FEF9FE722E230E03093610720931B
:104140006007462F372F282F642F732F822FCDB76C
:10415000DEB7E1E10C94052301FF04C02297F601CC
:10416000D183C083332341F09095809570956195FC
:104170007F4F8F4F9F4FE5CF97FFE3CF82E290E0D5
:1041800090936107809360076FEF7FEF8FEF9FE75A
:10419000D8CF10E3E114F10409F4A4CF28E0E2162B
:1041A000F10409F4A2CF0CF092CF812C912CA12C18
:1041B000E0E4BE2E82E0E816F10469F060E070E011
:1041C00080E090E897010F2C000C440B550B0E94E7
:1041D0009C2249015A0120E060E070E0CB012701F8
:1041E0000F2C000C66087708FE0150ED352E310EBD
:1041F00039E0331540F43FEB310F3A3108F07BCF13
:1042000049EC342E310E3E141F040CF07DCF27FDF7
:1042100015C086169706A806B90678F0A301920184
:104220000E948C22630D711D811D911D61307105ED
:10423000810520E8920708F465CF2FEF21961081C1
:10424000D3CF103309F42ACF2AE0E22EF12C9CECD4
:10425000892E982CA82C9CE0B92EBDCF91110C94DE
:104260006821803219F089508550C8F70895BB271E
:104270002A3051F4992342F4BDE2909580957095CF
:1042800061957F4F8F4F9F4F0C944721BB27FA01B9
:10429000A62F6217710581059105330B30FB66F07F
:1042A000AA27660F771F881F991FAA1FA21710F051
:1042B000A21B63953850A9F7A05DAA3308F0A95D49
:1042C000A19336F7B111B1931082CA010C946B21FE
:1042D000992788270895DC01FC01672F71917723C6
:1042E000E1F7329704C07C916D9370836291AE17B1
:1042F000BF07C8F30895E89409C097FB3EF4909572
:104300008095709561957F4F8F4F9F4F9923A9F0AE
:10431000F92F96E9BB279395F6958795779567953D
:10432000B795F111F8CFFAF4BB0F11F460FF1BC081
:104330006F5F7F4F8F4F9F4F16C0882311F096E914
:1043400011C0772321F09EE8872F762F05C06623C2
:1043500071F096E8862F70E060E02AF09A95660F7B
:10436000771F881FDAF7880F9695879597F9089534
:104370000E94CB210C943C220E942E2238F00E94F5
:10438000352220F0952311F00C9425220C942B2239
:1043900011240C9470220E944D2270F3959FC1F35A
:1043A000950F50E0551F629FF001729FBB27F00DE3
:1043B000B11D639FAA27F00DB11DAA1F649F662738
:1043C000B00DA11D661F829F2227B00DA11D621F87
:1043D000739FB00DA11D621F839FA00D611D221F41
:1043E000749F3327A00D611D231F849F600D211D25
:1043F000822F762F6A2F11249F5750409AF0F1F0A8
:1044000088234AF0EE0FFF1FBB1F661F771F881F10
:1044100091505040A9F79E3F510580F00C94252201
:104420000C9470225F3FE4F3983ED4F38695779521
:104430006795B795F795E7959F5FC1F7FE2B880FB6
:10444000911D9695879597F9089597F99F6780E84C
:1044500070E060E008959FEF80EC089500240A94D6
:104460001616170618060906089500240A9412164F
:104470001306140605060895092E0394000C11F482
:10448000882352F0BB0F40F4BF2B11F460FF04C02F
:104490006F5F7F4F8F4F9F4F089557FD9058440F88
:1044A000551F59F05F3F71F04795880F97FB991F93
:1044B00061F09F3F79F08795089512161306140650
:1044C000551FF2CF4695F1DF08C0161617061806DD
:1044D000991FF1CF86957105610508940895E894B8
:1044E000BB2766277727CB0197F90895F999FECF67
:1044F00092BD81BDF89A992780B50895262FF99924
:10450000FECF1FBA92BD81BD20BD0FB6F894FA9AB6
:10451000F99A0FBE01960895DB018F939F930E9435
:10452000DD22BF91AF91A29F800D911DA39F900DA1
:10453000B29F900D11240895A1E21A2EAA1BBB1B55
:10454000FD010DC0AA1FBB1FEE1FFF1FA217B3075F
:10455000E407F50720F0A21BB30BE40BF50B661F75
:10456000771F881F991F1A9469F760957095809539
:1045700090959B01AC01BD01CF010895052E97FBDD
:104580001EF400940E94D52257FD07D00E949C2261
:1045900007FC03D04EF40C94D522509540953095ED
:1045A00021953F4F4F4F5F4F08959095809570959F
:1045B00061957F4F8F4F9F4F08950E941F23A59FA6
:1045C000900DB49F900DA49F800D911D112408950E
:1045D0002F923F924F925F926F927F928F929F9213
:1045E000AF92BF92CF92DF92EF92FF920F931F9301
:1045F000CF93DF93CDB7DEB7CA1BDB0B0FB6F894B2
:10460000DEBF0FBECDBF09942A88398848885F84F1
:104610006E847D848C849B84AA84B984C884DF8062
:10462000EE80FD800C811B81AA81B981CE0FD11D46
:104630000FB6F894DEBF0FBECDBFED010895A29F67
:10464000B001B39FC001A39F700D811D1124911D66
:10465000B29F700D811D1124911D0895AA1BBB1BD3
:1046600051E107C0AA1FBB1FA617B70710F0A61B72
:10467000B70B881F991F5A95A9F780959095BC0193
:10468000CD010895EE0FFF1F0590F491E02D0994E0
:104690005058BB27AA270E9460230C943C220E94FA
:1046A0002E2238F00E94352220F039F49F3F19F471
:1046B00026F40C942B220EF4E095E7FB0C942522B3
:1046C000E92F0E944D2258F3BA1762077307840737
:1046D000950720F079F4A6F50C946F220EF4E0957E
:1046E0000B2EBA2FA02D0B01B90190010C01CA01AC
:1046F000A0011124FF27591B99F0593F50F4503E57
:1047000068F11A16F040A22F232F342F4427585F48
:10471000F3CF469537952795A795F0405395C9F760
:104720007EF41F16BA0B620B730B840BBAF0915018
:10473000A1F0FF0FBB1F661F771F881FC2F70EC0B7
:10474000BA0F621F731F841F48F48795779567958A
:10475000B795F7959E3F08F0B0CF9395880F08F076
:104760009927EE0F9795879508950E94552288F016
:104770009F5798F0B92F9927B751B0F0E1F0660F25
:10478000771F881F991F1AF0BA95C9F714C0B13066
:1047900091F00E946F22B1E008950C946F22672F70
:1047A000782F8827B85F39F0B93FCCF38695779595
:1047B0006795B395D9F73EF490958095709561957E
:1047C0007F4F8F4F9F4F08950F931F93CF93DF938A
:1047D0008230910510F482E090E0E0916407F0915E
:1047E000650730E020E0B0E0A0E0309799F42115B3
:1047F000310509F44AC0281B390B24303105D8F59E
:104800008A819B816115710589F1FB019383828304
:10481000FE0111C04081518102811381481759075F
:10482000E0F04817590799F4109761F012960C932D
:10483000129713961C933296CF01DF91CF911F915F
:104840000F9108950093640710936507F4CF211525
:10485000310551F04217530738F0A901DB019A01E5
:10486000BD01DF01F801C1CFEF01F9CF90936507DA
:1048700080936407CDCFFE01E20FF31F81939193E4
:104880002250310939832883D7CF20916207309194
:104890006307232B41F420911501309116013093C9
:1048A00063072093620720911301309114012115B1
:1048B000310541F42DB73EB74091170150911801D1
:1048C000241B350BE0916207F0916307E217F307B1
:1048D000A0F42E1B3F0B2817390778F0AC014E5F70
:1048E0005F4F2417350748F04E0F5F1F5093630743
:1048F00040936207819391939FCFF0E0E0E09CCFDB
:10490000CF93DF930097E9F0FC0132971382128274
:10491000A0916407B0916507ED0130E020E01097A9
:10492000A1F420813181820F931F20916207309181
:1049300063072817390709F061C0F0936307E09314
:104940006207DF91CF910895EA01CE17DF07E8F5FE
:104950004A815B819E0141155105B1F7E901FB8355
:10496000EA8349915991C40FD51FEC17FD0761F4F3
:10497000808191810296840F951FE9019983888334
:10498000828193819B838A83F0E0E0E012968D918F
:104990009C9113970097B9F52D913C911197CD01FA
:1049A0000296820F931F20916207309163072817A8
:1049B000390739F6309751F5109265071092640760
:1049C000B0936307A0936207BCCFD383C2834081B7
:1049D0005181840F951FC817D90761F44E5F5F4F4F
:1049E00088819981480F591F518340838A819B8117
:1049F000938382832115310509F0B0CFF0936507C9
:104A0000E09364079ECFFD01DC01C0CF13821282C8
:104A1000D7CFB0E0A0E0EFE0F5E20C94EA228C0101
:104A2000009751F4CB010E94E4238C01C801CDB75B
:104A3000DEB7E0E10C940623FC01E60FF71F9C01B2
:104A400022503109E217F30708F49DC0D901CD9136
:104A5000DC911197C617D70798F0C530D10530F310
:104A6000CE0104978617970708F3C61BD70B22972A
:104A7000C193D1936D937C93CF010E948024D6CFB4
:104A80005B01AC1ABD0A4C018C0E9D1EA0916407FF
:104A9000B0916507512C412CF12CE12C109731F588
:104AA00080916207909163078815990509F05CC0B1
:104AB0004616570608F058C08091130190911401D2
:104AC000009741F48DB79EB740911701509118019E
:104AD000841B950BE817F90708F055C0F09363079E
:104AE000E0936207F90171836083A0CF8D919C915F
:104AF000119712966C90129713967C901397A815A5
:104B0000B90559F56C0142E0C40ED11CCA14DB048E
:104B100020F1AC014A195B09DA011296159780F071
:104B20006282738251834083D9016D937C93E11437
:104B3000F10471F0D7011396FC93EE93129776CFA0
:104B400022968C0F9D1FF90191838083F301EFCF93
:104B5000F0936507E093640769CF4816590608F497
:104B60002C017D01D3019ACFCB010E94E4237C016B
:104B7000009749F0AE01B8010E94C625C8010E9405
:104B80008024870153CF10E000E050CFFB01DC010F
:104B900002C001900D9241505040D8F70895FB019A
:104BA000DC0101900D920020E1F70895F894FFCF09
:104BB000FFFFFFFF00E100000000000000C1808156
:104BC000000000000066078000000080089009A037
:104BD0000AB00BC00CD00DE00E0000010002020371
:104BE000030400050006000700080309030A030B7D
:104BF000030C020D020E030F01000000002601C28B
:104C0000032303880255042A04020400000000560E
:104C1000057204E404A2051505F30407050000006D
:0E4C200000C505C705C205380D4D49444900C1
:00000001FF
